:040000006EEF00F0AF
:100008004782FACF04F0FBCF05F0E9CF06F0EACF3C
:1000180007F0E1CF08F0E2CF09F0D9CF0AF0DACF44
:100028000BF0F3CF0CF0F4CF0DF0F6CF0EF0F7CFC6
:100038000FF0F8CF10F0F5CF11F047C012F048C01C
:1000480013F049C014F04AC015F0F2AC1DD00E01EF
:10005800C5B3CDA30AD001D817D00500FA6E445015
:10006800FD6E4550FE6E46500CD0C5B1CDA10CD0EA
:1000780001D80AD00500FA6E4150FD6E4250FE6E5E
:100088004350FF6EFA50120015C04AF014C049F0F0
:1000980013C048F012C047F011C0F5FF10C0F8FFB8
:1000A8000FC0F7FF0EC0F6FF0DC0F4FF0CC0F3FF42
:1000B8000BC0DAFF0AC0D9FF09C0E2FF08C0E1FFA0
:1000C80007C0EAFF06C0E9FF05C0FBFF04C0FAFF4E
:1000D80047921100A2EF05F0B5EC07F0F28EF28C12
:1000E800170E0001DB6F300EDC6F67EC07F0000EB7
:1000F8000001E86F000EE76F20EE8AF010EEDDF0E9
:10010800070EDBCFE3FFE806FCE2FF0EE725166EDD
:10011800FF0EE821176ED9EC06F0D8901636173680
:10012800D89016361736DD0E1624D96E000E172015
:10013800DA6EDECFD0F0DECFD1F0DECFD2F0DECF78
:10014800D3F00001D01FD11FD21FD31FD02B000E18
:10015800D123D223D3232EEC02F00001D46FD45143
:10016800D025D56F000ED121D66F000ED221D76FC2
:10017800000ED321D86FDD0ED96F000EDA6FD8903C
:10018800E735D96EE835DA6ED890D936DA36D951EE
:10019800D926DA51DA22D5C0DEFFD6C0DEFFD7C0B5
:1001A800DEFFD8C0DEFFDD0ED06F000ED16FD89015
:1001B800E735D96EE835DA6ED890D936DA36D051C7
:1001C800D926D151DA22030EDBBE0FD0030EDB5045
:1001D8000AE1020EDB5007E1010EDB5004E12F0EAD
:1001E800DE5CD8A002D0839401D08384000EE66F31
:1001F800000EE56FE6BF06D0E65187E1140EE55D17
:10020800D8B083D7210E0001D06F760EE82EFED726
:10021800D02FFCD700F00001E54BE62BE6BFF2D764
:10022800E65101E1EBD771D76C0E266E280E276ECA
:10023800200E77EC01F00001C66F720E266E200EBC
:10024800276E200E77EC01F00001C76F6C0E266E4A
:10025800180E276E210E77EC01F00001C86F720EA0
:10026800266E100E276E210E77EC01F00001C96F83
:100278006C0E266E080E276E220E77EC01F0000138
:10028800CA6F720E266E000E276E220E77EC01F0F2
:100298000001CB6FC751C6C03DF03E6A3D26000E37
:1002A8003E22C8513D26000E3E22C9513D26000E71
:1002B8003E22CA513D26000E3E22CB513D26000E5D
:1002C8003E223DC0C2F03EC0C3F0000EC3BFFF0EC9
:1002D800C46FC56FC2C039F0C3C03AF0C4C03BF0A8
:1002E800C5C03CF01200356E410E2618D8B40CD0AB
:1002F800610E2618D8B408D0720E2618D8B404D0C7
:10030800520E2618D8A402D0120E01D0130E326E47
:10031800320E216E000E226E000E246E010E236E28
:100328003550EEEC04F0360E1B6E000E1C6E000EFF
:100338001E6E010E1D6E35502FEC06F0361E000E97
:10034800346E000E386E000E376E38BE06D0385048
:1003580027E1080E375CD8B023D02A0E3724D96E8F
:10036800000E3820DA6E37C028F0020E296E282ACF
:1003780002D0D8902936282EFCD729503614DF6EA3
:100388002A0E3724D96E000E3820DA6EDF50286E18
:10039800275037242802F3503426374A382AD5D72D
:1003A80034501200196E010E1A6E000160B350D05D
:1003B80019C061F06091608360970E0E6A6F010E3C
:1003C800696FF40E686F6085A60E6C6F100E6D6F06
:1003D800000E6E6F000E7E6F000E7F6FA60E6F6FA1
:1003E800100E706F000E716F000E806F000E816F1F
:1003F800A60E726F100E736F000E746F000E826F70
:10040800000E836FA60E756F100E766F000E776F55
:10041800000E846F000E856F9C0E786F100E796F3A
:10042800000E7A6F000E866F000E876F73EC07F070
:1004380090EC08F03E0E166E110E176E05EC08F0E3
:10044800400E166E090E176EFEEC07F0000E1A6EBF
:100458001A501200000E0001CF6F18EC01F039504D
:100468000001CC6F18EC01F039500001CF6F10D0AB
:1004780018EC01F039500001CF6F020E406E450EA6
:100488003F6EAA0EE82EFED73F2EFCD7402EFAD795
:100498000001CC51CF19D8B4EBD7000ECE6F000EA7
:1004A800CD6FCEBF06D0CE511FE1280ECD5DD8B09E
:1004B8001BD018EC01F039500001CF6FCC51CF1987
:1004C800D8B404D0000ECE6F000ECD6FCFC0CCF0E4
:1004D800210E3F6E760EE82EFED73F2EFCD700D0B9
:1004E8000001CD4BCE2BDDD7CF51120047B20EEF16
:1004F80003F0AAEC07F0D8B00AD026D036EC08F002
:1005080012002FEC08F0120021EC08F0120084C051
:1005180021F085C022F020EE75F001D80AD0050040
:10052800FA6EDE50FD6EDE50FE6EDE50FF6EFA5043
:100538001200010AD8B4E8D7030AD8B4DFD7010AF1
:10054800D8B4DFD7070AE0D70001609762C0D9FFA7
:1005580063C0DAFF624B632BDF5060EC08F00001E8
:100568006407D8A0650764516511D8A404D0000EAB
:10057800186E060E03D0000E186E030E176E175075
:100588001200000E876E000E866E0C0E836E000E33
:10059800846E000E856E070E8C6EEB0E886E896871
:1005A800DF0E8A6E7F0E8B6EE70E0F01216F1969C1
:1005B800F70E266F070E2E6F1169880E256F000E35
:1005C8002D6F020E186F000E106F180E206F000EA0
:1005D8002C6F000E0F6F000E176F000E1F6F000EAE
:1005E800246F0F0E0E01FA6F100EFB6FB781B783E1
:1005F800B795B797B7890B0E0F01066F0E018D815E
:100608008D838D958D878D89B891B893B885B89766
:10061800B8891200C0EC07F0D8B00AD026D07CEC1C
:1006280008F0120078EC08F0120070EC08F01200E4
:1006380084C00CF085C00DF020EE75F001D80AD00A
:100648000500FA6EDE50FD6EDE50FE6EDE50FF6E67
:10065800FA501200010AD8B4E8D7030AD8B4DFD791
:10066800010AD8B4DFD7070AE0D70001609762C053
:10067800D9FF63C0DAFF624B632BDF5080EC08F0D0
:1006880000016407D8A0650764516511D8A404D097
:10069800000E036E060E03D0000E036E030E026EEC
:1006A8000250120047B20BEF04F0A5EC08F062C04C
:1006B800D9FF63C0DAFFDF6E0001624B632B64076A
:1006C800D8A0650764516511D8B404D08AEC08F045
:1006D800050E1200608506D00CEC08F0120013EC31
:1006E80008F012007EC021F07FC022F020EE6CF0EE
:1006F80001D80AD00500FA6EDE50FD6EDE50FE6E9F
:10070800DE50FF6EFA501200010AD8B4E8D7030A87
:10071800D8B4E2D7010AD8B4DFD7070AE0D71B6EEE
:10072800165017101810D8B41BD01B50030D6C0EA0
:10073800F324D96E000EF420DA6E16C0DEFF17C05F
:10074800DEFF18C0DEFF1B50020D7E0EF324D96EAB
:10075800000EF420DA6E19C0DEFF1AC0DDFF1200A9
:100768001B50030D6C0EF324D96E000EF420DA6EC4
:10077800A60EDE6E100EDE6E000EDE6E1B50020D33
:100788007E0EF324D96E000EF420DA6E000EDE6EB3
:10079800000EDD6E1200066E015002100310D8B470
:1007A8001BD00650030D6C0EF324D96E000EF420F6
:1007B800DA6E01C0DEFF02C0DEFF03C0DEFF0650B6
:1007C800020D7E0EF324D96E000EF420DA6E04C0FA
:1007D800DEFF05C0DDFF12000650030D6C0EF3248A
:1007E800D96E000EF420DA6E720EDE6E110EDE6E19
:1007F800000EDE6E0650020D7E0EF324D96E000E3A
:10080800F420DA6E000EDE6E000EDD6E1200B1EC22
:1008180008F062C0D9FF63C0DAFFDF6E0001624BE7
:10082800632B6407D8A0650764516511D8B404D058
:100838009CEC08F0050E1200608506D064EC08F008
:10084800120068EC08F012007EC00CF07FC00DF0BA
:1008580020EE6CF001D80AD00500FA6EDE50FD6E6D
:10086800DE50FE6EDE50FF6EFA501200010AD8B458
:10087800E8D7030AD8B4E2D7010AD8B4DFD7070A01
:10088800E0D747B274EF04F0000160850AD028EC85
:1008980008F0120084EC08F0030E120021EC08F0B6
:1008A80012007EC021F07FC022F020EE6CF001D84B
:1008B8000AD00500FA6EDE50FD6EDE50FE6EDE5088
:1008C800FF6EFA501200010AD8B4E8D7030AD8B468
:1008D800DED7010AD8B4DBD7070AD8B4DBD7DED70E
:1008E800000160850AD074EC08F0120096EC08F05C
:1008F800030E120070EC08F012007EC00CF07FC0EE
:100908000DF020EE6CF001D80AD00500FA6EDE502A
:10091800FD6EDE50FE6EDE50FF6EFA501200010AC8
:10092800D8B4E8D7030AD8B4DED7010AD8B4DBD7DD
:10093800070AD8B4DBD7DED747B238EF05F090EC1A
:1009480008F0000160A707D0AAEC07F0D8A003D0F0
:100958000F0E00016A6F00016A51030D920EF32415
:10096800D96E000EF420DA6E01D80AD00500FA6EAE
:10097800DE50FD6EDE50FE6EDE50FF6EFA50120045
:1009880000016A6F120047B25CEF05F00001609742
:10099800020E6B6F06D028EC08F0120021EC08F06C
:1009A800120082C021F083C022F020EE72F001D83C
:1009B8000AD00500FA6EDE50FD6EDE50FE6EDE5087
:1009C800FF6EFA501200020AD8B4E5D7010AD8B46B
:1009D800E2D7E4D7256E2550D6EC01F00009D8B44B
:1009E800FAD721C016F022C017F023C018F024C08F
:1009F80019F041EC07F0920E1C6E100E1D6E000EE1
:100A08001E6E000E1F6E000E206EFCEC06F058ECF9
:100A180008F0EDEC06F0E806D8A41200FAD747B2C1
:100A280080EF05F020EE02F02150D9262250DA227C
:100A3800DECF16F0DDCF17F021C0D9FF22C0DAFFD4
:100A4800DECF18F0DDCF19F041EC07F0000E1C6E78
:100A5800000E1D6E000E1E6E000E1F6E000E206E24
:100A68000AEC07F0020E120093EC08F0000160A7F0
:100A780007D0C0EC07F0D8A003D00F0E00016A6FB2
:100A880000016A51030D920EF324D96E000EF42072
:100A9800DA6E01D80AD00500FA6EDE50FD6EDE501F
:100AA800FE6EDE50FF6EFA50120000016A6F1200EF
:100AB80000016097020E6B6F06D074EC08F012000C
:100AC80070EC08F0120082C00CF083C00DF020EE2C
:100AD80072F001D80AD00500FA6EDE50FD6EDE50C5
:100AE800FE6EDE50FF6EFA501200020AD8B4E5D747
:100AF800010AD8B4E2D7E4D720EE02F00C50D92688
:100B08000D50DA22DECF01F0DDCF02F00CC0D9FFA4
:100B18000DC0DAFFDECF03F0DDCF04F04EEC07F0B6
:100B2800000E076E000E086E000E096E000E0A6EAB
:100B3800000E0B6E26EC07F0020E1200C20EF66EC7
:100B48000C0EF76E000EF86E00EE92F010EE30F01C
:100B58000900F5CFEEFFE550E150FAE100EE60F054
:100B6800320EEE6AE806FDE1466A456A446A436A5F
:100B7800426A416A47904792000170EF00F047B21D
:100B880079EF06F021C016F022C017F0000E196E9A
:100B9800020E186E41EC07F0000E1C6E000E1D6E62
:100BA800000E1E6E000E1F6E000E206E0AEC07F07F
:100BB800020E120047B291EF06F021C016F022C0D3
:100BC80017F0000E196E010E186E41EC07F0000EBA
:100BD8001C6E000E1D6E000E1E6E000E1F6E000EA7
:100BE800206E0AEC07F0020E120047B2A9EF06F0D9
:100BF80021C016F022C017F0000E196E010E186EF3
:100C080041EC07F0000E1C6E000E1D6E000E1E6EED
:100C1800000E1F6E000E206E0AEC07F0040E120084
:100C280047B2C1EF06F021C016F022C017F0000E3F
:100C3800196E020E186E41EC07F0000E1C6E000EC5
:100C48001D6E000E1E6E000E1F6E000E206E0AEC4A
:100C580007F0040E12001F6E1F50D6EC01F00009B9
:100C6800D8B4FAD71BC016F01CC017F01DC018F076
:100C78001EC019F041EC07F05CEC08F0EDEC06F052
:100C8800E806D8A41200FAD7196E010E1A6E0001F0
:100C980060B111D06081000E1A6E1950D8B402D01C
:100CA800010E01D0020E6A6FADEC08F0CBEC07F034
:100CB800D8A034EC07F01A501200BA0F00280F0021
:100CC800120F00F40400AC0600A80F008A08006C9C
:100CD80010005E1000501000421000341000261062
:100CE800001810003E0F008E09000CC001F00DC066
:100CF80002F0000E046E020E036E4EEC07F0000EBA
:100D0800076E000E086E000E096E000E0A6E000EC9
:100D18000B6E26EC07F0020E12000CC001F00DC09D
:100D280002F0000E046E010E036E4EEC07F0000E8A
:100D3800076E000E086E000E096E000E0A6E000E99
:100D48000B6E26EC07F0020E12000CC001F00DC06D
:100D580002F0000E046E010E036E4EEC07F0000E5A
:100D6800076E000E086E000E096E000E0A6E000E69
:100D78000B6E26EC07F0040E12000CC001F00DC03B
:100D880002F0000E046E020E036E4EEC07F0000E29
:100D9800076E000E086E000E096E000E0A6E000E39
:100DA8000B6E26EC07F0040E120017AE0DD016C01D
:100DB80018F017C019F0181E191E184A192A18C059
:100DC80016F019C017F0120016C016F017C017F069
:100DD8001200010E166E000160B108D060936169BF
:100DE80090EC08F08DEC08F06BC016F0165012006D
:100DF8001CC016F01DC017F01EC018F01FC019F057
:100E080020C01AF0020E93EC03F012001CC016F07A
:100E18001DC017F01EC018F01FC019F020C01AF02E
:100E2800000E93EC03F01200000E0E01E16F000EAD
:100E3800E26F000EE36F000EE46F000EE56F000E28
:100E4800E66F120007C001F008C002F009C003F005
:100E58000AC004F00BC005F0000ECFEC03F012003E
:100E680008D0000E166E000E176E7EEC07F0A0EC90
:100E780004F0000160A11200F4D7000160A512007F
:100E880016C062F017C063F018C064F019C065F0AE
:100E980060951200000160A5120001C062F002C056
:100EA80063F003C064F004C065F060951200620E40
:100EB8000E01D86F000EDA6F000EDC6F030EDE6FC6
:100EC800200EDD6F1200080E0E019F6F900E9D6FB1
:100ED800240E9E6F330E9B6F000E9C6F120096BA05
:100EE8001200000E956E280E966E000E976E040E78
:100EF800936E12000E01CDB112000E01CDB1120099
:100F0800100EE82EFED700D0F8D747B2E6EF07F06C
:100F1800000160876151612560EC08F0030E120042
:100F280047B2EEEF07F000016087D880613560ECCA
:100F380008F0050E120047B2F6EF07F0BFEC08F014
:100F480000016091000E6B6F0E0E12009750BF0BE0
:100F58004009976E9738E832E832010B166E163062
:100F68001200AFEC08F018EC07F0C5EC02F05BECEF
:100F780007F067EC07F012009750BF0B4009976E17
:100F88009738E832E832010B016E013012000E0189
:100F9800C5A103D0166A162A01D0166A16301200A7
:100FA80047B23DEF08F000016097A7EC08F0040E87
:100FB800120047B243EF08F000016091000E6B6F1A
:100FC8000E0E1200000160876151612580EC08F067
:100FD800030E120000016087D880613580EC08F0AC
:100FE800050E1200C0EC08F000016091000E6B6F56
:100FF8000E0E120016C041F017C042F018C043F0A0
:10100800120016C044F017C045F018C046F0120090
:1010180047B264EF08F087EC08F0090E120047B2F7
:1010280068EF08F087EC08F00A0E120047B26CEF80
:1010380008F08AEC08F0050E120047B270EF08F0CD
:10104800A9EC08F0000E120047B274EF08F0ABEC00
:1010580008F0010E120047B278EF08F0ABEC08F088
:10106800020E120047B27CEF08F0ABEC08F0010E5C
:10107800120000016097B3EC08F0040E12000001A2
:101088006091000E6B6F0E0E120047B2B5EF08F0BC
:10109800030E120047B2B7EF08F0050E120047B270
:1010A800B9EF08F0010E1200000E48EC06F012002D
:1010B800010E48EC06F01200166E16C092FF1200E0
:1010C80099EC08F0090E120099EC08F00A0E1200CB
:1010D8009CEC08F0050E1200BBEC08F0000E1200A4
:1010E800BDEC08F0010E1200BDEC08F0020E120073
:1010F800BDEC08F0010E1200016E01C092FF120053
:101108000E01CD811200978A97881200979A9788C6
:1011180012000E01C59112000E01CD9112000E01B0
:10112800CD9112000E01CD811200978A9788120086
:10113800979A97881200A2EC08F012000E01CD933E
:10114800120092501200978612009784120097821C
:10115800120097801200F29A12009250120097869D
:101168001200030E1200050E1200010E12009784E1
:0A117800120097821200120012000C
:020000040020DA
:10000000FF0FFF0FFF0FFF0FFF0FFF0FFF0FFF0F80
:020000040030CA
:0C000000ECFFFFFF9FFFFFFFFFFFFFFF73
:00000001FF
