:040000006EEF00F0AF
:100008004A82FACF34F0FBCF35F0E9CF36F0EACFA9
:1000180037F0E1CF38F0E2CF39F0D9CF3AF0DACF84
:100028003BF0F3CF3CF0F4CF3DF0F6CF3EF0F7CF06
:100038003FF0F8CF40F0F5CF41F04AC042F04BC056
:1000480043F04CC044F04DC045F0F2AC1DD00E0159
:10005800C5B3CDA30AD001D817D00500FA6E2E502B
:10006800FD6E2F50FE6E30500CD0C5B1CDA10CD016
:1000780001D80AD00500FA6E2B50FD6E2C50FE6E8A
:100088002D50FF6EFA50120045C04DF044C04CF0A0
:1000980043C04BF042C04AF041C0F5FF40C0F8FFF2
:1000A8003FC0F7FF3EC0F6FF3DC0F4FF3CC0F3FF82
:1000B8003BC0DAFF3AC0D9FF39C0E2FF38C0E1FFE0
:1000C80037C0EAFF36C0E9FF35C0FBFF34C0FAFF8E
:1000D8004A9211008BEF04F00001906F010E0001AD
:1000E800916F01B251D090C002F001900182019647
:1000F8000E0E0B6E010E0A6EF40E096E0184280EA8
:100108000D6E0D0E0E6E000E0F6E000E1F6E000EA1
:10011800206E280E106E0D0E116E000E126E000E5F
:10012800216E000E226E280E136E0D0E146E000E38
:10013800156E000E236E000E246E280E166E0D0E20
:10014800176E000E186E000E256E000E266E1E0E1F
:10015800196E0D0E1A6E000E1B6E000E276E000E25
:10016800286ECAEC05F0DBEC06F0D40E466E0D0ED8
:10017800476E3DEC06F0260E466E070E476E36ECCF
:1001880006F0000E0001916F915112004AB213EF70
:1001980001F0E0EC05F0D8B00AD026D06EEC06F0FD
:1001A800120067EC06F0120059EC06F0120025C0A8
:1001B8009AF026C09BF020EE16F001D80AD0050070
:1001C800FA6EDE50FD6EDE50FE6EDE50FF6EFA50A7
:1001D8001200010AD8B4E8D7030AD8B4DFD7010A55
:1001E800D8B4DFD7070AE0D7019603C0D9FF04C007
:1001F800DAFF034A042ADF50ABEC06F00506D8A064
:10020800060605500610D8A404D0000E486E060E47
:1002180003D0000E486E030E476E47501200EBECF9
:1002280005F0D8B00AD026D0C7EC06F01200C3EC0F
:1002380006F01200BBEC06F0120025C03CF026C008
:100248003DF020EE16F001D80AD00500FA6EDE5017
:10025800FD6EDE50FE6EDE50FF6EFA501200010A8F
:10026800D8B4E8D7030AD8B4DFD7010AD8B4DFD79F
:10027800070AE0D7019603C0D9FF04C0DAFF034A92
:10028800042ADF50CBEC06F00506D8A00606055078
:100298000610D8A404D0000E336E060E03D0000E4C
:1002A800336E030E326E325012001DEC06F0F28EE1
:1002B800F28C200E0001A26F000EA06F000EA16F3D
:1002C800A00E9A6F000E9B6F000E9D6F020E9C6F22
:1002D800A2511EEC03F0130E0001A06FA00E9A6F3E
:1002E800000E9B6F000E9D6F010E9C6FA2511EECBD
:1002F80003F09F0E0001926F000E936F000E956F32
:10030800010E946FA251A6EC04F0120E0001A06F2A
:100318009FC0A1F0A00E9A6F000E9B6F000E9D6FFC
:10032800020E9C6FA2511EEC03F0FFD7466E00012F
:10033800905191119211D8B41BD04650030D0D0E57
:10034800F324D96E000EF420DA6E90C0DEFF91C05F
:10035800DEFF92C0DEFF4650020D1F0EF324D96E59
:10036800000EF420DA6E93C0DEFF94C0DDFF1200A9
:100378004650030D0D0EF324D96E000EF420DA6EEC
:10038800280EDE6E0D0EDE6E000EDE6E4650020D7D
:100398001F0EF324D96E000EF420DA6E000EDE6E06
:1003A800000EDD6E1200000E876E000E866E080EBF
:1003B800836E000E846E000E856E070E8C6EEF0E37
:1003C800886E89688A688B68E70E0F01216F196942
:1003D8002669070E2E6F1169000E256F000E2D6F0E
:1003E800000E186F000E106F180E206F000E2C6F85
:1003F800000E0F6F000E176F000E1F6F000E246F98
:100408000E01B781B783B795B797B7890F0EFA6F03
:10041800100EFB6FB891B893B885B897B8891200D9
:100428004AB28CEF02F0F0EC06F003C0D9FF04C02A
:10043800DAFFDF6E034A042A0506D8A0060605502F
:100448000610D8B404D0D5EC06F0050E12000184CD
:1004580006D044EC06F012004BEC06F012001FC068
:100468009AF020C09BF020EE0DF001D80AD00500CC
:10047800FA6EDE50FD6EDE50FE6EDE50FF6EFA50F4
:100488001200010AD8B4E8D7030AD8B4E2D7010A9F
:10049800D8B4DFD7070AE0D7366E315032103310A0
:1004A800D8B41BD03650030D0D0EF324D96E000EB0
:1004B800F420DA6E31C0DEFF32C0DEFF33C0DEFF6B
:1004C8003650020D1F0EF324D96E000EF420DA6E9A
:1004D80034C0DEFF35C0DDFF12003650030D0D0EAF
:1004E800F324D96E000EF420DA6E080EDE6E0E0EBE
:1004F800DE6E000EDE6E3650020D1F0EF324D96E2E
:10050800000EF420DA6E000EDE6E000EDD6E1200B4
:10051800FCEC06F003C0D9FF04C0DAFFDF6E034A23
:10052800042A0506D8A0060605500610D8B404D03B
:10053800E7EC06F0050E1200018406D0AFEC06F0D9
:100548001200B3EC06F012001FC03CF020C03DF0D2
:1005580020EE0DF001D80AD00500FA6EDE50FD6ECF
:10056800DE50FE6EDE50FF6EFA501200010AD8B45B
:10057800E8D7030AD8B4E2D7010AD8B4DFD7070A04
:10058800E0D74AB2F3EF02F001840AD060EC06F03B
:100598001200CFEC06F0030E120059EC06F0120020
:1005A8001FC09AF020C09BF020EE0DF001D80AD0B1
:1005B8000500FA6EDE50FD6EDE50FE6EDE50FF6EF8
:1005C800FA501200010AD8B4E8D7030AD8B4DED723
:1005D800010AD8B4DBD7070AD8B4DBD7DED7018441
:1005E8000AD0BFEC06F01200E1EC06F0030E120090
:1005F800BBEC06F012001FC03CF020C03DF020EE1E
:100608000DF001D80AD00500FA6EDE50FD6EDE50FE
:10061800FE6EDE50FF6EFA501200010AD8B4E8D719
:10062800030AD8B4DED7010AD8B4DBD7070AD8B48E
:10063800DBD7DED700019E6F00019E5170EC00F001
:100648000009D8B4F9D79AC046F09BC047F09CC0BF
:1006580048F09DC049F0A6EC05F0140E0001956F16
:100668000D0E966F000E976F000E986F000E996F23
:1006780054EC05F0A3EC06F070EC05F0E806D8A4FD
:100688001200FAD74AB2D9EF03F0000120EE02F0C7
:100698009A51D9269B51DA22DECF46F0DDCF47F0BA
:1006A8009AC0D9FF9BC0DAFFDECF48F0DDCF49F012
:1006B800A6EC05F0000E0001956F000E966F000E77
:1006C800976F000E986F000E996F62EC05F0020E9E
:1006D80012004AB2B6EF03F00196020E0C6E06D075
:1006E80060EC06F0120059EC06F0120023C09AF0F4
:1006F80024C09BF020EE13F001D80AD00500FA6E52
:10070800DE50FD6EDE50FE6EDE50FF6EFA501200B7
:10071800020AD8B4E5D7010AD8B4E2D7E4D74AB276
:10072800FBEF03F0DBEC06F001A606D0E0EC05F0E9
:10073800D8A002D00F0E0B6E0B50030D600EF324E1
:10074800D96E000EF420DA6E01D80AD00500FA6ED0
:10075800DE50FD6EDE50FE6EDE50FF6EFA50120067
:100768000B6E12000196020E0C6E06D0BFEC06F05E
:100778001200BBEC06F0120023C03CF024C03DF090
:1007880020EE13F001D80AD00500FA6EDE50FD6E97
:10079800DE50FE6EDE50FF6EFA501200020AD8B428
:1007A800E5D7010AD8B4E2D7E4D720EE02F03C50EE
:1007B800D9263D50DA22DECF31F0DDCF32F03CC011
:1007C800D9FF3DC0DAFFDECF33F0DDCF34F0BEEC29
:1007D80005F0000E376E000E386E000E396E000EF2
:1007E8003A6E000E3B6E8CEC05F0020E1200DEEC49
:1007F80006F001A606D0EBEC05F0D8A002D00F0E4B
:100808000B6E0B50030D600EF324D96E000EF4200E
:10081800DA6E01D80AD00500FA6EDE50FD6EDE50A1
:10082800FE6EDE50FF6EFA5012000B6E12004AB2D6
:10083800F4EF04F09AC046F09BC047F0000E496EF2
:10084800020E486EA6EC05F0000E0001956F000E32
:10085800966F000E976F000E986F000E996F62ECFE
:1008680005F0020E12004AB20CEF05F09AC046F0ED
:100878009BC047F0000E496E010E486EA6EC05F0CD
:10088800000E0001956F000E966F000E976F000E18
:10089800986F000E996F62EC05F0020E12004AB2D2
:1008A80024EF05F09AC046F09BC047F0000E496E51
:1008B800010E486EA6EC05F0000E0001956F000EC3
:1008C800966F000E976F000E986F000E996F62EC8E
:1008D80005F0040E12004AB23CEF05F09AC046F04B
:1008E8009BC047F0000E496E020E486EA6EC05F05C
:1008F800000E0001956F000E966F000E976F000EA8
:10090800986F000E996F62EC05F0040E1200B80E95
:10091800F66E090EF76E000EF86E00EE60F010EE3F
:1009280030F00900F5CFEEFFE550E150FAE100EEB6
:1009380001F0300EEE6AE806FDE14A904A920001A5
:1009480059EF01F00001966F0001965170EC00F02C
:100958000009D8B4F9D792C046F093C047F094C0C4
:1009680048F095C049F0A6EC05F0A7EC06F070EC4D
:1009780005F0E806D8A41200FAD70001906F010E1E
:100988000001916F01B011D00180000E916F90515C
:10099800D8B402D0010E01D0020E0B6EF8EC06F0AE
:1009A80014EC06F0D8A09AEC05F000019151120061
:1009B8005C0C00000C00EC0B009401002804004CB7
:1009C8000C008A0500DC0C00CE0C00C00C00B20C38
:1009D80000A40C00960C00880C00140C00DA060029
:1009E8003CC031F03DC032F0000E346E020E336E62
:1009F800BEEC05F0000E376E000E386E000E396E34
:100A0800000E3A6E000E3B6E8CEC05F0020E1200E2
:100A18003CC031F03DC032F0000E346E010E336E32
:100A2800BEEC05F0000E376E000E386E000E396E03
:100A3800000E3A6E000E3B6E8CEC05F0020E1200B2
:100A48003CC031F03DC032F0000E346E010E336E02
:100A5800BEEC05F0000E376E000E386E000E396ED3
:100A6800000E3A6E000E3B6E8CEC05F0040E120080
:100A78003CC031F03DC032F0000E346E020E336ED1
:100A8800BEEC05F0000E376E000E386E000E396EA3
:100A9800000E3A6E000E3B6E8CEC05F0040E120050
:100AA80095C090F096C091F097C092F098C093F0DE
:100AB80099C094F0020E9AEC01F0120095C090F0E3
:100AC80096C091F097C092F098C093F099C094F0B6
:100AD800000E9AEC01F01200010E466E01B008D02B
:100AE80001920268DBEC06F0D8EC06F00CC046F088
:100AF80046501200000E0E01E16F000EE26F000E6C
:100B0800E36F000EE46F000EE56F000EE66F120053
:100B180037C031F038C032F039C033F03AC034F061
:100B28003BC035F0000E50EC02F0120008D0000E69
:100B3800466E000E476ED5EC05F093EC03F001A06D
:100B48001200F5D701A4120046C003F047C004F014
:100B580048C005F049C006F001941200620E0E016B
:100B6800D86F000EDA6F000EDC6F030EDE6F200EFA
:100B7800DD6F120001A4120031C003F032C004F08E
:100B880033C005F034C006F00194120096BA120082
:100B9800000E956E280E966E000E976E040E936EDC
:100BA80012000E01CDB112000E01CDB11200100ECF
:100BB800E82EFED700D0F8D79750BF0B4009976EA4
:100BC8009738E832E832010B466E463012009750EB
:100BD800BF0B4009976E9738E832E832010B316E47
:100BE800313012004AB275EF06F001860250022435
:100BF800ABEC06F0030E12004AB27CEF06F0018659
:100C0800D8800234ABEC06F0050E12004AB283EF2E
:100C180006F00AEC07F00190000E0C6E0E0E1200A2
:100C28000E01C5A103D0466A462A01D0466A46305D
:100C38001200FAEC06F07EEC05F0D7EC01F0B2EC0D
:100C480005F012004AB299EF06F00196F2EC06F0B0
:100C5800040E12004AB29EEF06F00190000E0C6ED0
:100C68000E0E120046C02BF047C02CF048C02DF0E5
:100C7800120046C02EF047C02FF048C030F01200D6
:100C88004AB2AFEF06F0D2EC06F0090E12004AB2F3
:100C9800B3EF06F0D2EC06F00A0E12004AB2B7EF34
:100CA80006F0D5EC06F0050E12004AB2BBEF06F0CE
:100CB800F4EC06F0000E12004AB2BFEF06F0F6ECB4
:100CC80006F0010E12004AB2C3EF06F0F6EC06F089
:100CD800020E12004AB2C7EF06F0F6EC06F0010E5B
:100CE8001200018602500224CBEC06F0030E12001B
:100CF8000186D8800234CBEC06F0050E12000BEC0E
:100D080007F00190000E0C6E0E0E12004AB200EFB2
:100D180007F0030E12004AB202EF07F0050E1200A8
:100D28004AB204EF07F0010E12000196FEEC06F03D
:100D3800040E12000190000E0C6E0E0E1200000E32
:100D4800C1EC04F01200010EC1EC04F01200466E72
:100D580046C092FF1200E4EC06F0090E1200E4EC23
:100D680006F00A0E1200E7EC06F0050E120006EC7B
:100D780007F0000E120008EC07F0010E120008EC54
:100D880007F0020E120008EC07F0010E1200316E97
:100D980031C092FF12000E01CD811200978A978808
:100DA8001200979A978812000E01C59112000E0141
:100DB800CD9112000E01CD9112000E01CD811200CD
:100DC800978A97881200979A97881200EDEC06F098
:100DD80012000E01CD931200925012009786120055
:100DE800978412009782120097801200F29A1200DC
:100DF8009250120097861200030E1200050E120080
:100E0800010E12009784120097821200120012003D
:020000040020DA
:10000000FF0FFF0FFF0FFF0FFF0FFF0FFF0FFF0F80
:020000040030CA
:0C000000ECFFFFFF9FFFFFFFFFFFFFFF73
:00000001FF
