:040000006EEF00F0AF
:100008004782FACF04F0FBCF05F0E9CF06F0EACF3C
:1000180007F0E1CF08F0E2CF09F0D9CF0AF0DACF44
:100028000BF0F3CF0CF0F4CF0DF0F6CF0EF0F7CFC6
:100038000FF0F8CF10F0F5CF11F047C012F048C01C
:1000480013F049C014F04AC015F0F2AC1DD00E01EF
:10005800C5B3CDA30AD001D817D00500FA6E445015
:10006800FD6E4550FE6E46500CD0C5B1CDA10CD0EA
:1000780001D80AD00500FA6E4150FD6E4250FE6E5E
:100088004350FF6EFA50120015C04AF014C049F0F0
:1000980013C048F012C047F011C0F5FF10C0F8FFB8
:1000A8000FC0F7FF0EC0F6FF0DC0F4FF0CC0F3FF42
:1000B8000BC0DAFF0AC0D9FF09C0E2FF08C0E1FFA0
:1000C80007C0EAFF06C0E9FF05C0FBFF04C0FAFF4E
:1000D80047921100E7EF06F093EC08F0F28EF28CED
:1000E80092C0B8F093C0B9F0020E0001BA6F07ECE5
:1000F80009F0B9EC08F0000E0001C66F000EC56FDC
:1001080020EE8AF010EEBDF0070EDBCFE3FFE80625
:10011800FCE2FF0EC525166EFF0EC621176E1EECFB
:1001280008F0D89016361736D89016361736BD0E02
:100138001624D96E000E1720DA6EDECFA2F0DECFBD
:10014800A3F0DECFA4F0DECFA5F00001A21FA31F0D
:10015800A41FA51FA22B000EA323A423A523BCEC38
:1001680003F00001A66FE10EA625A76FA86BFF0E8E
:10017800A823A96BA8BFA907A951AA6FA251A725AF
:10018800AB6FA351A821AC6FA451A921AD6FA551A4
:10019800AA21AE6FBD0EAF6F000EB06FD890C535F7
:1001A800D96EC635DA6ED890D936DA36AF51D92637
:1001B800B051DA22ABC0DEFFACC0DEFFADC0DEFF5F
:1001C800AEC0DEFFBD0EA26F000EA36FD890C5357E
:1001D800D96EC635DA6ED890D936DA36A251D92614
:1001E800A351DA22030EDBBE48D0030EDB500AE12E
:1001F800020EDB5007E1010EDB5004E1300EDE5C3D
:10020800D8A03BD0BD0EA26F000EA36FD890C53505
:10021800D96EC635DA6ED890D936DA36A251D926D3
:10022800A351DA22DECF16F0DECF17F0DECF18F0BA
:10023800DECF19F0020E1A6E000E1B6E000E1C6E39
:10024800000E1D6EACEC02F0BD0E0001A46F000E96
:10025800A56FD890C535D96EC635DA6ED890D9361F
:10026800DA36A451D926A551DA2216C0DEFF17C006
:10027800DEFF18C0DEFF19C0DEFFC551C611D8A4C5
:1002880014D0BD0EA26F000EA36FD890C535D96EDD
:10029800C635DA6ED890D936DA36A251D926A351A6
:1002A800DA22DF50A6EC09F014D0BD0E0001A26FCF
:1002B800000EA36FD890C535D96EC635DA6ED890C2
:1002C800D936DA36A251D926A351DA22DF509FEC6B
:1002D80009F0BD0E0001A26F000EA36FD890C535BE
:1002E800D96EC635DA6ED890D936DA36A251D92603
:1002F800A351DA22280EDE18DE10DE10DE10D8B484
:100308000AD016D0210E0001A26F760EE82EFED775
:10031800A22FFCD700F098EC09F00009D8B4F2D766
:1003280038EC09F00001B16F090EB119D8B4839403
:10033800FF0EC525166EFF0EC621176E1EEC08F0BF
:1003480016C0C5F017C0C6F0000E0001BC6F000E45
:10035800BB6FBCBF08D0BC5105E1140EBB5DD8B063
:10036800D8D601D0D6D6210E0001A26F760EE82E7F
:10037800FED7A22FFCD700F00001BB4BBC2BBCBFA3
:10038800F2D7BC5101E1E9D7C4D6356E410E261823
:10039800D8B40CD0610E2618D8B408D0720E26181E
:1003A800D8B404D0520E2618D8A402D0120E01D008
:1003B800130E326E320E216E000E226E000E246E67
:1003C800010E236E355033EC06F0360E1B6E000E10
:1003D8001C6E000E1E6E010E1D6E355074EC07F07B
:1003E800361E000E346E000E386E000E376E38BEA4
:1003F80006D038503FE1080E375CD8B03BD02A0E03
:100408003724D96E000E3820DA6E37C028F0010E76
:10041800296E282A02D0D8902936282EFCD72950B0
:100428003614DF6E2A0E3724D96E000E3820DA6EA5
:1004380037C028F02A0E3724E16E000E3820E26E0D
:10044800E750296E282A02D0D8902932282EFCD7C6
:100458002950DF6E2A0E3724D96E000E3820DA6E46
:10046800DF50286E275037242802F3503426374AA5
:10047800382ABDD734501200000E0001986F000EC4
:10048800996F000E9A6F000E9B6F000E9C6F000E06
:100498009D6F6C0E266E280E276E200EC9EC01F09B
:1004A8000001986F720E266E200E276E200EC9EC82
:1004B80001F00001996F6C0E266E180E276E210E42
:1004C800C9EC01F000019A6F720E266E100E276EAD
:1004D800210EC9EC01F000019B6F6C0E266E000E18
:1004E800276E220EC9EC01F000019C6F720E266E79
:1004F800080E276E220EC9EC01F000019D6F99517C
:1005080098C03DF03E6A3D26000E3E229A513D2697
:10051800000E3E229B513D26000E3E229C513D2658
:10052800000E3E229D513D26000E3E223DC094F015
:100538003EC095F0000E95BFFF0E966F976F94C062
:1005480039F095C03AF096C03BF097C03CF01200E5
:10055800000E1F6E1DAE0AD01D1E1C1E1B1E1A6C1F
:10056800000E1B221C221D22010E1F6E19AE0AD07E
:10057800191E181E171E166C000E17221822192293
:10058800010E1F1A000E206E000E216E000E226E44
:10059800000E236E1A501B101C101D10D8B42AD040
:1005A800010E1E6E06D0D8901A361B361C361D3624
:1005B8001E2A1DAEF8D7D89020362136223623368B
:1005C8001A50165C1B5017581C5018581D501958B3
:1005D800D8A009D01A50165E1B50175A1C50185A2A
:1005E8001D50195A2080D8901D321C321B321A32E5
:1005F8001E2EE1D71F50D8B408D0231E221E211E5C
:10060800206C000E21222222232220C016F021C0B5
:1006180017F022C018F023C019F01200196E010E4D
:100628001A6E000160B350D019C061F06091608308
:1006380060970E0E6A6F010E696FF40E686F608521
:10064800860E6C6F130E6D6F000E6E6F000E7E6F50
:10065800000E7F6F860E6F6F130E706F000E716F36
:10066800000E806F000E816F860E726F130E736F0F
:10067800000E746F000E826F000E836F860E756F0A
:10068800130E766F000E776F000E846F000E856F65
:100698007C0E786F130E796F000E7A6F000E866FDE
:1006A800000E876FC5EC08F000EC0AF01E0E166EFF
:1006B800140E176E60EC09F0CA0E166E0B0E176E4C
:1006C80059EC09F0000E1A6E1A501200000E876ECF
:1006D800000E866E0C0E836E000E846E000E856E04
:1006E800070E8C6EEB0E886E8968BF0E8A6E7E0EC2
:1006F8008B6EC70E0F01216F1969F70E266F070E53
:100708002E6F1169880E256F000E2D6F020E186F5F
:10071800000E106F180E206F000E2C6F000E0F6F5A
:10072800000E176F000E1F6F000E246F0F0E0E01C4
:10073800FA6F100EFB6F0B0EFF6FB581B593B58581
:10074800B597B589090EFD6FB781B783B795B79788
:10075800B7890B0E0F01066F0E018D818D838D9564
:100768008D878D89B891B893B885B897B8891200E4
:10077800000E0001A16F40EC02F0395000019E6F9D
:1007880040EC02F039500001A16F10D040EC02F0AB
:1007980039500001A16F020E406E450E3F6EAA0E41
:1007A800E82EFED73F2EFCD7402EFAD700019E51E7
:1007B800A119D8B4EBD7000EA06F000E9F6FA0BF91
:1007C80006D0A0511FE1280E9F5DD8B01BD040EC89
:1007D80002F039500001A16F9E51A119D8B404D07C
:1007E800000EA06F000E9F6FA1C09EF0210E3F6EFD
:1007F800760EE82EFED73F2EFCD700D000019F4B87
:10080800A02BDDD7A151120047B253EF04F0FCEC46
:1008180008F0D8B00AD026D091EC09F012008AEC82
:1008280009F012007CEC09F0120084C021F085C0A8
:1008380022F020EE75F001D80AD00500FA6EDE50DD
:10084800FD6EDE50FE6EDE50FF6EFA501200010A99
:10085800D8B4E8D7030AD8B4DFD7010AD8B4DFD7A9
:10086800070AE0D70001609762C0D9FF63C0DAFFCA
:10087800624B632BDF50D0EC09F000016407D8A06D
:10088800650764516511D8A404D0000E186E060ED1
:1008980003D0000E186E030E176E1750120012ECDC
:1008A80009F0D8B00AD026D0ECEC09F01200E8EC38
:1008B80009F01200E0EC09F0120084C00CF085C0C9
:1008C8000DF020EE75F001D80AD00500FA6EDE5062
:1008D800FD6EDE50FE6EDE50FF6EFA501200010A09
:1008E800D8B4E8D7030AD8B4DFD7010AD8B4DFD719
:1008F800070AE0D70001609762C0D9FF63C0DAFF3A
:10090800624B632BDF50F0EC09F000016407D8A0BC
:10091800650764516511D8A404D0000E036E060E55
:1009280003D0000E036E030E026E0250120047B28F
:1009380050EF05F015EC0AF062C0D9FF63C0DAFF8A
:10094800DF6E0001624B632B6407D8A06507645112
:100958006511D8B404D0FAEC09F0050E12006085D0
:1009680006D067EC09F012006EEC09F012007EC0A8
:1009780021F07FC022F020EE6CF001D80AD00500EB
:10098800FA6EDE50FD6EDE50FE6EDE50FF6EFA50DF
:100998001200010AD8B4E8D7030AD8B4E2D7010A8A
:1009A800D8B4DFD7070AE0D71B6E165017101810F7
:1009B800D8B41BD01B50030D6C0EF324D96E000E57
:1009C800F420DA6E16C0DEFF17C0DEFF18C0DEFFA7
:1009D8001B50020D7E0EF324D96E000EF420DA6E41
:1009E80019C0DEFF1AC0DDFF12001B50030D6C0E8C
:1009F800F324D96E000EF420DA6E860EDE6E130E26
:100A0800DE6E000EDE6E1B50020D7E0EF324D96ED4
:100A1800000EF420DA6E000EDE6E000EDD6E12009F
:100A2800066E015002100310D8B41BD00650030DF7
:100A38006C0EF324D96E000EF420DA6E01C0DEFFCE
:100A480002C0DEFF03C0DEFF0650020D7E0EF32457
:100A5800D96E000EF420DA6E04C0DEFF05C0DDFF9B
:100A680012000650030D6C0EF324D96E000EF4200C
:100A7800DA6E520EDE6E140EDE6E000EDE6E06505C
:100A8800020D7E0EF324D96E000EF420DA6E000EED
:100A9800DE6E000EDD6E120021EC0AF062C0D9FF96
:100AA80063C0DAFFDF6E0001624B632B6407D8A0D6
:100AB800650764516511D8B404D00CEC0AF0050E32
:100AC8001200608506D0D4EC09F01200D8EC09F0C9
:100AD80012007EC00CF07FC00DF020EE6CF001D843
:100AE8000AD00500FA6EDE50FD6EDE50FE6EDE5056
:100AF800FF6EFA501200010AD8B4E8D7030AD8B436
:100B0800E2D7010AD8B4DFD7070AE0D747B2B9EF6E
:100B180005F0000160850AD083EC09F01200F4ECBE
:100B280009F0030E12007CEC09F012007EC021F0DF
:100B38007FC022F020EE6CF001D80AD00500FA6ED2
:100B4800DE50FD6EDE50FE6EDE50FF6EFA50120073
:100B5800010AD8B4E8D7030AD8B4DED7010AD8B452
:100B6800DBD7070AD8B4DBD7DED7000160850AD007
:100B7800E4EC09F0120006EC0AF0030E1200E0ECB7
:100B880009F012007EC00CF07FC00DF020EE6CF072
:100B980001D80AD00500FA6EDE50FD6EDE50FE6EFA
:100BA800DE50FF6EFA501200010AD8B4E8D7030AE3
:100BB800D8B4DED7010AD8B4DBD7070AD8B4DBD754
:100BC800DED747B27DEF06F000EC0AF0000160A71F
:100BD80007D0FCEC08F0D8A003D00F0E00016A6F14
:100BE80000016A51030DC70EF324D96E000EF420DC
:100BF800DA6E01D80AD00500FA6EDE50FD6EDE50BE
:100C0800FE6EDE50FF6EFA50120000016A6F12008D
:100C180047B2A1EF06F000016097020E6B6F06D095
:100C280083EC09F012007CEC09F0120082C021F07C
:100C380083C022F020EE72F001D80AD00500FA6EC7
:100C4800DE50FD6EDE50FE6EDE50FF6EFA50120072
:100C5800020AD8B4E5D7010AD8B4E2D7E4D7256E9A
:100C6800255012EC03F00009D8B4FAD721C016F0C9
:100C780022C017F023C018F024C019F086EC08F041
:100C8800720E1C6E130E1D6E000E1E6E000E1F6E71
:100C9800000E206E41EC08F0C8EC09F032EC08F0C8
:100CA800E806D8A41200FAD747B2C5EF06F020EE3E
:100CB80002F02150D9262250DA22DECF16F0DDCFFD
:100CC80017F021C0D9FF22C0DAFFDECF18F0DDCF40
:100CD80019F086EC08F0000E1C6E000E1D6E000E5A
:100CE8001E6E000E1F6E000E206E4FEC08F0020EF6
:100CF800120003EC0AF0000160A707D012EC09F01B
:100D0800D8A003D00F0E00016A6F00016A51030DCD
:100D1800C70EF324D96E000EF420DA6E01D80AD07B
:100D28000500FA6EDE50FD6EDE50FE6EDE50FF6E80
:100D3800FA50120000016A6F120000016097020E5B
:100D48006B6F06D0E4EC09F01200E0EC09F0120039
:100D580082C00CF083C00DF020EE72F001D80AD0EA
:100D68000500FA6EDE50FD6EDE50FE6EDE50FF6E40
:100D7800FA501200020AD8B4E5D7010AD8B4E2D76B
:100D8800E4D720EE02F00C50D9260D50DA22DECF3F
:100D980001F0DDCF02F00CC0D9FF0DC0DAFFDECFC5
:100DA80003F0DDCF04F0A0EC08F0000E076E000E93
:100DB800086E000E096E000E0A6E000E0B6E6BECCC
:100DC80008F0020E12004C0EF66E0F0EF76E000EB3
:100DD800F86E00EEC7F010EE30F00900F5CFEEFF28
:100DE800E550E150FAE100EE60F0340EEE6AE806F4
:100DF800FDE1466A456A446A436A426A416A479025
:100E08004792000170EF00F047B2BEEF07F021C033
:100E180016F022C017F0000E196E020E186E86EC3E
:100E280008F0000E1C6E000E1D6E000E1E6E000EE9
:100E38001F6E000E206E4FEC08F0020E120047B233
:100E4800D6EF07F021C016F022C017F0000E196E79
:100E5800010E186E86EC08F0000E1C6E000E1D6E5A
:100E6800000E1E6E000E1F6E000E206E4FEC08F076
:100E7800020E120047B2EEEF07F021C016F022C0B2
:100E880017F0000E196E010E186E86EC08F0000EB1
:100E98001C6E000E1D6E000E1E6E000E1F6E000EE4
:100EA800206E4FEC08F0040E120047B206EF08F06F
:100EB80021C016F022C017F0000E196E020E186E2F
:100EC80086EC08F0000E1C6E000E1D6E000E1E6EE5
:100ED800000E1F6E000E206E4FEC08F0040E12007C
:100EE8001F6E1F5012EC03F00009D8B4FAD71BC0CC
:100EF80016F01CC017F01DC018F01EC019F086ECC3
:100F080008F0CCEC09F032EC08F0E806D8A412009E
:100F1800FAD7196E010E1A6E000160B111D0608106
:100F2800000E1A6E1950D8B402D0010E01D0020E6C
:100F38006A6F1DEC0AF01DEC09F0D8A079EC08F0F6
:100F48001A5012005E1200CC1100B61100100800F1
:100F58003609004C1200140B00221300141300066B
:100F68001300F81200EA1200DC1200CE1200E2119F
:100F780000180C000CC001F00DC002F0000E046E49
:100F8800020E036EA0EC08F0000E076E000E086E4D
:100F9800000E096E000E0A6E000E0B6E6BEC08F068
:100FA800020E12000CC001F00DC002F0000E046E1B
:100FB800010E036EA0EC08F0000E076E000E086E1E
:100FC800000E096E000E0A6E000E0B6E6BEC08F038
:100FD800020E12000CC001F00DC002F0000E046EEB
:100FE800010E036EA0EC08F0000E076E000E086EEE
:100FF800000E096E000E0A6E000E0B6E6BEC08F008
:10100800040E12000CC001F00DC002F0000E046EB8
:10101800020E036EA0EC08F0000E076E000E086EBC
:10102800000E096E000E0A6E000E0B6E6BEC08F0D7
:10103800040E120017AE0DD016C018F017C019F024
:10104800181E191E184A192A18C016F019C017F0C8
:10105800120016C016F017C017F01200010E166E17
:10106800000160B108D06093616900EC0AF0FDEC02
:1010780009F06BC016F0165012001CC016F01DC007
:1010880017F01EC018F01FC019F020C01AF0020E89
:10109800D8EC04F012001CC016F01DC017F01EC0DA
:1010A80018F01FC019F020C01AF0000ED8EC04F098
:1010B8001200000E0E01E16F000EE26F000EE36FEA
:1010C800000EE46F000EE56F000EE66F120007C019
:1010D80001F008C002F009C003F00AC004F00BC018
:1010E80005F0000E14EC05F0120008D0000E166E84
:1010F800000E176ED0EC08F0E5EC05F0000160A1D9
:101108001200F4D7000160A5120016C062F017C0E3
:1011180063F018C064F019C065F0609512001FEC08
:101128000AF05DEC08F06AEC03F0ADEC08F007ECAF
:1011380009F0B9EC08F01200000160A5120001C026
:1011480062F002C063F003C064F004C065F060950B
:101158001200620E0E01D86F000EDA6F000EDC6FFF
:10116800030EDE6F200EDD6F1200080E0E019F6F5A
:10117800900E9D6F240E9E6F330E9B6F000E9C6F1A
:10118800120096BA1200000E956E280E966E000E8A
:10119800976E040E936E12000E01CDB112000E016F
:1011A800CDB11200100EE82EFED700D0F8D747B206
:1011B80041EF09F00001608761516125D0EC09F029
:1011C800030E120047B249EF09F000016087D8808A
:1011D8006135D0EC09F0050E120047B251EF09F065
:1011E8002FEC0AF000016091000E6B6F0E0E1200DA
:1011F8009750BF0B4009976E9738E832E832010BD9
:10120800166E16301200080E9F6E900E9D6E240EFC
:101218009E6E330E9B6E000E9C6E12009750BF0B95
:101228004009976E9738E832E832010B016E0130B9
:1012380012000E01C5A103D0166A162A01D0166A3B
:101248001630120047B2ADEF09F00001609717ECB5
:101258000AF0040E120047B2B3EF09F000016091E2
:10126800000E6B6F0E0E12000E01CDAFFDD79DA3C1
:1012780002D09D9F9D8F9951120000016087615196
:101288006125F0EC09F0030E120000016087D88098
:101298006135F0EC09F0050E120030EC0AF000019F
:1012A8006091000E6B6F0E0E120016C041F017C051
:1012B80042F018C043F0120016C044F017C045F0C1
:1012C80018C046F0120047B2D4EF09F0F7EC09F065
:1012D800090E120047B2D8EF09F0F7EC09F00A0E30
:1012E800120047B2DCEF09F0FAEC09F0050E120023
:1012F80047B2E0EF09F019EC0AF0000E120047B20D
:10130800E4EF09F01BEC0AF0010E120047B2E8EF17
:1013180009F01BEC0AF0020E120047B2ECEF09F0DC
:101328001BEC0AF0010E12000E01CDAF02D0010E27
:101338001200000E1200166E0E01CDADFDD716C0BC
:101348009AFE1200166E0E01CDA9FDD716C09AFF9F
:1013580012000001609723EC0AF0040E120000014D
:101368006091000E6B6F0E0E120047B225EF0AF067
:10137800030E120047B227EF0AF0050E120047B21B
:1013880029EF0AF0010E1200000E8DEC07F0120092
:10139800010E8DEC07F01200166E16C092FF1200B7
:1013A80009EC0AF0090E120009EC0AF00A0E120004
:1013B8000CEC0AF0050E12002BEC0AF0000E1200DD
:1013C8002DEC0AF0010E12002DEC0AF0020E1200AC
:1013D8002DEC0AF0010E1200016E01C092FF1200FE
:1013E8000E01CD811200978A97881200979A9788E4
:1013F80012000E01C59112000E01CD9112000E01CE
:10140800CD9112000E01CD811200978A97881200A3
:10141800979A9788120012EC0AF012000E01CD93E9
:101428001200925012009786120097841200978239
:10143800120097801200F29A1200925012009786BA
:101448001200030E1200050E1200010E12009784FE
:0A1458001200978212001200120029
:020000040020DA
:10000000FF0FFF0FFF0FFF0FFF0FFF0FFF0FFF0F80
:020000040030CA
:0C000000ECFFFFFF9FFFFFFFFFFFFFFF73
:00000001FF
