:040000006EEF00F0AF
:100008004782FACF04F0FBCF05F0E9CF06F0EACF3C
:1000180007F0E1CF08F0E2CF09F0D9CF0AF0DACF44
:100028000BF0F3CF0CF0F4CF0DF0F6CF0EF0F7CFC6
:100038000FF0F8CF10F0F5CF11F047C012F048C01C
:1000480013F049C014F04AC015F0F2AC1DD00E01EF
:10005800C5B3CDA30AD001D817D00500FA6E445015
:10006800FD6E4550FE6E46500CD0C5B1CDA10CD0EA
:1000780001D80AD00500FA6E4150FD6E4250FE6E5E
:100088004350FF6EFA50120015C04AF014C049F0F0
:1000980013C048F012C047F011C0F5FF10C0F8FFB8
:1000A8000FC0F7FF0EC0F6FF0DC0F4FF0CC0F3FF42
:1000B8000BC0DAFF0AC0D9FF09C0E2FF08C0E1FFA0
:1000C80007C0EAFF06C0E9FF05C0FBFF04C0FAFF4E
:1000D80047921100F3EF06F09FEC08F0F28EF28CD5
:1000E80092C0B1F093C0B2F0020E0001BA6F13ECE7
:1000F80009F0C5EC08F0000E0001C66F000EC56FD0
:1001080020EE8AF010EEBDF0070EDBCFE3FFE80625
:10011800FCE2FF0EC525166EFF0EC621176E2AECEF
:1001280008F0D89016361736D89016361736BD0E02
:100138001624D96E000E1720DA6EDECFA2F0DECFBD
:10014800A3F0DECFA4F0DECFA5F00001A21FA31F0D
:10015800A41FA51FA22B000EA323A423A523C8EC2C
:1001680003F00001A66FE60EA625A76FA86BFF0E89
:10017800A823A96BA8BFA907A951AA6FA251A725AF
:10018800AB6FA351A821AC6FA451A921AD6FA551A4
:10019800AA21AE6FBD0EAF6F000EB06FD890C535F7
:1001A800D96EC635DA6ED890D936DA36AF51D92637
:1001B800B051DA22ABC0DEFFACC0DEFFADC0DEFF5F
:1001C800AEC0DEFFBD0EA26F000EA36FD890C5357E
:1001D800D96EC635DA6ED890D936DA36A251D92614
:1001E800A351DA22030EDBBE48D0030EDB500AE12E
:1001F800020EDB5007E1010EDB5004E1300EDE5C3D
:10020800D8A03BD0BD0EA26F000EA36FD890C53505
:10021800D96EC635DA6ED890D936DA36A251D926D3
:10022800A351DA22DECF16F0DECF17F0DECF18F0BA
:10023800DECF19F0020E1A6E000E1B6E000E1C6E39
:10024800000E1D6EB8EC02F0BD0E0001A46F000E8A
:10025800A56FD890C535D96EC635DA6ED890D9361F
:10026800DA36A451D926A551DA2216C0DEFF17C006
:10027800DEFF18C0DEFF19C0DEFFC551C611D8A4C5
:1002880014D0BD0EA26F000EA36FD890C535D96EDD
:10029800C635DA6ED890D936DA36A251D926A351A6
:1002A800DA22DF50B2EC09F014D0BD0E0001A26FC3
:1002B800000EA36FD890C535D96EC635DA6ED890C2
:1002C800D936DA36A251D926A351DA22DF50ABEC5F
:1002D80009F0BD0E0001A26F000EA36FD890C535BE
:1002E800D96EC635DA6ED890D936DA36A251D92603
:1002F800A351DA22280EDE18DE10DE10DE10D8B484
:100308000AD021D0210E0001A26F760EE82EFED76A
:10031800A22FFCD700F0A4EC09F00009D8B4F2D75A
:1003280044EC09F00001B36F090EB319D8B48394F3
:10033800B30E216E000E226E000E246E010E236E87
:10034800BA513FEC06F0FF0E0001C525166EFF0EF0
:10035800C621176E2AEC08F016C0C5F017C0C6F003
:10036800000E0001BC6F000EBB6FBCBF08D0BC51B3
:1003780005E1140EBB5DD8B0CCD601D0CAD6210E8B
:100388000001A26F760EE82EFED7A22FFCD700F050
:100398000001BB4BBC2BBCBFF2D7BC5101E1E9D774
:1003A800B8D6356E410E2618D8B40CD0610E261872
:1003B800D8B408D0720E2618D8B404D0520E261815
:1003C800D8A402D0120E01D0130E326E320E216E56
:1003D800000E226E000E246E010E236E35503FEC87
:1003E80006F0360E1B6E000E1C6E000E1E6E010E01
:1003F8001D6E355080EC07F0361E000E346E000E70
:10040800386E000E376E38BE06D038503FE1080E01
:10041800375CD8B03BD02A0E3724D96E000E38206E
:10042800DA6E37C028F0010E296E282A02D0D8903B
:100438002936282EFCD729503614DF6E2A0E372489
:10044800D96E000E3820DA6E37C028F02A0E37240D
:10045800E16E000E3820E26EE750296E282A02D09D
:10046800D8902932282EFCD72950DF6E2A0E37243F
:10047800D96E000E3820DA6EDF50286E27503724E8
:100488002802F3503426374A382ABDD73450120090
:10049800000E0001986F000E996F000E9A6F000E03
:1004A8009B6F000E9C6F000E9D6F6C0E266E280EC3
:1004B800276E200ED5EC01F00001986F720E266EA3
:1004C800200E276E200ED5EC01F00001996F6C0EFE
:1004D800266E180E276E210ED5EC01F000019A6FDA
:1004E800720E266E100E276E210ED5EC01F000015B
:1004F8009B6F6C0E266E000E276E220ED5EC01F057
:1005080000019C6F720E266E080E276E220ED5EC27
:1005180001F000019D6F995198C03DF03E6A3D265B
:10052800000E3E229A513D26000E3E229B513D264A
:10053800000E3E229C513D26000E3E229D513D2636
:10054800000E3E223DC094F03EC095F0000E95BFCF
:10055800FF0E966F976F94C039F095C03AF096C029
:100568003BF097C03CF01200000E1F6E1DAE0AD083
:100578001D1E1C1E1B1E1A6C000E1B221C221D2277
:10058800010E1F6E19AE0AD0191E181E171E166C02
:10059800000E172218221922010E1F1A000E206EB3
:1005A800000E216E000E226E000E236E1A501B10D4
:1005B8001C101D10D8B42AD0010E1E6E06D0D8907B
:1005C8001A361B361C361D361E2A1DAEF8D7D89093
:1005D80020362136223623361A50165C1B501758FF
:1005E8001C5018581D501958D8A009D01A50165E1A
:1005F8001B50175A1C50185A1D50195A2080D89051
:100608001D321C321B321A321E2EE1D71F50D8B4AD
:1006180008D0231E221E211E206C000E2122222219
:10062800232220C016F021C017F022C018F023C0E2
:1006380019F01200196E010E1A6E000160B350D045
:1006480019C061F06091608360970E0E6A6F010EA9
:10065800696FF40E686F60859E0E6C6F130E6D6F78
:10066800000E6E6F000E7E6F000E7F6F9E0E6F6F16
:10067800130E706F000E716F000E806F000E816F89
:100688009E0E726F130E736F000E746F000E826FE2
:10069800000E836F9E0E756F130E766F000E776FC8
:1006A800000E846F000E856F940E786F130E796FAD
:1006B800000E7A6F000E866F000E876FD1EC08F07F
:1006C8000CEC0AF0360E166E140E176E6CEC09F070
:1006D800E20E166E0B0E176E65EC09F0000E1A6E20
:1006E8001A501200000E876E000E866E0C0E836E76
:1006F800000E846E000E856E070E8C6EEB0E886EF3
:100708008968BF0E8A6E7E0E8B6EC70E0F01216F31
:100718001969F70E266F070E2E6F1169880E256F5F
:10072800000E2D6F020E186F000E106F180E206F3E
:10073800000E2C6F000E0F6F000E176F000E1F6F4C
:10074800000E246F0F0E0E01FA6F100EFB6F0B0ECA
:10075800FF6FB581B593B585B597B589090EFD6F5E
:10076800B781B783B795B797B7890B0E0F01066F97
:100778000E018D818D838D958D878D89B891B89364
:10078800B885B897B8891200000E0001A16F4CEC2B
:1007980002F0395000019E6F4CEC02F03950000114
:1007A800A16F10D04CEC02F039500001A16F020E7D
:1007B800406E450E3F6EAA0EE82EFED73F2EFCD7A0
:1007C800402EFAD700019E51A119D8B4EBD7000EDC
:1007D800A06F000E9F6FA0BF06D0A0511FE1280E8A
:1007E8009F5DD8B01BD04CEC02F039500001A16FCE
:1007F8009E51A119D8B404D0000EA06F000E9F6FAF
:10080800A1C09EF0210E3F6E760EE82EFED73F2E39
:10081800FCD700D000019F4BA02BDDD7A1511200BF
:1008280047B25FEF04F008EC09F0D8B00AD026D040
:100838009DEC09F0120096EC09F0120088EC09F022
:10084800120084C021F085C022F020EE75F001D896
:100858000AD00500FA6EDE50FD6EDE50FE6EDE50E8
:10086800FF6EFA501200010AD8B4E8D7030AD8B4C8
:10087800DFD7010AD8B4DFD7070AE0D700016097AD
:1008880062C0D9FF63C0DAFF624B632BDF50DCEC38
:1008980009F000016407D8A0650764516511D8A460
:1008A80004D0000E186E060E03D0000E186E030E4C
:1008B800176E175012001EEC09F0D8B00AD026D0D7
:1008C800F8EC09F01200F4EC09F01200ECEC09F075
:1008D800120084C00CF085C00DF020EE75F001D830
:1008E8000AD00500FA6EDE50FD6EDE50FE6EDE5058
:1008F800FF6EFA501200010AD8B4E8D7030AD8B438
:10090800DFD7010AD8B4DFD7070AE0D7000160971C
:1009180062C0D9FF63C0DAFF624B632BDF50FCEC87
:1009280009F000016407D8A0650764516511D8A4CF
:1009380004D0000E036E060E03D0000E036E030EE5
:10094800026E0250120047B25CEF05F021EC0AF08B
:1009580062C0D9FF63C0DAFFDF6E0001624B632B10
:100968006407D8A0650764516511D8B404D006ECB3
:100978000AF0050E1200608506D073EC09F012002B
:100988007AEC09F012007EC021F07FC022F020EE40
:100998006CF001D80AD00500FA6EDE50FD6EDE500C
:1009A800FE6EDE50FF6EFA501200010AD8B4E8D786
:1009B800030AD8B4E2D7010AD8B4DFD7070AE0D7C8
:1009C8001B6E165017101810D8B41BD01B50030DEF
:1009D8006C0EF324D96E000EF420DA6E16C0DEFF1A
:1009E80017C0DEFF18C0DEFF1B50020D7E0EF32479
:1009F800D96E000EF420DA6E19C0DEFF1AC0DDFFD2
:100A080012001B50030D6C0EF324D96E000EF42057
:100A1800DA6E9E0EDE6E130EDE6E000EDE6E1B505C
:100A2800020D7E0EF324D96E000EF420DA6E000E4D
:100A3800DE6E000EDD6E1200066E0150021003100D
:100A4800D8B41BD00650030D6C0EF324D96E000EDB
:100A5800F420DA6E01C0DEFF02C0DEFF03C0DEFF55
:100A68000650020D7E0EF324D96E000EF420DA6EC5
:100A780004C0DEFF05C0DDFF12000650030D6C0E3A
:100A8800F324D96E000EF420DA6E6A0EDE6E140EB0
:100A9800DE6E000EDE6E0650020D7E0EF324D96E59
:100AA800000EF420DA6E000EDE6E000EDD6E12000F
:100AB8002DEC0AF062C0D9FF63C0DAFFDF6E0001D7
:100AC800624B632B6407D8A0650764516511D8B4DD
:100AD80004D018EC0AF0050E1200608506D0E0EC90
:100AE80009F01200E4EC09F012007EC00CF07FC09F
:100AF8000DF020EE6CF001D80AD00500FA6EDE5039
:100B0800FD6EDE50FE6EDE50FF6EFA501200010AD6
:100B1800D8B4E8D7030AD8B4E2D7010AD8B4DFD7E3
:100B2800070AE0D747B2C5EF05F0000160850AD093
:100B38008FEC09F0120000EC0AF0030E120088ECAA
:100B480009F012007EC021F07FC022F020EE6CF088
:100B580001D80AD00500FA6EDE50FD6EDE50FE6E3A
:100B6800DE50FF6EFA501200010AD8B4E8D7030A23
:100B7800D8B4DED7010AD8B4DBD7070AD8B4DBD794
:100B8800DED7000160850AD0F0EC09F0120012EC03
:100B98000AF0030E1200ECEC09F012007EC00CF013
:100BA8007FC00DF020EE6CF001D80AD00500FA6E77
:100BB800DE50FD6EDE50FE6EDE50FF6EFA50120003
:100BC800010AD8B4E8D7030AD8B4DED7010AD8B4E2
:100BD800DBD7070AD8B4DBD7DED747B289EF06F0F0
:100BE8000CEC0AF0000160A707D008EC09F0D8A0C7
:100BF80003D00F0E00016A6F00016A51030DC70E82
:100C0800F324D96E000EF420DA6E01D80AD005005C
:100C1800FA6EDE50FD6EDE50FE6EDE50FF6EFA504C
:100C2800120000016A6F120047B2ADEF06F0000132
:100C38006097020E6B6F06D08FEC09F0120088ECFB
:100C480009F0120082C021F083C022F020EE72F079
:100C580001D80AD00500FA6EDE50FD6EDE50FE6E39
:100C6800DE50FF6EFA501200020AD8B4E5D7010A26
:100C7800D8B4E2D7E4D7256E25501EEC03F000095E
:100C8800D8B4FAD721C016F022C017F023C018F044
:100C980024C019F092EC08F08A0E1C6E130E1D6E1B
:100CA800000E1E6E000E1F6E000E206E4DEC08F03A
:100CB800D4EC09F03EEC08F0E806D8A41200FAD704
:100CC80047B2D1EF06F020EE02F02150D92622508B
:100CD800DA22DECF16F0DDCF17F021C0D9FF22C00F
:100CE800DAFFDECF18F0DDCF19F092EC08F0000E35
:100CF8001C6E000E1D6E000E1E6E000E1F6E000E86
:100D0800206E5BEC08F0020E12000FEC0AF00001F6
:100D180060A707D01EEC09F0D8A003D00F0E000181
:100D28006A6F00016A51030DC70EF324D96E000ED5
:100D3800F420DA6E01D80AD00500FA6EDE50FD6E96
:100D4800DE50FE6EDE50FF6EFA50120000016A6F30
:100D5800120000016097020E6B6F06D0F0EC09F0EC
:100D68001200ECEC09F0120082C00CF083C00DF008
:100D780020EE72F001D80AD00500FA6EDE50FD6E42
:100D8800DE50FE6EDE50FF6EFA501200020AD8B432
:100D9800E5D7010AD8B4E2D7E4D720EE02F00C5028
:100DA800D9260D50DA22DECF01F0DDCF02F00CC0DB
:100DB800D9FF0DC0DAFFDECF03F0DDCF04F0ACECD5
:100DC80008F0000E076E000E086E000E096E000E89
:100DD8000A6E000E0B6E77EC08F0020E1200640E1D
:100DE800F66E0F0EF76E000EF86E00EEC7F010EEFE
:100DF80030F00900F5CFEEFFE550E150FAE100EEE2
:100E080060F0340EEE6AE806FDE1466A456A446A17
:100E1800436A426A416A47904792000170EF00F0C6
:100E280047B2CAEF07F021C016F022C017F0000E33
:100E3800196E020E186E92EC08F0000E1C6E000E71
:100E48001D6E000E1E6E000E1F6E000E206E5BECF7
:100E580008F0020E120047B2E2EF07F021C016F0C8
:100E680022C017F0000E196E010E186E92EC08F0F1
:100E7800000E1C6E000E1D6E000E1E6E000E1F6E04
:100E8800000E206E5BEC08F0020E120047B2FAEF7B
:100E980007F021C016F022C017F0000E196E010EDF
:100EA800186E92EC08F0000E1C6E000E1D6E000EFF
:100EB8001E6E000E1F6E000E206E5BEC08F0040E16
:100EC800120047B212EF08F021C016F022C017F046
:100ED800000E196E020E186E92EC08F0000E1C6ED1
:100EE800000E1D6E000E1E6E000E1F6E000E206E90
:100EF8005BEC08F0040E12001F6E1F501EEC03F08E
:100F08000009D8B4FAD71BC016F01CC017F01DC0D2
:100F180018F01EC019F092EC08F0D8EC09F03EEC7D
:100F280008F0E806D8A41200FAD7196E010E1A6E56
:100F3800000160B111D06081000E1A6E1950D8B44A
:100F480002D0010E01D0020E6A6F29EC0AF029ECDA
:100F580009F0D8A085EC08F01A501200761200E4C7
:100F68001100CE11002808004E09006412002C0B55
:100F7800003A13002C13001E130010130002130074
:100F8800F41200E61200FA1100300C000CC001F057
:100F98000DC002F0000E046E020E036EACEC08F0F9
:100FA800000E076E000E086E000E096E000E0A6E27
:100FB800000E0B6E77EC08F0020E12000CC001F068
:100FC8000DC002F0000E046E010E036EACEC08F0CA
:100FD800000E076E000E086E000E096E000E0A6EF7
:100FE800000E0B6E77EC08F0020E12000CC001F038
:100FF8000DC002F0000E046E010E036EACEC08F09A
:10100800000E076E000E086E000E096E000E0A6EC6
:10101800000E0B6E77EC08F0040E12000CC001F005
:101028000DC002F0000E046E020E036EACEC08F068
:10103800000E076E000E086E000E096E000E0A6E96
:10104800000E0B6E77EC08F0040E120017AE0DD0F0
:1010580016C018F017C019F0181E191E184A192AB8
:1010680018C016F019C017F0120016C016F017C0F5
:1010780017F01200010E166E000160B108D06093DF
:1010880061690CEC0AF009EC0AF06BC016F0165016
:1010980012001CC016F01DC017F01EC018F01FC0AB
:1010A80019F020C01AF0020EE4EC04F012001CC083
:1010B80016F01DC017F01EC018F01FC019F020C090
:1010C8001AF0000EE4EC04F01200000E0E01E16FBD
:1010D800000EE26F000EE36F000EE46F000EE56F86
:1010E800000EE66F120007C001F008C002F009C048
:1010F80003F00AC004F00BC005F0000E20EC05F068
:10110800120008D0000E166E000E176EDCEC08F008
:10111800F1EC05F0000160A11200F4D7000160A510
:10112800120016C062F017C063F018C064F019C04E
:1011380065F0609512002BEC0AF069EC08F076EC8B
:1011480003F0B9EC08F013EC09F0C5EC08F0120054
:10115800000160A5120001C062F002C063F003C084
:1011680064F004C065F060951200620E0E01D86F3D
:10117800000EDA6F000EDC6F030EDE6F200EDD6FDF
:101188001200080E0E019F6F900E9D6F240E9E6F29
:10119800330E9B6F000E9C6F120096BA1200000E61
:1011A800956E280E966E000E976E040E936E1200C2
:1011B8000E01CDB112000E01CDB11200100EE82EB5
:1011C800FED700D0F8D747B24DEF09F0000160878D
:1011D80061516125DCEC09F0030E120047B255EFAE
:1011E80009F000016087D8806135DCEC09F0050E54
:1011F800120047B25DEF09F03BEC0AF00001609184
:10120800000E6B6F0E0E12009750BF0B4009976EC1
:101218009738E832E832010B166E16301200080EC5
:101228009F6E900E9D6E240E9E6E330E9B6E000E6A
:101238009C6E12009750BF0B4009976E9738E832A2
:10124800E832010B016E013012000E01C5A103D076
:10125800166A162A01D0166A1630120047B2B9EF7C
:1012680009F00001609723EC0AF0040E120047B25F
:10127800BFEF09F000016091000E6B6F0E0E1200B7
:101288000E01CDAFFDD79DA302D09D9F9D8F995193
:1012980012000001608761516125FCEC09F0030E22
:1012A800120000016087D8806135FCEC09F0050E5A
:1012B80012003CEC0AF000016091000E6B6F0E0EFC
:1012C800120016C041F017C042F018C043F01200D7
:1012D80016C044F017C045F018C046F0120047B2D7
:1012E800E0EF09F003EC0AF0090E120047B2E4EF50
:1012F80009F003EC0AF00A0E120047B2E8EF09F011
:1013080006EC0AF0050E120047B2ECEF09F025ECE6
:101318000AF0000E120047B2F0EF09F027EC0AF0CD
:10132800010E120047B2F4EF09F027EC0AF0020EA2
:10133800120047B2F8EF09F027EC0AF0010E12008C
:101348000E01CDAF02D0010E1200000E1200166E73
:101358000E01CDADFDD716C09AFE1200166E0E0115
:10136800CDA9FDD716C09AFF1200000160972FEC97
:101378000AF0040E120000016091000E6B6F0E0E51
:10138800120047B231EF0AF0030E120047B233EFF2
:101398000AF0050E120047B235EF0AF0010E1200EE
:1013A800000E99EC07F01200010E99EC07F01200FC
:1013B800166E16C092FF120015EC0AF0090E120004
:1013C80015EC0AF00A0E120018EC0AF0050E1200CD
:1013D80037EC0AF0000E120039EC0AF0010E120088
:1013E80039EC0AF0020E120039EC0AF0010E120074
:1013F800016E01C092FF12000E01CD811200978A82
:1014080097881200979A978812000E01C5911200CA
:101418000E01CD9112000E01CD9112000E01CD8169
:101428001200978A97881200979A978812001EECE4
:101438000AF012000E01CD93120092501200978606
:101448001200978412009782120097801200F29A75
:1014580012009250120097861200030E1200050E19
:101468001200010E120097841200978212001200D7
:02147800120060
:020000040020DA
:10000000FF0FFF0FFF0FFF0FFF0FFF0FFF0FFF0F80
:020000040030CA
:0C000000ECFFFFFF9FFFFFFFFFFFFFFF73
:00000001FF
