:040000006FEF00F0AE
:100008004A82FACF31F0FBCF32F0E9CF33F0EACFB2
:1000180034F0E1CF35F0E2CF36F0D9CF37F0DACF90
:1000280038F0F3CF39F0F4CF3AF0F6CF3BF0F7CF12
:100038003CF0F8CF3DF0F5CF3EF04AC03FF04BC062
:1000480040F04CC041F04DC042F0F2AC1ED00E0161
:10005800C5B3CDA30AD001D818D00500FA6E2B502D
:10006800FD6E2C50FE6E2D500DD0C5B1CDA10DD01A
:1000780001D80BD00500FA6E0001A451FD6EA55100
:10008800FE6EA651FF6EFA50120042C04DF041C0FC
:100098004CF040C04BF03FC04AF03EC0F5FF3DC0B9
:1000A800F8FF3CC0F7FF3BC0F6FF3AC0F4FF39C089
:1000B800F3FF38C0DAFF37C0D9FF36C0E2FF35C0DA
:1000C800E1FF34C0EAFF33C0E9FF32C0FBFF31C0B3
:1000D800FAFF4A9211004DEF04F028EC06F0F28E78
:1000E800F28C200E00019E6F170E9A6F300E9B6FD8
:1000F800130E9C6F9C0E956F000E966F000E986FF6
:10010800010E976F9E5179EC03F0A30E0001906FDA
:10011800000E916F000E936F010E926F9E51DCECF2
:1001280004F0000E0001A06F000E9F6FA0BF06D064
:10013800A05111E1500E9F5DD8B00DD0210E0001E5
:10014800996F760EE82EFED7992FFCD700F00001A4
:100158009F4BA02BEBD7EFEC05F00001A351FF0A52
:10016800C4EC06F0BDEC06F00009D8B404D065EC88
:1001780006F00001A36F400E0001A319D8B48394C0
:10018800000EA26F000EA16FA2BF06D0A251E5E13A
:10019800140EA15DD8B0E1D7210E0001996F760E3B
:1001A800E82EFED7992FFCD700F00001A14BA22B17
:1001B800EBD7466E010E476E01B250D046C002F032
:1001C8000190018201960E0E0B6E010E0A6EF40E5E
:1001D800096E0184D40E0D6E0D0E0E6E000E0F6E9C
:1001E800000E1F6E000E206ED40E106E0D0E116ED6
:1001F800000E126E000E216E000E226ED40E136ECB
:100208000D0E146E000E156E000E236E000E246E79
:10021800D40E166E0D0E176E000E186E000E256E9B
:10022800000E266ECA0E196E0D0E1A6E000E1B6E8B
:10023800000E276E000E286E07EC06F031EC07F072
:10024800800E436E0E0E446E85EC06F08A0E436EE9
:10025800070E446E7EEC06F0000E476E4750120003
:100268004AB2C6EF01F01DEC06F0D8B00AD026D08D
:10027800B6EC06F01200AFEC06F01200A1EC06F0A6
:10028800120025C095F026C096F020EE16F001D891
:100298000AD00500FA6EDE50FD6EDE50FE6EDE50AE
:1002A800FF6EFA501200010AD8B4E8D7030AD8B48E
:1002B800DFD7010AD8B4DFD7070AE0D7019603C011
:1002C800D9FF04C0DAFF034A042ADF5001EC07F023
:1002D8000506D8A0060605500610D8A404D0000EBE
:1002E800456E060E03D0000E456E030E446E445054
:1002F8001200000E876E000E866E0C0E836E000EC6
:10030800846E000E856E070E8C6EEB0E886E896803
:10031800DF0E8A6E7F0E8B6EE70E0F01216F196953
:10032800F70E266F070E2E6F1169880E256F000EC7
:100338002D6F020E186F000E106F180E206F000E32
:100348002C6F000E0F6F000E176F000E1F6F000E40
:10035800246F0F0E0E01FA6F100EFB6FB781B78373
:10036800B795B797B7890B0E0F01066F0E018D81F0
:100378008D838D958D878D89B891B893B885B897F9
:10038800B889120033EC06F0D8B00AD026D01DEC9C
:1003980007F0120019EC07F0120011EC07F0120038
:1003A80025C039F026C03AF020EE16F001D80AD060
:1003B8000500FA6EDE50FD6EDE50FE6EDE50FF6EFA
:1003C800FA501200010AD8B4E8D7030AD8B4DFD724
:1003D800010AD8B4DFD7070AE0D7019603C0D9FFCE
:1003E80004C0DAFF034A042ADF5021EC07F00506AF
:1003F800D8A0060605500610D8A404D0000E306E0A
:10040800060E03D0000E306E030E2F6E2F50120012
:100418004AB2C0EF02F046EC07F003C0D9FF04C0AF
:10042800DAFFDF6E034A042A0506D8A0060605503F
:100438000610D8B404D02BEC07F0050E1200018486
:1004480006D08CEC06F0120093EC06F012001FC0E8
:1004580095F020C096F020EE0DF001D80AD00500E6
:10046800FA6EDE50FD6EDE50FE6EDE50FF6EFA5004
:100478001200010AD8B4E8D7030AD8B4E2D7010AAF
:10048800D8B4DFD7070AE0D7486E43504410451068
:10049800D8B41BD04850030D0D0EF324D96E000EAE
:1004A800F420DA6E43C0DEFF44C0DEFF45C0DEFF45
:1004B8004850020D1F0EF324D96E000EF420DA6E98
:1004C80046C0DEFF47C0DDFF12004850030D0D0E89
:1004D800F324D96E000EF420DA6ED40EDE6E0D0E03
:1004E800DE6E000EDE6E4850020D1F0EF324D96E2C
:1004F800000EF420DA6E000EDE6E000EDD6E1200C5
:10050800336E2E502F103010D8B41BD03350030D3B
:100518000D0EF324D96E000EF420DA6E2EC0DEFF25
:100528002FC0DEFF30C0DEFF3350020D1F0EF32454
:10053800D96E000EF420DA6E31C0DEFF32C0DDFF66
:1005480012003350030D0D0EF324D96E000EF42063
:10055800DA6EB40EDE6E0E0EDE6E000EDE6E3350F8
:10056800020D1F0EF324D96E000EF420DA6E000E71
:10057800DE6E000EDD6E120052EC07F003C0D9FFEC
:1005880004C0DAFFDF6E034A042A0506D8A006066F
:1005980005500610D8B404D03DEC07F0050E120043
:1005A800018406D005EC07F0120009EC07F01200F0
:1005B8001FC039F020C03AF020EE0DF001D80AD063
:1005C8000500FA6EDE50FD6EDE50FE6EDE50FF6EE8
:1005D800FA501200010AD8B4E8D7030AD8B4E2D70F
:1005E800010AD8B4DFD7070AE0D74AB227EF03F0E9
:1005F80001840AD0A8EC06F0120025EC07F0030EDF
:100608001200A1EC06F012001FC095F020C096F071
:1006180020EE0DF001D80AD00500FA6EDE50FD6E0E
:10062800DE50FE6EDE50FF6EFA501200010AD8B49A
:10063800E8D7030AD8B4DED7010AD8B4DBD7070A4B
:10064800D8B4DBD7DED701840AD015EC07F0120046
:1006580037EC07F0030E120011EC07F012001FC070
:1006680039F020C03AF020EE0DF001D80AD005008C
:10067800FA6EDE50FD6EDE50FE6EDE50FF6EFA50F2
:100688001200010AD8B4E8D7030AD8B4DED7010AA1
:10069800D8B4DBD7070AD8B4DBD7DED74AB20BEF1A
:1006A80004F0000120EE02F09551D9269651DA2285
:1006B800DECF43F0DDCF44F095C0D9FF96C0DAFF16
:1006C800DECF45F0DDCF46F0D7EC05F0000E000197
:1006D800906F000E916F000E926F000E936F000ED8
:1006E800946F93EC05F0020E1200496E4950DDEC50
:1006F80000F00009D8B4FAD795C043F096C044F08A
:1007080097C045F098C046F0D7EC05F0C00E000140
:10071800906F0D0E916F000E926F000E936F000E8A
:10072800946F85EC05F0F9EC06F0A1EC05F0E8060D
:10073800D8A41200FAD74AB2E8EF03F00196020EE5
:100748000C6E06D0A8EC06F01200A1EC06F0120020
:1007580023C095F024C096F020EE13F001D80AD0FB
:100768000500FA6EDE50FD6EDE50FE6EDE50FF6E46
:10077800FA501200020AD8B4E5D7010AD8B4E2D771
:10078800E4D74AB22DEF04F031EC07F001A606D009
:100798001DEC06F0D8A002D00F0E0B6E0B50030D07
:1007A800600EF324D96E000EF420DA6E01D80AD058
:1007B8000500FA6EDE50FD6EDE50FE6EDE50FF6EF6
:1007C800FA5012000B6E12000196020E0C6E06D043
:1007D80015EC07F0120011EC07F0120023C039F0F5
:1007E80024C03AF020EE13F001D80AD00500FA6EC2
:1007F800DE50FD6EDE50FE6EDE50FF6EFA501200C7
:10080800020AD8B4E5D7010AD8B4E2D7E4D720EE73
:1008180002F03950D9263A50DA22DECF2EF0DDCF59
:100828002FF039C0D9FF3AC0DAFFDECF30F0DDCF84
:1008380031F0FBEC05F0000E346E000E356E000E44
:10084800366E000E376E000E386EBDEC05F0020EE7
:10085800120034EC07F001A606D033EC06F0D8A05D
:1008680002D00F0E0B6E0B50030D600EF324D96EE1
:10087800000EF420DA6E01D80AD00500FA6EDE50B8
:10088800FD6EDE50FE6EDE50FF6EFA5012000B6EEB
:100898001200EA0EF66E090EF76E000EF86E00EE04
:1008A80060F010EE30F00900F5CFEEFFE550E150B2
:1008B800FAE10001A66BA56BA46B00EE01F02D0E0A
:1008C800EE6AE806FDE14A904A92000171EF00F0F5
:1008D8004AB225EF05F095C043F096C044F0000EEB
:1008E800466E020E456ED7EC05F0000E0001906FC3
:1008F800000E916F000E926F000E936F000E946FB2
:1009080093EC05F0020E12004AB23DEF05F095C0D7
:1009180043F096C044F0000E466E010E456ED7ECCB
:1009280005F0000E0001906F000E916F000E926F9F
:10093800000E936F000E946F93EC05F0020E1200F8
:100948004AB255EF05F095C043F096C044F0000E4A
:10095800466E010E456ED7EC05F0000E0001906F53
:10096800000E916F000E926F000E936F000E946F41
:1009780093EC05F0040E12004AB26DEF05F095C035
:1009880043F096C044F0000E466E020E456ED7EC5A
:1009980005F0000E0001906F000E916F000E926F2F
:1009A800000E936F000E946F93EC05F0040E120086
:1009B800486E4850DDEC00F00009D8B4FAD790C072
:1009C80043F091C044F092C045F093C046F0D7EC94
:1009D80005F0FDEC06F0A1EC05F0E806D8A412003D
:1009E800FAD7EC0C00900C007C0C0068020018048C
:1009F80000DC0C00F205006C0D005E0D00500D00CF
:100A0800420D00340D00260D00180D00A40C003E08
:100A18000700466E010E476E01B011D00180000E2E
:100A2800476E4650D8B402D0010E01D0020E0B6EAC
:100A38004EEC07F05CEC06F0D8A0CBEC05F0475084
:100A4800120039C02EF03AC02FF0000E316E020E9F
:100A5800306EFBEC05F0000E346E000E356E000EA5
:100A6800366E000E376E000E386EBDEC05F0020EC5
:100A7800120039C02EF03AC02FF0000E316E010E70
:100A8800306EFBEC05F0000E346E000E356E000E75
:100A9800366E000E376E000E386EBDEC05F0020E95
:100AA800120039C02EF03AC02FF0000E316E010E40
:100AB800306EFBEC05F0000E346E000E356E000E45
:100AC800366E000E376E000E386EBDEC05F0040E63
:100AD800120039C02EF03AC02FF0000E316E020E0F
:100AE800306EFBEC05F0000E346E000E356E000E15
:100AF800366E000E376E000E386EBDEC05F0040E33
:100B0800120090C043F091C044F092C045F093C0E9
:100B180046F094C047F0020E48EC02F0120090C074
:100B280043F091C044F092C045F093C046F094C0A1
:100B380047F0000E48EC02F01200010E436E01B0BF
:100B480008D00192026831EC07F02EEC07F00CC0D7
:100B580043F043501200000E0E01E16F000EE26FE9
:100B6800000EE36F000EE46F000EE56F000EE66FF7
:100B7800120034C02EF035C02FF036C030F037C028
:100B880031F038C032F0000E84EC02F0120008D0C8
:100B9800000E436E000E446E12EC06F0C5EC03F036
:100BA80001A01200F5D701A4120043C003F044C00D
:100BB80004F045C005F046C006F001941200620E2C
:100BC8000E01D86F000EDA6F000EDC6F030EDE6FB9
:100BD800200EDD6F1200080E0E019F6F900E9D6FA4
:100BE800240E9E6F330E9B6F000E9C6F120001A4A3
:100BF80012002EC003F02FC004F030C005F031C041
:100C080006F00194120096BA1200000E956E280E96
:100C1800966E000E976E040E936E12000E01CDB103
:100C280012000E01CDB11200100EE82EFED700D032
:100C3800F8D79750BF0B4009976E9738E832E832DB
:100C4800010B436E4330120050EC07F0AFEC05F097
:100C58007DEC01F0E3EC05F0EFEC05F012009750A5
:100C6800BF0B4009976E9738E832E832010B2E6EB9
:100C78002E3012004AB2CBEF06F001860250022451
:100C880001EC07F0030E12004AB2D2EF06F001861B
:100C9800D880023401EC07F0050E12004AB2D9EFF1
:100CA80006F060EC07F00190000E0C6E0E0E1200BC
:100CB8000E01C5A103D0436A432A01D0436A4330D9
:100CC80012000E01CDAFFDD79DA302D09D9F9D8F31
:100CD800995112004AB2EFEF06F0019648EC07F07E
:100CE800040E12004AB2F4EF06F00190000E0C6EEA
:100CF8000E0E120043C0A4F044C0A5F045C0A6F0F3
:100D0800120043C02BF044C02CF045C02DF0120057
:100D18004AB205EF07F028EC07F0090E12004AB2B4
:100D280009EF07F028EC07F00A0E12004AB20DEF9F
:100D380007F02BEC07F0050E12004AB211EF07F08E
:100D48004AEC07F0000E12004AB215EF07F04CEC1F
:100D580007F0010E12004AB219EF07F04CEC07F049
:100D6800020E12004AB21DEF07F04CEC07F0010E1C
:100D780012000E01CDAF02D0010E1200000E1200BB
:100D8800436E0E01CDADFDD743C09AFE1200018619
:100D98000250022421EC07F0030E12000186D880CD
:100DA800023421EC07F0050E120061EC07F0019007
:100DB800000E0C6E0E0E12004AB256EF07F0030E2C
:100DC80012004AB258EF07F0050E12004AB25AEF65
:100DD80007F0010E1200019654EC07F0040E120001
:100DE8000190000E0C6E0E0E1200000E0DEC05F0B8
:100DF8001200010E0DEC05F01200436E43C092FF85
:100E080012003AEC07F0090E12003AEC07F00A0E4D
:100E180012003DEC07F0050E12005CEC07F0000E26
:100E280012005EEC07F0010E12005EEC07F0020EF5
:100E380012005EEC07F0010E12002E6E2EC092FF1B
:100E480012000E01CD811200978A97881200979A96
:100E5800978812000E01C59112000E01CD91120063
:100E68000E01CD9112000E01CD811200978A97884C
:100E78001200979A9788120043EC07F012000E01AF
:100E8800CD93120092501200978612009784120098
:100E98009782120097801200F29A12009250120064
:100EA80097861200030E1200050E1200010E1200A2
:0C0EB800978412009782120012001200B2
:020000040020DA
:10000000FF0FFF0FFF0FFF0FFF0FFF0FFF0FFF0F80
:020000040030CA
:0C000000ECFFFFFF9FFFFFFFFFFFFFFF73
:00000001FF
