:040000006EEF00F0AF
:100008004A82FACF34F0FBCF35F0E9CF36F0EACFA9
:1000180037F0E1CF38F0E2CF39F0D9CF3AF0DACF84
:100028003BF0F3CF3CF0F4CF3DF0F6CF3EF0F7CF06
:100038003FF0F8CF40F0F5CF41F04AC042F04BC056
:1000480043F04CC044F04DC045F0F2AC1DD00E0159
:10005800C5B3CDA30AD001D817D00500FA6E2E502B
:10006800FD6E2F50FE6E30500CD0C5B1CDA10CD016
:1000780001D80AD00500FA6E2B50FD6E2C50FE6E8A
:100088002D50FF6EFA50120045C04DF044C04CF0A0
:1000980043C04BF042C04AF041C0F5FF40C0F8FFF2
:1000A8003FC0F7FF3EC0F6FF3DC0F4FF3CC0F3FF82
:1000B8003BC0DAFF3AC0D9FF39C0E2FF38C0E1FFE0
:1000C80037C0EAFF36C0E9FF35C0FBFF34C0FAFF8E
:1000D8004A9211008CEF04F00001906F010E0001AC
:1000E800916F01B251D090C002F001900182019647
:1000F8000E0E0B6E010E0A6EF40E096E01842A0EA6
:100108000D6E0D0E0E6E000E0F6E000E1F6E000EA1
:10011800206E2A0E106E0D0E116E000E126E000E5D
:10012800216E000E226E2A0E136E0D0E146E000E36
:10013800156E000E236E000E246E2A0E166E0D0E1E
:10014800176E000E186E000E256E000E266E200E1D
:10015800196E0D0E1A6E000E1B6E000E276E000E25
:10016800286ECBEC05F0DCEC06F0D60E466E0D0ED4
:10017800476E3EEC06F0280E466E070E476E37ECCB
:1001880006F0000E0001916F915112004AB213EF70
:1001980001F0E1EC05F0D8B00AD026D06FEC06F0FB
:1001A800120068EC06F012005AEC06F0120025C0A6
:1001B8009AF026C09BF020EE16F001D80AD0050070
:1001C800FA6EDE50FD6EDE50FE6EDE50FF6EFA50A7
:1001D8001200010AD8B4E8D7030AD8B4DFD7010A55
:1001E800D8B4DFD7070AE0D7019603C0D9FF04C007
:1001F800DAFF034A042ADF50ACEC06F00506D8A063
:10020800060605500610D8A404D0000E486E060E47
:1002180003D0000E486E030E476E47501200ECECF8
:1002280005F0D8B00AD026D0C8EC06F01200C4EC0D
:1002380006F01200BCEC06F0120025C03CF026C007
:100248003DF020EE16F001D80AD00500FA6EDE5017
:10025800FD6EDE50FE6EDE50FF6EFA501200010A8F
:10026800D8B4E8D7030AD8B4DFD7010AD8B4DFD79F
:10027800070AE0D7019603C0D9FF04C0DAFF034A92
:10028800042ADF50CCEC06F00506D8A00606055077
:100298000610D8A404D0000E336E060E03D0000E4C
:1002A800336E030E326E325012001EEC06F0F28EE0
:1002B800F28C200E0001A36F130E9F6F9F0E9A6F92
:1002C800000E9B6F000E9D6F010E9C6FA3511FECDB
:1002D80003F0A10E0001926F000E936F000E956F50
:1002E800010E946FA351A7EC04F0130E00019F6F49
:1002F8009F0E9A6F000E9B6F000E9D6F010E9C6FF4
:10030800A3511FEC03F0A20E0001926F000E936F31
:10031800000E956F010E946FA351A7EC04F0000135
:10032800A229D8B402D08394E0D78384DED7466E5E
:100338000001905191119211D8B41BD04650030D71
:100348000D0EF324D96E000EF420DA6E90C0DEFF95
:1003580091C0DEFF92C0DEFF4650020D1F0EF3244F
:10036800D96E000EF420DA6E93C0DEFF94C0DDFF74
:1003780012004650030D0D0EF324D96E000EF42022
:10038800DA6E2A0EDE6E0D0EDE6E000EDE6E465042
:10039800020D1F0EF324D96E000EF420DA6E000E43
:1003A800DE6E000EDD6E1200000E876E000E866E89
:1003B8000C0E836E000E846E000E856E070E8C6E1A
:1003C800EB0E886E89688A688B68E70E0F01216FCB
:1003D80019692669070E2E6F1169000E256F000E28
:1003E8002D6F000E186F000E106F180E206F000E84
:1003F8002C6F000E0F6F000E176F000E1F6F000E90
:10040800246F0E01B781B783B795B797B7890F0ED9
:10041800FA6F100EFB6FB891B893B885B897B88982
:1004280012004AB28DEF02F0F1EC06F003C0D9FFDA
:1004380004C0DAFFDF6E034A042A0506D8A00606C0
:1004480005500610D8B404D0D6EC06F0050E1200FC
:10045800018406D045EC06F012004CEC06F01200C0
:100468001FC09AF020C09BF020EE0DF001D80AD0F2
:100478000500FA6EDE50FD6EDE50FE6EDE50FF6E39
:10048800FA501200010AD8B4E8D7030AD8B4E2D760
:10049800010AD8B4DFD7070AE0D7366E31503210D8
:1004A8003310D8B41BD03650030D0D0EF324D96E7B
:1004B800000EF420DA6E31C0DEFF32C0DEFF33C03A
:1004C800DEFF3650020D1F0EF324D96E000EF42005
:1004D800DA6E34C0DEFF35C0DDFF12003650030D82
:1004E8000D0EF324D96E000EF420DA6E0A0EDE6EBD
:1004F8000E0EDE6E000EDE6E3650020D1F0EF32459
:10050800D96E000EF420DA6E000EDE6E000EDD6E7F
:100518001200FDEC06F003C0D9FF04C0DAFFDF6E5D
:10052800034A042A0506D8A0060605500610D8B4C2
:1005380004D0E8EC06F0050E1200018406D0B0ECF9
:1005480006F01200B4EC06F012001FC03CF020C008
:100558003DF020EE0DF001D80AD00500FA6EDE500D
:10056800FD6EDE50FE6EDE50FF6EFA501200010A7C
:10057800D8B4E8D7030AD8B4E2D7010AD8B4DFD789
:10058800070AE0D74AB2F4EF02F001840AD061EC1E
:1005980006F01200D0EC06F0030E12005AEC06F03A
:1005A80012001FC09AF020C09BF020EE0DF001D879
:1005B8000AD00500FA6EDE50FD6EDE50FE6EDE508B
:1005C800FF6EFA501200010AD8B4E8D7030AD8B46B
:1005D800DED7010AD8B4DBD7070AD8B4DBD7DED711
:1005E80001840AD0C0EC06F01200E2EC06F0030E1B
:1005F8001200BCEC06F012001FC03CF020C03DF019
:1006080020EE0DF001D80AD00500FA6EDE50FD6E1E
:10061800DE50FE6EDE50FF6EFA501200010AD8B4AA
:10062800E8D7030AD8B4DED7010AD8B4DBD7070A5B
:10063800D8B4DBD7DED700019E6F00019E5170EC65
:1006480000F00009D8B4F9D79AC046F09BC047F02B
:100658009CC048F09DC049F0A7EC05F0160E0001BB
:10066800956F0D0E966F000E976F000E986F000E27
:10067800996F55EC05F0A4EC06F071EC05F0E8066E
:10068800D8A41200FAD74AB2DAEF03F0000120EE3C
:1006980002F09A51D9269B51DA22DECF46F0DDCFFF
:1006A80047F09AC0D9FF9BC0DAFFDECF48F0DDCF14
:1006B80049F0A7EC05F0000E0001956F000E966F4B
:1006C800000E976F000E986F000E996F63EC05F09F
:1006D800020E12004AB2B7EF03F00196020E0C6E3A
:1006E80006D061EC06F012005AEC06F0120023C0A6
:1006F8009AF024C09BF020EE13F001D80AD0050030
:10070800FA6EDE50FD6EDE50FE6EDE50FF6EFA5061
:100718001200020AD8B4E5D7010AD8B4E2D7E4D760
:100728004AB2FCEF03F0DCEC06F001A606D0E1ECDF
:1007380005F0D8A002D00F0E0B6E0B50030D600E03
:10074800F324D96E000EF420DA6E01D80AD0050021
:10075800FA6EDE50FD6EDE50FE6EDE50FF6EFA5011
:1007680012000B6E12000196020E0C6E06D0C0EC41
:1007780006F01200BCEC06F0120023C03CF024C0C6
:100788003DF020EE13F001D80AD00500FA6EDE50D5
:10079800FD6EDE50FE6EDE50FF6EFA501200020A49
:1007A800D8B4E5D7010AD8B4E2D7E4D720EE02F0EE
:1007B8003C50D9263D50DA22DECF31F0DDCF32F081
:1007C8003CC0D9FF3DC0DAFFDECF33F0DDCF34F0D7
:1007D800BFEC05F0000E376E000E386E000E396E55
:1007E800000E3A6E000E3B6E8DEC05F0020E120004
:1007F800DFEC06F001A606D0ECEC05F0D8A002D09C
:100808000F0E0B6E0B50030D600EF324D96E000E05
:10081800F420DA6E01D80AD00500FA6EDE50FD6EBB
:10082800DE50FE6EDE50FF6EFA5012000B6E1200A4
:100838004AB2F5EF04F09AC046F09BC047F0000EAC
:10084800496E020E486EA7EC05F0000E0001956F88
:10085800000E966F000E976F000E986F000E996F3E
:1008680063EC05F0020E12004AB20DEF05F09AC0D3
:1008780046F09BC047F0000E496E010E486EA7EC8B
:1008880005F0000E0001956F000E966F000E976F31
:10089800000E986F000E996F63EC05F0020E1200BF
:1008A8004AB225EF05F09AC046F09BC047F0000E0B
:1008B800496E010E486EA7EC05F0000E0001956F19
:1008C800000E966F000E976F000E986F000E996FCE
:1008D80063EC05F0040E12004AB23DEF05F09AC031
:1008E80046F09BC047F0000E496E020E486EA7EC1A
:1008F80005F0000E0001956F000E966F000E976FC1
:10090800000E986F000E996F63EC05F0040E12004C
:10091800BA0EF66E090EF76E000EF86E00EE60F075
:1009280010EE30F00900F5CFEEFFE550E150FAE1A6
:1009380000EE01F0300EEE6AE806FDE14A904A92B8
:10094800000159EF01F00001966F0001965170EC1B
:1009580000F00009D8B4F9D792C046F093C047F028
:1009680094C048F095C049F0A7EC05F0A8EC06F053
:1009780071EC05F0E806D8A41200FAD70001906FD0
:10098800010E0001916F01B011D00180000E916F2E
:100998009051D8B402D0010E01D0020E0B6EF9ECC2
:1009A80006F015EC06F0D8A09BEC05F0000191517B
:1009B80012005E0C00020C00EE0B009401002A04E9
:1009C800004E0C008C0500DE0C00D00C00C20C00A0
:1009D800B40C00A60C00980C008A0C00160C00DC65
:1009E80006003CC031F03DC032F0000E346E020EFD
:1009F800336EBFEC05F0000E376E000E386E000E39
:100A0800396E000E3A6E000E3B6E8DEC05F0020E4C
:100A180012003CC031F03DC032F0000E346E010EC1
:100A2800336EBFEC05F0000E376E000E386E000E08
:100A3800396E000E3A6E000E3B6E8DEC05F0020E1C
:100A480012003CC031F03DC032F0000E346E010E91
:100A5800336EBFEC05F0000E376E000E386E000ED8
:100A6800396E000E3A6E000E3B6E8DEC05F0040EEA
:100A780012003CC031F03DC032F0000E346E020E60
:100A8800336EBFEC05F0000E376E000E386E000EA8
:100A9800396E000E3A6E000E3B6E8DEC05F0040EBA
:100AA800120095C090F096C091F097C092F098C04F
:100AB80093F099C094F0020E9BEC01F0120095C0DF
:100AC80090F096C091F097C092F098C093F099C0BA
:100AD80094F0000E9BEC01F01200010E466E01B07E
:100AE80008D001920268DCEC06F0D9EC06F00CC0E4
:100AF80046F046501200000E0E01E16F000EE26F44
:100B0800000EE36F000EE46F000EE56F000EE66F57
:100B1800120037C031F038C032F039C033F03AC073
:100B280034F03BC035F0000E51EC02F0120008D052
:100B3800000E466E000E476ED6EC05F094EC03F0FE
:100B480001A01200F5D701A4120046C003F047C067
:100B580004F048C005F049C006F001941200620E86
:100B68000E01D86F000EDA6F000EDC6F030EDE6F19
:100B7800200EDD6F120001A4120031C003F032C054
:100B880004F033C005F034C006F00194120096BAA0
:100B98001200000E956E280E966E000E976E040ECB
:100BA800936E12000E01CDB112000E01CDB11200EC
:100BB800100EE82EFED700D0F8D79750BF0B40098B
:100BC800976E9738E832E832010B466E46301200CD
:100BD8009750BF0B4009976E9738E832E832010BFF
:100BE800316E313012004AB276EF06F001860250BB
:100BF8000224ACEC06F0030E12004AB27DEF06F0B8
:100C08000186D8800234ACEC06F0050E12004AB218
:100C180084EF06F00BEC07F00190000E0C6E0E0E40
:100C280012000E01C5A103D0466A462A01D0466AC1
:100C380046301200FBEC06F07FEC05F0D8EC01F032
:100C4800B3EC05F012004AB29AEF06F00196F3EC05
:100C580006F0040E12004AB29FEF06F00190000E53
:100C68000C6E0E0E120046C02BF047C02CF048C088
:100C78002DF0120046C02EF047C02FF048C030F0CB
:100C880012004AB2B0EF06F0D3EC06F0090E1200DB
:100C98004AB2B4EF06F0D3EC06F00A0E12004AB2DC
:100CA800B8EF06F0D6EC06F0050E12004AB2BCEF1B
:100CB80006F0F5EC06F0000E12004AB2C0EF06F09E
:100CC800F7EC06F0010E12004AB2C4EF06F0F7EC9A
:100CD80006F0020E12004AB2C8EF06F0F7EC06F072
:100CE800010E1200018602500224CCEC06F0030E1D
:100CF80012000186D8800234CCEC06F0050E1200F2
:100D08000CEC07F00190000E0C6E0E0E12004AB2A9
:100D180001EF07F0030E12004AB203EF07F0050EC9
:100D280012004AB205EF07F0010E12000196FFEC1F
:100D380006F0040E12000190000E0C6E0E0E12004A
:100D4800000EC2EC04F01200010EC2EC04F0120016
:100D5800466E46C092FF1200E5EC06F0090E12003E
:100D6800E5EC06F00A0E1200E8EC06F0050E12009B
:100D780007EC07F0000E120009EC07F0010E120054
:100D880009EC07F0020E120009EC07F0010E120040
:100D9800316E31C092FF12000E01CD811200978A88
:100DA80097881200979A978812000E01C591120031
:100DB8000E01CD9112000E01CD9112000E01CD81D0
:100DC8001200978A97881200979A97881200EEEC7B
:100DD80006F012000E01CD93120092501200978671
:100DE8001200978412009782120097801200F29ADC
:100DF80012009250120097861200030E1200050E80
:100E08001200010E1200978412009782120012003D
:020E18001200C6
:020000040020DA
:10000000FF0FFF0FFF0FFF0FFF0FFF0FFF0FFF0F80
:020000040030CA
:0C000000ECFFFFFF9FFFFFFFFFFFFFFF73
:00000001FF
