:400000000080002011000000610300006103000008B5044B1A6803F53F5302331A6000F0A7F900BFFA46004010B5054C237833B9044B13B10448AFF300800123237010BD0F
:400040005081FF1F00000000D80E0000084B10B51BB108490848AFF300800848036803B910BD074B002BFBD0BDE81040184700BF000000005481FF1FD80E0000C880FF1F26
:400080000000000008B500F01DFC00F0D3FB00F047FD00F059FD00F0C1FE642000F06AFE002000F06DFEF8E7FEE700BFF0B40022174611E050F82760F3B226F0FF0608E02E
:4000C00001EB420511F812406D78A5550132013BDBB2002BF4D10137262FEBD9F0BC704708B50A46002100F0EEFE08BD38B50122284B1A80182328490B7002310A80274AB2
:4001000013700E2102321180023213700222244B1A7008224FF040231A70032103F500731970204B1B78DBB21F490B701F4B1A8041F25122023B1A80002419250CE01C4B62
:400140001B7803F0010343EA440404F003044FF4F07000F071FE013D0DB1032CEFD115B90320FFF7A1FF134B4FF480721A8007221A70002210490A704820023108701A709F
:400180000222033B1A700D4A137843F00703137038BD00BF8040004082400040864000400043004008010049A146004022420040254200400440004006400040A24300407F
:4001C000F8B5164B1B78DBB2154E3478E4B2154F3D78EDB203F00701134A11701B090132137044F00303337045F003033B7010220E4B1A7040230E4A1370023213700122D1
:400200000C4B1A70202203331A700A2000F004FA3D7034704422084B1A70F8BDCF010049F8460040F94600406E5800401D51004009590040285B00407658004008B500F090
:4002400037FE08BD38B572B6314A137843F00403137000240CE02F4D630019194A0011462A44084691882858FFF73AFF0134E4B2072CF0D928494FF09040FFF717FF0421EE
:400280002648FFF72DFF042225492648FFF7D6FF254A264B1A60264A137843F0020313701032137843F002031370224C237843F040032370A2F58632513A137843F010038C
:4002C000137008221C491D48FFF7B8FF08221C491C48FFF7B3FF08221B491C48FFF7AEFF1B4A137843F0080313701A4D61232B70FFF7FCFE81232B700122174B1A70FFF73F
:400300005FFF0E2221461548FFF798FF38BD00BFE8460040DC0E00009C00004800760040000800480876004004040444D808014003500140A0430040E80700480251004038
:40034000F007004812510040F807004822510040224300400048004004000840B043004008B500F079FD03680C2B00D1FEE7FEE708B5104E104D16E029686B68AC6800228D
:4003800004E051F8040B43F8040B0432A242F8D1E868002203E0002143F8041B04328242F9D11035013E002EE6D100F05BFDFFF769FEFEE701000000340F000008B5114AF1
:4003C000114B1A60114A136843F40073136000230AE0032B03D80E4A52F8231000E00D490D4A42F8231001332F2BF2D90B4B1A780B4B1A70084A0B4B1A60FFF723FF00F004
:4004000013F808BD0004FA050CED00E014ED00E000000000610300000080FF1FBC760040C080FF1F08ED00E00B4A7F2313708021517007E0DA0002F1804202F5F042013BD1
:40044000DBB21370002BF5D1DB0003F1804303F5F04300221A707047CC80FF1F172815D831B103010A495A5C42F020025A5405E0030107495A5C02F0DF025A540001044A15
:40048000835C43F00103835400207047012070471070004017280CD80001074BC1180A7942F004020A71C25C42F00102C254002070470120704700BF1070004017280BD8A2
:4004C0000001064A835C03F0F103490001F00E011943815400207047012070471070004041F6FF73994201D14FF4005141F6FF739A4201D14FF40052172808D8C00000F156
:40050000804000F5EC408180C280002070470120704700BF172805D8034B03EB0010417200207047012070471070004017281BD810B4C00000F1804404F5EC44D201D2B2B4
:4005400001F07F01114321709DF804201201D2B203F00F03134363709DF8083003F00F03A3700020E07001E00120704710BC704710B500F069FC0A4B5B78182B0BD9084A5B
:400580001478013B5370E30003F1804303F5F0431B78137000E0FF2400F05AFC204610BDCC80FF1F10F0800F0CD111F4704F0BD1C00000F1804000F5F04001808270C370A7
:4005C00000207047012070470120704710F0800F08D1C00000F1804000F5F0408180C280002070470120704701BE704710B5044605E0084B186800F01FFCA4F50044B4F5B6
:40060000004FF6D8034B586800FB04F000F014FC10BD00BFD480FF1F08B5034B1B7A00FB03F000F009FC08BDD480FF1F70B504460E46074B1D681F2802D90020FFF7D4FF43
:4006400004F01F04103455F8240045F8246070BD08ED00E038B504460D46072902D90020FFF7C2FF1F2C02D90020FFF7BDFF04F01F0000F1604000F564406D01EDB20570C8
:4006800038BD00BF10B50B4C237803F09F032370237803F0F00323702378184340F0100020700120FFF7B8FF237803F0EF03237010BD00BF2051004070B5354B1A7802F086
:4006C0008002D2B21A7033490A7802F0F00242F00F020A7001310A7802F0F0020A7001310A7802F0F0020A701A7802F0DF021A701A7842F040021A704FF4CA760020FFF78F
:400700008BFF234D2B7843F010032B700120FFF783FF214B1C78E4B22B7803F0EF032B700020FFF779FF04F00804E4B22B7843F010032B700120FFF76FFF2B7803F0EF0334
:400740002B7014B90A20FFF767FF013E0CB1002ED4D10F4A137803F0BF031370137803F08003DBB213700232137803F0F00313700132137803F0F00343F00F0313700132C8
:40078000137803F0F00343F00F03137070BD00BF20510040225100402151004010B50446FFF78AFF2009FFF76DFF04F00F00FFF769FF10BD08B52820FFF718FF0320FFF78C
:4007C00061FF0520FFF712FF0320FFF75BFF0F20FFF70CFF0320FFF755FF0120FFF706FF0220FFF74FFF0520FFF700FF0620FFF7D5FF0E20FFF7D2FF2C20FFF7CFFF0820A4
:40080000FFF7CCFF0120FFF7C9FF0C20FFF7C6FF0320FFF7C3FF0520FFF7E8FE08BD00BF08B50C20FFF7BAFF0122014B1A7008BD6C81FF1F08B5054B5B7823B9FFF7BAFF05
:400840000122024B5A70FFF7EBFF08BD6C81FF1F08B50222054B1A6005490120FFF7E6FE07210120FFF7F6FE08BD00BF80E100E0F9080000024B187800F00F00704700BF4F
:400880006965004040F00700014B1870704700BF8965004008B50F20FFF7F4FFFFF7EAFF00F0D2FA054A137843F01003137000F0CFFA0222024B1A6008BD00BF9965004002
:4008C00000E100E008B500F099F84FF4004000F047F80022064B1A60064B1B7823B9FFF7B7FF0122034B1A70FFF7D4FF08BD00BF7081FF1F6E81FF1F0D4B1B78DBB213F00F
:40090000010F06D00B490A6802F5FF427F320A6007E013F0020F04D006490A68A2F500420A6013F0040F02D00022024B1A607047696500407081FF1F024A137843F08003B3
:400940001370704779650040014B1870704700BF89640040014B1878704700BF69640040014B1880704700BF10680040014B188880B2704790680040014B1880704700BFD0
:4009800050680040014B1880704700BF7068004008B501E0FFF7EAFFFFF7DCFF10F0400FF8D108BD08B5134B1A7802F0F8021A701A7802F0FC021A70FFF7EAFF4FF4004011
:4009C000FFF7DAFF4FF40040FFF7CAFF0020FFF7BBFFFFF7BFFF4FF40040FFF7D3FF00F033FA054A137843F01003137000F030FA08BD00BF796500409964004008B5054B51
:400A00001B7823B9FFF7CEFF0122024B1A70FFF793FF08BD7481FF1F10B541F6FF734FF480420121022000F047F9084C207041F6FF731A460121022000F05CF960700448B1
:400A400000F076F9002000F079F910BD7881FF1F510B000070B52C4C2078FFF71BFD6078FFF718FD294B1B78FF2B03D1FFF780FD264B1870254D2878062302460221FFF722
:400A800091FD214E341DA4B2224645F6A2312878FFF79CFD29783078FFF73CFD6B78FF2B02D1FFF765FD6870184D6878072302460221FFF777FD164A92B221466878FFF740
:400AC00085FD114C69786078FFF724FD01212078FFF7C4FC01216078FFF7C0FC00F0B4F90C4A137843F02003137000F0B1F90A4B1A7842F001021A701A7842F002021A7042
:400B00000122064B1A6070BD7881FF1FE480FF1F8881FF1F9B6400407F64004080E200E008B5074B9B6823B9FFF776FF0122044B9A60FFF78FFF00F0A9F8024B1B7808BDB7
:400B40007881FF1F6C64004008B500F0ADF808BD704700BF08B50A280FD00C2802D0082806D102E04FF4805209E04FF4807206E00020FFF739FD002201E04FF48062002156
:400B8000094B198042F2107303FB02F303F6C413064A82FB0302DB17C3EBE223044A1360044B198008BD00BF8C81FF1FAD8BDB689081FF1F9481FF1F10B500F045F90446E5
:400BC000184A137843F0020313701032137843F00203137002F5AA521032137843F0030313701822104B1A70013B1A7842F040021A701A7802F0FC021A70C822053B1A709E
:400C00000222A3F59753123B1A70084A137843F0080313700A20FFF7FFFC204600F018F910BD00BFAB4300400E5900402F5B004010B504460A280DD00C2802D0082804D1C3
:400C400001E0C22207E0422205E00020FFF7CCFCC22200E08222034B1A702046FFF77AFF10BD00BF0A59004008B5064A137843F0060313700C20FFF7DBFF0022024B1A8001
:400C800008BD00BF095900409681FF1F08B5054B1B7823B9FFF7E8FF0122024B1A70FFF78BFF08BD8481FF1F024A137843F001031370704708590040F0B583B016461F469C
:400CC0000B4C012525700023019300932B460A4601462846FFF72AFC3A4631462078FFF7FFFB02212078FFF7E9FB207803B0F0BDE680FF1FF0B583B016461F460B4D002461
:400D00002C700194009423460A4601462046FFF70DFC3A4631462878FFF7E2FB02212878FFF7CCFB287803B0F0BD00BFE780FF1F014B1B681864704708ED00E04001C0B2D1
:400D4000014B1870704700BF00E400E0024A137843F08003137070477E640040014B1870704700BF0E640040014B1870704700BF4E640040014B1870704700BF2E64004028
:400D8000014B1870704700BF3E640040014B1870704700BF8E640040014B1878704700BF6E640040014B1878704700BF5E64004008B501E0FFF7F6FFFFF7EEFF10F0100F48
:400DC000F8D108BD10B5134A137803F0C00343F009031370104C237843F0010323706420FFF7BCFF6420FFF7BFFF6420FFF7C2FF6420FFF7C5FF0020FFF7C8FF00F024F8B0
:400E0000237843F01003237000F022F8FFF7D0FF10BD00BF7E6400409E64004008B5054B1B7823B9FFF7CEFF0122024B1A70FFF78DFF08BD8581FF1F0230800803D000BF8F
:400E400001380046FCD17047EFF3108072B6704780F31088704700BF014B1868704700BF4881FF1F0E4B70B51E460E4C0025E41AA410A54204D056F8253098470135F8E70F
:400E800000F046F8084B094C1E46E41AA4100025A54204D056F8253098470135F8E770BD1C0F00001C0F00001C0F0000240F000010B5431E0A44914204D011F8014B03F883
:400EC000014FF8E710BD03460244934202D003F8011BFAE77047000000000000305100404000C05100401000F0510040100000000140001000140140000800400140000AE5
:400F0000004C0140000200500140200043000000F8B500BFF8BC08BC9E4670474D000000BD030000F8B500BFF8BC08BC9E46704729000000480F0000C880FF1F88000000B5
:400F40004800000000000000000000007F800000030000000000E02EC05D00001800000000366E01FFFFFFFF00000000000000000000000000000000000000000000000043
:400F800000000000000000000C0F00000000000000000000000000000000000000000000000000000000000000000000000000000000000000000000000000000000000016
:400FC0000000000000000000E880FF1F000000000000000000000000000000000000000000000000000000000000000000000000000000000000000000000000000000006B
:4010000000000000000000000000000000000000000000000000000000000000000000000000000000000000000000000000000000000000000000000000000000000000B0
:401040000000000000000000000000000000000000000000000000000000000000000000000000000000000000000000000000000000000000000000000000000000000070
:401080000000000000000000000000000000000000000000000000000000000000000000000000000000000000000000000000000000000000000000000000000000000030
:4010C00000000000000000000000000000000000000000000000000000000000000000000000000000000000000000000000000000000000000000000000000000000000F0
:020000040003F7
:0200000480007A
:4000000004520040015B004002640040016500400101014001030140060501400806014026070140510801403C090140240A0140480B0140200C0140380D0140440E014008
:40004000320F0140081401402715014008160140281701403F180140331901404C1A01403F1B01400C40014007410140034201400143014002440140054501400146014023
:400080000147014003480140034901400C4C0140074D0140095001400251014000800180081009042F84896F8E0F890FE648EA0183408F039320B310E601E80458045904CC
:4000C0005C225F01D804D904DC22DF01010803400508060208210B310C010F901302146015401742286029402D482E023001334034603A023B213F908548932198209B4297
:40010000A340A820AB40C0ACC23FC4B8CADBCC39CE35E608EA04EE0418022E03340136023E404056410149FF4AFF4BFF4DA04F015018580459045A045C205F0160406280C2
:4001400064406540668068406A806C406D206E8084088801890593089B029D08A305A403A608AC03AD01AE04AF04B002B108B208B301B401B502B604B704B822BE14BF45EE
:40018000C052C101C503C6C4C72EC83DC9FFCAFFCBFFCDAFCE07CF01D018D40FD804D904DA04DB04DF05E040E280E440E540E680E840EA80EC40ED20EE80001801100E08D5
:4001C00010221580180419051B901D401E081F10200822412320280129012C082D403022338036A03B203C803D0A4004434044014740482049804D804F2050025149521058
:4002000059645A02610862107910868089219140A048A105A2A0A602A901AA04C006C240C485CA39CC3DCED4D01CD238D60FD806DE04580459045C225F01820484408680AF
:40024000870288018C029080924096029A089C109E20A004A420A610A704A808AE01AF01B104B302B501B6FFBE40D602D739D804D904DB0CDC20DD20DF01008002A004081E
:400280000501070909090C080D080E4A114814021545168017141E0124082507262D280229012B082C882D042E403080310232A8340236243C803D023E045E2065046D0188
:4002C0006E446F14760A77097F0280848D088E0194089601980299059C809E8A9F10A040A108A290A30AA502A627A980B002B114B280C0FDC2FCC4F5CAFDCCEFCED0D620CA
:40030000D840DE10E210E610EA200201030205010A020D0415081B082310270129022E042F04300132043602371F39803F405401580459045B0C5C225D205F01D608D804B8
:40034000D904DB04DC22DD90DF010081022004080688090A0D080E8A100412801440150416021C811D091F0C240226C0284229012E892F08300431023220348436053710DF
:4003800038023B083C803D143E0259805C035E4063027F028910924095209904A210A302A602A701AA02B084C07DC2FCC4BACAF9CCF7CEF3D618D808DE1007080B070E04C4
:4003C0001104120814011A072309300831023202330834013504360437013F044040410645D546104702481B49FF4AFF4BFF4DA04F04501852805407580459045A045B0466
:400400005C115D115F01604062C06440654066C068C06AC06CC06EC0920198049D019E02A404A801AF03B003B204B301B702B808BE04D203D302D804D90CDB04DC29DD2090
:40044000DF0100400A100B480D100E800F021724184019121A101B801D041E801F012008218222042688272029022F013102368038284040480849014B08501C588059112C
:400480005A086E206F0673407F0287808D808E48C001C2DEC460CA11CC11CE06D001D204D60FDE10E640580459045C225F01D804D904DC22DF0101080340058806010702F1
:4004C00008200B310F91118013021420174028202A812C102D082F81301033C0342035803B233D803E803F909321982099089B429E01A340C0ACC2B7C4A9CADBCC3CCE3561
:40050000EC20EE04580459045C225F01D804D904DC22DF01010803400528070208200B210F8111801280130214201540174028202A812C102D482E02301033403420368080
:400540003B313D803E803F9049204B209321982099089A029B42A340C0ECC297C4A9CADBCC3CCE350101049E0501066008730D01103012C91494166018FD19011A021F0129
:4005800020CF223029012D012E0F34FF35013E10580459045C205F0181A3835C846485C5873A8854897F8E038F019196920493689430950E97F098029E08A064A804A9FEE1
:4005C000AB01AE02B00CB270B401B602B7FFB808BE40BF40D280D40FD604D804D904DB04DF0100440308041409800A680C040E600F081046144015021740185019881A2800
:400600001E04218027042B042C082D40310536A0385439023C803D0A580259085A805B20620270029140928094109B209D809F40A048A105A2A0A602C067C27FC49BCA34C5
:40064000CC33CEDFD60FD8010001020604A00650071008F00C520EA110C0110C12301302143016C0170F1801190C1A021B0120012108220A230124702507290B2B04300307
:40068000310F32F03404360837103A02580459045F01823C8340840186028708882C8A108B208F049001920293079422950196059702983099019A089B029F10A030A20418
:4006C000A401A507A602A81CA907AD04B10FB203B310B43CB540B720BA08D804D904DF0100440388042005010720090A0A080EA810101301150216081708186019011A4816
:400700001B8C1C041D1C1E2821032341251026C22768281029092B042D082E482F0831163514368239043D203E043F428002830885048701920494049502964099089C0227
:400740009D059F40A610A70CAB04C07FC27EC47CCA77CCF7CEF2E60AE801EC20EE0413081680308037803B023E8087048C80C430CC30CE60E6106708930897029B08AB8057
:40078000D880EA809702AB08E82097028E40E00823808B809280C802E6049280928025029702C880AB01B102EE2008200E801F8034015A805F019280C206C601CC01D401C0
:4007C000D601842086409820A240AB81B001EC04000701010A040C050E060F0110051A041C05000F100A00000080800080000000E08F0F0004101000007F7F000000000068
:4008000000010000000000000000000000000000000000000000000000000000000000000000000000000000000000000000000000000000000000000000000000000000B7
:400840000000000000000000000000000000000000000000000000000000000000000000000000000000000000000000000000000000000000000000000000000000000078
:400880000000000000000000000000000000000000000000000000000000000000000000000000000000000000000000000000000000000000000000000000000000000038
:4008C00000000000000000000000000000000000000000000000000000000000000000000000000000000000000000000000000000000000000000000000000000000000F8
:4009000000000000000000000000000000000000000000000000000000000000000000000000000000000000000000000000000000000000000000000000000000000000B7
:0200000490006A
:0400000000004005B7
:0200000490105A
:04000000BC90ACAF55
:0200000490303A
:0200000027CF08
:0200000490402A
:4000000000000000000000000000000000000000000000000000000000000000000000000000000000000000000000000000000000000000000000000000000000000000C0
:400040000000000000000000000000000000000000000000000000000000000000000000000000000000000000000000000000000000000000000000000000000000000080
:400080000000000000000000000000000000000000000000000000000000000000000000000000000000000000000000000000000000000000000000000000000000000040
:4000C0000000000000000000000000000000000000000000000000000000000000000000000000000000000000000000000000000000000000000000000000000000000000
:0200000490501A
:0C00000000012E16106900012E1E383879
:00000001FF