:040000005FEFFFF0BF
:020000040001F9
:10FEBE000001A8EFFFF0016E0E01CDADFDD701C020
:10FECE009AFE12000E01CDAF02D0010E1200000EEE
:10FEDE0012000E01CDAFFDD79DA302D09D9F9D8F29
:10FEEE00995112009AECFFF0C5ECFFF08EECFFF08A
:10FEFE0082ECFFF01200080E0E019F6F900E9D6FA8
:10FF0E00240E9E6F330E9B6F000E9C6F1200620EBE
:10FF1E000E01D86F000EDA6F000EDC6F030EDE6F6F
:10FF2E00200EDD6F1200000E0E01E16F000EE26F6B
:10FF3E00000EE36F000EE46F000EE56F000EE66F2D
:10FF4E00120079ECFFF082ECFFF0000E036E800ED3
:10FF5E0062ECFFF069ECFFF00009D8B403D070EC4E
:10FF6E00FFF0036E0350D8A48394210E026E760E1A
:10FF7E00E82EFED7022EFCD700D0E9D7000E876EF2
:10FF8E00000E866E140E836E000E846E200E856E2D
:10FF9E00070E8C6EEB0E886EBD0E896EDF0E8A6EAE
:10FFAE007F0E8B6E0F0121691969F70E266F070EF2
:10FFBE002E6F1169800E256F000E2D6F000E186FBB
:10FFCE00000E106F000E206F000E2C6F000E0F6FC4
:10FFDE00000E176F000E1F6F000E246F0B0E066FB4
:10FFEE000B0E0E01F56F8D818D838D958D878D890D
:02FFFE001200EF
:020000040020DA
:10000000FF0FFF0FFF0FFF0FFF0FFF0FFF0FFF0F80
:020000040030CA
:0C000000ECFFFFFF9FFFFFFFFFFFFFFF73
:00000001FF
