:400000000080002011000000210900002109000080B500AF00F0B8FC80B500AF384B12221A6001F09DFB374B180001F039FF012001F0A6FB302001F047F9334B334A1A6029
:40004000334B8022D2051A60324B324A126802210A431A60304B314A1A60314B00221A60304B304A126808218A431A60FA23DB00180001F01FFA2C4B180001F011FB2B4B2F
:400080002B4A1A602B4B2C4A1A602C4BCC2292011A60284B2A4A1A602A4B802292001A60244B294A1A60294BE022D2001A60214B274A1A60274B882292011A601D4B264A7F
:4000C0001A60264B822212061A60254B8022D2021A60244B44221A60234B43221A60234B40221A60224B41221A60224B42221A60074B8022D2051A60C046BD4680BDC04673
:4001000030001040001BB70004010B40060000800C020B4078002E407C002E402D3E000064F02E406CF02E40DC05000010030140007F07000000014044FF00800C03014068
:4001400043FF00800003014040FF00800403014041FF00800803014042FF008008010B4000010B4038010140300101401C010140180101400401014080B586B000AF72B6D9
:400180006F4B00221A601723FB1800221A7025E01723FB181A7813005B009B185B00694A9B183B613B691A78597809020A43997809040A43DB781B06134318003B691A79AB
:4001C0005B791B0213439BB2190000F01BFB1723FB181A781723FB1801321A701723FB181B78022BD4D91723FB1800221A7036E01723FB181A7813009B009B185B00524A63
:400200009B18FB60FB681A78597809020A43997809040A43DB781B061343BB60FB681A79597909020A43997909040A43DB791B0613437B60BA1CFB68197A5B7A1B020B4304
:400240001380BB1C1A887968BB68180000F0EAFA1723FB181A781723FB1801321A701723FB181B78002BC3D0384A394B1100180000F0E8FA374BA02212011A80364B012265
:400280001A70364B364A1A60364B992212041A60354BC02292001A60344B354A1A60354B802292041A60344B344A1A60344B992212041A60334B992212041A60324B992213
:4002C00012041A60314BC02292031A60304A304B1B78DBB23C218B43DBB214210B43DBB213702C4A2B4B1B78DBB216210B43DBB21370294B23221A60284B294A1A60294BF9
:4003000003221A60284B20221A60284BC42292021A60274B20221A60264BD82212041A60254B04221A60254BC02252001A60FFF773FE00F0C9FAC046BD4606B080BDC04615
:400340006CF02E407C52010090520100C05201009C52010000600F4002600F4000000240760030EE000102400003024000500F400400990004500F4008500F400000050CAA
:4003800010500F4020500F4030500F4038500F4001700F4000700F4000000440080004400010DB001800044000010440080104401801044008020440000304400803044000
:4003C00010B5064C2378002B07D1054B002B02D0044800E000BF0123237010BD6814002000000000E84E0100084B10B5002B03D00749084800E000BF07480368002B00D1AE
:4004000010BD064B002BFBD09847F9E7000000006C140020E84E0100E00E00200000000080B584B000AF78600A00FB1C1A70FB1C1A7879680F4B180002F0DCF90F23FB1861
:40044000FA1C12781A700CE00F23FB181B78094A0021D1540F23FB181A780F23FB1801321A700F23FB181B78B32BEDD9C046BD4604B080BDC825002080B500AF01F088FB41
:40048000002001F019FC01F09BF901F0D1FA01F047FC034B180000F019FBC046BD4680BDB105000080B582B000AF7860022001F0CDFA7B68180001F0EDFA03001800BD4682
:4004C00002B080BD80B58CB000AF62B6FFF7D4FF0020FFF7E7FF0300F53BFF3BBB620120FFF7E0FF03002F4A944663447B627B6ABA6A2D49381D02F05BF93B1D180001F03B
:400500008BFC0A2001F06EFC3B1D20211800FFF787FFBA6AF423FF339A420EDC7A6AF423FF339A4209DC322001F0C6FB012001F0E3FA012001F008FB26E0BA6AF423FF33E6
:400540009A4209DC012001F0D7FA002001F0FCFA002001F0B1FB17E07A6AF423FF339A4209DC012001F0F0FA002001F0C5FA002001F0A2FB08E0002001F0E6FA002001F0CA
:40058000BBFA002001F098FB0023FB6204E003F071FAFB6A0133FB62FB6A044A9342F6DD96E7C04676FDFFFF404F01000387010090B585B000AF786039600E23FB180022C0
:4005C0001A807B68572B00D9C5E07B689A00644BD3181B689F46634B180002F0DFF8002000F008FB031E08D00E23FB181A885E4B1100180002F056F8AEE05C4B180002F02D
:40060000CDF8A9E05A4B180002F0C8F8A4E0594B180002F0C3F8584B1B78032B1DD0574B180002F0BBF80E23FC18012000F0E2FA030023800E23FB181B88002B08D00E236D
:40064000FB181A884E4B1100180002F02BF883E04C4B180002F0A2F87EE04B4B180002F09DF879E0494B180002F098F8484B1A785B781B021A4300231204120C1B0C1B0427
:400680001343B72118000EF085FA00F093F863E0384B180002F082F83E4B180002F07EF83D4B00221A700E23FC18002000F0A2FA030023800E23FB181B88002B08D00E23C3
:4006C000FB181A88354B1100180001F0EBFF43E0334B180002F062F83EE02F4A3B681000190002231A0001F0CCFF2E4B01221A7032E02C4B00221A702EE02B4B180002F075
:400700004DF82A4B3A681A60284B1B689B890E2B0AD1264B1B685A68244B1B681B89DBB219001000FFF77CFE00F044F81A4B1A785B781B021A4300231204120C1B0C1B0436
:40074000134318000EF0BEFD06E0194B3A681A6000F030F800E0C046C046BD4605B090BD1C510100544F0100704F0100A04F0100B84F0100D04F01008E260020D44F010001
:40078000F04F010024500100585001007450010094260020885001007C260020A0500100D0500100C425002004510100842600208026002080B584B000AF3B1D0E221A8165
:4007C0003B1D0E4A1A600D4B180002F02AF803009AB23B1D9A80094B180002F022F803009AB23B1DDA80064A381D002300210FF08FFFC046BD4604B080BDC046C82500208E
:400800007C26002080B582B000AF786039603A687B680021180001F03DFFC046BD4602B080BDC04680B584B000AFF860B9607A607A68B968FB68180001F023FFC046BD4689
:4008400004B080BD80B586B000AF7860396000233B6100237B612FE07B699B007A68D3181B68BB600F23FB18BA681A70BB68FF229343BB6018E03B695B003A68D3181B7808
:400880001A00BB68D31819003B695B003A68D3185B780B703B6901333B610F23FB181A780F23FB18013A1A700F23FB181B78002BE1D17B6901337B617B69082BCCD9C0465D
:4008C000BD4606B080BDC04680B500AF0D4B33221A600D4B03221A600C4B03221A600C4B802212061A600B4BC02212031A600A4BC02212031A60094B00221A60C046BD46F3
:4009000080BDC04608210240300030403000314000003A4000033A4040033A40000E3F4080B500AF01F072FE03001B680C2B00D1FEE7FEE780B584B000AF7860104B1A681D
:400940007B68D3181A000F4BD21A9023DB009A4209DC0B4B1B68FB60094B1A687B68D218074B1A6007E001F051FE03000C221A6001235B42FB60FB681800BD4604B080BDFA
:40098000E40E0020A826002080B586B000AF224B7B61224B3B61204B7B6135E03B691B68FB603B695B68BB603B699B683B6000237B600CE0FB681A68BB681A60BB68043363
:4009C000BB60FB680433FB607B6804337B607A683B689A42EED13B69DB683B6000237B6008E0BB6800221A60BB680433BB607B6804337B607A683B689A42F2D13B69103336
:400A00003B617B69013B7B617B69002BC6D101F003FEFFF757FDFEE701000000785A010080B582B000AF154B144A126801218A431A6000237B600FE07B68032B04D8104B97
:400A40007A689200D35800E00E4B0F4A796889008B507B6801337B607B682F2BECD9FFF78BFB0A4B00221A60044B044A126801210A431A60C046BD4602B080BD0000104057
:400A8000000000002109000000000020C000002080B500AF064B00221A70064B00221A70054B00221A7000F009F8C046BD4680BD97260020902600209626002080B500AF88
:400AC00000F0FCFBC046BD4680BDC046B0B594B004AF78603E23FB1800221A802823FA183D4B1000190014231A0001F0CAFD3B4B1B78002B04D1FFF7CBFF384B01221A703F
:400B00007B68002B5CD0364B7A681A603E23FB181B88002B29D11023FB181C22BA185A601023FB182022BA181A601023FB1800221A812023FB181B221A802023FB181B22BB
:400B40005A802023FB1804221A711C23FB1808221A703E23FC180E23FA181023FB181100180003F063F8030023803E23FB181B88002B29D13E23FC182823FD18CC231A0158
:400B8000184919480023029300230193052300932B0002F0A1FF030023803E23FB181B88002B11D1114B01221A703E23FC18104BB422122118000FF093FD0300238003E0B0
:400BC0003E23FB1801221A803E23FB181B881800BD4610B0B0BDC046E85501008414002088260020C80000203D0F00008E2600204456010090B585B000AF0200FB1D1A702B
:400C0000FB1D1B78022B04D90E23FB1801221A804AE0294B1B78042B41D1284B1B78DBB21A00042313403AD1FB1D1B78002B0BD1234B1E221A82224B5B6820221A80204BE7
:400C40005B6830225A8010E0FB1D1B78012B0CD11B4B96221A821A4B5B68C822D2001A80174B5B68FA2252015A80164BFA1D12781A700E23FC18124B18000DF031F90300CB
:400C800023800E23FB181B88002B0DD10B4B1B78DBB204221343DAB2084B1A7004E00E23FB180422FF321A800E23FB181B881800BD4605B090BDC0468E2600209726002072
:400CC000380F00209626002080B584B000AF78600A00FB1C1A700023BB60FB1C1B78002B01D0154BBB60BB68002B20D07B689A79BB681A700F23FB1800221A7012E00F23C1
:400D0000FB181B780133BA68D3180F22BA18127879688A5C1A700F23FB181A780F23FB1801321A700F23FB181B78052BE7D9C046BD4604B080BDC0461A0F002080B582B09D
:400D400000AF78607B681B789AB27B6801331B789BB21B029BB213439BB21800BD4602B080BDC04690B585B000AF78600F23FB1800221A707B689B890B22934232D17B6835
:400D8000181D7A680F23FC18402300210FF0C0FC030023700F23FB181B78002B1AD17B685B681800FFF7CAFF03001A00022313409BB2002B07D00F4B1B68796882225200FE
:400DC0001000984706E00B4B1B6879680622FF3210009847084B1B78DBB201229343DAB2054B1A700F23FB181B781800BD4605B090BDC046882600209726002090B585B02A
:400E000000AF78600F23FC187B681800FFF7AAFF03002370154B1B78DBB21A00012313401FD10F23FB181B78002B16D00823FB1812229A707B689A890823FB181A80082346
:400E4000FB180F22BA181278DA700823FA187B68110018680EF0BEF903E07B6818680EF031FAC046BD4605B090BDC0469726002080B582B000AF7860C046BD4602B080BDDF
:400E800080B500AF044B00225A70034B00221A70C046BD4680BDC0469426002080B582B000AF7860C046BD4602B080BD80B500AFC046BD4680BDC04680B584B000AF7860ED
:400EC0000E23FB1800221A707B689B79002B1CD10F23FB1800221A7012E00F23FB181B787A68D35C002B04D00E23FB1801221A700BE00F23FB181A780F23FB1801321A7073
:400F00000F23FB181B78052BE7D90E23FB181B781800BD4604B080BD80B582B000AF0200BB1D1A80C046BD4602B080BD80B582B000AF7860C046BD4602B080BD80B588B031
:400F400000AF02003960FB1D1A70CD4B1B78DBB201221343DAB2CA4B1A70FB1D1B78712B00D96BE19A00C74BD3181B689F461023FB1807221A701023FB1800225A701023E0
:400F8000FB18180004F05CFD1023FB1807221A701023FB1801225A701023FB18180004F04FFD0023002B01D002F05CFDB64B1B681800FFF781FF031E11D0B34B1B681800D8
:400FC00002F05CFDB04B1B6800211800FFF77CFEAD4B1B6801211800FFF776FE36E0AB4B1B781A003F231A40A94B1B789901FC231B010B401A43A74B1B781903F8235B02CE
:401000000B401A43A44B1B785904FE231B040B401343BB61BB69DAB2A04B1A70BB691B0ADAB29E4B5A70BB691B0CDAB29B4B9A709A4B180002F022FD984B00211800FFF798
:4010400043FE964B01211800FFF73EFE00200CF0D9FD0C23FB183F221A700C23FB1800225A700C23FB1818000CF0EAFD8C4B04221A70EAE03B681800FFF710FFE5E03B68DF
:401080001A78884B1A70E0E03B687B617B691B78002B00D0D4E07B695B78002B0BD1824B0A22DA80804BB4229A807F4B7F4A1A607B697D4A5A60724B1B78DBB201229343C8
:4010C000DAB26F4B1A70BBE06D4B1B78DBB21A002023134000D0B5E0754B1B78102B02D1734B0522DA70734B1B78714A110018000CF0B4FE03001A000A23FB181A800A2301
:40110000FB181B88002B06D06B4B1B680A22BA181100362098475A4B1B78DBB201221343DAB2574B1A708DE03B681800FFF7FEFE8BE03B681800FFF7F9FE594B02221A7006
:4011400083E0574B04221A707FE0554B1B78022B00D179E04A4B1B78DBB21A000123134000D171E0464B1B78DBB21A00042313400BD04B4B03221A70414B1B78DBB2042232
:401180009343DAB23E4B1A705EE03D4B1B78DBB21A00082313400BD0414B04221A70384B1B78DBB208229343DAB2354B1A704BE03B4B1B78032B47D1394B04221A7043E00B
:4011C0003B681B881800FFF7A7FE3EE0394A3B681000190002231A0001F053FA314B00221A70FFF763FE30E0FFF74AFE2DE03B685B88B62B05D81E23FB183A6852881A8084
:4012000003E01E23FB18B7221A801E23FB1819883B681A8800231204120C1B0C1B04134318000DF0E1FF10E03B681800FFF7E6FD0BE03B681800FFF71BFE06E0C04604E0D9
:40124000C04602E0C04600E0C0460D4B1B78DBB21A00112313400ED0094B1B78DBB201229343DAB2064B1A70134B1B68FA1D1278396810009847C046BD4608B080BDC046B9
:4012800097260020B8570100540F00207CF2FF0F7DF2FF0F7BF2FF0F78F2FF0F4C0F00208E2600209026002088140020880D00208C100020942600208826002080B500AFF4
:4012C000C046BD4680BDC04690B585B000AF78600C23FC1800F0EDFD030023707B68022B00D8B3E07B68302B00D9AFE05E4B1B78DBB21A007B689A420AD35C4A0F23FB1863
:4013000012781A705A4A0E23FB1812781A703FE0584B1B78DBB21A007B689A420AD3564A0F23FB1812781A70544A0E23FB1812781A702DE0524B1B78DBB21A007B689A4273
:401340000AD3504A0F23FB1812781A704E4A0E23FB1812781A701BE04C4B1B78DBB21A007B689A420AD34A4A0F23FB1812781A70484A0E23FB1812781A7009E0464A0F23C3
:40138000FB1812781A70454A0E23FB1812781A707B68DA1E0B23FB1841498A5C1A700B23FB181B782F2B0DD97B682A2B0AD93D4B19221A60052000F073FD0D23FB1819229A
:4013C0001A7007E0374B1B68DAB20D23FB183F210A401A700B23FA180D23FB1812781B789A4208D22F4B7A68033A2D498A5C1A60052000F055FD7B68284A9A180A23FB1801
:4014000012781A70284B0A22BA1812781A60274B0F22BA1812781A60254B0E22BA1812781A60052000F03CF90B23FA180D23FB1812781B789A420CD91A4B7A68033A1849A4
:401440008A5C1A60052000F02BFD02E0002000F0F5F80C23FB181B78180000F02EFDC046BD4605B090BDC04640F3FF0F41F3FF0F42F3FF0F43F3FF0F44F3FF0F45F3FF0F42
:4014800046F3FF0F47F3FF0F48F3FF0F49F3FF0F4AF3FF0F4BF3FF0F4CF3FF0F4DF3FF0F805901002CFF0B4028FF0B401CFF0B4020FF0B4080B584B000AF78600023FB60D8
:4014C000154B154A126801210A431A60134B144A1A60144B134A1268802109020A431A607B68002B12D01023FB600CE0012000F0D7F800F019F8031E02D00023FB6005E04A
:401500007B68013B7B607B68002BEFD1FB681800BD4604B080BDC04660F02E4078002E400220000010002E4080B582B000AF054B1B68012213407B607B681800BD4602B040
:4015400080BDC0460C002E4080B584B000AF02003960FB1D1A7080239B05FB60FB1D1B781F2B02D9002000F069F8FB1D1B7810339B00FA68D3181B68BB60FB1D1B78103318
:401580009B00FA68D3183A681A60BB681800BD4604B080BD90B587B000AF0200FB1D1A70BB1D0A1C1A70BB1D1B78032B02D9002000F044F8FB1D1B781F2B02D9002000F001
:4015C0003DF8FB1D1B7803221340DB0006337B611323FC1800F06DFC03002370FB1D1B789B08DBB29B00144A944663441B68FB6003227B699A401300DA43FB681340FB6013
:40160000BB1D1A787B699A401300FA681343FB60FB1D1B789B08DBB29B00074A94466344FA681A601323FB181B78180000F045FCC046BD4607B090BD00E400E080B582B0DB
:4016400000AF0200FB1D1A7001BEC046BD4602B080BDC04680B582B000AF786009E00D4B1B68180000F01CFC7B680B4A944663447B607A6880231B029A42F0D8074B1B68D9
:401680007A685343180000F00BFCC046BD4602B080BDC046A01000200080FFFF9810002080B582B000AF0200BB1D1A80BB1D1B88044A12785343180000F0F2FBC046BD461E
:4016C00002B080BD9C10002080B500AF0F4B0F4A126801218A431A600C4B0C4A126802218A431A600A4B0A4A126830218A4310210A431A60064B064A126807218A430121B9
:401700000A431A60C046BD4680BDC04600F02E4000FF2E4080B500AF0F4B0F4A126802218A431A600D4B0D4A126807218A4302210A431A60094B094A126830218A432021C8
:401740000A431A60044B044A126801210A431A60C046BD4680BDC04600F02E4000FF2E4080B500AFFFF7B0FF044B044A1268802109060A431A60C046BD4680BD00F02E40D0
:4017800080B584B000AF78600C4B1B6801221340FB607B68002B02D0012B03D005E0FFF793FF06E0FFF7B6FF03E00020FFF746FFC046FB681800BD4604B080BD00F02E40A0
:4017C00080B500AF064B1B78002B04D100F00AF8034B01221A7000F00FF9C046BD4680BD9014002080B584B000AF03210F20FFF7D1FE644B19000F20FFF7A6FE624B03229F
:401800001A60624B1B68002B01DA614900E06149614B614A12680A431A60604B604A1A60604B614A1A60614B00221A60604B614A1A60614B614A1A60614B614A1268802132
:4018400049020A431A605F4B5E4A1268802149020A431A605C4B00221A605C4B00221A605B4B01221A605B4B1B687B607B685A4A13407B607B688022920513437B607B6825
:40188000012293437B60534B7A681A600023FB6070E0524BFA689200D258DC239B0113407B604F4AFB68D3181B781A007B6813437B60FB689B004B4A944663447A681A60F0
:4018C000464BFA689200D358012213400AD03E4B3D4A11680120FA68904002001204120C0A431A603D4BFA689200D358022213400AD0364B354A11680120FA689040020049
:401900001204120C0A431A60344BFA689200D25880239B00134003D080235B00BB6002E080235B01BB602D4BFA689200D25880235B00134005D12C4BFA6852000021D1526A
:4019400004E0294BFA6852000021D152BB68274A5343274A944663442449180000F06AFD03001BB21900234BFA689200D150FB680133FB60FB68012B8BD9C046BD4604B011
:4019800080BDC046D91A000020003A4080033A40702010107020001000003A4004003A408C00008018003A400000FF071C003A4010003A400400020014003A4002000200B6
:4019C00000033A4040033A4028023A4038023A4018023A4030003A40FFFFFFDFB0590100B859010080003A40A026002010270000881300009826002080B500AF0A4B1B68D3
:401A0000002B0EDBC046094B1B68002BFBDB064B054A1268802109060A431A600A20FFF73FFEC046BD4680BD00003A4008023A4080B500AF044B044A1268802149020A434E
:401A40001A60C046BD4680BD04003A4080B584B000AF78600023FB607B680322134011D00B4B1B6801221340FB60FB68002B03D17B6802221340F3D1FB68002B02D0044BA5
:401A800001221A60FB681800BD4604B080BDC04610023A4080B584B000AF78607B68012B02D90020FFF7CAFD7B68012B09D87B689B00084A944663441B681B041B0CFB606C
:401AC00001E00023FB60FB681BB21800BD4604B080BDC04680013A4080B582B000AF054B1B687B60034B7A681A60C046BD4602B080BDC04610023A4080B584B000AF020038
:401B0000FB1D1A700F4B1B68DAB20F23FB1840218A431A70FB1D1B789B01DBB240221340D9B20F23FB180F22BA1812780A431A70044B0F22BA1812781A60C046BD4604B0CD
:401B400080BDC0460002044080B584B000AF0200FB1D1A700D4B1B68DAB20F23FB187F210A401A70FB1D1B78DB01D9B20F23FB180F22BA1812780A431A70044B0F22BA18F3
:401B800012781A60C046BD4604B080BD0002044080B500AF064B1B78002B04D100F00AF8034B01221A7000F047F8C046BD4680BD9114002090B583B000AF1D4B1B78DAB244
:401BC000FB1D3F218A431A70194AFB1D1B7809210B43DBB21370174A164B1B78DBB201210B43DBB21370FF2000F036F8FF2000F053F87F2000F060F8002000F06DF8BC1D52
:401C000000F057F9030023700A4A0A4B1B78DBB210210B43DBB21370BB1D1B78180000F04CF900F029F8C046BD4603B090BDC04670000F4090000F4080B500AF0549054B7E
:401C40001B78DBB2802252421343DBB20B70C046BD4680BD70000F4080B582B000AF0200FB1D1A70034AFB1D1B781370C046BD4602B080BD00000F4080B500AF01E000F07A
:401C800045F800F039F803001A0010231340F6D1C046BD4680BDC04680B582B000AF0200FB1D1A70034AFB1D1B781370C046BD4602B080BD40000F4080B582B000AF02003C
:401CC000FB1D1A70034AFB1D1B781370C046BD4602B080BD20000F4080B582B000AF0200FB1D1A70034AFB1D1B781370C046BD4602B080BD80000F4080B500AF024B1B78A0
:401D0000DBB21800BD4680BD60000F4080B500AF024B1B78DBB21800BD4680BD50000F4080B500AF064B1B78002B04D100F00AF8034B01221A7000F023F8C046BD4680BDC1
:401D40009214002080B500AF084B72221A70084B20221A70074B06221A70074B47221A70064B00221A70C046BD4680BD81000F4082000F4022000F4032000F4083000F4038
:401D800090B583B000AFFC1D00F093F803002370114A114B1B78DBB220210B43DBB213700E4A0E4B1B78DBB210210B43DBB213700B4A0B4B1B78DBB210210B43DBB21370A2
:401DC000FF2000F055F8FB1D1B78180000F075F8C046BD4603B090BD91000F4092000F4093000F4080B582B000AF0200FB1D1A70C046074B1B78DBB21A0004231340F8D12C
:401E0000044AFB1D1B781370C046BD4602B080BD63000F4043000F4080B584B000AF78600E23FB1800221A80104B1B78002B18D00FE00E23FB181B887A68D3181B781800AB
:401E4000FFF7D0FF0E23FB181A880E23FB1801321A800E23FB181B887A68D3181B78002BE7D1C046BD4604B080BDC0469214002080B582B000AF7860C046074B1B68002BC2
:401E8000FBDB054B7A68120204490A431A60C046BD4602B080BDC04600000140430000800230800803D00138FDD1C046C046C0467047EFF3108072B6704780F31088704780
:401EC00080B582B000AF78600A00BB1C1A80BB1C1A887B681A60C046BD4602B080BDC04680B582B000AF78600A00BB1C1A80BB1C1A887B681A60C046BD4602B080BDC04668
:401F000080B584B000AF494B1B78DBB21B02484A1278D2B21343FB60464B1B78DBB21B02454A1278D2B21343BB60BB68434A934207D1FB68072B04D1414BBB600423FB609B
:401F400009E0BA68D4231B019A4204D1FB68042B01D13B4BBB603B4BBA681A603A4BFA681A603A4B1B78DBB21B02394A1278D2B21343FB60FA6880239B019A4202D0FB6854
:401F8000002B01D1334BFB60334BFA681A60334B1B78DBB21B02324A1278D2B21343FB60FB68304A934206D0FB682F4A934202D0FB68052B01D12D4BFB602D4BFA681A6064
:401FC0002C4B1B681B097B602B4B1B68AA2B29D17B68012B26D9214B1B78DBB20E2B21D1264B1B78DBB29BB21B0299B2244B1B78DBB29AB2BB1C0A431A80224BBA1C12889F
:402000001A60214B1B78DBB29BB21B0299B21F4B1B78DBB29AB23B000A431A801C4B3A0012881A60C046BD4604B080BD59F1FF0F58F1FF0F5FF1FF0F5EF1FF0F580B000071
:40204000580D00006C002E4074002E405BF1FF0F5AF1FF0F0220000078002E405DF1FF0F5CF1FF0F0F0F000005050000050F000080002E40EC0F00F0E00F00F06DF2FF0F6C
:402080006CF2FF0F84002E406FF2FF0F6EF2FF0F94002E4080B582B000AF0200BB1D1A80BB1D1B881800FFF7FBFAC046BD4602B080BDC04680B582B000AF78607B681800F4
:4020C000FFF7C8FAC046BD4602B080BD80B500AF00F0ECF8C046BD4680BDC04680B500AF00F0F0F8C046BD4680BDC04680B500AF00F0E8F8044B180000F0A2F8032000F06C
:40210000ADF8C046BD4680BD1123000080B500AF034B180000F080F8C046BD4680BDC0461123000080B500AF014B1800BD4680BD0202000080B582B000AF78602B2318006E
:40214000BD4602B080BDC04680B582B000AF78602B231800BD4602B080BDC04680B582B000AF78602B231800BD4602B080BDC04680B582B000AF78602B231800BD4602B0C6
:4021800080BDC04680B582B000AF78602B231800BD4602B080BDC04680B582B000AF78602B231800BD4602B080BDC04680B582B000AF78602B231800BD4602B080BDC046F8
:4021C00080B582B000AF78602B231800BD4602B080BDC04680B500AF2B231800BD4680BD80B582B000AF0200FB1D1A702B231800BD4602B080BDC04680B582B000AF786003
:4022000039602B231800BD4602B080BD80B500AFC046BD4680BDC04680B582B000AF786000F050F87B68180000F00AF8032000F015F800F03BF8C046BD4602B080BDC04629
:4022400080B582B000AF7860034B7A681A67C046BD4602B080BDC0460000002090B585B000AF0200FB1D1A700623FB600B23FC18FFF71FFE030023700B4B0B4A1268C0215F
:402280008A431100FA1D1078FA68904002000A431A600B23FB181B781800FFF70EFEC046BD4605B090BDC0460CE400E080B500AF034B802252011A60C046BD4680BDC046EA
:4022C00000E100E080B500AF034B802252011A60C046BD4680BDC04680E100E090B583B000AFFC1DFFF7E5FD03002370074B074A126804218A431A6030BFFB1D1B78180006
:40230000FFF7DBFDC046BD4603B090BD10ED00E080B500AF12F0D4FDC046BD4680BDC046002243088B4274D303098B425FD3030A8B4244D3030B8B4228D3030C8B420DD3D7
:40234000FF22090212BA030C8B4202D31212090265D0030B8B4219D300E0090AC30B8B4201D3CB03C01A5241830B8B4201D38B03C01A5241430B8B4201D34B03C01A524118
:40238000030B8B4201D30B03C01A5241C30A8B4201D3CB02C01A5241830A8B4201D38B02C01A5241430A8B4201D34B02C01A5241030A8B4201D30B02C01A5241CDD2C309E8
:4023C0008B4201D3CB01C01A524183098B4201D38B01C01A524143098B4201D34B01C01A524103098B4201D30B01C01A5241C3088B4201D3CB00C01A524183088B4201D341
:402400008B00C01A524143088B4201D34B00C01A5241411A00D20146524110467047FFE701B5002000F0F0F802BDC0460029F7D076E7704703460B437FD4002243088B426B
:4024400074D303098B425FD3030A8B4244D3030B8B4228D3030C8B420DD3FF22090212BA030C8B4202D31212090265D0030B8B4219D300E0090AC30B8B4201D3CB03C01AA9
:402480005241830B8B4201D38B03C01A5241430B8B4201D34B03C01A5241030B8B4201D30B03C01A5241C30A8B4201D3CB02C01A5241830A8B4201D38B02C01A5241430A6E
:4024C0008B4201D34B02C01A5241030A8B4201D30B02C01A5241CDD2C3098B4201D3CB01C01A524183098B4201D38B01C01A524143098B4201D34B01C01A524103098B426F
:4025000001D30B01C01A5241C3088B4201D3CB00C01A524183088B4201D38B00C01A524143088B4201D34B00C01A5241411A00D201465241104670475DE0CA0F00D049425D
:40254000031000D34042534000229C4603098B422DD3030A8B4212D3FC22890112BA030A8B420CD3890192118B4208D3890192118B4204D389013AD0921100E08909C3097C
:402580008B4201D3CB01C01A524183098B4201D38B01C01A524143098B4201D34B01C01A524103098B4201D30B01C01A5241C3088B4201D3CB00C01A524183088B4201D37F
:4025C0008B00C01A5241D9D243088B4201D34B00C01A5241411A00D20146634652415B10104601D34042002B00D54942704763465B1000D3404201B5002000F005F802BDA0
:402600000029F8D016E770477047C046014B18687047C046601400200E4B70B500251E000D4CE41AA410A54204D0AB00F35898470135F8E713F00EFA084B00251E00084CB5
:40264000E41AA410A54204D0AB00F35898470135F8E770BD605A0100605A0100605A0100685A010030B50024A24208D0035D651C0C5DA34201D0181B02E02C00F4E70020E1
:4026800030BD002310B59A4203D0CC5CC4540133F9E710BD03008218934202D019700133FAE770470FB40B4B13B51C68002C05D0A369002B02D1200000F07CFA05AB049A98
:4026C000A1682000019300F0A1FD16BC08BC04B01847C0466014002070B505000E00002804D08369002B01D100F064FAAB69AC68002B02D1280000F05DFA254B9C4201D12C
:402700006C6808E0234B9C4201D1AC6803E0224B9C4200D1EC68A3891B0702D52369002B11D12100280000F0DBF800280BD0012040422BE0013B0136A360002B08DB2368CE
:402740005A1C226019703178A3680029F2D10BE0A269934201DB0A29F1D12200280000F067F8431CEFD1E2E7013BA360002B08DA22000A31280000F05BF8431CD7D00A20D7
:4027800004E00A2023685A1C2260187070BDC046C0590100E0590100005A010010B5034B01001868FFF798FF10BDC046601400200EB410B59DB002A9029008610B48822423
:4027C00088604861012040421FABC881084804CBA400006801938C8100F0F2FB0023029A13701DB010BC08BC03B01847FFFFFF7F6014002010B5002A12D00C78013A431C39
:4028000004700131002C01D19A1801E01800F2E79A4202D01C700133FAE7002800D1100010BD0023C25C0133002AFBD1581E7047F8B505000F001400002804D08369002BCB
:4028400001D100F0B7F9234B9C4201D16C6808E0214B9C4201D1AC6803E0204B9C4200D1EC68A369A360A3891B070AD52369002B07D023682269FEB2981A636998420FDBB9
:4028800008E02100280000F02BF80028F1D0012040421DE02100280000F01EF90028F6D1A3680130013BA36023685A1C22601F706369984205D0A3893000DB0708D50A2EB1
:4028C00006D12100280000F007F90028DFD13000F8BDC046C0590100E0590100005A0100364B70B51D6806000C00002D05D0AB69002B02D1280000F05DF9314B9C4201D16B
:402900006C6808E02F4B9C4201D1AC6803E02E4B9C4200D1EC680C22A35E9AB2110723D4D10607D409220120326037321343A381404242E0530713D5616B002908D023006B
:402940004433994202D0300000F02CFA002363632422A3899343A38100236360236923600822A3891343A3812369002B0BD1A0238022A1899B0092000B40934203D0210070
:40298000300000F0D1F90123A289134005D00023A36063695B42A36103E0920700D46369A36000202369834207D10C22A35E1A0603D540221343A381013870BD60140020BE
:4029C000C0590100E0590100005A0100F7B58A8905000C0013075AD44B68002B02DC0B6C002B19DDE76A002F16D000232E682B6080235B011A4001D0606D14E00123216A78
:402A00002800B847431C0ED12B68002B0BD01D2B01D0162B02D12E6000205AE04022A3891343A38155E0A3895B0706D56368C01A636B002B01D0236CC01A00230200216A55
:402A40002800E76AB847A389421C06D129681D293AD8204ACA40D20736D50022626022692260DB0405D5431C02D12B68002B00D16065616B2E600029CED023004433994276
:402A800002D0280000F08EF90020606321E00F69002FC1D00B680F60DB1B01930023920700D14B69A36003E0019B3F181B1A0193019B002BB0DD019B3A00216A2800A66A4D
:402AC000B0470028F0DCA389402201201343A3814042FEBD010040200B6970B505000C00002B01D100201CE0002804D08369002B01D100F05FF80B4B9C4201D16C6808E073
:402B0000094B9C4201D1AC6803E0084B9C4200D1EC680C22A35E002BE4D021002800FFF755FF70BDC0590100E0590100005A010010B5024900F0B0F810BDC046D92A000049
:402B4000002310B5040003604360836081814366C281036143618361190008225C30FFF799FD054B24626362044BA362044BE362044B236310BDC04689370000B137000078
:402B8000E93700001538000070B568254B1E5D430E002900743100F051F9041E08D000212A00016046600C30A0606832FFF772FD200070BD836913B50400002B28D1836440
:402BC000C3640365134B144A1B6882620193984201D101238361200000F020F86060200000F01CF8A060200000F018F80022E06004216068FFF7A4FF01220921A068FFF77C
:402C00009FFF02221221E068FFF79AFF0123A36113BDC046BC590100312B0000F8B51D4B06001D68AB69002B02D12800FFF7C2FF4835AC686B68013B05D40C22A75E002FEC
:402C400010D06834F7E72B68002B01D02D68F0E704213000FFF798FF28600028F6D10C23336016E0012320005B42E3810233A38167662760A760676027616761A7615C304A
:402C800008223900FFF706FD20006763A763A764E764F8BDBC590100F7B504000700002601914834002C16D06368A5680093009B013B00930DD4AB89012B08D90E22AB5E76
:402CC000013304D029003800019B984706436835EDE72468E6E73000FEBD000070B50E001D000E23C95E90B01400002906DA00232B60B3891B060FD540230FE001AA00F011
:402D0000B5FD0028F3DBF023029A1B021340054A9B185A4253412B608023DB000020236010B070BD00E0FFFFF7B502268B8905000C00334210D101AB6A46FFF7CFFF00991B
:402D40000700280000F07AF800280CD10C22A35E9A0523D43343A3812300473323602361012363611AE080220D4BAB62A38920601343A381009B20616361019B002B0AD02A
:402D80000E23E15E280000F083FD002803D00122A3891343A381A3891F43A781F7BDC046312B000070B50500002944D00C1F2368002B00DAE418280000F0B0FD1E4A1368B5
:402DC0001100002B02D16360146031E0A3420DD92268A018834203D118685B688218226063600C6024E0A24203D813005A68002AF9D11E689819A0420BD121687118581845
:402E00001960824214D110685268411819605A600EE0A04202D90C232B6009E021686018824203D1106852684118216062605C60280000F074FD70BDC0250020032370B53B
:402E4000CD1C9D43083506000C2D01D20C2501E0002D01DBA94202D90C23336048E0300000F05CFD234B1C681A002100002913D00B685B1B0DD40B2B02D90B60CC181EE095
:402E80008C4202D1636813601AE04B6863600C0016E00C004968E9E7174C2368002B03D1300000F05FFC20602900300000F05AFC431C18D00323C41C9C43A0420DD125603C
:402EC000300000F02CFD200007220B30231D9043C31A0ED05A42E2500BE0211A300000F041FC431CEBD10C233000336000F017FD002070BDC0250020BC250020F0B58E68E7
:402F000085B007000C00039201939E4243D890238A89DB001A423ED003250969236801985B1A029363695D43EB0F5D19029B6D1001331B18AB4200D91D00530510D52900AC
:402F40003800FFF77BFF061E14D0029A2169FFF798FBA289194B134080221343A38112E02A00380000F0DCFC061E0CD121693800FFF718FF0C23402201203B60A38940420D
:402F80001343A38117E0029B2661F61826606561019EED1AA560019BB34200D21E0032000399206800F0A5FC0020A3689B1BA36023689E19266005B0F0BDC0467FFBFFFF83
:402FC000F0B59FB0029005938B890F0016001B0610D50B69002B0DD14021FFF72FFF38603861002804D10C23029A01381360D8E040237B61002306AD6B6120336B761033BD
:40300000AB7634002378002B03D1A31B049312D003E0252BF9D00134F4E7A31B320039000298FFF76BFF431C00D1B4E06A69049B944663446B612378002B00D1ABE0012273
:40304000002352426A6002A95432521801342B60EB60AB601370AB65534E21780522300000F03CFC002807D00123801B83402A68013413432B60EFE72B68DA0604D5532212
:40308000202102A8121811701A0704D553222B2102A81218117022782A2A03D0099B00200A210EE0059A111D12680591002A01DB099204E05242EA60022213432B60013452
:4030C0000BE02278303A092A04D84B4301349B180120F6E7002800D0099323782E2B1ED163782A2B0AD1059B02341A1D1B680592002B01DA01235B42079310E000230A2017
:403100001A0001346B6021783039092904D84243013452180123F6E7002B00D00792234E21780322300000F0D9FB002806D04023801B83402A68013413432B602178062261
:403140001B48661C297600F0C9FB002812D0194B002B06D10722059B073393430833059314E005AB00933A00134B2900029800E000BF07E005AB00933A000F4B2900029849
:4031800000F0CEF90390039B013304D06B69039A9B186B6135E7BB890B985B0601D5012040421FB0F0BDC046205A0100265A01002A5A010000000000FD2E0000936810B564
:4031C000013B9360002B05DA9469A34208DBCBB20A2B05D01368581C10601970C8B201E0FFF726FB10BDF8B506000F001400D518AC4208D021783A003000FFF7DFFF01348E
:40320000431CF5D100E00020F8BD0000F0B59FB006000F0002920593002804D08369002B01D1FFF7C7FC7F4B9F4201D1776808E07D4B9F4201D1B76803E07C4B9F4200D1A7
:40324000F768BB891B070AD53B69002B07D0002306AD6B6120336B761033AB763DE039003000FFF73DFB0028F1D001204042D6E0059A111D12680591002A00DA7FE00992F9
:40328000013423782E2B00D18DE021780322684800F024FB002807D0654B2A68C01A4023834013432B6001342178631C062261480293297600F012FB002800D19DE05E4B9A
:4032C000002B00D090E00722059B07339343083305936B69039A9B186B61029C2378002B04D1029BE31A049312D003E0252BF8D00134F3E7049B029A39003000FFF773FF65
:40330000431C00D186E06A69049B944663446B612378002B7ED00122002352426A6002A95432521801342B60EB60AB601370AB6521780522414800F0D1FA002808D03F4BAE
:403340002A68C01A0123834013432B600134EFE72B68DA0604D55322202102A8121811701A0704D553222B2102A81218117022782A2A00D17CE7099B00200A2105E052421D
:40338000EA60022213432B607AE72278303A092A04D84B4301349B180120F6E7002800D16FE709936DE763782A2B0AD1059B02341A1D1B680592002B01DA01235B42079304
:4033C00063E700230A201A0001346B6021783039092904D84243013452180123F6E7002B00D152E7079250E705AB00933A00144B2900300000E000BF07E005AB00933A00AA
:403400000F4B2900300000F08BF80390039B013300D05EE7BB895B0600D526E70B981FB0F0BDC046C0590100E0590100005A0100265A01002A5A010000000000205A010010
:40344000E7310000F7B5170001938A680B6900900C00934200DA130022003B6043321278002A01D001333B6023689B0602D53B6802333B60062523681D401ED02300433383
:403480001B785A1E9341226892061CD53020E1184331087021005A1C45310978A2184332023311700FE022000123193201990098089EB047431C0ED00135E3683A689B1A0E
:4034C0009D42F0DBDAE72200019943320098089DA847431C02D10120404220E006232068E1683A6803400025042B03D18D1AEB43DB171D40A3682269934201DD9B1AED1801
:403500000027BD420AD0220001231A3201990098089EB047431CDED00137F2E70020FEBDF0B58BB006920A0043320793059004920A7E0C00109B6E2A00D1ABE011D8632ACC
:4035400022D009D8002A00D1B5E0582A00D0C5E045310A70814A4FE0642A1DD0692A1BD0BCE0732A00D1AAE009D86F2A29D0702A00D0B3E0202209680A43226037E0752AD2
:403580001FD0782A33D0A9E00E001A684236111D196013683370A4E021681A68080606D4490604D5111D19600023D55E02E0111D19601568002D3BDA2D23049A6D4213701D
:4035C00036E021681A68080606D4490604D51568111D1960ADB202E0111D196015685F4B227E039308276F2A1DD00A271BE022007821453211705A4A19680392081D226834
:4036000018600D68100602D4500600D5ADB2D30702D520231A4322601027002D03D1202322689A4322602300002243331A7002E00A274A4B03936368A360002B09DB04226A
:40364000216891432160002D05D1049E002B11D07BE0002D79D0049E28003900FEF7E6FE039B013E5B5C280033703900FEF758FE051EF1D1082F09D12368DB0706D5636822
:403680002269934202DC3023013E3370049B9B1B23612BE009681A68080607D4490605D5111D19601368A28A1A8004E0111D1960136862691A600023049E236116E01A68BA
:4036C000111D1960166800216268300000F006F9002801D0801B6060636803E0260042363270012323610023049A1370079B09AA00932100069B0598FFF7A4FE431C02D15C
:403700000120404227E02369320006990598079DA847431CF4D0236800259B070FD4099BE068984217DA180015E022000123193206990598079EB047431CE1D00135E3683C
:40374000099A9B1A9D42F0DBE9E72600039B42361B7833708EE70BB0F0BDC046315A0100425A0100002370B5064C050008002360FDF7E0F8431C03D12368002B00D02B60BF
:4037800070BDC046A426002070B50C000E25495F00F0ECF8002803DB636D1B18636503E0A289024B1340A38170BDC046FFEFFFFFF8B51F008B8905000C001600DB0505D589
:4037C0000E23C95E0022022300F074F8A289054B28001340A38132000E23E15E3B0000F01FF8F8BDFFEFFFFF70B50C000E25495F00F060F8A389421C03D1054A1340A381B7
:4038000004E0802252011343A381606570BDC046FFEFFFFF10B50E23C95E00F015F810BD70B50500080011000022064C22601A0000F0E4F8431C03D12368002B00D02B6007
:4038400070BDC046A4260020002370B5064C05000800236000F0AAF8431C03D12368002B00D02B6070BDC046A4260020002370B5064C050008001100236000F09FF8431CED
:4038800003D12368002B00D02B6070BDA4260020002370B5064C05000800236000F096F8431C03D12368002B00D02B6070BDC046A426002070B50500080011000022064C4C
:4038C00022601A0000F08AF8431C03D12368002B00D02B6070BDC046A4260020C9B28218904204D003788B4202D00130F8E70020704710B5884202D98B18984201D30023BF
:4039000005E09B1A013A08D3995C8154FAE7934203D0CC5CC4540133F9E710BD70477047F8B506000C001500002904D11100FFF785FA040018E0002A03D1FFF733FA2C0054
:4039400012E000F027F885420ED929003000FFF775FA071E07D021002A00FEF792FE21003000FFF71FFA3C002000F8BD70B50500080011000022064C22601A0000F036F82C
:40398000431C03D12368002B00D02B6070BDC046A42600200B1F1A68101F002A04DA891804390B68D01804387047000058220120014B40421A607047A42600205822012078
:4039C000014B40421A607047A42600205822024B00201A607047C046A426002058220120014B40421A607047A426002058220120014B40421A607047A42600205822012033
:403A0000014B40421A607047A4260020134A1088810703D08107890F401A001D11791030484381B25088820703D08207920F801A001D800040180A494030098980B2CA07E9
:403A400001D0503080B2890706D504495422091F09785143081880B270470000AE100020A014002010B501F00BFF10BD10B501F00DFF10BD10B500F05BFA10BD10B5074995
:403A8000044609780220002907D1204601F04EFF002802D120460AF0C7F910BD4C12002070B504460120002C12D02368002B0FD0616800290CD0074D0622288920811846E1
:403AC0002968FEF7DEFD6968606809780170002070BD0000A0140020FFB585B0002768460E9D07734F481C460078002802D0082009B0F0BD10990F9801900095029105A827
:403B000007C800F007F90028F2D16946264603AB84460873002C19D0002115E08A00B75A082F09D990198078002805D0083FB7521878401C187005E0002914D00027B7526A
:403B400090198770491CC9B2A942E7D360460028CED10F98002809D0109901F041FA002804D00120C4E701208446EFE701F08EFE2D4800214160816005990160218881806F
:403B8000022D07D3A1798171A17AC171A1890181218A418100211EE0481C19E082008B00A75AE65ABE46BE4211D26F463E80B4461E190296B678BE7001967646E652171986
:403BC000029EBB78B3706646A652019EBE70401CA842E3D3491CA942DED3134822460C3000906846037B0799069800F01BF90028B8D168460B4C007B60700B480C3001F0E3
:403C000075FE0028AED1084907480C3107F06AF90028A7D107F084F90028A3D10121217066E70000A810002094140020F8B5054636480F460078002802D002242046F8BD65
:403C4000002F60D000243249002D16D02A89D0070DD02868002808D003881B3BE12B04D24088FB2801D81B2801D2012409E0900707D56868002804D1F7E700200881086062
:403C80004860002CDAD122482E8906811F481B21801D01804180042101711C490020891C0870F00705D019480622801D2968FEF7E8FC1749B00703D56A681448127882702D
:403CC000124D0E46AD1D281F0D60486001F054FE284601F043FE30890DF052FE30890DF043F828880DF046F830890DF0B3FF03461033FFF78BFE1F21C01889014018388001
:403D0000A91F88809AE7012498E70000A8100020A0140020FFB58446384F1C460020BB883F78054602460646002F11D100290ED0029999420BD36146002908D0002C06D06C
:403D40000A99002906D02E4B0B99994202D2012004B0F0BD002144E0AB001F19BF78002F3BD0E35A002B38D07B43591889B22B0000F04AF8050410161C253100A778238818
:403D8000BC46FF27233BEB37BB4222D26346032B1FD322E0A388002B1FD0302B19D31CE02389002B19D0282B13D316E0A289002A13D01346134F233BBB420AD20DE0268A61
:403DC000002A0AD033460F4F233BBB4201D2964203D901200EE0002001E000280AD16D1CEDB2099B9D42B7D31C2463435B1802998B42ACD89642AAD8AAE70000A8100020B6
:403E000079020000BAFF000030B47446641E2578641CAB4200D21D46635D5B00E31830BC18470000FFB583B0002469460C801F4606468C80002806D00598002803D0049859
:403E40003043800701D0012466E0002FFBD03449049809888842F6D3FEF758F9FEF73EF900F012FC002855D100F07AFD002851D12C49084601F0E8F805042D0C4AD12A4803
:403E80000499066081800021C18007810C98007AC00704D0684601F012FD040007D10C98007A800703D501A801F012FD0446BF1DFEB2002C20D13146059800F05DF804005B
:403EC0001AD10DF0D5FE040016D16A461088928808368518144AF1B29088D288AEB29319984207D3401B801A80B201F09DFB050007D000E0FF25012400F05EFA002D04D0AE
:403F000008E0F8B200F01CF9F6E700F081FA07490120087000F0CAFB204607B0F0BD0000AC10002065400000AC140020B410002010B503480078012801D101F017FA10BDA3
:403F4000B410002070B5084B0446DA889E8800205518B54206D81D68AA182260DA885118D98070BD032070BDAC1400200148008970470000AC140020F0B587B007460D4682
:403F800000208900009006916846FFF7DBFF844600285DD1304800990160002117E02E4B88001A680629115406D22C4C0419667882185670628805E0C419203CA67A821885
:403FC000567022891B68C018491C4280C9B2A942E5D300242DE0601CC2B2059025E01E4FA30039689600581840887118039604904E88B04217D938466F46FE80B6464F7894
:404000006E4677710297049F4F800168039F5E18767879184E700168764659184E800068029F18184770521CD2B2AA42D7D30598C4B2AC42CFD36046002809D168460699A7
:40404000FFF780FF8446002802D1054900980860604607B0F0BD0000B8100020885A0100BC1000207047000010B5002809D005494A68002A05D0011F08788000105801F002
:4040800081FA10BDB810002010B50446FFF76EFFC0B2801DA0420CD307484068002808D0A100405801F0E0F9002801D00470001D10BD002010BD0000B8100020F8B516465F
:4040C0000D460446FFF752FFC0B2801DA04203D20020C0430090F8BDB2B2E9B2684601F0E9F90099481C03D0024AA000526811500098F8BDB8100020F8B50746FFF736FFFD
:40410000801DC6B20A49002005460C680DE06178002907D06188B94202D32078FFF7B4FF002804D1241D6D1CEDB2B542EFD3F8BDB810002010B5002801D0FFF795FF10BDA7
:4041400070B506460948002504680BE06178002905D062882078121D0023FFF7AFFF241D6D1CEDB2B542F1D370BD0000B8100020FFB581B00A9F16000C4620D000F0F2F8B9
:40418000054604281BD0002F0CD03846FFF7B4FF20492A0151184860002810D03A460499FEF76FFA1B4928010E504618778101980570200406D47D20C000444304E0FF200F
:4041C00005B0F0BD6404640C00F0BAF80746042807D000F04FFAA0420BD800F04BFA201A03E0204600F0AAFA0020F06035720020E6E700F03FFA009000F0B6FA0098012132
:40420000001B009000F0ECF802493A0151180098C860E6E7B8140020F8B5060116483418217A042903D0E068002802D017E00020F8BD00F01FFA054600F096FA00F0A0F834
:4042400004280CD001010C480F18F8680021451900F0C6F80020F860284600F06FFA6068054D002801D0FFF765FF042020720020A8516081E060DAE7B8140020FEB500260A
:404280006A46304601232549050169180D7A042D02D0C96800291BD000211154401CC0B20428F0D300246846005D002830D01B4821010818418947680568029100210160B6
:4042C0004160042241810272C160002E02D015E01354E3E700F054F804280ED001010F4808180190C6680021304600F079F801980021C160304600F021FA0126002D07D07D
:4043000038460299A847002F02D03846FFF712FF641CE4B2042CC6D3FEBD0000B81400200EB5002005216A460090118150810348694600680EF001FB0EBD0000C0100020A6
:40434000074A0020010189180B7A042B02D0C968002903D0401CC0B20428F3D370470000B81400200549002002015218127A042A03D0401CC0B20428F6D37047B814002045
:4043800030B50A4B04200A4C00210A011219157A042D06D0D268002A03D09A4201D808461346491CC9B20429EFD330BDFFFF0000B81400207047000030B50020074C0546C9
:4043C0000423020111190B72A5504D60401C4D81C0B2CD600428F4D330BD0000B814002030B5094C00231A011219157A042D04D0D568002906D02D18D5605B1CDBB2042B95
:40440000F1D330BD2D1AF7E7B8140020002070471CB5002469460C70142001902346054A05480EF08FFA04480068401C00D1FF2420461CBD8D440000C01000203EB5124A1F
:404440000146FF2000230124126800290DD0012914D0042908D104206946009308814B8110460EF06AFA80B23EBD6846009304814381694610460EF05BFAF4E7684600935C
:40448000048143816946EBE7C010002070B545890468416800890300FFF7B6FC08280509091E22282628002005F0D8FB1EE0022908D0C8B22A4621460CF0A2FB2046FFF7DA
:4044C00039FE13E002202A4621460CF099FB2946204600F00DF809E000200DF02DFF05E02046FFF7CBFE01E0FDF790FE002070BD014B0022DB681847C410002070B544895D
:4045000005680089022803D0032809D0FF2070BD2246094C0023A46829460120A04708E0FFF7A4FA241DA2B200232946022006F08CFB002070BD0000C4100020704700009B
:40454000024800214160018041807047C410002070B50C46002186B016460391012802D0022859D116E003A9012006F0C3FB01281BD1039D324621462846FEF782F80095B8
:40458000287801900220694608814E816846FFF7B5FF41E0214D002B686809D0049004A9022006F0A7FB01281DD0022006B070BD002812D0298840182146FEF762F8288857
:4045C0000024801980B228806988091D884206D12C801348FFF792FF03E00320E6E788421AD96C6018E004986860E278A378110219430B4A698000231060E356536003235F
:4046000013815181A1788170E178C1706178417021780170042028800020C7E7C4100020F81400203EB515460C46022803D004280CD000203EBD00910190022069460881F6
:4046400007484A8100680EF078F907E00CF0D8FA044B0022DB6829462046984701203EBDC0100020C4100020014AD16090607047C4100020034801688068081A0A214843A1
:40468000000970470415002010B5FDF72FFD482204490548FDF7F5FF03490120C870002010BD0000A45A01000819002010B5FDF70DFD10BD70B5134C2368002B08D0207B21
:4046C0001149C20705D04008400020738868A08070BD88680B4AA18880B29268814203D90A4D691A091802E0814202D2411A5118A160A080A0689842EAD30EF03BF900F017
:4047000013F870BD04150020C0102E40FFFF000010B508461946FFF7A7FF10BD704710B5FFF780FF10BD000003480021016041608160C1607047000004150020024610B5C6
:40474000FF20002A0CD0FFF7EFFF064C0321207B0843207310010A21FDF768FE2060002010BD00000415002000B504480A21806848430209FFF7D8FF104600BD0415002042
:404780000248007B8007C00F704700000415002010B54B490868002802DA4A4B01221A70022290430860484800694549C00B4031096A0246C907C90F0A4259D0012000F0D4
:4047C00097FA3F480E216C30FDF78AFB3E4820218430FDF785FB3C4814219C30FDF780FB3948FF21C131A430FDF77AFB3648FF212F31B030FDF774FB33483449BC30FDF791
:404800006FFB31483249AC30FDF76AFB30492E48491CB430FDF764FB2B482E49B830FDF75FFB29482C49CC30FDF75AFB26482B490830FDF755FB24482949A830FDF750FBBC
:40484000214828498830FDF74BFB1F4826498C30FDF746FB1C481921C9029030FDF740FBFDF74EFBFDF75EFCC0B2022812D01FE000290BD0002101420AD0114801216030F8
:40488000FDF72EFB0120FDF715FC97E70121F2E7FF2010BD15491648FDF722FB14481549001DFDF71DFB124800210830FDF718FB54200449C043891C0870002010BD000018
:4048C00000F02E40D410002000002E40320300002F3F00003102000010520000EC160000FA12000031D000003AE300009956000080012E40F80F000070B50646581C80B288
:4049000045086D00002408E0304600F0C1F81055000A1119A41C4870A4B2AC42F4D3D80705D0D0182038D15CC47FD454C17770BD30B50A4C002100195B1E07E05418647868
:404940002502545C2C430480891C89B29942F5DB994201D1515C018030BD000000102E4010B5FF2000F0C4F90F49FF2048700E481021801D41800121417001700A49002040
:40498000C91C4870FFF704FF04000AD100F010F907210648FDF794FA044807211830FDF78FFA204610BD0000D4100020CC112E4070B5002405465B1E0AE0284600F068F821
:4049C000010A161971702D1D1055A41CADB2A4B29C42F2DB9C4203D1284600F059F8105570BD000070B500210A4D5B1E0AE0541864782602545C344346193480001D891C6E
:404A000080B289B29942F2DB994202D1515C4019018070BD00102E40F0B50599091FCFB200217E1E0BE0541864782502545C2C43164D45192C80001D891C80B289B2B142D0
:404A4000F1DBFC0712D01C78515C24020F4A0C4381180C809C785D78001D210280B2294384182180001D80B2D9780CE059781A7809021143054A84182180001DD9789B78F2
:404A8000090280B2194380180180F0BD00102E40014940180088704700102E4010B50B490020487000F084F8002000F047F9002000F034F907210648FDF702FA04480721F6
:404AC0001830FDF7FDF9002010BD0000D7100020CC112E4010B50B46062812D006DC01280CD0032801D1FFF7D9FF10BD0A28FCD00B28FAD105480078107010BDFFF730FF6D
:404B000010BD1146184600F035F910BDDA100020F8B5244DAC6A0127A007234E002816DA307806280ED1286A384328621F480069F903084381B21D481030FDF7D1F9042055
:404B400000F0D6F8174802212830FDF7B9F9E00718D000F01DFF01280FD1002000F06AFF062000F0C5F81049FF20C91E48707078002802D1686B384368630A4801212830E8
:404B8000FDF79EF9E0050BD53078042802D1052000F0AEF80348FF2101312830FDF790F9F8BD000040F02E40D710002000002E4010B503212348FDF793F90120FDF76AFABC
:404BC00020483038406A204C80076178800F890001431C480C38FDF783F96078002808D0401E022181401820FDF70AFDC000083800E0B82081B21548FDF772F91348032188
:404C000009021438FDF76CF910481149B830FDF767F9612189010F48FDF762F90D480321001FFDF75DF90C490C48FDF759F90B480B496038FDF754F9084801218838FDF7AD
:404C40004FF910BD70F02E40DA100020D8102E4090890000041E2E40FF0F000058122E40209000000849087806280BD148780749002803D1486B400840004863C86A012290
:404C80001043C86270470000D710002040F02E400148007870470000D710002000B50300FFF7B2F8080D050D0B070507090D012000BD032000BD042000BD022000BDFF204C
:404CC00000BD0000074A9168D26889B2064B92B2994204D105498A4201D1012100E000210170704780002E4033D000003FE3000010B50446FDF7F2F9072C01D9FF2C01D1B1
:404D000002480470FDF7E2F910BD0000D71000200149487070470000D410002010B5064A012805D01921C9021046FDF7D9F810BD1D21C902F8E7000090002E4010B50A4A56
:404D4000141D012808D009491046FDF7C9F808492046FDF7C5F810BD04491046891CFDF7BFF80349491DF3E788002E4031D000003AE3000070B50C460546FDF7D3F9C0B2E8
:404D800002280E49287804D0FF2810D04C280CD810E0FF2809D10A4AD0680004800F032801D0087807E09069000A553803E00878207070BD4F382070087070BDD6100020BA
:404DC00000002E40F0B50122002834D0002932D00424420600D00524792342065B06D21800D0641C034600221EE00C2516466E43124D00277519AF72104F002ABB51696004
:404E000007D0661EB24209D10D4E86197606760E05E05E06760E8027BE1B00E080269B198919521C2E81D2B2A242DED303480549006B002288611046F0BD00009017002017
:404E400079020000E010002018B50020694608700A48006900280ED0132149014018047E684604704F21C900054800F059F8A04201D0012018BD002018BD0000E0100020E3
:404E800014150020074900200C2242435218927A012A05D0401CC0B20628F5D3002070470120704790170020F8B50E000446154609D0194F19497868A04202D94018A042FC
:404EC00001D38D4201D90120F8BD31462046FDF7C9FB00281ED02A4631462046FDF7D1FBE8B200210C224A43D21913895568EE18A6420BD90126641B1B1B9672834209DA8F
:404F00001469C01A044AC0B220329676491CC9B20629E7D30020F8BD9017002079020000034610B50020024604E09C5C2018521CC0B292B28A42F8D310BD000070B500F0F5
:404F40005FF8084C064A216907480D46FDF799FB05492846FFF736FFFFF776FF207070BD79020000E010002014150020002070470020054A002902D0012902D002E0906090
:404F800000E0D06000207047E010002070B5084C154608460549E26889182A46FDF771FBE0684019E06028B270BD000014150020E01000203EB50A226946FFF7E7FF04469A
:404FC00006480A2200686946FDF74CFB002802D00020C0433EBD20463EBD0000E4100020002802D0044A914201D2FF20704703494A6108610020704779020000E0100020D2
:40500000024800218160C16070470000E010002070B5074C15460548A26880182A46FFF743FFA0684019A06028B270BD14150020E010002010B503490A220968FFF7E8FF86
:4050400010BD0000E410002010B50F4A002313600E4A13600E4B18600E4801600E49012008600E490860000290600E490C4808600D4914300860FF381538506000F0BCF8CA
:4050800000F0CAF9002010BD14110020FC100020281100202C1100201811002008110020D81800200C11002020110020014610B50020002910D0094B1A689C685118A142AE
:4050C00009D25868196080188A0704D08A07920F891A091D196010BD002010BDFC100020F8B50024164E671E321F3D463168136806E01422624310328A58521C1BD0641CE5
:405100009C42F6D36A1C14D02C461422544322460C3288500C214843FFF7C8FF3168002808510AD031680020103408517068401C70602846F8BD2546E4E73846F8BD000052
:405140000C110020F3B50026F64381B000281BDB1E490968884217D80299002914D01B4F142204463F1D54432546396810354859401C09D0FCF7B2FF38682F1F4159C35917
:40518000994203DBFCF7A2FF3046FEBD214608310091465801590C20704308180C220299FDF76FFA0948761C001D0068C159B14200D100260549009A091D865008684159C9
:4051C000491C4151FCF782FF0020FEBD08110020002803DB07490968884202D90020C043704704491422091D09685043103008587047000008110020F0B500200D4A451E2E
:405200000346171F50600FE014260146714314680E1DA3510C461668083433511668083435511468401C635039688842ECD30020F0BD00000C110020F3B50026F64381B0B9
:40524000002841DB2349096888423DD8029900293AD0204F142204463F1D54432546396810354859401C2FD0FCF738FF3868415900292BD0211D009146580C210059714302
:405280000F46C1190C220298FDF7FBF911480021001D0068761C00590C34C0190160416081600C48001D00680159B14200D100260849009A091D865008684159491E415122
:4052C000FCF704FF0020FEBD3046FEBDFCF7FEFEFAE7000008110020FEB504460D4600201E49089E0860471E009001900290002C11D0486885420ED2002A0CD0002E0AD034
:40530000642E08D808460C3001681C2068430C18207A002801D03846FEBD0120226020721846FFF7DDFE6060401C13D06681A6810A4827610C3067610179A94200D2057135
:405340000021684601810A462846029B00F040F82846FEBD00202072DDE700001411002038B50124009400F039F838BDFEB50027164EFF433D4600240EE01C20316860432C
:405380000818017A002906D04068FFF721FF002801D0254603E0641C3079A042EDDA681C12D01C2130684D434419FCF797FE69466068FFF741FF0546FCF788FE002DD9D184
:4053C000216868468847D5E7FEBD00002011002038B50024009400F001F838BD1FB500220C49541E0A60002811DB496888420ED808491C220C31096850430818406801A97E
:40540000FFF7A0FE401C02D0002004B010BD2046FBE7000014110020F0B50021114A4D1E174611710C3F0B46BD6016E008461C2460431668041D3551146806462350146855
:405440000836A3551468361DA353044616680A34335318301468491C255078688142E5D30020F0BD2011002038B500210091002811DB0F49097888420DDA0D4D04010C35B1
:4054800029680859002807D0201D0818694600F06FF9002801D0002038BDFCF71FFE28680F34015D491E0155FCF710FE009838BD30110020F7B582B0002502986E1E06600D
:4054C0002E48D21C024017462D4A2C4610460C380178106805E02301C358002B0FD0641CE4B28C42F7D3711C28D03401211D40180191039900F02AF900281FD101E0264663
:40550000F1E71F48016820460C300F521C480399026820460E30115419480399026820460F3011540398784300F0A0F8144900280968085102D00024009011E001251AE018
:405540000F48016801980818009900F02CF9002801D0012502E00098C0190090641CE4B203988442ECD3002D05D10298066004480179491C0171284605B0F0BDFCFF000061
:405580003C110020F8B50D4600216A468C461180002839DB23490978884235DA214B04010C3319680A59002A2ED020460C300B5A801C0E5C184670438018954224D3854241
:4055C00022D2002006E007465F43BF18AF4206D0401CC0B2B042F6D36046002814D0114E271DC8190C366A46294600F006F900280AD168460088012808D030682946C019FB
:4056000000F0D1F8002803D00120F8BD0020F8BDFCF764FD30680F34015D491C0155FCF755FDF3E730110020F8B50F46002400F031F8002817D10C4900220B460C334A6043
:405640000EE021011D680E466A501D680C36AA53B61C1D680F31AA551D68641C6A54E4B2BC42EED31A71F8BD3011002000280BD0C01C074A8108506889005388411899426B
:4056800003D8936851601818704700207047000030110020F8B5064600200F4D009029700C0121466846FEF74DFC00280CD129460C3100980860301B001F84B221466846E0
:4056C000FEF740FC002801D0FF20F8BD6C800098A8600020F8BD000030110020F8B5002827DB19490978884223DA174C05010C342168485900281CD028460C30085A0090E6
:4057000028460E300E5C401C0E5420682F1DC01900F064F800280CD12068002445590EE0094829460C300068C01900F03CF8002801D00120F8BD00982D18641CE4B2B44246
:40574000EED30020F8BD00003011002030B50D4604000BD0A800FFF789FF6060002805D000202570C0436080002030BD012030BD70B50D46040005D0002D03D00220205E94
:40578000002801DA012070BDFCF7A8FC0221615E60688900405828606088401E6080FCF795FC002070BD70B50D46040007D0002D05D002212078615E401E814201DB0120CA
:4057C00070BDFCF78BFC6088401C00B26080616880000D50FCF77AFC002070BD10B5040009D0227800216068FCF754FF0020C0436080002010BD012010BDF0B500231D465C
:40580000002802D00224045F0AE00120F0BD46689F00F6598E4201D1012503E05B1CDBB29C42F4DA15700020F0BD00000148007870470000441100207CB505460024FEF762
:4058400015F9A8796946087000A8062229460130FCF717FF0021684604F0C6FC0C2806D0072806D01F2806D0122806D006E0022404E0042402E0272400E0012420467CBDAF
:405880000148012141727047101A002010B500F05FF9FFF7FDF9FFF701FA10BD70B504460025FEF7E3F8002C06D0A079012803D8214602F063FC00E00125284670BD0146EF
:4058C0000120002902D05020088000207047000001460120002905D0034854220078504308800020704700004611002010B502460D49FE204870032410460DF041FB00289E
:4059000010D10DF0E5FA00280CD105F04FFA002808D100F013FB002804D104F00BFF002800D10024204610BD4411002070B50025044600280ED0A07901280BD8FEF796F866
:40594000A0790028204602D002F0A6FF03E002F07BFF00E00125284670BD0000014610B50120002904D006220248FCF78AFE002010BD00005011002001460120002903D03E
:40598000087802490870002070470000461100200148007A70470000101A002038B504460120002C20D0617801291DD800290BD0FF25E535FEF75AF80C4828180088C0B20F
:4059C0002070072803D00EE0FF25CD35F2E70020694608706846FFF775F969460878012801D108202070002038BD000000102E40014A0021926810474411002008B5002249
:405A00006B461A7026280CD0094A342852680BD0352805D1900703D50021352005F0A2FA08BD19462620F9E7D007F9D03420F5E7441100200149087270470000101A0020C0
:405A4000F8B504460120002C26D06178012902D92278092A20D8002905D0FF25E5352078092803D004E0FF25CD35F8E708202070FDF7FCFF2078114F114E08280DD000205D
:405A8000FFF75CF970780128207810D00D4969180880FE2070700020F8BD0120FFF74EF90720B8810549203188800120F2E7B8810248217820308180EBE70000C0112E4003
:405AC0004411002000102E4070B50E46050001D0002400E00C4C002C11D0E28A500609D5D107C90F022002F06BFFE08A40218843E08204E0D107C90F012002F061FF3146B7
:405B0000284602F049FC70BD70190020F8B50546002004460D4E009013E022466946284600F0C2FF0098002801D00DF00BFAA878214602F08BFAA878214602F079FA641C77
:405B4000E4B2308AA042E8D8F8BD00003C1A002038B51E4CFFF79CF8042813D0052811D0062812D003282AD007280AD100206946087002460120FEF7ADFFFFF789F80128DA
:405B8000FBD138BD00F077FB38BD02F0B5FA00F072FB02F015FB8007800F0228F4D10C4841880029F0D05B21095D0029ECD101210170A07D0140022002F002FF38BD02F00D
:405BC0009FFA0120FFF794F838BD0000701900206A110020F8B50646002402F05FFF0546304602F075FF03460A480021068A0DE001228A401046174628401F40002803D001
:405C0000002F01D1224394B2491CC9B28E42EFD82046F8BD3C1A00201CB50020694648706846FFF7BBFE01AA69460A20FEF752FF6946042008561CBD70B50D4601F01AFBA9
:405C400004000BD02079002808D0FDF70FFFE178A0782A4602F026FC002070BD022070BD0148007870470000481900204030C07E002800D00120704700B500F001F800BD47
:405C8000902148430749084A40186030417F491CC9B24177D289914201D300214177C8B270470000501900203C1A002013B501F0E1FA04000BD001F07EFE002807D0214675
:405CC00001AA0A310620FEF705FF00201CBD02201CBD000010B50C4601F0CCFA00280AD001F069FE002806D0224604490A20FEF7F1FE002010BD022010BD0000311900207C
:405D0000F3B581B0074601460026029802F0BEFE0446002F01D0002500E0154D002D21D0284601F0DDFA032C04D13946029802F009FF06463846029902F07AF9032C06D09D
:405D4000002C10D00121384601F0D0FB03E03146384603F0FDF8284602F05EF80221284602F074F8FEBD3846029902F061F9FEBD7019002010B5044600F066FA002804D176
:405D800003F0B0FD002801D00C2010BD2078611C02F08AFCFF2801D01F2010BD02F0D0FCFF280AD02178621C02F0D0F8044821780068026B601C904710BD072010BD000062
:405DC0009011002010B503F08DFD002801D00C2010BD02F04BFC03480068C06A8047002010BD00009011002070B50D46044610210CF0E8FF1021601806460CF0E3FF334601
:405E000010221946204603F09BFD102130460CF0D9FF02202870204604F0C2FB70BD0000F8B504464078217802028006870FE0781143A67809050002090D0643084601F087
:405E400019FA00210546F2B2002812D0002C10D0022F0ED0032F0CD0002A0AD00279092A07D0002A05D0134A5A23527E1B5C9A4207D82889002104F0C8FA20460DF062F823
:405E8000FF21002914D10C48224600682946436930469847C0B2FF280AD128464030817EF2B2491C8176FF232146284600F0E3F8F8BD000008190020AC1100200020704763
:405EC00010B5044603F00EFD002801D00C2010BD2078611C02F0E8FBFF2808D002F020FB044821780068426B601C904710BD1F2010BD00009011002010B500F06BF904F0B9
:405F000019FC002010BD10B5044600786178E2780843A17811430843217908436179084305D003F0D1FC002803D00C2010BD122010BD204602F0B0FC002010BD10B5FCF767
:405F4000F1F802F0CDFD044803F038FD02F0F2FA012000F003F810BD18190020F1B586B003A8009005A8019028489F22817A114081726846FDF794FD002845D16946098989
:405F8000C90705D0224806990068C2686846904769460989890706D5002835D11D480068816A0698884700282ED11B4E0025757075737571F575357675767575B570F57041
:405FC000B5713746F5730120D03738731F20F880FF2130467972A0300176457600F0BCFA00242046069901F091FC002803D1641C2406240EF5D0FD720749BD72B573C03198
:406000000D704D704D600D7207B0F0BD08190020AC110020901100205019002070B505460E46084602F03AFD0446304602F050FD0121A9400A46224001400A4301D00120B7
:4060400070BD002070BD10B50446084602F040FD0121A140014201D0012010BD002010BD10B5FEF715FE032804D102F049F80120FEF73EFE10BDFEB51C4616460F460546F8
:4060800001F0CAFEA878FFF7F7FD02460190334639460094284600F00DF8002808D1A8780199FFF711FDFF2C02D138460CF04AFFFEBD0000FFB585B005460E980C46FF28C7
:4060C00010D02B49C00009680A5840180179C0795278814201D9012601E09006860F6846038108E06078A1788006860FE0780002014368460181284601F068FC070007D07F
:4061000021462846079A00F063FC384609B0F0BD304600F011FD04AE0346039002AA29460096204600F09DFB3C20405D002818D0284601F04BFC012813D06846008900968D
:40614000C0B20190A878231DFF22079902F0D8F868460089039BC2B2A878079902F018FCD3E7684600890021C0B20091E9E70000A8110020F8B5002600253046FFF72AFDE1
:4061800007001DD090201149704340186030447F12E0601CFCF74AF9CCB23846E040C007C00F07D02146304601F03AFF21463046FFF7A6FD6D1CEDB20548018AA942E8D82E
:4061C000761C3606360ED7D0F8BD0000501900203C1A002010B502F0ADF90020FFF7BEFE0CF046FF002010BDF8B5002400F0B2F80123012800D10124104F00203E462036CE
:406200000425082203E0002801D0002100E031460979002907D001290BD002290BD0114681402143CCB2401C0006000EEBD07C70F8BD1C43F7E72C43F5E700005019002053
:4062400010B5FFF7D1FF10BD10B5044604F0C4FB002802D1601C00F001F810BD1CB500240094062269460194FCF7FCF9002800D1122420461CBD10B5FBF71BFE0446FEF77D
:4062800007FD012809D0FEF703FD022805D0FCF725F82046FBF711FEEEE72046FBF70DFE10BD10B50B4681791943817103D08078114602F03BFB10BD10B582798A43827173
:4062C00002D1807802F046FB10BD000030B50C4C0220A28A0B4B9978002901D0022906D11D785B78EB18282B01D9032002E0032900D101205105490DC0020143A18230BD68
:40630000C0112E406011002000B500F029F8002807D0012805D0032801D0042801D0002000BD012000BD014600B50020C90701D000F010F800BD014600B50020C90701D0E7
:4063400000F008F800BD000001480068704700005811002001480088000A704720102E400448008B410501D5042070474007800F7047000000102E400148406870470000CE
:406380005811002038B50446000610D5FFF7E8FF01280CD1684601F0B9FE6846007800F01BFB012001F0A0FD0220FFF749FF600708D507480179012904D1002101712620D9
:4063C000FFF71CFB0348006801692046884738BD641100209011002010B501460A4A007800241070FFF7B6FF0128084603D002F0BFF9204610BD00F0E7F80400F9D10348BD
:4064000001210170F5E7000060110020101A002070B50446FFF79EFF002801D00C2070BDA27B01211F48002A827801D00A4301E05208520082706279012A14D0C1784908E3
:406440004900C170184D2868016820468847207901280CD06188208802F0F6FF2080207904280FD015E0C2780A43C270EAE72868C168E01D8847E01D02F0FAF90B48808C70
:40648000208006E02868C168E01D8847E01D02F0EFF9074920798870204602F077F9002070BD00005019002090110020081900206011002008B50178FFF74CFF814201D1DC
:4064C0000C2008BD002914D0072069460870FFF71BFF012807D10121684600F0D5F8012801D0092008BDFFF7F1FE02F083F9012011E0FFF709FF012806D1684601F006FEC4
:406500006846007800F09CFA02F06AF9FFF722FF0028FBD10220FFF793FE002008BD000010B501460A4A007800245070FFF712FF0128084603D002F0D9F9204610BD00F0CD
:406540005DF80400F9D1034801214170F5E7000060110020101A002038B568460CF088FC002801D01F2038BD01210098C902018041800025057145718571072141738573F9
:4065800002F004F9009C202200212046FCF782F825702A460021601CFCF77CF8204602F0E7F8204602F0A2F900980CF0CBFC062200210448FCF76EF802480C38856000200B
:4065C00038BD000064110020F8B504460025684600950CF04DFC002801D007250AE0064E009830602278611C401CFCF74AF83168207808702846F8BD58110020F8B50446EE
:406600000025684600950CF033FC002801D007250AE0064E009870602278611C401CFCF730F87168207808702846F8BD581100200346084800B5834209D8184600F01AFE7F
:40664000002804D00089984201D1012000BD002000BD0000FF0E0000074A9179491C8906890E917138220A4092014907090E1143084302490840704750190020FF0E00001C
:40668000C006C00E70470000F8B507460E4600240D4803E0002C01D0002500E005462979002905D0641C2406240EF3D00020F8BD0021204601F02AF92E712046FFF7CCFF23
:4066C00028813C700120F8BD7019002010B503F06BF90222002100F003F801F0D7FE10BD10B5094B40074907000F090F185A595A40185043C0086421FBF798FE002800D132
:40670000012080B210BD0000EC5A0100F7B53D20405C88B015460C46002802D02878042802D200200BB0F0BD6946087200262046FFF79CFA012800D00126204603A938306B
:406740000191009023460327A17E34333246206A03F04EF902A8089900900B46019120463A4603A9243003F0CBF802466846007A2870204601F0B6F81046D3E7FFB587B040
:406780000C4605461078694608723D20005D1746002826D000262046FFF768FA012800D00126204603A93830019100902346A17E34333246206A03F01BF902A80090291D3E
:4067C000019120462B1D03A924300A9A03F098F802006846007A388002D1204601F082F810460BB0F0BDF0B505463C20405C89B016460C4600280CD0307869460873002821
:4068000006D000272046FFF731FA012803D003E01F2009B0F0BD012703200890204604A93830019100902346E17E34333A46E06903F0DEF86846007B03A9281802900091D7
:4068400020462B46019504A92430089A03F08CF802466846007B3070204601F04DF81046D7E7FFB505463C20405C89B016460C46002810D0084601F0A9F801280BD030884E
:4068800069468883002809D000272046FFF7EEF9012805D005E000200DB0F0BD0220FBE70127204603A93830019100902346E17E34333A46E06903F09BF8291D2B1D07A8C3
:4068C000129A6D4607C5204603A924300C9A03F04BF802466846808B3080204601F00CF81046D9E770B50D460446FFF7BFF901280AD0E87AA97A00020143A07801F0C2FC04
:40690000012808D0002070BD00222421204602F0EDFC242070BD28214C200155204600F0B1FB282070BD0000002801D0002000E003484030C07F012800D0002070470000AB
:40694000701900200146002049070ED50021084B03E0002901D0002200E01A461279022A04D0491C0906090EF3D0704701207047701900200146002049070ED50021084B02
:4069800003E0002901D0002200E01A461279022A04D0491C0906090EF3D07047012070477019002010B5044680346068002803D00CF0DCFA0020606010BD403041707047AA
:4069C0004030817070474030017070470171704792001018C166704770B53C2501F09CF9040004D020460021433001F0FFFBFF222946204600F0E8FB002C02D0A07801F08D
:406A00000DF970BD10B5002801D0002000E00348002802D0008903F03FFD10BD7019002010B5002801D0002000E00448002804D00179072901D100F047F810BD70190020CB
:406A400010B501F069F9002802D0807801F0E6F810BD00207047000070B50546008A00281ED01049F122897A1140C90618D5294640314A8A098A521C4A4392B2D10800D1DD
:406A80000121540801E0621A94B2A042FBD9FEF7CDFE012804D1298AA878224601F0B8FC70BD00000819002010B50023054C0B60248A944204D992001018C26E0A60C36671
:406AC00010BD00003C1A002038B5044600200090A079002814D14020015D052901D00E290ED168460CF0D4F9002809D12046009902F0DAFB03481021C28A2046FFF7D1FB44
:406B000038BD00000819002010B50B4604460146184602F04BF8002802D020460CF01CFA10BD13B5044601AA11460620FDF7D2FF6846818861811CBD002800D10220704763
:406B400070470000F8B504462346401D543300909A1EA078911E01F0F5FA25464035A88A298A8000FBF762FC401E81B2688A884203D96982A07801F05DFF698A8C2001512C
:406B800020460021433001F031FB27480088E88102F00AFFE989891C8AB26179FFF7A0FD01F074FC02F000FF2A8A6179FFF798FD074601F05FFC688A002806D01B49088AB9
:406BC000032212021043088202E0002001F026FF1648803801886E8A002E0CD0304648431349FBF70DFD0004000C01D0401C80B21049488002E00F4800214180288A70435D
:406C000081B2A07801F080FEFF2228374932B9B21346204602F01CFCE98AA07801F0F4FDA07801F025FAF8BD80102E40E0112E40710200006A1100207FB5044680346168BB
:406C400005460E46183108226846FBF71AFD31462031082202A8FBF714FD102168460CF0B1F86068102108300CF0ACF860682B46083024331022694602F062FE7FBD10B55B
:406C800004460821FFF718FB10212046FFF714FB207905281FD006281DD008281AD12189002003F071FB072020712046FEF7DEFF014620464030012913D00E2101700021CD
:406CC0000176204600F0BCFF2046FFF76BFE2046FFF7C2FE10BD20890122002103F038FBE1E70521EAE70000FFB581B01F4604460821FFF7E1FA10212046FFF7DDFA207901
:406D0000082803D0092804D0042203E00422012501E009220025204600F044FE264600204036307022712046FFF73CFE0398002D02D0012808D00BE001280AD1208900220D
:406D4000029903F005FB04E02189029803F01CFB012700203076012F04D0204600F070FF05B0F0BD02983073204602F0EBFA054605480121C28A2046FFF793FA002DEFD1E4
:406D800009202071ECE700000819002070B50C460546FEF76BFF012809D108212846FFF78BFA0023012221462846FFF79DFF70BD10B5044600F0F6FD2046FFF7F3FD002196
:406DC0004034217010BD70B505461A24FEF74EFF012809D108212846FFF76EFA0023012221462846FFF780FF70BD0000F8B50446002000900E4668460CF04AF8002801D03C
:406E00000D20F8BD8420005908212030009D00F02CFA20460421383000F027FA002E02D1204600F0FBFD2946204602F0CCF90E480821C28A2046FFF734FA204600F071FF4D
:406E400025464035002808D0204600F023F8002801D0092028700020F8BD08202870204600F0DAFFF7E7000008190020014610B540310A460978082906D0092907D00A2993
:406E800001D100F091F810BD0B20107010BD00F001F810BD70B50446007925464035052805D0062803D008280FD00C2070BD03220621204602F01AFA0D480821C28A204671
:406EC000FFF7EFF91120287010E006202873204602F038FA0646AA8A0A20424301212046FFF7DFF9002E01D109202071002070BD0819002038B504460020009068460BF053
:406F0000C7FF002801D00D2038BD2046009D00F0C3F908202071204600F080FD2946204602F084F900213D2001550F2040210855204600F071FF002038BD00B5024600F068
:406F400031FD10214032117000BD10B50446FEF78DFE012809D04020005D112805D100231A4606212046FFF7BFFE10BD10B5FFF786FE10BD38B504460021684600910BF077
:406F800087FF00280CD12046009902F0D0F905480821C28A2046FFF784F90D204034207038BD00000819002038B504460021684600910BF06DFF002801D00D2038BD20460B
:406FC000009902F0A9F905480821C28A2046FFF768F90C2040342070002038BD0819002000787047F8B5002569460D70002801D0002400E01F4C002C18D0204600F0DBFC89
:40700000002813D0207903280BD005280CD026464036B18AA07801F081FCB078012806D01DE0042020711DE006202071F8BD0021204601F0D8FD274680373868002802D0AD
:407040000BF094FF3D600020B0702079072802D12046FFF701FD0221204600F0F7FE20790428E3D1207A694608703420FEF7C6FCF8BD00007019002010B54C22115400F017
:4070800052F810BD10B50446FF21FFF715F909202071A07801F068FC10BD000038B5FF216A461180002801D0002400E00B4C002C12D011460620FDF70DFD684601882046CA
:4070C000FFF72FFD204600F087FC002804D104480068C1692046884738BD000070190020AC11002010B504468079002809D022214C200155FF212046FFF7DEF8204600F054
:4071000012F810BD10B5037902464032002B03D01173092B02D003E0002100E02221117300F001F810BDFEB504460089002700902781207926464036002817D0012815D017
:4071400002280AD112E002AA01A9204601F01CFD002807D101980BF0FFFE204601F03CFD0028F0D02046FEF7D1FCB776254680352868002802D00BF0F9FE2F6068680028D1
:4071800002D00BF0F3FE6F60317B002919D0009800F064F8A078002100F086FF2046FFF795FAA07801F058F8A07800F037FDFF212046FFF781F80B20FFF742F800F068FCCE
:4071C000FEBD1F213173E2E7F8B517460E46054602F0E6FB04003CD020460C3000F0F6FF2046062200211830FBF754FA2046062200211230FBF74EFA164822460068394605
:40720000436A28469847074626702846FEF72EFD012148406070002D10D02889608028464030C1782171002E0FD169796171018AE180418A2181808A608106E00648008B5D
