:040000005CEFFFF0C2
:020000040001F9
:10FEB8000001A5EFFFF0016E0E01CDADFDD701C029
:10FEC8009AFE12000E01CDAF02D0010E1200000EF4
:10FED80012000E01CDAFFDD79DA302D09D9F9D8F2F
:10FEE8009951120097ECFFF0C9ECFFF08BECFFF092
:10FEF8007FECFFF01200080E0E019F6F900E9D6FB1
:10FF0800240E9E6F330E9B6F000E9C6F1200620EC4
:10FF18000E01D86F000EDA6F000EDC6F030EDE6F75
:10FF2800200EDD6F1200000E0E01E16F000EE26F71
:10FF3800000EE36F000EE46F000EE56F000EE66F33
:10FF4800120076ECFFF07FECFFF008D0210E026E75
:10FF5800760EE82EFED7022EFCD700D066ECFFF016
:10FF68000009D8B4F3D76DECFFF0036E0304D8B4DE
:10FF78008388400E5FECFFF0210E026E760EE82EAD
:10FF8800FED7022EFCD700D0F4D7000E876E000EE5
:10FF9800866E000E836E000E846E000E856E070E50
:10FFA8008C6EEF0E886E89688A68F70E8B6E0F016B
:10FFB80021691969FB0E266F070E2E6F1169000E55
:10FFC800256F000E2D6F000E186F000E106F000EBB
:10FFD800206F000E2C6F000E0F6F000E176F000EB3
:10FFE8001F6F000E246F0B0E026F0E018D918D8313
:08FFF8008D958D878D891200A3
:020000040020DA
:10000000FF0FFF0FFF0FFF0FFF0FFF0FFF0FFF0F80
:020000040030CA
:0C000000ECFFFFFF9FFFFFFFFFFFFFFF73
:00000001FF
