:400000000080002011000000A9030000A903000010B500F0EBF9C04670B51222224B1A6000F0D2FB214800F0CFFC012000F0ECFB302000F0E3FA1E4A1E4B1A601E4C802588
:40004000ED0525601D4A116802230B4313601C4A1C4B1A6000221C4B1A601C4A136808218B431360FA20C00000F07AFB184800F0BBFA9C229202174B1A60174A174B1A60FF
:4000800080221206164B1A608022D202154B1A604022154B1A601549082000F093FA082000F084FA256070BD30001040001BB7000600008004010B400C020B4078002E406D
:4000C0002D3E00007C002E4064F02E406CF02E40DC0500000003014040FF00800000014008010B4000010B402C0101402109000070B572B60022304B1A6000240FE02F48D4
:400100006200131959000B00411889881A5AC31858880004104300F03DF90134E4B2022CEDD9002411E0254EA2001319590071188D8AC88A000428430A8B498B090411431E
:40014000802200F02DF90134E4B2002CEBD01B4920311B48483000F0F3F880225200194B1A80FF3A184B1A70184A194B1A60194A194B1A6080229204184B1A60C022120503
:40018000174B1A6017490B783C22934314221343DBB20B70144A117816230B43DBB213702022124B1A60124A124B1A60FFF734FF00F0E0F870BDC0466CF02E406C60000034
:4001C0006C62000000600F4002600F40000030EE000002400400990000500F4004500F4008500F4001700F4000700F40000004400010DB000800044010B5064C2378002B14
:4002000007D1054B002B02D0044800E000BF0123237010BD800100200000000040600000084B10B5002B03D00749084800E000BF07480368002B00D110BD064B002BFBD0CA
:400240009847F9E7000000008401002040600000C000002000000000F0B5474680B4B2B0002303E0002119AAD1540133632BF9DD002303E000226946CA540133632BF9DD9E
:4002800000F03AF92B4800F067F92B4800F064F9002609E000F040F905000D2804D0002802D019AB985501360D2DF3D1224800F053F9002509E000F02FF904000D2804D099
:4002C000002802D06B46585501350D2CF3D10A2000F036F9002119A802F058F800F0FAFC80460021684602F051F800F0F3FC0700012611E023003200104919A801F0D4F925
:4003000019A800F029F901350134E4B201E041240125BD42EEDD01364645F8DD0A2000F00FF90A2000F00CF9002032B004BC9046F0BDC04648600000546000006460000070
:40034000F0B50025002711E0BB00C658F3B2FF22964308E06A008A181478A419527822700135013BDBB2002BF4D10137072FEBD9F0BDC0460323044A1360044A13600022EC
:40038000034B1A607047C0463000304030003140000E3F4010B50A00002100F006FD10BD10B500F0F9FC10BD10B500F0C9FC03680C2B00D1FEE7FEE710B50300094A106879
:4003C000C318094A9A1A802189008A4202DC054A136005E000F0B4FC0C2303600120404210BDC046C4000020D801002070B50F4E0F4D13E029686B68AC68002202E001C904
:4004000001C30432A242FAD1E868002202E0002102C304328242FAD11035013E002EE9D100F094FCFFF718FFFEE7C04601000000D865000010B50E4A136801218B431360F7
:4004400000230AE0032B03D89A000A49505800E009489900094A885001332F2BF2D9FFF747FE034A116801230B43136010BDC0460000104000000000A903000000000020AE
:400480007222074B1A70523A064B1A701A3A064B1A704132054B1A700022054B1A70704781000F4080000F4023000F4033000F4082000F4010B500F090FA04000B4A1178B1
:4004C00020230B43DBB2137009490A7810231A43D2B20A70074A11780B43DBB21370FF2000F04EF8200000F07CFA10BD91000F4090000F4092000F4010B5064B1B78002BA5
:4005000004D1FFF7BDFF0122024B1A70FFF7D2FF10BDC0469C010020074B1B78DBB29A0606D5064A1078C0B21E221A4202D102E0002000E00020704760000F4041000F4045
:40054000034B1B785B07FBD4024B18707047C04662000F4042000F4070B50500074B1B78002B05D108E0FFF7EBFF0134A4B200E00024285D0028F6D170BDC0469C010020CA
:40058000044B1B68002BFBDB0002034B1843014B186070470000014040000080024B1B68012018407047C0460C002E401F2318401E3B8340014A13607047C04600E100E0CF
:4005C00001BE704770B504000D001F2802D90020FFF7F6FF1034A40080239B059C4664442068256070BDC04610B5034B1B7B584300F0EAF910BDC046C8000020F0B5574619
:400600004E46C0B483B0040000F0E7F90190E71E2D2F74D83F4B1B78DBB29C4208D83E4B1B78DBB29A463D4B1B78DBB2994631E03B4B1B78DBB29C4208D83A4B1B78DBB2DB
:400640009A46394B1B78DBB2994623E0374B1B78DBB29C4208D8364B1B78DBB29A46354B1B78DBB2994615E0334B1B78DBB29C4208D8324B1B78DBB29A46314B1B78DBB24A
:40068000994607E02F4B1B78DBB29A462E4B1B78DBB299462D4BDE5D2F2E09D92A2C07D919222B4B1A60052000F08EF9192503E0274B1D683F231D40B54206D9234BDA5D41
:4006C000234B1A60052000F07FF91F4B9C4664442378DBB21F4A13601F4B52461A601F4B4A461A600520FFF77FFFB5420AD2174BDA5D174B1A60052000F066F902E0002046
:40070000FFF75EFF019800F06CF903B00CBC91469A46F0BD40F3FF0F41F3FF0F42F3FF0F43F3FF0F44F3FF0F45F3FF0F46F3FF0F47F3FF0F48F3FF0F49F3FF0F4AF3FF0F97
:400740004BF3FF0F4CF3FF0F4DF3FF0F546300002CFF0B4028FF0B401CFF0B4020FF0B4010B504000F4A116801230B4313600E4A0E4B1A600E4A1368802109020B43136038
:40078000002809D100200CE00120FFF72DFFFFF705FF002804D1013C002CF5D1102000E0002010BD60F02E400220000078002E4010002E40034B1868C0231B02184000D08B
:4007C0000120704700010B4010B50D4B1A6801218A431A601A68022082431A60094A10683024A043203C204310601068093CA043014311601A68802109060A431A6010BD9E
:4008000000F02E4000FF2E4070B51D4B1B6801241C40002802D0012816D02BE0184B19680122914319601968022081431960154B19682E308143203801431960196809383A
:4008400081430A431A6018E00D4B1A6802218A431A600C4A10680725A84301431160116830208143103801431160196801220A431A6002E00020FFF7A3FE200070BDC04636
:4008800000F02E4000FF2E4010B500F0A6F8044A1368C02109020B43136000F0A2F810BD00010B4010B500F098F808490A68084B1A408024E40122430A600A68134080228D
:4008C000120213430B6000F08CF810BD00010B40FF3FFFFF70B5050000F07FF80400FFF769FF002803D0FFF7DDFF012100E0002108482840084A1568084B2B401843106067
:400900001368012901D1FFF7BFFF200000F069F870BDC0460404040010020B40FBFBFBFF10B5244B1B685B0715D5234B5B685B070ED5224B596A042001401F4C62688A437F
:4009400062605A6A82435A629B69002B00D098470420FFF7BFFF174B1B685B0518D5164B5B685B0510D5154B596A8022D2001140114842688A434260596A114A0A405A62A1
:40098000DB69002B00D098478020C000FFF7A2FF084B1B685B030CD5074B5B685B0304D5064B1B6A002B00D098478020C002FFF791FF10BD10020B40DC000020A001002042
:4009C000FFFBFFFF000000000230800803D00138FDD1C046C046C0467047EFF3108072B6704780F310887047002243088B4274D303098B425FD3030A8B4244D3030B8B4237
:400A000028D3030C8B420DD3FF22090212BA030C8B4202D31212090265D0030B8B4219D300E0090AC30B8B4201D3CB03C01A5241830B8B4201D38B03C01A5241430B8B4249
:400A400001D34B03C01A5241030B8B4201D30B03C01A5241C30A8B4201D3CB02C01A5241830A8B4201D38B02C01A5241430A8B4201D34B02C01A5241030A8B4201D30B028A
:400A8000C01A5241CDD2C3098B4201D3CB01C01A524183098B4201D38B01C01A524143098B4201D34B01C01A524103098B4201D30B01C01A5241C3088B4201D3CB00C01A81
:400AC000524183088B4201D38B00C01A524143088B4201D34B00C01A5241411A00D20146524110467047FFE701B5002000F0F0F802BDC0460029F7D076E7704703460B4393
:400B00007FD4002243088B4274D303098B425FD3030A8B4244D3030B8B4228D3030C8B420DD3FF22090212BA030C8B4202D31212090265D0030B8B4219D300E0090AC30BBE
:400B40008B4201D3CB03C01A5241830B8B4201D38B03C01A5241430B8B4201D34B03C01A5241030B8B4201D30B03C01A5241C30A8B4201D3CB02C01A5241830A8B4201D3C5
:400B80008B02C01A5241430A8B4201D34B02C01A5241030A8B4201D30B02C01A5241CDD2C3098B4201D3CB01C01A524183098B4201D38B01C01A524143098B4201D34B01C7
:400BC000C01A524103098B4201D30B01C01A5241C3088B4201D3CB00C01A524183088B4201D38B00C01A524143088B4201D34B00C01A5241411A00D20146524110467047E2
:400C00005DE0CA0F00D04942031000D34042534000229C4603098B422DD3030A8B4212D3FC22890112BA030A8B420CD3890192118B4208D3890192118B4204D389013AD045
:400C4000921100E08909C3098B4201D3CB01C01A524183098B4201D38B01C01A524143098B4201D34B01C01A524103098B4201D30B01C01A5241C3088B4201D3CB00C01AB6
:400C8000524183088B4201D38B00C01A5241D9D243088B4201D34B00C01A5241411A00D20146634652415B10104601D34042002B00D54942704763465B1000D3404201B506
:400CC000002000F005F802BD0029F8D016E770477047C0460B0330B5134D1A0B4B005B0DC90F0024AB4211DD104CA34210DC8024640322430E4CE41A1F2C0CDD0D48C31A69
:400D0000DA4013005C42002900D11C00200030BD094BCC18FAE7E040084CA44663449A4013000343EEE7C046FE0300001D0400003304000013040000FFFFFF7FEDFBFFFFC7
:400D4000014B18687047C046440100200E4B70B500251E000D4CE41AA410A54204D0AB00F35898470135F8E705F024FC084B00251E00084CE41AA410A54204D0AB00F358B2
:400D800098470135F8E770BDC0650000C0650000C0650000C8650000002310B59A4203D0CC5CC4540133F9E710BD03008218934202D019700133FAE77047F0B58BB0140031
:400DC0001D1E129906DA802424061B191D0014002D2300E000230B702023149E03229E43462E07D03300453B59424B411099013ACB18109309AB049308AB0393139B0092CE
:400E00000293109B220001932B0001F04FFB0700472E02D1119BDB072DD5109BFB180793462E14D13B78302B0CD1002200232000290003F0E3FA002804D10123109A9B1AFD
:400E4000139A1360139B079A1B68D3180793002200232000290003F0D1FA3022002802D0079B099307E0099B0799994203D9591C09911A70F7E73800099B159ADB1B1360D8
:400E80000BB0F0BDF7B52B2307000C000270861C002901DA2D234C427B70092C1CDD6B46DD1D20000A21FFF70FFF013D3031297020000A21FFF722FE04000928F1DC013DDB
:400EC00030342C706B4607333000AB4209D92B78013533700136F5E73023E4183370B01C7470C01BFEBD0000F0B595B00C000A920B931A9D099002F0CFFB036818000D93E2
:400F000000F0F4FB0023129323680E900C930C99277E2B680722C90501D59B1800E0073393431A0008322A601A685B68A264E3640122E56CA66C6B005B080F935242C04BF0
:400F400030000F9904F0C4FF002819D10122BC4B524230000F9903F061FA002810D1002200233000290003F04FFA002803D023002D2243331A70B34D472F0ED8B24D0CE055
:400F800032002B003000290004F0A2FF002800D19AE1AE4D472F00D8AD4D03230C9A236101339A432260002642E0672F00D193E1472F00D190E10C9A0021134312AA059201
:400FC00011AA0392232223600691019308A9636852180292009332002B0004970998FFF7ECFE20233A0005009A43472A00D18EE11199652F00D996E1200001393A00503076
:401000001191FFF73FFF129A060083182361012A00DD85E12268D20700D581E1232308AA9B181B78002B03D023002D2243331A700B9B13AA009321000A9B099800F0A4F969
:40104000431C02D1012040429BE12268530501D4236964E0652F00D8CCE0A06CE16C0022002303F0CBF900282CD00123794A0A9909980B9DA847431CE4D0119B129A934205
:4010800008DB2368DB0705D4236800259B0700D50FE113E10B9D0E9B0D9A0A990998A8470025431CCED0129B013B9D42ECDA220001231A320A9909980B9EB047431CC1D0BB
:4010C0000135F0E7119B002B2BDC0123614A0A9909980B9EB047431CB4D0119B002B05D1129B002B02D12368DB07CDD50B9E0E9B0D9A0A990998B0470026431CA2D0119B31
:401100005B429E420ADA220001231A320A9909980B9FB847431C95D00136F0E7129B2A00ACE0A36D129E9E4200DD1E00002E05DC00230C93F343DB170F9315E033002A0012
:401140000A9909980B9FB847431CF1D17AE7220001231A320A9909980B9FB847431C00D170E70C9B01330C930F9BA26D0C993340D31A9942EBDBAE18119B129A93420DDB46
:401180002368DB070AD4129B119AED18AD1B9B1A9D4200DD1D00002D09DC11E00E9B0D9A0A9909980B9FB847431CECD14AE72B0032000A9909980B9EB047431C00D141E70B
:4011C000EF43FB1700260C930AE0220001231A320A9909980B9FB847431C00D132E70136119A129B0C999B1A2A000A409B1A9E42EBDB49E7129B012B02DC01231A4245D000
:4012000001232A000A9909980B9FB847431C00D118E70E9B0D9A0A9909980B9FB847431C00D10FE7A06CE16C0022002303F0E6F8002801D000251AE0129B6A1C013B26E0E5
:40124000FFFFEF7F8863000084630000906300008C63000094630000220001231A320A9909980B9FB847431C00D1EBE60135129B013B9D42F0DB2200330050320A990998F3
:401280000B9DA847431C00D0FEE6DBE62A000A9909980B9DA847431CEDD1D3E62200012319320A9909980B9EB047431C00D1C9E60135E368139A9B1A9D42EFDB139BE06812
:4012C00098425EDA18005CE080236268DB00511C00D06AE6073202E0002A02D10122626069E60C9908A80B430021069112A9059111A90391232109182360019300922B0034
:401300000497029132000998FFF757FD0500119BDA1C02DB626893421CDD023FFFB267E6013323617AE6662F15D16368002909DD2161002B02D12268D2071ED5013359181F
:4013400021611AE0002B03D101222168114213D09A1C11E06727119B129A934206DB22682361D20709D50133236106E00121002B01DC4918C91A8A182261119B0026A365FD
:401380004CE615B0F0BDC046F7B5170001938A680B6900900C00934200DA130022003B6043321278002A01D001333B6023689B0602D53B6802333B60062523681D401ED06B
:4013C000230043331B785A1E9341226892061CD53020E1184331087021005A1C45310978A2184332023311700FE022000123193201990098089EB047431C0ED00135E368AD
:401400003A689B1A9D42F0DBDAE72200019943320098089DA847431C02D10120404220E006232068E1683A6803400025042B03D18D1AEB43DB171D40A3682269934201DD44
:401440009B1AED180027BD420AD0220001231A3201990098089EB047431CDED00137F2E70020FEBDF0B58BB006920A0043320793059004920A7E0C00109B6E2A00D1ABE069
:4014800011D8632A22D009D8002A00D1B5E0582A00D0C5E045310A70814A4FE0642A1DD0692A1BD0BCE0732A00D1AAE009D86F2A29D0702A00D0B3E0202209680A432260F3
:4014C00037E0752A1FD0782A33D0A9E00E001A684236111D196013683370A4E021681A68080606D4490604D5111D19600023D55E02E0111D19601568002D3BDA2D23049A7A
:401500006D42137036E021681A68080606D4490604D51568111D1960ADB202E0111D196015685F4B227E039308276F2A1DD00A271BE022007821453211705A4A1968039291
:40154000081D226818600D68100602D4500600D5ADB2D30702D520231A4322601027002D03D1202322689A4322602300002243331A7002E00A274A4B03936368A360002BA6
:4015800009DB0422216891432160002D05D1049E002B11D07BE0002D79D0049E28003900FFF7A8FA039B013E5B5C280033703900FFF71AFA051EF1D1082F09D12368DB0721
:4015C00006D563682269934202DC3023013E3370049B9B1B23612BE009681A68080607D4490605D5111D19601368A28A1A8004E0111D1960136862691A600023049E23616D
:4016000016E01A68111D1960166800216268300002F050F8002801D0801B6060636803E0260042363270012323610023049A1370079B09AA00932100069B0598FFF7A4FEAB
:40164000431C02D10120404227E02369320006990598079DA847431CF4D0236800259B070FD4099BE068984217DA180015E022000123193206990598079EB047431CE1D06C
:401680000135E368099A9B1A9D42F0DBE9E72600039B42361B7833708EE70BB0F0BDC04696630000A76300000EB410B59DB002A9029008610B4882248860486101204042D8
:4016C0001FABC881084804CBA400006801938C8102F010FD0023029A13701DB010BC08BC03B01847FFFFFF7F440100200023C25C0133002AFBD1581E7047000070B51600A7
:401700000D0002F0B7FA002E0DD06B226B005B0DD31A002B07DD0024034A1B059D182B00220003F007FE70BD0000F03F0023F0B5A3B01E93002600270B00029004911892B6
:401740001D931D9B1A780D2A05D8092A14D2002A00D1BDE112E02B2A04D02D2A04D0202A0CD109E0002200E0012210925A1C1D925B78002B04D1ABE10133E1E70023109346
:4017800000221D9D09922B78302B5DD16B78582B01D0782B4CD1109BC24A01931EAB00931DA91FAB029801F090FC07240390044001D100F0BCFD062C05D1002301351D95B1
:4017C000109300F0B4FD1E9A002A07D0352120A802F03CFB1E99029801F0AFFF062C1DD8200002F0F1FD040A0715180A040000273E0013E0209E219F10E0219BAA4AAB49D4
:401800001A401F9B209E5B181B051A43170005E0A74F002602E00126A64F7642039B1B0701D400F084FD80231B061F4300F07FFD1D9B5A1C1D925B78302BF9D0002B01D1AF
:4018400000F075FD0123099300250A221D9B08950C9306951D9C23780393303BD9B2092910D80699082904DC089951435B18089302E0290051435D18069B013401330693C2
:401880001D94E7E7029801F007FF03680298059301F002FF0068FFF729FF05990200200002F038FD041E06D00020069A039B8446039205905AE0029801F0EEFE0068FFF7C3
:4018C00015FF1D9B069A18181D900378101E3ED1302B05D11D9B01305A1C1D925B78F7E71A00313A082A3CD8844600201D9A03900C92303B421C002B23D00A219444039AD3
:40190000101882420BD00132541E082C03D8089C4C430894F5E7102AF3DC4D43F1E7511C0391082A06DC0A2208994A439B180893002206E003990022102902DC0A2169439F
:401940005D181D9B1000591C1D915B7803E02000A446069A03921A00303A092AC9D9012203E0002203929446013205922022190091430A000021452A4DD1039B099A0343EA
:4019800013438B4200D1A3E01D9B049301331D93049B5B782B2B04D00C002D2B07D1012400E00C00049B02331D93049B9B781A00303A092A2CD8302B04D11D9B5A1C1D9296
:4019C0005B78F8E71A00313A0021082A23D8303B0A931D9B11931D9B591C1D915B781A00303A092A06D80A220A994A43D218303A0A92F0E7119A8A1A2F49082A04DC0A991C
:401A00002D4A914200DD1100002C04D0494202E00021049A1D92039A002A64D1099A104301D000F084FC059A002A51D14E2B1CD002DC492B05D04BE0692B02D06E2B14D0DB
:401A400046E01E491DA801F07CFD002840D01D9B1B49013B1DA81D9301F073FD002802D11D9B01331D93124F18E016491DA801F068FD00282CD01D9B1B78282B0DD120AA70
:401A800011491DA801F071FD052806D1219B084A209E1A43170000F04AFC0C4F002600F046FCC046CC630000FFFFEFFF330400000000F07FFFFFFF7F1F4E000089630000DF
:401AC0000B64000091630000B86300000000F8FF049B1D9300231093189B002B01D000F029FC00F032FC6346CB1A0593069B002B01D1039B0693039C102C00DD10240898F3
:401B000004F048FA06000F00092C15DD2300874A093BDB00D3181A685B6803F00BFC060028000F0004F036FA02000B003000390002F0B0FC06000F00039B0F2B3ADC059BDE
:401B4000002B01D100F0F3FB26DD162B07DC7749DB00C9183200086849683B0017E02523039A9B1A059A9A4224DC0F24039B6F4DE41AE10069183200086849683B0003F0DF
:401B8000D9FB059B1C1BE4002D192A686B6803F0D1FB06000F00CAE3059B16330ADB059B3000DA00614B39009B1A1A685B6802F09DFFEEE7039B1C1B059BE418002C59DDDD
:401BC0000F2323400AD05949DB00C9183200086849683B0003F0AEFB06000F000F239C4300D1B3E02633FF339C420DDD002403940894059422230026029A4D4F1360089B68
:401C0000B34200D07FE392E30023300039001D002411012C0DDD0122144207D0454AEB009B181A685B6803F085FB012301356410EFE7002B01D006000F003F4BED00FF189B
:401C40003C4B32005D19286869683B0003F072FB374B0F000B40394906008B42C6D838498B4203D90126374F76426FE0D4239B04FF186BE0002C69D00F23644223400AD01A
:401C80002A4ADB00D31830001A685B68390002F02DFF06000F00241158D01F2C04DD002403940894059426E100230493E30601D56A230493300039000023234D002C0ADDDD
:401CC0000122144204D02A686B6803F033FB012364100835F2E7002B01D006000F00049B002B19D06B227B005B0D3900D31A002B12DD1F2B0CDD0026342B02DDDC27BF0492
:401D00000AE00122203B52429A4011400F0003E0012252429A401640002200233000390002F06CFB0028BAD112E0C046206400000000F07FF86400000000B0FC0000A07CDA
:401D40000000907CFFFFEF7FE063000000230493089B069A00930C99039B029801F043FD0890002800D141E7059B00245A42DB171A40059B1392DB43059ADB171A401192B4
:401D80000394089B0298596801F09FFC0590002800D12FE7089B08991B690C319A1C92000C300693FEF7F8FF20AB01931FAB009332003B0002980C960D9701F0CBFF1E90DE
:401DC000002800D116E70121029801F094FD0390002800D10EE71F9B002B00DA95E0139AD518119A0992049920985B1A3621091A1B188C46C549013B01208B4200DB8FE04F
:401E00006246C91A521A94461F2900DD82E08840002312900A932B0063440693099B049A6344D3180993069B2A009D4200DD1A00099B934200DD1300002B06DD069AED1A86
:401E4000D21A0692099AD21A0992139B002B6BD1069B002B00DD80E0119B002B00D086E0099B002B00DD8CE0002D00DD93E0059A1E99029801F093FE041E00D1BAE60025CA
:401E8000C3680399C560099301F06EFEA84200DB8FE0099BAB4200D020E2AE4200D01DE23B03AB4200D019E2D622994BD2043B40934200D812E26369AB4276D021000122E0
:401EC000029801F0FFFD0399040001F04DFE002800DC03E2049A8E4B002A00D199E01A00D6213A40C9048A4200DD92E0DC239B049A4200DDF5E12223029A00261360089BEE
:401F00000027002B00D0FEE111E2119A139DD21A099268E77F49CB1A010099400A9101E000230A93129076E71A000399029801F075FD0390002800D15CE601001E9A0298E6
:401F400001F0E2FC1990002800D153E61E99029801F0F3FB199B1E937AE7069A1E99029801F0B0FD1E90002800D075E742E6119A0599029801F052FD0590002800D06FE702
:401F800038E61A000599029801F09CFD0590002800D069E72EE62A000399029801F092FD0390002800D062E724E62369012B85DC94E1002864D1099A3B03002A24D0564AEE
:401FC00039001B0B93422DD1049B0138B4460200002B0AD0D4254E4BED043B40AB4204D86C321B0DD31A02009A4062451AD14B4B994202D1531C00D1FCE5454B002619407A
:4020000080235B03CF1869E1002B0BD1002E09D160E70126424A3B409B183F4A76421A4317005BE10A9B002B03D03B4200D155E103E0129B334200D150E1099B049A3000A6
:402040003900002B0AD0FFF759FB02000B000C980D9902F01FFA06000F003FE1FFF74EFB02000B000C980D9903F0DEFB0022002306000F0002F0C2F9002800D03BE72DE1B0
:402080000399200001F0BAFE80230022DB050690079102F0C3F900284AD0099B002B04D00022204B0A920B930EE0002E02D13B0305D10CE0012E02D1002F00D11BE7002279
:4020C0000025194B0A920B93164B069349E0002206980799134B02F097F9002808D1069807990022114B03F025F90500069102E00E4B099D0693802212069446069B1A95F2
:4021000063441B931A9A1B9B29E0C04602FCFFFF0000F07FE2FBFFFFFFFF0F00FFFFEF7F0000F0FF0000F03F0000F0BF0000E03F894B06980799002203F0FCF8099B050062
:402140000691002B05D180231B06CB181490159303E00200069B14921593149A159B0A920B937E4B3B401293129A7D4B9A4229D10C9A0D9B0E920F937A4B3000FF18390060
:4021800001F078FD02000B000A980B9903F0D2F832003B0002F07EF9704A734B06000A409A420BD9714B0F9A9A4203D10E9B013300D11FE501266D4F76427EE0D4239B04F5
:4021C000CF1844E0049B002B2FD0D423129ADB049A422AD8664A674B2800069902F01EF900281BD02800069902F036F9002800D1013003F0CFFE099B05000691002B05D153
:4022000080231B06CB181690179303E00200069B16921793169A179B0A920B93D6220B9BD2049B18129A9B1A0B930C980D990A9E0B9F01F01FFD02000B003000390003F0FB
:4022400079F80C9A0D9B02F025F906000F00049B002B32D1414B129A0A973B409A422CD106992800FEF736FD03F052FE0B0002000699280003F0D8FA099B06900791002BB8
:4022800004D1002E02D10A9B1B030ED006980799394A3A4B02F0B8F8002834D106980799374A2D4B02F0C4F805E0334A354B0698079902F0A9F8002825D11E99029801F09A
:4022C0003CFA0599029801F038FA0399029801F034FA2100029801F030FA52E5049B002B11D0294B30000F9300230E9339000E9A0F9B03F01FF806000F1E04D1002802D19E
:402300002223029A13601E99029801F016FA0599029801F012FA0399029801F00EFA0899029801F00AFA2100029801F006FA189B002B02D0189B1D9A1A60109B002B04D079
:4023400080231B063200FB1801E032003B001000190023B0F0BDC0460000E03F0000F07F0000E07F0000B0FCFFFF9F7CFFFFEF7F0000C0FFFFFFDF419535A094FFFFDF3F42
:4023800035E5AF35FFFFCF3F0000503910B5034B0A0001001868FFF7C9F910BD44010020F0B503690C6989B00700059100269C4279DC0B00013C1433A50003935B19049378
:4023C0000300143302935D19049B28681B68591C0193FEF709FB0190B04233D0039B02989C460696634604CB9C46019B91B25943120C5A4389190B0CD3180793069A1E0C00
:40240000038889B29B1802685B1A110C6A46928B8A1A1914521811149BB21204134308C0049B06916345DDD22B68002B0AD1029B043DAB4201D33C6104E02B68002BFAD1AA
:40244000013CF4E70599380001F08EFB002829DB0020019B02990133039A019340CA0B881818B3B2C31A0868360C000C801B1D14451928149BB22D042B4308C1049B9342B0
:40248000ECD2029AA300D3181A68002A0AD1029A043B9A4201D33C6104E01A68002AFAD1013CF4E7019E300009B0F0BDF0B516001F00446A9DB00490259D06960797002C4C
:4024C00008D1102001F0ECF8049B5862446084600460C460049B5B6A196800290BD05A68012393404A608B60049801F026F90022049B5B6A1A60079B002B05DA01232B6057
:402500007B005B08079301E000232B60079CC84B220019931A409A4219D1C64B249A1360069AC54B002A02D1240300D1C34B269A1800002A01D100F07DFDD978DA1C00294D
:4025400000D00532269918000A6000F073FD069E079F002200233000390001F04FFF051E0ED00123249A1360B54B269A1800002A01D100F05FFDB34A26990A6000F05AFD99
:402580001AAB01931BAB009332003B00049801F0E1FB630005905B0D09D03A03AA4C120B1443AA4A300021009E1817951AE01A9B1B9A9E18A64BF318202B08DDA54A069839
:4025C000B218D0404022D31A9C40204303E020220698D31A984003F0DDFC01239E4C013E0919179300229D4B03F01EF99C4A9D4B02F0A0FE9C4A9D4B01F04CFF0400300056
:402600000D0003F085FC9A4A9A4B02F093FE02000B002000290001F03DFF04000D00FEF759FB0022039000232000290001F0ECFE00280DD0039803F06BFC02000B002000CD
:40264000290001F0DBFE43424341039AD31A039301231693039B162B11D88749DB00C91808684968069A079B01F0E2FE002805D0039B013B03930023169300E016901A9B75
:402680009E1B00230B93013E0C9604D50C9B5B420B9300230C93039B002B08DB039A0C9B944663440C9300231192089307E00B9B039A9B1A0B935342089300231193229BA0
:4026C0000125092B25D8052B02DD0025043B2293229B981E032824D801F076FE060E0204012302E0012308E000231093239B002B20DD1F000A9321E00023239A1093039BA6
:402700009F187B1C0A930123FA18002A16DD130014E0012700237F42229310950A97123305E0012701237F4210930A9711330022239203E001273B000A972397049A546ABA
:4027400000226260043211001431994204D86168520001316160F6E76168049800F0B5FF049B20605B6A1B680D930A9B0E2B00D981E1002D00D17EE1069B079C149315942D
:40278000039B002B31DD0F223B491340DB00CB185C681B680E930F94039B02241D11EB060AD514981599354B15401A6A5B6A02F09DF9069007910134304E002D0ED001231F
:4027C0001D4208D00E980F99E4183268736802F0B1FD0E900F916D100836EEE70E9A0F9B0698079902F082F94CE0039B02245D42002D49D0149815990F231F4A2B40DB0068
:40280000D3181A685B6802F095FD0023069007911A4E2D11002D33D00122154205D0A4183268736802F086FD01236D100836F1E70000F07F0F27000011640000086400008B
:4028400094630000956300000000F03F01FCFFFF3204000012040000000010FE0000F83F61436F63A787D23FB3C8608B288AC63FFB799F501344D33F20640000F864000030
:40288000002B01D006900791169B002B1DD0069D079E0022C74B2800310001F0B5FD002813D00A9B002B10D0002F00DCDFE0039B3100013B0E930022BF4B280002F03AFDFF
:4028C0000134069007913E0002E0039B0A9E0E93200003F01DFB069A079B02F02BFD0022B64B01F0D7FDB64A12901391129C139D9446139B634418931D00002E1CD10698AB
:4029000007990022AF4B02F08FFF2200189B0690079101F08DFD002800D054E2AA481399844661440B0006980799220001F06CFD002800D03DE29AE0109A731EA349DB004A
:40294000002A49D0CB181A685B680020A04902F0CDF82B00220002F067FF129013910D9D06980799FEF7B6F9040003F0D1FA02000B000698079902F057FF01356B1E30343D
:402980001C70129A139B0690079101F03DFD002800D02EE3069A079B0020864902F044FF129A139B01F030FD002800D0C7E00D9BEB1AB3425BDA1298139900227E4B02F048
:4029C000B9FC002212901391069807997A4B02F0B1FC06900791C3E7C9182200086849682B0002F0A7FC0D9C12901391A51906980799FEF76FF9060003F08AFA02000B008A
:402A00000698079902F010FF303626700134069007910022A54222D16D4B1298139901F039FD02000B000698079901F001FD002800D084E0129A139B0020654902F0F4FE25
:402A400002000B000698079901F0DEFC00280ED06B1E1A78302A00D0CBE21D00F8E706980799554B02F066FC06900791BFE7149B159C069307941B9B002B00DA81E0039AF9
:402A80000E2A00DD7DE0D300504AD3185C681B6808930994239B002B15DA0A9B002B12DC00D088E1089809990022464B02F042FC069A079B01F0C6FC0A9B08931E0000285E
:402AC00000D07BE182E10D9D069E079F089A099B3000390002F00AF8FEF7FCF8040003F017FA089A099B02F025FC02000B003000390002F099FE220001356B1E30321A709A
:402B00000D9B0A9AEB1A9A422ED102000B0001F0C1FC06000F0002000B000898099901F073FC00280FD10898099932003B0001F065FC002800D15EE2E30704D45BE20E9B00
:402B4000039300E01D006B1E1A78392A08D10D9A9A42F7D1039A0D990132039230220A701A7801321A7046E20022134B02F0E2FB0022002306000F0001F040FC0028A5D05F
:402B800039E2109A002A44D0229A012A0BDC179A002A02D00F4A9B1802E036231A9A9B1A089D0B9C29E00A9B5D1E089BAB4213DB5D1B18E00000F03F0000244000001C4095
:402BC0000000C0FC000014400000C07C206400000000E03F33040000089B0895EA1A0025119B9B1811930A9B002B04DA0B9B0A9A9C1A002301E00B9C0A9B0B9A0121D21894
:402C00000B920C9A0498D3180C9300F074FE060002E0089D0B9C109E002C0ED00C9B002B0BDD0C9A2300944200DD13000B9AE41AD21A0B920C9AD31A0C93089B002B20DD6B
:402C4000109B002B17D0002D11D031002A00049800F0E4FE059A01000600049800F054FE05990E90049800F068FD0E9B0593089B5A1B06D000E0089A0599049800F0CEFE68
:402C800005900121049800F036FE119B0890002B00D1C0E11A000100049800F0BFFE229B0890012B17DC0025069BAB420ED1079B1B03AB420AD1199B079A134206D00B9BA4
:402CC000013501330B930C9B01330C93119B0120002B0DD000E00025089B089A1B690E9303339B00D318586800F0BBFD2023181A0C9BC0181F23184009D001331B1A042BEB
:402D000002DD1C23181A03E0042B08D018001C300B9B24181B180B930C9B1B180C930B9B002B05DD1A000599049800F0CBFE05900C9B002B05DD1A000899049800F0C2FEB9
:402D40000890169B002B1DD00899059800F00CFF002817DA039B0A22013B039305990023049800F003FD109B0590002B00D159E1310000230A22049800F0F8FC0600002F0C
:402D800037DC33E00A9B0A9F002B2ADC229B022B27DD002F12D108993B000522049800F0E5FC08900100059800F0DEFE00280DDC04E0089602E000231E000893239B0D9D43
:402DC000DB4303930AE00E9B089603930D9B0D9A5D1C31231370039B013303930A960026F3E0109B002B04D10D9DB5E0229B022BCFDC002C05DD31002200049800F062FEEC
:402E000006000A96002D12D07168049800F05DFC3100040033690C319A1C92000C30FDF7BBFF01222100049800F04CFE0A900D9B7D1E0B935B190E9308990598FFF7B0FA57
:402E4000310010900400059800F08EFE0A9A05000899049800F0A3FE01230C93C36830340700002B04D10100059800F07DFE0C903900049800F061FC0C9B229A134308D13B
:402E8000069A0133134204D1392C2AD0002D1CDC1DE0002D06DB229B1D431BD10123069A134217D10C9B002B11DD05990122049800F008FE0899059000F056FE002802DCE8
:402EC00005D1E30703D5392C0BD0109C31340B9B5D1C0FE00B9B5F1C0C9B002B0CDD392C05D10B9B0B9A5D1C3923137057E03D000B9B01341C7068E00B9B0E9A3D001C70E7
:402F000093423CD000230A220599049800F02EFC0A9B05909E4208D1310000230A22049800F024FC06000A900DE0310000230A22049800F01BFC002306000A220A990498AA
:402F400000F014FC0A900B9776E700230A220599049800F00BFC059008990598FFF720FA0D9B3030287001350400EB1ABB42ECDB3D1E00DC01250A9600260D9B5D190599D3
:402F80000122049800F09EFD0899059000F0ECFD002804DC13D1E30701D410E01D006B1E1A78392A08D10D9A9A42F7D1039B013303933123137008E001321A7005E06B1E0C
:402FC0001A78302A01D11D00F9E70899049800F0B4FB0A9B002B0ED0002E05D09E4203D03100049800F0A9FB0A99049800F0A5FB01E00E9B03930498059900F09EFB0023A0
:403000002B70039B249A01331360269B0D98002B10D01D600EE0229B012B00DC43E6119D012065E6002F00DDDEE6229B022B00DCDAE6AEE61DB0F0BDF0B506000569143647
:403040004A113400AA4225DA1F23AD00920019407519B2183300002916D0130004CB2027CA40B4467F1A64469D4208D91C68BC402243644604C404CBA446CA40F3E72260BC
:40308000002A07D0043405E01C00954202D902CA02C3F9E7A31B9B10036100D14361F0BD0300303B092B01D820380BE00300613B052B01D8473805E00200413A0023052A2B
:4030C00001D82738C3B218007047F0B58DB0099102920A93059000F0DFFA036818000793FEF704FB0222079B52421B18013B1B7804900B93099B19688B1C521AD1180193F5
:4031000008910199013308783028F7D0FFF7C8FF061E20D1049A0799019801F0FBF800283CD1019B049A9C182078FFF7B9FF002837D00194019B1878302803D1019B0133A7
:403140000193F7E7FFF7ACFF43424341039301232600089302E000231E000393019C2078FFF79EFF002801D00134F8E7049A0799200001F0CFF800280BD1002E0BD1049B67
:40318000E41826002078FFF78BFF002801D00134F8E7371E08D0361BB70005E0019C370000E00700012303932378502B01D0702B28D163782B2B07D02D2B03D00023661CE6
:4031C000069304E0012300E000230693A61C3078FFF766FF431EDBB2182B13D81038013605003078FFF75CFF431EDBB2182B03D80A235D432818F1E7069B002B00D06D42F8
:403200007F1900E02600099B1E60039B002B06D00020089B834200D07FE106307DE1019B0399E31A013B072B02DD01315B10FAE7059800F04AFA0300002605001433039307
:4032400008930696019BA3422BD2631E09930B9A1B78934209D0069B202B15D1089B1E6000260433089306960EE00123049A9C1A099B1C19019BA342EDD80799200001F0D9
:4032800049F80028DED0E6E7099B1878FFF708FF0F231840069B099C9840043306430693D0E7089C039B40C4E41AA4102C61300000F0D7FA029B64011B68261A01939E42D2
:4032C00025DDF61A3100280000F0D6FD0024A04217D01F2101342000731E1940884001005A110398920012580A420AD0A34201DC022406E0B11E280000F0BEFD0028F7D0E4
:40330000032431002800FFF797FEBF190EE0019B00249E420ADA9E1B29003200059800F0D1FB030005001433BF1B0393029B9B6804939F4208DD0598290000F0FEF900233F
:40334000129AA3201360E8E0029B5E68B74259DA019BF61BB34232DC029BDB68022B1ED0032B20D0012B21D1019BB3421ED1012B0DDC029B62205B680193019A0A9B1A6068
:403380000123039A2B611360129B1D60C5E001992800013900F070FD0028EAD106E0139B002BE6D002E0139B002BE2D10598290000F0C3F90023129A50201360ADE0771E19
:4033C000002C07D1002F06D03900280000F054FD040000E001241F237A111F401E3BBB400399920052581A4201D002231C43019B31009B1B28000193FFF71EFE029B0226FA
:403400005F6800E00126002C00D181E0029BDB68022B0BD0032B0DD0012B77D1A20775D5039A126814431C4207D16FE00123139A9B1A1393139B002B68D02C69A300049307
:403440002B00A20014339918002294461A68501C02D001321A6021E0624604C39942F5D8AB689C4212DB6B680598591C00F02DF929002B6903909A1C92000C310C30FDF728
:403480008BFC2900059800F058F9039D2B695A1C2A61012204339B00EB185A602B001433022E12D1029A01991268013A91422BD14A111F21019892000140012004008C4060
:4034C000D358234220D006001EE02A6994420BDA01212800FFF7B0FD029B01379B6801269F4200DD27E70FE01F24019A01262240141E09D0049A9B18043B186800F0B1F937
:4035000020210C1BA042E3DB202300E010231E433000129B1D600A9B1F600DB0F0BD082370B520259A1A9200AD1A436806681C00AC40D34034430460436004308842F4D3CB
:4035400070BD30B503680C780133002C0AD01A781500413D192D00D820320131A242F2D0002001E00360012030BDF0B589B000920A68009953119B00CB1802931F231A40A3
:403580000790059202D0029B04330293029B00251E1F37003400079B35601B68069503930195039B013303931B780493002B3BD00498FFF775FD002822D1049B202B17D8F7
:4035C000019B069A9342ECDDBC4206D2072D04DC2A0039002000FFF7A2FF009B08259C42DFD90025019B271F3D6006933C00D8E7049B292B4BD1039B079A0133136013E06F
:40360000019B013501330193082D06DD009B9C42C7D900230125043C23600F22236810401B0118432060BCE7019B002B2FD0BC4206D2072D04DC2A0039002000FFF76FFF76
:40364000009B9C420AD9043302CC1A1F1160A642F9D2002204C39E42FCD20DE0059B002B0AD02021059A029B891A01225242CA40043B19680A401A603368002B09D1009BC3
:403680009E4202D10123336003E0043EF4E7042000E0052009B0F0BD004870474801002010B5034B0100186800F062FC10BDC04644010020C9B28218904204D003788B428C
:4036C00002D00130F8E70020704770B5466A04000D00002E07D11020FFF7E2FF6062466086600660C660666AF368002B09D0636AAA00DB689B18186800280ED002681A603E
:4037000017E021220421200000F0D7FB636AF060DB68002BEBD100200EE001210E00AE40721D9200200000F0C8FB0028F3D04560866000230361C36070BD70B5456A0600BA
:403740000C00002D07D11020FFF7AAFF7062456085600560C560002C07D0726A6368D2689B00D3181A6822601C6070BDF7B5070008000C000D691E00002101921430019A7E
:403780000388013153439B190668360C56431A0C9446B4446246160C120494469BB2634408C08D42EBDC002E1BD0A3689D4212DB63683800591CFFF788FF21002369019092
:4037C0009A1C92000C310C30FDF7E6FA21003800FFF7B3FF019C2B1D9B00E31801355E6025612000FEBDF7B5060018000C000830092101931500FDF781F90123002183420A
:4038000002DA5B000131FAE73000FFF75EFF089B436101230361092D12DD230009331F00009364193B780100303B0A2230000137FFF79CFFA742F5D1009B5C19083C01E011
:4038400009250A342F00019B9F4209DA631BDB5D0100303B0A223000FFF788FF0137F2E7FEBD00220300010C914201D103041032190E01D108321B02190F01D104321B01CA
:40388000990F01D102329B001000002B03DB20205B0000D5501C70470722036810B501001A400CD001240020234223D10222134203D0E34020000B601CE09B0818E098B20A
:4038C000002801D110221B0CD8B2002801D108321B0A180701D104321B09980701D102329B08D80704D45B082020002B02D0013210000B6010BD10B50C000121FFF7E5FE61
:4039000001234461036110BDF0B50B691400126989B00D00934201DA25000C002F692669AA68BB1969680193934200DD0131FFF7CCFE0200BB1914329B00D3189C46002103
:4039400013000290634501D202C3FBE71435BF00EB191434B6000593A31903950793079B9C4251D2208800281ED015000026039F08CF069504936B461B8A434319002B8801
:40398000CB1804999B19090C41432E68360C89191E0C89190E0C9BB209040B4308C5059BBB42E5D8069B5E6023681D0C1FD0002110001368039F04913E8801686E43090C31
:4039C0007118049E9BB289190E043343036008CF86881B0C6B43090C9B195B18190C0491059906900430B942E6D806994B6004340432B4E704235B429C4463461B68002BA3
:403A000005D1019B013B0193019B002BF2DC029B019A18001A6109B0F0BD00000323F7B5134005000E001400002B08D02349013B9A00525800233100FFF798FE0600A310AA
:403A4000019338D06C6A002C07D11020FFF728FE6862446084600460C4606F6ABC68002C10D117492800FFF746FF0023B8600400036007E0019B5B1001931CD0206800281D
:403A800010D004000122019B1342F3D0310022002800FFF739FF070031002800FFF74DFE3E00E7E7220021002800FFF72DFF002320600360E5E73000FEBDC046E864000059
:403AC00071020000F0B50C0017002369551185B0EB180193013300934968A3680290009A934202DA01315B00F9E70298FFF7EDFD00230200060019001432AB4203DA98009A
:403B000011500133F9E7EB43DB171D402300AD0055192269143392009A1894461F22174014D00132D21B0392002219682800B9400A4304C504CB0399CA409C45F5D8426095
:403B4000002A07D0019B0233009303E004CB04C59C45FBD8009B0298013B33612100FFF7ECFD300005B0F0BD03690A6910B59B1A0400181E12D1930014341431E218C918A9
:403B8000043A043913680868834204D083429B410120184302E09442F2D3002010BDF0B50C0085B00700110020001500FFF7DCFF061E07D101003800FFF787FD0123466101
:403BC000036155E000230193984204DA23002C001D000123019361683800FFF776FD019B26692F00C3601434B300E318020002932B69002514379B00FB180393143208CCC3
:403C000069469C4608CF0432009363468B808B885D19009B9BB2EB1A65460193009B2D0C190C019B691A1D14131F9C466B4649199B880D1409040B4361460B60039BBB422E
:403C4000DDD8029913008C420BD202CC8BB25B191D14090C49190D149BB209040B4308C2EFE7043B1A68002A01D1013EF9E7066105B0F0BD0F4B10B519400F4BC918002925
:403C800002DD00220B0012E04942091500220023132904DC802000030841030007E0143901201E2902DC1F24611A884002001000190010BD0000F07F0000C0FCF7B5060038
:403CC000036914369B00F3181D1F2C680F0020000193FFF7C6FD20231B1A3B601C490A2813DC0B2327001B1ADF4039439C460B000021AE4202D20199083909681530844037
:403D00006046C1400C4322001EE00027AE4202D2019D083D2F680B388446031E11D09C40202021433C00C01AC44021430B000021B54201D9043D29686446C140A7400F4348
:403D400001E021430B003A001000190003B0F0BD0000F03FF7B51D000121089F1400FFF7B4FC2B036D0006001B0B6D0D02D08022520313430193002C18D068460094FFF775
:403D80008BFD009C002809D0019B20211A00091A8A40C34022437261019300E07461019CB461631E9C410134346107E001A8FFF773FD0124019B346173612030002D06D029
:403DC0000B4BED1835232D183D60181A0BE0094BC018094B3860E3189B00F3185869FFF740FD6401201A099B18603000FEBDC046CDFBFFFFCEFBFFFFFFFFFF3FF0B585B015
:403E00000E0002A90700FFF759FF04000D00300003A900940195FFF751FF36693F690200BF1B7E01B446039F029E0B00F61B6644002E03DD36057119019101E036058B1B4C
:403E40000098019900F052FE05B0F0BD1300013910B549111269013189001433920041189A189A4202D910CB10C0FAE70023814201D908C0FBE710BD30B5040002691434D2
:403E80004B119A420CDB0CDD1F22114009D09A00155901202A00CA408A4095420CD100E013009B00E318A34205D9043B1A68002AF9D0012000E0002030BD4A4370B51100E3
:403EC000140000F055F8051E03D022000021FCF76CFF280070BD000070B50500002944D00C1F2368002B00DAE418280000F039FA1E4A13681100002B02D16360146031E0E2
:403F0000A3420DD92268A018834203D118685B688218226063600C6024E0A24203D813005A68002AF9D11E689819A0420BD12168711858181960824214D11068526841189D
:403F400019605A600EE0A04202D90C232B6009E021686018824203D1106852684118216062605C60280000F0FDF970BDCC010020032370B5CD1C9D43083506000C2D01D212
:403F80000C2501E0002D01DBA94202D90C23336048E0300000F0E5F9234B1C681A002100002913D00B685B1B0DD40B2B02D90B60CC181EE08C4202D1636813601AE04B684B
:403FC00063600C0016E00C004968E9E7174C2368002B03D1300000F08BF920602900300000F086F9431C18D00323C41C9C43A0420DD12560300000F0B5F9200007220B30D3
:40400000231D9043C31A0ED05A42E2500BE0211A300000F06DF9431CEBD10C233000336000F0A0F9002070BDCC010020C8010020F0B58E6885B007000C00039201939E4293
:4040400043D890238A89DB001A423ED003250969236801985B1A029363695D43EB0F5D19029B6D1001331B18AB4200D91D00530510D529003800FFF77BFF061E14D0029A60
:404080002169FCF789FEA289194B134080221343A38112E02A00380000F065F9061E0CD121693800FFF718FF0C23402201203B60A38940421343A38117E0029B2661F618EE
:4040C00026606561019EED1AA560019BB34200D21E0032000399206800F02EF90020A3689B1BA36023689E19266005B0F0BDC0467FFBFFFFF0B59FB0029005938B890F000E
:4041000016001B0610D50B69002B0DD14021FFF72FFF38603861002804D10C23029A01381360D8E040237B61002306AD6B6120336B761033AB7634002378002B03D1A31BFF
:40414000049312D003E0252BF9D00134F4E7A31B320039000298FFF76BFF431C00D1B4E06A69049B944663446B612378002B00D1ABE00122002352426A6002A954325218B3
:4041800001342B60EB60AB601370AB65534E217805223000FFF78EFA002807D00123801B83402A68013413432B60EFE72B68DA0604D55322202102A8121811701A0704D5F7
:4041C00053222B2102A81218117022782A2A03D0099B00200A210EE0059A111D12680591002A01DB099204E05242EA60022213432B6001340BE02278303A092A04D84B4305
:4042000001349B180120F6E7002800D0099323782E2B1ED163782A2B0AD1059B02341A1D1B680592002B01DA01235B42079310E000230A201A0001346B6021783039092903
:4042400004D84243013452180123F6E7002B00D00792234E217803223000FFF72BFA002806D04023801B83402A68013413432B60217806221B48661C2976FFF71BFA002850
:4042800012D0194B002B06D10722059B073393430833059314E005AB00933A00134B29000298FCF721FE07E005AB00933A000F4B29000298FDF7D6F80390039B013304D0EA
:4042C0006B69039A9B186B6135E7BB890B985B0601D5012040421FB0F0BDC04620650000266500002A650000E90E000031400000002370B5064C050008002360FCF75CF8F7
:40430000431C03D12368002B00D02B6070BDC046D0010020002330B59A420BD0013AC45CCD5CAC4205D19A4202D00133002CF6D12500631B180030BD10B5884202D98B1884
:40434000984201D3002305E09B1A013A08D3995C8154FAE7934203D0CC5CC4540133F9E710BD70477047F8B506000C001500002904D11100FFF7FCFD040018E0002A03D10E
:40438000FFF7AAFD2C0012E000F013F885420ED929003000FFF7ECFD071E07D021002A00FCF7FAFC21003000FFF796FD3C002000F8BD0B1F1A68101F002A04DA8918043985
:4043C0000B68D0180438704702B4714649084900095C49008E4402BC7047C0468446101C62468C46191C634600E0C0461FB500F037FF002801D40021C8421FBD10B500F086
:404400008BFE4042013010BD10B500F029FF002801DB002010BD012010BDC04610B500F01FFF002801DD002010BD012010BDC04610B500F0B1FE002801DC002010BD012080
:4044400010BDC04610B500F0A7FE002801DA002010BD012010BDC04670B500220C4B04000D00FFF7EFFF002804D120002900FCF731FC70BD064B00222000290001F0D4F98B
:40448000FCF728FC80231B069C466044F1E7C0460000E041F8B556465F464D464446F0B40F00FD0FAA4609037C002E005F00450F490A7F0D2943C5001803BC46400A570F9C
:4044C000640DDB0F3843D2009A4500D1AAE06646A61B002E00DCFFE06346002B39D10300134300D0D9E06B0709D00F232B40042B05D02B1DAB42AD416D4249191D000B027A
:4045000000D482E0CA4B01349C4200D1FEE00A005646C84BED081A405007640552020543120B640D002112030B0D1B056405120B1A436308C04CF60714401C436400640834
:404540003443280021003CBC90469946A246AB46F8BDB74B9C42C6D080231B041843382E00DDEBE01F2E00DD1EE120239B1B9C4603006746BB40984613004746F3403B43C1
:404580006746BA40571EBA4113430200F240EB1A9D42B6411D008A1A7642911B0B0231D54A02560A002E00D1B4E0300001F02AFD0300083B1F2B00DDB5E020222900D21A67
:4045C000D1409E400A009D4032439C4200DDB1E01C1B631C1F2B00DDD5E0202114002800C91A8C40D8408D400443DA40681E854111002543002476E74146314300D134E2F8
:40460000310045466B0700D06FE756464807ED08C9080543864B9C4235D00A036405120B640D7FE76346E31A9B46002B00DC8BE06746002F3CD07E4FBC4200D153E78027B1
:404640003F0438435B46382B00DCF7E00243501E82410020D2B253194218AB4289411D00494289180B02CDD5714B01349C4200D13DE101206F4A6B080A4028401843D50742
:40468000054351082FE72B000B4300D1CBE180231B030B431A03120B44E7013E002E6DD1AE1AB5429B41091A5B42C91A350075E70700174300D116E701235B429C46E34466
:4046C0005B46002B00D0E0E0AA18AA429B4109185B4259181500C5E7002E75D1661C7605760D012E00DCF3E0AE1AB0464545BF410E1A7F42F61B370200D48FE0551BAA42F8
:40470000B641411A76428E1B9A464BE756460022002507E7280001F075FC20300300083B1F2B00DC49E72A002838824000259C4200DC4DE73F49E41A1140D4E60243501ECA
:404740008241D3B2002222E7002B00D0F3E0631C9C465B055B0D012B00DC9FE0344B9C4500D1C3E0AA180918AA42804140424118CD075208154349086446B4E62C4B9C4299
:4047800000D0ECE6AFE611001F3CE1400C00202B00D17FE04021CB1A9A4015436A1E95410021254300242DE733000700203BDF403B00202E70D04027BE1BB0400243501EB7
:4047C000824113430022E2E6002C4FD0184CA44500D1ABE08024240476422143382E00DDDFE01F2E00DD43E12027BC1BA1460C004F46BC40A0462C004746F4403C434F4601
:40480000BD406F1EBD41F1402C43151BAA429241411A5242891A64469A46BFE641464546314300D0BEE6002600240025F2E6C046FF070000FFFF7FFFFFFF0F801F2B59DCCB
:404840002027FF1ABC46070063469F405B46B9461700DF40B8464F4643461F4363469A40531E9A415B463A43D840F4E60C002C435CD0F643002E55D1551BAA42A441411A44
:404880006442091B9A46644688E6964FBC4200D0D8E628E6002280E700208FE70B002B43002C00D0C2E0002B00D101E10300134300D118E6AB18AB42B64109187642711872
:4048C0000A0200D409E1884A1D00114064460AE6002C5BD10E002E4300D08AE00100114300D1C2E0010015009A46FCE56446002100258FE620235B429C46DC44634607006D
:40490000DF405B46BC46202B00D1ACE040235F46DB1B98400243501E8241634613431A00002098E66F4CA44500D057E70100150064469A46D7E5002C39D10C002C436ED00D
:40494000DB43002B1AD0674CA44568D0382B00DDA4E01F2B00DDAEE020240F00E41AA740B9462F00DF40B846A3464F46444627435C46A5406C1EA541D9403D43AD18954296
:404980009B4109185B42591864466BE60C002C4315D1010011437BD0010015009A46514CA1E50D43691E8D410021ECB22DE74D4CA44534D0802424045B422143C6E704005B
:4049C00014434ED0ED084C072C438025C9082D03294208D0C6082E4205D1D208410711430C009A463100620FC900E50011433D4C79E50600164300D175E5AE1AB0464545CF
:404A0000BF410E1A7F42F61B370200D4F4E5551BAA42B641411A7642891B9A4663E50100150064465FE5002200257BE5002B3BD00300134315D0ED084B072B438025C9081A
:404A40002D03294207D0C4082C4204D141070B002100D2081343C9005A0F1143DD00214C41E5204C3FE5002054E700260025D1E534000F00203CE7403C00202E2BD040277D
:404A8000BE1BB1400D43691E8D4100212C43BCE6802100260903134C0025BBE50D43691E8D410021EDB269E7010015000D4C1AE50100150017E51C000F00203CE7403C003F
:404AC000202B0CD04027FB1A99400D43691E8D410021254352E70021D4E71D0092E50021F3E7C046FF070000FFFF7FFFF0B556464D4644465F46F0B41D000E034C00CB0FE5
:404B000087B0070092468146360B640D98466AD06D4B9C4235D08022430F12041343F6001E43C3009946694B00279C460023644402932B0368001B0BED0F51469B46400D40
:404B4000009500D178E0604B98426CD05B46DA004B0F802109040B4313439B465346D9005A4B9C46002360444246201A6A40924601901F430F2F00D9B0E05548BF00C0599B
:404B80008746374300D088E0002399460233082700260293CDE74346B34649460093029B009A9246022B00D0BFE1002153460122002689461A40444B002136030C0D2405FA
:404BC000360B2643434C1B0526401E437600D207760816434846310007B03CBC90469946A246AB46F0BD330003434FD0002E00D1BCE1300001F006FA03000B3B1C2B00DD04
:404C0000ADE11D220100D31A08393A008F408E40DA40B9461643304B00279C46002360444442029385E753465A4613432CD1002300219B46023397E70B4320D05B46002BEF
:404C400000D19EE1584601F0DDF903000B3B1C2B00DD8FE102005946083A91408B461D21CB1A5146D9400B0059460B4351469B469140194B9C4660444042002374E70023FC
:404C800000219B4601336FE703236DE70023994601330427002602934BE703230C27029347E70122D51A382D00DCB0E153461A4000210023002689467EE700238026994667
:404CC00000223603004B77E7FF07000001FCFFFF34650000FFFF0F80F30300005E4500D972E100D16DE1019B4D46013B01930023340002935B461E020B0E1E430B020393DC
:404D0000330C994633041B0C494620000093FBF76BFE009B370043430600494620009846FBF7E8FE2C0C09040C43A04509D9E419731EA74200D95CE1A04500D859E1023E78
:404D4000E4194346E41A49462000FBF74DFE0300009A80465343494620009B46FBF7CAFE2A040904120C0A4393450DD94346D219013B974200D93AE1934500D837E10223B2
:404D80005B429C46D219E0445B46D21A4346360433439B460399180C0B0C1D00059309045B46090C0C001B041B0C4443049159436B4368431B190D0CEB189C4203D980245E
:404DC0006402A44660441C0C09041B04090C20185D18824200D2DEE000D1D7E0161A029B9C465D1BAC459B415B42F61AB74200D106E149463000FBF7F7FD009B04004343B1
:404E0000494630009846FBF775FE2E0C09040E43B04509D9F619631EB74200D9F3E0B04500D8F0E0023CF6194346F31A494618000293FBF7D9FD009B0600434349460298F8
:404E40009846FBF757FE2D0409042D0C0D43A84509D9ED19731EAF4200D9D6E0A84500D8D3E0023EED192404210043463143049E059A3000ED1A0B040C0C1B0C5843664352
:404E8000534354439A19030C9B189E4203D980225202944664441A0C00041B04000C14191B18A54250D34DD001231943964A019B94466344002B00DCF3E64A0709D00F2288
:404EC0000A40042A05D00A1D8A42894149428B4411005A46D20108D55A468C4B1A4093468022D2009446019B6344894A934200DD5BE65A46C90850070843560251460122C7
:404F00005B058146360B5B0D0A4055E680231B031E4211D05A461A420ED15E461E433603360B2A0089467B4B46E6032B00D1E1E0012BBBD11A40BBE61E433603360B4246FF
:404F4000744B39E6002BB1D07D194A1EAF4252D91100A542A8D1039A9A42A5D1A6E703003E00283B9E400023994654E601F04AF8203041E603005246283B9A400021934666
:404F800077E6504601F03EF820305EE6029B0026AB4200D323E7039E0299B44661448846B045B6415B467642F619B218013B0291974213D290424FD800D18EE0161A9B4619
:404FC0000DE7894500D28EE674084B46F60735005B081D434B46DB0702938BE69742EDD10399029CA142E5D93E1A9B46F7E69846CAE61E00A5E6AC423ED874D0110053E7DC
:405000000121494252E71C000EE71E002BE71F2D3CDC20230A0058465B1B9840EA4099400243481E81415E461143EE404B0709D00F230B40042B05D00B00191D99429B4172
:405040005B42F61833023CD55346012200211A40002601238946AFE502235B429C46039CE344A446029B63449846A045B6417642F6190293B218B1E603988A1E4100814205
:40508000B6417642F619AD19039161E71F225242D31A5A46DA401300202D29D040225846551BA8400143481E814107200B4318400026002809D00F2200261A401900042A0B
:4050C000BBD10B0070077602360BDB0803439946012253461A4000236EE502998D42BBD89B4600267BE603989842C5D3110032E70020D7E780265B4636031E433603360B80
:40510000009A8946034B57E5FF030000FFFFFFFEFE070000FF070000F0B55F4656464D464446F0B41F035C00DB0F9A46194B0E034D00C90F8046360B6D0D8B4691463F0B78
:40514000640D9D4219D0134B9C421BD00123A54206D018003CBC90469946A246AB46F0BDBE42F6D1C845F4D1D34510D0002DF0D1304303005A1E9341EBE7310001230143F7
:40518000E7D1E0E73A430123002AE2D1DEE70023DFE7C046FF070000F0B55F46444656464D46F0B41F033C0B2C4F0E034D00A3465C008446360B6D0DC90F9046640DDB0F7C
:4051C000BD422BD0254FBC422ED0002D0ED130430700814678427841002C17D15F463A4314D14B460020002B0AD006E0002C02D15846024301D099421AD00123484218434D
:405200003CBC90469946A246AB46F0BD0028F2D058425841012240421043F1E737000743D0D002204042EBE75F461743CDD0F8E7A542E2DC05DB5E45DFD808D000205E45C2
:40524000DED248424841012340421843D8E7C445D3D80020C445F4D3D2E7C046FF070000F0B55F464D4644465646F0B41C03240BA4462F4C0F034D005E00C90F80463F0B43
:405280006D0D8B469146760DDB0FA54220D0284CA64222D0002D12D1384344424441002E20D0002C0DD05C42634101245B421C4320003CBC90469946A246AB46F0BD002E99
:4052C00017D05B4519D05B465C4201231C43EFE7390002240143EBD1D9E7614602241143E6D1D7E761460A43DBD100240028DFD0E9E761460A43E4D1E5E7B54203DD012217
:405300005C421443D4E7B542CDDB6745DBD809D000246745CCD259464C426141012449420C43C5E7C845CED80024C845F3D3BFE7FF070000F0B55F4656464D464446F0B401
:405340000D0399464E002B0B87B00700924680469B46760DCC0F002E69D06D4B9E4235D05B468022DD001204430F13432B439B46C3009846674B00279C46002366440193B1
:405380004A4615035000D20F53462D0B400D914600D176E05E4A90426CD080225B0F120413435C4AED0094461D4353460022DB00604449463618701C6140029017430F2F8F
:4053C00000D9AFE05448BF00C759BF465B461F4300D088E000239B469846023308270193CEE74946022A6AD0032A00D109E2012A00D0BBE111400022002300259046CCB277
:4054000000212D030A0D12052D0B1543434A1B0515401D436D00E4076D0825434046290007B03CBC90469946A246AB46F0BD034352D05B46002B00D18AE1584600F0E2FD50
:4054400003000B3B1C2B00DD7BE11D22D31A3A0001005D46DA4008398D4013008F402B439B46B8462E4B00279C46002360444642019385E752462A432CD1002500230222C3
:4054800097E752462A4321D0002D00D154E1280000F0B8FD03000B3B1C2B00DD46E11D21CB1A51460200D9405346083A954093400D431B4A944660444042002279E7012430
:4054C00000220C40124B0025904699E70025002301226EE703226CE700239B4698460133042701934CE703230C27019348E700238025984600242D03054B81E75D4643462C
:40550000019A6FE75D4643462100019A6AE7C046FF07000001FCFFFF74650000FFFF0F80F30300004246120C91461A0C9446424617044A461B041B0C5A43604690464A463F
:4055400042431000039262461C003F0C7A437C4342440192220C9246019A5244904506D98246802040028046C24450460390100C049048462404240C1204121905922A0C2F
:405580002D042D0C68432C00824648467C4350438146200C8046574357444744BA4503D9802040028046C144380C3F04B84648442404240C01900498A044404404905846D1
:4055C000000C814658460404200C8246070048465F434C464343604660436446834650464443380C8446E4186444A34203D980235B029C46E34448463F04230C3F0C240427
:40560000E419574668436F4384464D46504655434243380C814662444A445B44944503D9802040028446654403983F04834604983F0C8446E344C3458041404282461004D5
:4056400084460198674484466744A344BC46A345A4419946D44464428742BF41D4458041E144A04699459B417F424042C8440743120CBA18A045A4415F423B0064422343B1
:40568000D71843467D19DB0D6D021D435B465A02059B1A43531E9A415B46DB0D1A4343465B021343EA0107D501225C0813402343EA07029E13436D08574AB218002A4BDD9D
:4056C000580709D00F201840042805D0181D98429B415B42ED180300E80104D54F4A15408022D200B2184E48824200DDE7E60124DB08680718436D02530580462D0B5B0D69
:405700000C407DE6802259461203114208D0154206D115432D0398462D0B4C46414B6FE65D4615432D032D0B3E4B69E603005546283B9D400023BCE6504600F063FC2030E7
:40574000A8E60300283B9F400023BB46984689E600F058FC203073E60124A61A382E07DD00220C4000230025904649E6029EA3E71F2E20DC20222C001800921BF040944064
:4057800093400443581E83411C43F540630709D00F232340042B05D023001C1D9C4292415242AD182B021FD5012400220C4001230025904624E61F202C004042821AD44045
:4057C000202E1CD04022961BB5402B43581E83410720234318400025002809D00F2200251A401C00042AD8D1230068076D022D0B0124DB08034398460C40002300E6002532
:40580000E3E780220124120315432D0398462D0B0C40044BF4E5C046FF030000FFFFFFFEFE070000FF070000F0B557464E464546E0B40E001100F20F9246C500420F180384
:4058400037037400400A4E0F7F0A3043CF4E17435A00640D520DDB0FC900B24200D1E5E001267340A61AB446534500D1AFE0002E00DC0DE1002A3AD103000B4300D0E4E05B
:405880006B0709D00F232B40042B05D02B1DAB42AD416D427F191D003B0200D488E0BB4B01349C4200D110E13A00B94B51461A4001235007ED08520264050543120B640DEF
:4058C0000B400021280012030D0D120B64052D0515436208AF4CDB072C401443640064081C4321001CBC90469946A246F0BDA74B9C42C5D080231B0418436346382B00DDEE
:40590000FDE01F2B00DD30E1624620239B1A02009A40664690460A009940F24046464B1E99413243114363460200DA40691A8D429B410D00BA1A5B42D71A3B0235D57A0282
:40594000530A98464346002B00D1C4E0404600F059FB0300083B1F2B00DDC5E020222900D21A4746D1409F400A009D403A439C4200DDC0E01C1B631C1F2B00DDE4E0202172
:4059800014002800C91AD8408C408D400443DA40681E854117002543002471E7424663461A4300D14CE2674645466B0700D069E7012351467807ED08FA080B400543734998
:4059C0008C4238D012036405120B640D79E7002E00DC9AE0002A47D06C4A944200D14FE78022120410436246382A00DC08E10143481E81410022C9B24919D219A942BF41F2
:405A00000D007F42BF183A0200D442E15F4A0134944200D14EE101205D4A69083A4028400843D507054357089A4629E706000E4300D017E714E72900114300D1F9E1802118
:405A400009030A431203120B3BE701235B429846C4446346002B72D1691A8D429B413F1A5B42FF1A0D0068E702000A4300D107E7012252429046C4446246002A00D0E6E017
:405A80006918A942B6413F187642F7190D00BAE7002E00D080E0621C5205520D012A00DCF9E06A1A91464D45B6413A1A7642921B9046120200D499E04D1BA9428941C71B71
:405AC00049427A1A90469A463CE752460123002513400022F5E6280000F094FA20300300083B1F2B00DC39E72A002838824000259C4200DC3EE7264FE41A1740C0E60143F7
:405B0000481E81410022C9B210E7002E00D0F1E0621C94465205520D012A00DCA0E01B4A944500D1C5E06918A94292413F185242D2194908D5070D4357086446A0E6134B12
:405B40009C4200D0D9E69BE611001F3CE1400C00202B00D180E04021CB1A9A4015436A1E95410027254300241FE763460200203BDA406346202B71D0402366469B1B9840A1
:405B80000143481E814111430022CFE6FF070000FFFF7FFFFFFF0F80002C48D0CA4CA24200D1A2E07442A1468024240427434C46382C00DDDBE01F2C00DD44E14E46202428
:405BC000A41B3E00A640A246B0464C462E00E640B4464646644626435446A5406C1EA54134002C434D46EF400D1B28E04A4643464D461A4300D0A5E6002300240025DEE64D
:405C00001F2A5ADC66462022921B060096409146B04662460E00D640424616434A4691404A1E9141020060463143C240E4E63C002C435AD0F443A146002C52D14D1BA942DC
:405C40008941C71B49427F1A14009A4675E69E4A944200D0C7E613E600227FE700208FE7002C00D0C8E03B002B4300D10FE103000B4300D104E66918A9429B413F185B425D
:405C8000DF193B0200D41AE1904B0D001F406446F6E59A4689E63A002A43002C5CD1002A75D102000A4300D1CAE007000D009A46E6E564460022002581E662460600203A6C
:405CC000D6406246B046202A00D1B7E040226646921B904001434246481E8141114300228AE6794CA24200D061E707000D0014009A46C5E5002C41D13C002C4378D0F443FE
:405D0000A146002C20D0704CA24271D04C46382C00DDB2E01F2C00DDBCE02026341BA2463C005646B4404E46A0462C00F440A446444666463443A4465446A54064466E1EFD
:405D4000B54125434C46E7406D188D4289413F184942CF19140056E6002A2FD102000A4300D184E007000D009A46574C88E53D436F1EBD41ECB200270D1B60E7524CA24261
:405D800036D0744280263604A1463743BEE702000A4300D174E56A1A90464545B6413A1A7642921B9446120200D4F7E54D1BA9428941C71B49427F1A9A4661E502000A43FE
:405DC0003AD0ED087C072C438025FA082D032A4208D0C7082F4205D145072C003A009A46C9080C43670FD200E5001743364C47E507000D00140043E53A002A4343D002008E
:405E00000A4319D0ED087C072C438025FA082D032A4207D0C6082E4204D147073C003200C9080C43D700620FE50017439A46264C26E50022002544E5234C21E5002049E723
:405E400000230025BBE54C463E00203CE6404C46B446202C31D040244E46A61BB7403D436C1EA54164462C4300270D1BE7E6802200231203144C0025A1E53D436F1EBD414A
:405E80000027EDB260E707000D000F4CF8E407000D00F5E44E463C00203EF440A0464C46202C0ED040244E46A41BA7403D436F1EBD4144460027254346E70027CFE70D00C0
:405EC00073E50027F2E7C046FF070000FFFF7FFF70B50E4E0C031D0349005B00240B490D2D0B5B0DB14204D0084900208B4208D070BD04430120002CFAD1044900208B42A6
:405F0000F6D115432800451EA841F1E7FF07000070B5002830D0C317C4185C40C50F200000F070F8174B184A1B1AD21A1F2A18DD164AD21A9440002224035B05240B5B0D82
:405F40000021100024030A0D1205240B1443104A1B0514401C436400ED0764082C43210070BD210091400A000B21081AC4405B052403240B5B0DE3E70025002300240022A3
:405F8000DEE7C0461E0400003304000013040000FFFF0F8070B5051E28D000F033F8154B154A1B1AD21A1F2A16DD2C00134A0025D21A94405A052403240B520D00212403D8
:405FC0000B0D240B1B0523430D4C1205234013435B002800590870BD0B212C00081AC440954024035A05240B520DE7E700220024E4E7C0461E0400003304000013040000DE
:40600000FFFF0F801C2101231B04984201D3000C10391B0A984201D3000A08391B09984201D30009043902A2105C40187047C04604030202010101010000000000000000E6
:406040000000000000000000434F4D204F50454E210A0000547970652061206E756D6265723A2000256425632000000000300F40800000310F40000300400F400004000058
:4060800080300F40D46200008000000080388172820F0101020104040E0212022E0130023204330134013A803E153F045418580459045B045F010080029005A106200902A1
:4060C0000C100E22100216821728180419881B011D221E011F2823102410251026822D802F283602372838013D283E023F804410452647404D8054425A015C106004630238
:406100006C206D106F01760277288710C0FDC2E8C4F1CA70CCE0CEF1D0F0D210D621D80C02080615081309130A040C400D010E200F0A100A111012141480162018E01902B1
:406140001B091C031E1424132513260C28E02B042C202EC03010310C32E03310340F35033A203E013F014032410646EB47C0482C49FF4AFF4BFF4EF04F44500C5401580454
:4061800059045A045B045F0166C06A406B02820383088410858086AC871389718B068F0C90DC9222980C992C9A719B439C109E40A014A971AA20AB0EAC09AED0B1C0B330B9
:4061C000B4E0B50FB61FB90ABA20BB20BF04C003C540C9FFCA07CBFFCC40CD20CEF0CF05D008D804D904DA04DF01E040E1A8E240E3200001032004080510060107800A483F
:406200000B020C200E600F02108012041380140215101620180119101A081C401F38212423C025042630274029102C202D202F0831203620370138083A203B623D103F80AC
:40624000410446244B024E04500452045490561057035C405D085E015F10841086018B128C028D208E408F089110940199089A019B019D209E109F40A020A340A504A61001
:40628000A910AAA1AB40B521B601B708C0FCC2FBC4EBCA64CCA4CE3FD062D220D6F00A4067808740C210D880E210AA40E82010011101000003000F4012300F4035310F4025
:4062C00069320F4056330F4006400F4002410F4002600F40F3100C0041000003C33C0042FF04008000000004820800000018F3000F00F0001C00E300046700180C3C00414A
:40630000087F00001C802C200F1FC04000802820000000042305040001000CE024FFFFFF62A0F0410C000000000002110404040400000001000000000000400200103010C5
:406340000010101200000000000000000000000000000000030405060708090A0B0C0E0F101112131415161718191B1C1D1E1F2021222325262728292A2B2E2F3031323364
:4063800034354300494E4600696E66004E414E006E616E0030003031323334353637383941424344454600303132333435363738396162636465660034000000CEFBFFFFCE
:4063C000CB030000010000000000000035000000CEFBFFFFCB0300000100000000000000BC89D897B2D29C3C33A7A8D523F649393DA7F444FD0FA5329D978CCF08BA5B2531
:40640000436FAC6428066811496E66696E697479004E614E00504F534958002E00000000000000000000F03F000000000000244000000000000059400000000000408F40B0
:40644000000000000088C34000000000006AF8400000000080842E4100000000D01263410000000084D797410000000065CDCD41000000205FA00242000000E87648374201
:40648000000000A2941A6D42000040E59C30A2420000901EC4BCD64200003426F56B0C430080E03779C3414300A0D8855734764300C84E676DC1AB43003D9160E458E143FA
:4064C000408CB5781DAF154450EFE2D6E41A4B4492D54D06CFF08044F64AE1C7022DB544B49DD9794378EA4405000000190000007D000000000000000080E03779C341432F
:40650000176E05B5B5B89346F5F93FE9034F384D321D30F94877825A3CBF737FDD4F1575232D302B2000686C4C0065666745464700000000DC4C0000AA4B0000B04C00002B
:40654000A04B0000B04C0000BA4C0000B04C0000A04B0000AA4B0000AA4B0000BA4C0000A04B0000964B0000964B0000964B00000C4F000024550000E4530000E453000087
:40658000E2530000FC540000FC540000EE540000E2530000FC540000EE540000FC540000E253000004550000045500000455000004570000F8B5C046F8BC08BC9E4670474C
:4065C0002102000035040000F8B5C046F8BC08BC9E467047F9010000E8650000C0000020C00000005800000000000000D8010020010000000000C05D80BB000030000000B8
:40660000006CDC02F000000004040400000000000000000000000000000000000000000000000000000000000000000082630000000000000000000000000000000000002F
:406640000000000000000000000000000000000000000000000000000000000000000000000000000000000000000000E40000201B640000256500002565000025650000F9
:40668000256500002565000025650000256500002565000025650000FFFFFFFFFFFFFFFFFFFFFFFFFFFF0000000000000000000000000000000000000000000000000000AC
:4066C000000000000000000000000000000000000000000000000000000000000000000000000000000000000000000000000000000000000000000000000000000000009A
:406700000000000000000000000000000000000000000000000000000000000000000000000000000000000000000000000000000000000000000000000000000000000059
:406740000000000000000000000000000000000000000000000000000000000000000000000000000000000000000000000000000000000000000000000000000000000019
:4067800000000000000000000000000000000000000000000000000000000000000000000000000000000000000000000000000000000000000000000000000000000000D9
:020000040003F7
:0200000490303A
:02000000A3C398
:0200000490402A
:4000000000000000000000000000000000000000000000000000000000000000000000000000000000000000000000000000000000000000000000000000000000000000C0
:400040000000000000000000000000000000000000000000000000000000000000000000000000000000000000000000000000000000000000000000000000000000000080
:0200000490501A
:0C00000000021A1711AA00011A38B56D91
:0200000490600A
:0100000001FE
:00000001FF