:400000000080002011000000990400009904000010B500F061FAC04670B512222B4B1A6000F0A8FD2A4800F01FFF012000F0C2FD302000F0B9FC274A274B1A60274C802527
:40004000ED052560264A116802230B431360254A254B1A600022254B1A60254A136808218B431360FA20C00000F050FD214800F091FC214A214B1A60214B224A1A60CC21F4
:400080008901214A1160214A1A6080210901204A1160204A1A60822212061F4B1A608022D2021E4B1A6042221D4B1A60013A1D4B1A60013A1C4B1A601C49082000F01AFC80
:4000C000082000F00BFC256070BDC04630001040001BB7000600008004010B400C020B4078002E402D3E00007C002E4064F02E406CF02E40DC050000007FBB00080301407A
:400100000000014042FF00800403014041FF00800003014040FF008008010B4000010B40380101403001014018010140CD0C000070B572B60022444B1A6000240FE04348DD
:400140006200131959000B00411889881A5AC31858880004104300F05DF90134E4B2022CEDD9002411E0394EA2001319590071188D8AC88A000428430A8B498B09041143AA
:40018000802200F04DF90134E4B2002CEBD02F4920312F48403000F023F9A02212012D4B1A8001222C4B1A702C4A2D4B1A6030222C4B1A60C02292002B4B1A6099231B0404
:4001C0002A4A1360A0210903294A116029492A4A116080218902294A116080210903284A1160284A1360284A1360C0229203274B1A6027490B783C22934314221343DBB203
:400200000B70244A117816230B43DBB213700322214B1A60D8231B0420490B6020490A600221204A11602F311F4A11601F4A136004221F4B1A607D32FF321E4B1A60FFF712
:40024000EBFE00F001F970BD6CF02E40901A0000101D000000600F4002600F40760000EE00000240000102400003024000500F4008500F400400990010500F4014500F400A
:4002800018500F4020500F4030500F4038500F4001700F4000700F40000004400800044018000440000104400801044008020440000304400803044010B5064C2378002B64
:4002C00007D1054B002B02D0044800E000BF0123237010BD4801002000000000381A0000084B10B5002B03D00749084800E000BF07480368002B00D110BD064B002BFBD090
:400300009847F9E7000000004C010020381A0000C00000200000000030B58DB001A916480B00020013CA13C313CA13C313CA13C31168196012791A7100F0F2F900F000FA42
:4003400000F052FD002413E0022000F003FA002000F014FA0500012000F010FA03002A00064901A800F044FF01A800F059FD0134632CE9DD0DB030BD641A00003C1A00008B
:4003800010B5002000F016FA012000F01FFAFA20C00000F0E7FA012000F00CFA002000F015FA10BD10B500F081FA322000F030FA034800F0D7FA002000F02AFA10BDC046D1
:4003C000B80B000010B5FFF7A7FFFFF7D9FFFFF7E9FF10BD10B562B6FFF7F4FFFEE7C046F0B50025002711E0BB00C658F3B2FF22964308E06A008A181478A41952782270BC
:400400000135013BDBB2002BF4D10137082FEBD9F0BDC04610B50A00002100F0E0FE10BD10B500F0D3FE10BD064B1B68002803D080221206134301E05B005B08014A1360CD
:400440007047C04680033A4010B533220B4B1A6003230B4A13600B4A1360802212060A4B1A60C0231B03094A1360094A13600022084B1A600120FFF7D7FF10BD08210240F8
:40048000300030403000314000003A4000033A4040033A40000E3F4010B500F06BFE03680C2B00D1FEE7FEE710B50300084A1068C318084A9A1A802A02DC054A136005E0BD
:4004C00000F058FE0C2303600120404210BDC046C4000020B001002070B50F4E0F4D13E029686B68AC68002202E001C901C30432A242FAD1E868002202E0002102C30432C9
:400500008242FAD11035013E002EE9D100F038FEFFF760FFFEE7C04601000000881E000010B50E4A136801218B43136000230AE0032B03D89A000A49505800E00948990043
:40054000094A885001332F2BF2D9FFF7F1FD034A116801230B43136010BDC0460000104000000000990400000000002010B503210F2000F0D1F942490F2000F0BBF9032233
:40058000404B1A60404B1B68002B01DA3F4900E03F49404A13680B4313603F4A3F4B1A603F4A404B1A6000233F4A13603F4A40490A6040490A60404A11688020400201439A
:4005C00011603E490A6802430A603D4A13603D4A136001223C4B1A603C4A11683C4B0B40802189050B431360002445E03949A2005058DC239B0103400919097A0B433649A4
:400600008C4662441360C30707D52D490A680123A3401B041B0C13430B60A3002D4A9B589B0707D527490A680123A3401B041B0C13430B60A300274A9B589A0502D580209B
:40064000400001E080204001DB0504D463000021224A995203E063000021204A9952204B5843204B9C4660441F4900F097FC00B2A2001E4BD0500134012CB7D910BDC046A5
:40068000A907000020003A4080033A40702010107020001000003A408C00008004003A400000FF0718003A401C003A400200020010003A4014003A4000033A4040033A401B
:4006C00028023A4038023A4018023A4030003A40FEFFFFDFF41D000080003A40A401002010270000E40C0000C81900009C01002010B5094B1B68002B0CDB084B1B68002B45
:40070000FBDB054A1368802109060B4313600A2000F040F910BDC04600003A4008023A4010B5064B1B78002B04D1FFF71FFF0122024B1A70FFF7DCFF10BDC04664010020A4
:40074000034A1368802149020B4313607047C04604003A40020083070CD0074B1B680120184001D19307F8D4002804D00122024B1A6000E00020704710023A4010B50400E9
:40078000012802D9002000F0B3F8012C07D8A400044B9C46644420680004000C00E0002000B210BD80013A40014B1A681A60704710023A4004490A68D2B240239A43800150
:4007C00018401043086070470002044004490A687F231A40C301D8B2104308607047C04600020440034A117880235B420B43DBB21370704772000F40014B18707047C046A5
:4008000002000F40014B18707047C04642000F40014B18707047C04622000F40014B18707047C04682000F40014B1878C0B2704762000F40014B1878C0B2704752000F4085
:4008400010B501E0FFF7F6FFFFF7EEFFC306F9D410BDC04610B513490B783F22934309221343DBB20B70104C227801231343DBB22370FF20FFF7C0FFFF20FFF7C3FF7F205D
:40088000FFF7C6FF0020FFF7C9FF00F0F6FA227810231343DBB2237000F0F3FAFFF7D0FF10BDC04672000F4092000F4010B5064B1B78002B04D1FFF7CDFF0122024B1A7000
:4008C000FFF790FF10BDC04665010020024B1B68012018407047C0460C002E401F2318401E3B8340014A13607047C04600E100E001BE704770B504000D001F2802D90020BA
:40090000FFF7F6FF1034A40080239B059C4664442068256070BDC04670B504000E00032902D90020FFF7E4FF1F2C02D90020FFF7DFFF03252540ED00063500F09EFAA4089D
:40094000A400074B9C46644421680323AB4099430B003100A9401943216000F092FA70BD00E400E010B5040006E0084B586800F07BFA074B9C46644480231B029C42F4D8A5
:40098000024B9868604300F06FFA10BDC80000200080FFFF10B5034B1B7B584300F064FA10BDC046C8000020F0B557464E46C0B483B0040000F061FA0190E71E2D2F74D864
:4009C0003F4B1B78DBB29C4208D83E4B1B78DBB29A463D4B1B78DBB2994631E03B4B1B78DBB29C4208D83A4B1B78DBB29A46394B1B78DBB2994623E0374B1B78DBB29C427F
:400A000008D8364B1B78DBB29A46354B1B78DBB2994615E0334B1B78DBB29C4208D8324B1B78DBB29A46314B1B78DBB2994607E02F4B1B78DBB29A462E4B1B78DBB29946B4
:400A40002D4BDE5D2F2E09D92A2C07D919222B4B1A60052000F008FA192503E0274B1D683F231D40B54206D9234BDA5D234B1A60052000F0F9F91F4B9C4664442378DBB2AF
:400A80001F4A13601F4B52461A601F4B4A461A600520FFF77FFFB5420AD2174BDA5D174B1A60052000F0E0F902E00020FFF720FF019800F0E6F903B00CBC91469A46F0BD3D
:400AC00040F3FF0F41F3FF0F42F3FF0F43F3FF0F44F3FF0F45F3FF0F46F3FF0F47F3FF0F48F3FF0F49F3FF0F4AF3FF0F4BF3FF0F4CF3FF0F4DF3FF0F001E00002CFF0B4079
:400B000028FF0B401CFF0B4020FF0B4010B504000F4A116801230B4313600E4A0E4B1A600E4A1368802109020B431360002809D100200CE00120FFF72DFFFFF7C7FE002854
:400B400004D1013C002CF5D1102000E0002010BD60F02E400220000078002E4010002E40034B1868C0231B02184000D00120704700010B4010B50D4B1A6801218A431A600E
:400B80001A68022082431A60094A10683024A043203C204310601068093CA043014311601A68802109060A431A6010BD00F02E4000FF2E4070B51D4B1B6801241C40002882
:400BC00002D0012816D02BE0184B19680122914319601968022081431960154B19682E3081432038014319601968093881430A431A6018E00D4B1A6802218A431A600C4ADE
:400C000010680725A84301431160116830208143103801431160196801220A431A6002E00020FFF765FE200070BDC04600F02E4000FF2E4010B500F020F9044A1368C0218A
:400C400009020B43136000F01CF910BD00010B4010B500F012F908490A68084B1A408024E40122430A600A6813408022120213430B6000F006F910BD00010B40FF3FFFFF82
:400C800070B5050000F0F9F80400FFF769FF002803D0FFF7DDFF012100E0002108482840084A1568084B2B40184310601368012901D1FFF7BFFF200000F0E3F870BDC0467E
:400CC0000404040010020B40FBFBFBFF10B5244B1B685B0715D5234B5B685B070ED5224B596A042001401F4C62688A4362605A6A82435A629B69002B00D098470420FFF78C
:400D0000BFFF174B1B685B0518D5164B5B685B0510D5154B596A8022D2001140114842688A434260596A114A0A405A62DB69002B00D098478020C000FFF7A2FF084B1B68F1
:400D40005B030CD5074B5B685B0304D5064B1B6A002B00D098478020C002FFF791FF10BD10020B40DC00002068010020FFFBFFFF7222074B1A70523A064B1A701A3A064B2D
:400D80001A704132054B1A700022054B1A70704783000F4080000F4020000F4030000F4081000F4010B500F068F804000B4A117820230B43DBB2137009490A7810231A434E
:400DC000D2B20A70074A11780B43DBB21370FF2000F03AF8200000F054F810BD93000F4090000F4091000F4010B5064B1B78002B04D1FFF7BDFF0122024B1A70FFF7D2FF96
:400E000010BDC04690010020034B1B785B07FBD4024B18707047C04661000F4041000F4070B50500074B1B78002B05D108E0FFF7EBFF0134A4B200E00024285D0028F6D16F
:400E400070BDC04690010020044B1B68002BFBDB0002034B1843014B186070470000014041000080000000000230800803D00138FDD1C046C046C0467047EFF3108072B69C
:400E8000704780F310887047002243088B4274D303098B425FD3030A8B4244D3030B8B4228D3030C8B420DD3FF22090212BA030C8B4202D31212090265D0030B8B4219D3D6
:400EC00000E0090AC30B8B4201D3CB03C01A5241830B8B4201D38B03C01A5241430B8B4201D34B03C01A5241030B8B4201D30B03C01A5241C30A8B4201D3CB02C01A5241AF
:400F0000830A8B4201D38B02C01A5241430A8B4201D34B02C01A5241030A8B4201D30B02C01A5241CDD2C3098B4201D3CB01C01A524183098B4201D38B01C01A5241430902
:400F40008B4201D34B01C01A524103098B4201D30B01C01A5241C3088B4201D3CB00C01A524183088B4201D38B00C01A524143088B4201D34B00C01A5241411A00D2014611
:400F8000524110467047FFE701B5002000F0F0F802BDC0460029F7D076E7704703460B437FD4002243088B4274D303098B425FD3030A8B4244D3030B8B4228D3030C8B421B
:400FC0000DD3FF22090212BA030C8B4202D31212090265D0030B8B4219D300E0090AC30B8B4201D3CB03C01A5241830B8B4201D38B03C01A5241430B8B4201D34B03C01A5F
:401000005241030B8B4201D30B03C01A5241C30A8B4201D3CB02C01A5241830A8B4201D38B02C01A5241430A8B4201D34B02C01A5241030A8B4201D30B02C01A5241CDD2B4
:40104000C3098B4201D3CB01C01A524183098B4201D38B01C01A524143098B4201D34B01C01A524103098B4201D30B01C01A5241C3088B4201D3CB00C01A524183088B42DC
:4010800001D38B00C01A524143088B4201D34B00C01A5241411A00D201465241104670475DE0CA0F00D04942031000D34042534000229C4603098B422DD3030A8B4212D3A4
:4010C000FC22890112BA030A8B420CD3890192118B4208D3890192118B4204D389013AD0921100E08909C3098B4201D3CB01C01A524183098B4201D38B01C01A524143095C
:401100008B4201D34B01C01A524103098B4201D30B01C01A5241C3088B4201D3CB00C01A524183088B4201D38B00C01A5241D9D243088B4201D34B00C01A5241411A00D2EB
:401140000146634652415B10104601D34042002B00D54942704763465B1000D3404201B5002000F005F802BD0029F8D016E770477047C046014B18687047C0464401002058
:401180000E4B70B500251E000D4CE41AA410A54204D0AB00F35898470135F8E700F062FE084B00251E00084CE41AA410A54204D0AB00F35898470135F8E770BD701E000072
:4011C000701E0000701E0000781E0000002310B59A4203D0CC5CC4540133F9E710BD03008218934202D019700133FAE7704700000EB410B59DB002A9029008610B48822479
:4012000088604861012040421FABC881084804CBA400006801938C8100F06EF80023029A13701DB010BC08BC03B01847FFFFFF7F44010020F0B58E6885B007000C0003923B
:4012400001939E4243D890238A89DB001A423ED003250969236801985B1A029363695D43EB0F5D19029B6D1001331B18AB4200D91D00530510D52900380000F037FB061EE8
:4012800014D0029A2169FFF7A1FFA289194B134080221343A38112E02A00380000F086FB061E0CD12169380000F0D4FA0C23402201203B60A38940421343A38117E0029B41
:4012C0002661F61826606561019EED1AA560019BB34200D21E0032000399206800F0A5FA0020A3689B1BA36023689E19266005B0F0BDC0467FFBFFFFF0B59FB00290059352
:401300008B890F0016001B0610D50B69002B0DD1402100F0EBFA38603861002804D10C23029A01381360D8E040237B61002306AD6B6120336B761033AB7634002378002BEB
:4013400003D1A31B049312D003E0252BF9D00134F4E7A31B320039000298FFF76BFF431C00D1B4E06A69049B944663446B612378002B00D1ABE00122002352426A6002A93F
:401380005432521801342B60EB60AB601370AB65534E21780522300000F03CFA002807D00123801B83402A68013413432B60EFE72B68DA0604D55322202102A81218117087
:4013C0001A0704D553222B2102A81218117022782A2A03D0099B00200A210EE0059A111D12680591002A01DB099204E05242EA60022213432B6001340BE02278303A092AA3
:4014000004D84B4301349B180120F6E7002800D0099323782E2B1ED163782A2B0AD1059B02341A1D1B680592002B01DA01235B42079310E000230A201A0001346B60217862
:401440003039092904D84243013452180123F6E7002B00D00792234E21780322300000F0D9F9002806D04023801B83402A68013413432B60217806221B48661C297600F07F
:40148000C9F9002812D0194B002B06D10722059B073393430833059314E005AB00933A00134B2900029800E000BF07E005AB00933A000F4B2900029800F08AF80390039BF9
:4014C000013304D06B69039A9B186B6135E7BB890B985B0601D5012040421FB0F0BDC046301E0000361E00003A1E00000000000035120000F7B5170001938A680B69009007
:401500000C00934200DA130022003B6043321278002A01D001333B6023689B0602D53B6802333B60062523681D401ED0230043331B785A1E9341226892061CD53020E1180C
:401540004331087021005A1C45310978A2184332023311700FE022000123193201990098089EB047431C0ED00135E3683A689B1A9D42F0DBDAE72200019943320098089DCF
:40158000A847431C02D10120404220E006232068E1683A6803400025042B03D18D1AEB43DB171D40A3682269934201DD9B1AED180027BD420AD0220001231A320199009875
:4015C000089EB047431CDED00137F2E70020FEBDF0B58BB006920A0043320793059004920A7E0C00109B6E2A00D1ABE011D8632A22D009D8002A00D1B5E0582A00D0C5E096
:4016000045310A70814A4FE0642A1DD0692A1BD0BCE0732A00D1AAE009D86F2A29D0702A00D0B3E0202209680A43226037E0752A1FD0782A33D0A9E00E001A684236111D38
:40164000196013683370A4E021681A68080606D4490604D5111D19600023D55E02E0111D19601568002D3BDA2D23049A6D42137036E021681A68080606D4490604D5156821
:40168000111D1960ADB202E0111D196015685F4B227E039308276F2A1DD00A271BE022007821453211705A4A19680392081D226818600D68100602D4500600D5ADB2D30704
:4016C00002D520231A4322601027002D03D1202322689A4322602300002243331A7002E00A274A4B03936368A360002B09DB0422216891432160002D05D1049E002B11D078
:401700007BE0002D79D0049E28003900FFF742FC039B013E5B5C280033703900FFF7B4FB051EF1D1082F09D12368DB0706D563682269934202DC3023013E3370049B9B1B93
:4017400023612BE009681A68080607D4490605D5111D19601368A28A1A8004E0111D1960136862691A600023049E236116E01A68111D1960166800216268300000F04AF86F
:40178000002801D0801B6060636803E0260042363270012323610023049A1370079B09AA00932100069B0598FFF7A4FE431C02D10120404227E02369320006990598079DA2
:4017C000A847431CF4D0236800259B070FD4099BE068984217DA180015E022000123193206990598079EB047431CE1D00135E368099A9B1A9D42F0DBE9E72600039B4236D6
:401800001B7833708EE70BB0F0BDC046411E0000521E0000C9B28218904204D003788B4202D00130F8E70020704710B5884202D98B18984201D3002305E09B1A013A08D376
:40184000995C8154FAE7934203D0CC5CC4540133F9E710BD70B50500002944D00C1F2368002B00DAE418280000F0D8F81E4A13681100002B02D16360146031E0A3420DD9E9
:401880002268A018834203D118685B688218226063600C6024E0A24203D813005A68002AF9D11E689819A0420BD12168711858181960824214D110685268411819605A60DC
:4018C0000EE0A04202D90C232B6009E021686018824203D1106852684118216062605C60280000F09CF870BD98010020032370B5CD1C9D43083506000C2D01D20C2501E070
:40190000002D01DBA94202D90C23336048E0300000F084F8234B1C681A002100002913D00B685B1B0DD40B2B02D90B60CC181EE08C4202D1636813601AE04B6863600C0096
:4019400016E00C004968E9E7174C2368002B03D1300000F051F820602900300000F04CF8431C18D00323C41C9C43A0420DD12560300000F054F8200007220B30231D90430D
:40198000C31A0ED05A42E2500BE0211A300000F033F8431CEBD10C233000336000F03FF8002070BD9801002094010020F8B506000C001500002904D11100FFF797FF0400CB
:4019C00018E0002A03D1FFF745FF2C0012E000F027F885420ED929003000FFF787FF071E07D021002A00FFF7F1FB21003000FFF731FF3C002000F8BD002370B5064C0500B7
:401A000008002360FEF750FD431C03D12368002B00D02B6070BDC046A8010020704770470B1F1A68101F002A04DA891804390B68D01804387047000000000000466C65788D
:401A40002053656E736F7220313A2025640A20466C65782053656E736F7220323A20256400000000466C65782053656E736F7220313A20323031360A20466C6578205365E2
:401A80006E736F7220323A20323031370000000000300F40800200330F40000100400F400004000080320F40741D0000800000008038810F820D8372002C01010203030EB5
:401AC00004C0052709270A080C400D200E80120C13401480164018311A0E1B40221324C02504271128312A062D022F11310732C0332034303540360F371838203A803E10CA
:401B00003F504002470449FF4A074BFF4C404D204EF04F0550085418580459045A045B045C115D115F01604061A8624063208009818082D0841086AC880C89038A718B444C
:401B40008CDC8E22930895539603970C9814A120A220A345A553A704A810AA40AD0AAF54B140B21FB30FB4E0B580B730B980BA22BB08BF11C064C102C50BC6C0C7E0C829C7
:401B8000C9FFCAFFCBFFCEF0CF44D00CD401D804D904DA04DB04DC11DD11DF01E6C0EA40EB02008002140380040205900710080109200A200E100F081080110412081440EB
:401BC0001604198C1A241B801D301E101F1220062105234024422608271929042A802CC02D802F10322134013608370139663A103D113F2242044440452048804E084F0835
:401C0000520457115B025C405D115F0860046280C0FFC26EC45ECADACCC5CEAFD0A4D220D6F1D80C030209040F01130214041A071E0123012E083004310832023304340108
:401C40003501360837023F554010410545D14602480749FF4AFF4BFF4DA04F04501852805405580459045A045B045C035D335F01604062C06440654066C068C06AC06CC0BE
:401C80006EC00080010A030808900A800D800E200F0810801354178019061A011B101C441D801E201F402140225526882748281029062A802B082F403080320433023602E4
:401CC000382839803E113F80408041044201430A458048014A244D014F88520257405A205C405D015F0869647094731477808312844086808A088C048D028E048F40910868
:401D0000921093409564960299089E809F02A001A302A440A6A0C00FC2EBC48FCA8FCC8BCEBED01BD21CD6D4E210E6805A80D48002105002861088028E409680C010D4802D
:401D4000E04054028C02D604E402100A1101000004000F4075300F4041310F402F320F4055330F4002400F4009410F4004430F4002600F40F3000C00821800000008F300DF
:401D8000415C00221C7FE300000000040F00F000FF10000008670018045C00210C000003C30400800F202C80C0401C1F00020A800000001063040100050E00C021FFFFFF6B
:401DC00062A0F0410C0000000000021104040404111100010000000000004002001030100010101200000000000000000000000000000000000000000000000072730000B5
:401E0000030405060708090A0B0C0E0F101112131415161718191B1C1D1E1F2021222325262728292A2B2E2F3031323334354300232D302B2000686C4C0065666745464780
:401E4000003031323334353637383941424344454600303132333435363738396162636465660000F8B5C046F8BC08BC9E467047E102000021050000F8B5C046F8BC08BC64
:401E80009E467047B9020000981E0000C0000020880000006800000000000000B0010020010000000000C05D80BB000030000000006CDC02F00000000404040000000000A6
:401EC000000000000000000000000000000000000000000000000000000000002E1E0000000000000000000000000000000000000000000000000000000000000000000096
:401F000000000000000000000000000000000000000000000000000000000000E400002000000000000000000000000000000000000000000000000000000000000000009D
:401F40000000000000000000000000000000000000000000000000000000000000000000000000000000000000000000000000000000000000000000000000000000000061
:401F80000000000000000000000000000000000000000000000000000000000000000000000000000000000000000000000000000000000000000000000000000000000021
:401FC00000000000000000000000000000000000000000000000000000000000000000000000000000000000000000000000000000000000000000000000000000000000E1
:4020000000000000000000000000000000000000000000000000000000000000000000000000000000000000000000000000000000000000000000000000000000000000A0
:020000040003F7
:0200000490303A
:02000000A21448
:0200000490402A
:4000000000000000000000000000000000000000000000000000000000000000000000000000000000000000000000000000000000000000000000000000000000000000C0
:400040000000000000000000000000000000000000000000000000000000000000000000000000000000000000000000000000000000000000000000000000000000000080
:0200000490501A
:0C00000000021A1711AA00011A20B3BE5A
:0200000490600A
:0100000001FE
:00000001FF