:4000000000800020110000002D0500002D05000010B500F0ABFAC04670B51222304B1A6000F01CFC2F4800F05FFF012000F036FC302000F02DFB2C4A2C4B1A602C4C802501
:40004000ED0525602B4A116802230B4313602A4A2A4B1A6000222A4B1A602A4A136808218B431360FA20C00000F0C4FB264800F005FBBC229201254B1A60254B254A1A60CD
:4000800080218900244A1160244A1A60E021C900234A1160234A1A6088218901224A1160224A1A6082221206214B1A608022D202204B1A604322204B1A60033A1F4B1A6062
:4000C00001321F4B1A6001321E4B1A601E49082000F0AAFA082000F09BFA256070BDC04630001040001BB7000600008004010B400C020B4078002E402D3E00007C002E408F
:4001000064F02E406CF02E40DC0500000C0301400000014043FF00800003014040FF00800403014041FF00800803014042FF008008010B4000010B402C0101401C0101407B
:400140001801014004010140B509000010B572B60022324B1A6000240FE031486200131959000B00411889881A5AC31858880004104300F0D5F90134E4B2012CEDD92849C0
:400180000C312848343000F08DF9274A274B1A6099231B04264A1360C0218900254A1160254A1360A021C902244A1160244A1360244A1360244A136080225203234B1A6084
:4001C00023490B783C22934314221343DBB20B70204A117816230B43DBB2137003221E4B1A60D8231B041D490B601D490A601D321C490A60C42080021B4908601B490A60DD
:400200001B4A136004221B4B1A607D32FF321A4B1A60FFF701FF00F05FF910BD6CF02E40703C0100F03C0100670000EE00000240000102400003024000500F4008500F400D
:4002400010500F4020500F4030500F4038500F4001700F4000700F4000000440080004401800044000010440080104401801044008020440000304400803044010B5064C15
:400280002378002B07D1054B002B02D0044800E000BF0123237010BD601400200000000074390100084B10B5002B03D00749084800E000BF07480368002B00D110BD064B79
:4002C000002BFBD09847F9E7000000006414002074390100D80E00200000000010B50C000A000100054801F07BF904E00022034B1A550134E4B2B32CF8D910BDE42500203B
:4003000010B5034800F0BEFB02F000F9FCE7C0465503000010B562B6FFF7F2FF30B585B001AC0E232381094D0195280001F06FF9A080280001F06BF9E0800023044A00217C
:4003400020000EF02BFF05B030BDC046E42500209826002010B50C004C287AD880003D4B1B589F463C4801F031F9002000F0DCFB002804D00021394801F0ACF869E038480D
:4003800001F024F965E0374801F020F961E0364801F01CF9354B1B78032B10D0344801F015F9012000F0C0FB002804D00100314801F090F84DE0304801F008F949E02F480E
:4003C00001F004F945E02E4801F000F92D4A1378507800021843B7210DF022F9FFF79EFF37E0214801F0F2F8274801F0EFF80022264B1A70002000F097FB002804D0010082
:40040000234801F067F824E0224801F0DFF820E002221E4801F04DF801221F4B1A7018E000221D4B1A7014E01C4801F0CFF81C4B1C60A3890E2B03D16068217AFFF74EFF16
:40044000FFF76CFF114A13785078000218430DF07FFC10BD78390100AC3A0100C83A0100F83A0100103B0100C43A0100A6260020283B0100443B0100783B0100AC3B010045
:40048000C83B0100AC260020DC3B010098260020F43B0100243C0100E0250020583C01009C260020F0B50025002711E0BB00C658F3B2FF22964308E06A008A181478A4198C
:4004C000527822700135013BDBB2002BF4D10137062FEBD9F0BDC04633220A4B1A600323094A1360094A136080221206084B1A60C0231B03074A1360074A13600022074B73
:400500001A60704708210240300030403000314000003A4000033A4040033A40000E3F4010B50A00002100F0CDFF10BD10B500F085FF03680C2B00D1FEE7FEE710B50300E6
:40054000084A1068C318084A9A1A802A02DC054A136005E000F072FF0C2303600120404210BDC046DC0E0020B826002070B50F4E0F4D13E029686B68AC68002202E001C919
:4005800001C30432A242FAD1E868002202E0002102C304328242FAD11035013E002EE9D100F052FFFFF7B6FEFEE7C046010000003441010010B50E4A136801218B431360DF
:4005C00000230AE0032B03D89A000A49505800E009489900094A885001332F2BF2D9FFF7B5FD034A116801230B43136010BDC04600001040000000002D050000000000203A
:40060000024B1B68012018407047C0460C002E401F2318401E3B8340014A13607047C04600E100E001BE704770B504000D001F2802D90020FFF7F6FF1034A40080239B0544
:400640009C4664442068256070BDC04610B5040006E0084B586800F047FC074B9C46644480231B029C42F4D8024B9868604300F03BFC10BDE00E00200080FFFF10B5034BF2
:400680001B7B584300F030FC10BDC046E00E0020F0B557464E46C0B483B0040000F02DFC0190E71E2D2F74D83F4B1B78DBB29C4208D83E4B1B78DBB29A463D4B1B78DBB29B
:4006C000994631E03B4B1B78DBB29C4208D83A4B1B78DBB29A46394B1B78DBB2994623E0374B1B78DBB29C4208D8364B1B78DBB29A46354B1B78DBB2994615E0334B1B7835
:40070000DBB29C4208D8324B1B78DBB29A46314B1B78DBB2994607E02F4B1B78DBB29A462E4B1B78DBB299462D4BDE5D2F2E09D92A2C07D919222B4B1A60052000F0D4FB66
:40074000192503E0274B1D683F231D40B54206D9234BDA5D234B1A60052000F0C5FB1F4B9C4664442378DBB21F4A13601F4B52461A601F4B4A461A600520FFF77FFFB542F2
:400780000AD2174BDA5D174B1A60052000F0ACFB02E00020FFF746FF019800F0B2FB03B00CBC91469A46F0BD40F3FF0F41F3FF0F42F3FF0F43F3FF0F44F3FF0F45F3FF0F45
:4007C00046F3FF0F47F3FF0F48F3FF0F49F3FF0F4AF3FF0F4BF3FF0F4CF3FF0F4DF3FF0F403D01002CFF0B4028FF0B401CFF0B4020FF0B4010B504000F4A116801230B4362
:4008000013600E4A0E4B1A600E4A1368802109020B431360002809D100200CE00120FFF72DFFFFF7EDFE002804D1013C002CF5D1102000E0002010BD60F02E40022000009F
:4008400078002E4010002E40034B1868C0231B02184000D00120704700010B4010B50D4B1A6801218A431A601A68022082431A60094A10683024A043203C20431060106866
:40088000093CA043014311601A68802109060A431A6010BD00F02E4000FF2E4070B51D4B1B6801241C40002802D0012816D02BE0184B19680122914319601968022081436A
:4008C0001960154B19682E3081432038014319601968093881430A431A6018E00D4B1A6802218A431A600C4A10680725A84301431160116830208143103801431160196839
:4009000001220A431A6002E00020FFF78BFE200070BDC04600F02E4000FF2E4010B500F0ECFA044A1368C02109020B43136000F0E8FA10BD00010B4010B500F0DEFA084954
:400940000A68084B1A408024E40122430A600A6813408022120213430B6000F0D2FA10BD00010B40FF3FFFFF70B5050000F0C5FA0400FFF769FF002803D0FFF7DDFF012189
:4009800000E0002108482840084A1568084B2B40184310601368012901D1FFF7BFFF200000F0AFFA70BDC0460404040010020B40FBFBFBFF10B5244B1B685B0715D5234B45
:4009C0005B685B070ED5224B596A042001401F4C62688A4362605A6A82435A629B69002B00D098470420FFF7BFFF174B1B685B0518D5164B5B685B0510D5154B596A80223B
:400A0000D2001140114842688A434260596A114A0A405A62DB69002B00D098478020C000FFF7A2FF084B1B685B030CD5074B5B685B0304D5064B1B6A002B00D09847802037
:400A4000C002FFF791FF10BD10020B40F40E00207C140020FFFBFFFF10B500F043FA10BD10B50023044A1370044A1370044A1370FFF7F2FF10BDC046AF260020A826002083
:400A8000AE26002010B590B0040014221F490BA800F00FFD1E4B1B78002B04D1FFF7E0FF01221B4B1A70002C2CD01A4B1C6008A805AA426006AB0893002101811B3119802A
:400AC000598017391971082313701231694401F0F9FD002817D1002302930193053300930BABCC2212010C490C4801F041FD002809D101220A4B1A70B332122109480EF09D
:400B000035FB00E0012010B010BDC046703D0100A4140020A0260020C0000020B10C0000A6260020843D010010B5022833D81E4B1B78042B31D11D4B1B785B0730D400288A
:400B40000BD11B4B1A0040321E2111822022596C0A805B6C10325A800EE001280CD1144B1A00403296211182C822D200596C0A805B6CFA2252015A800E4B18700C48403078
:400B80000BF0F4FE00280DD1084A117804230B43DBB2137006E0012004E00420FF3001E00420FF3010BDC046A6260020AF260020FC0E0020AE260020002901D00749223101
:400BC000002909D083790B70002303E05A1CC35C8B54D3B2052BF9D97047C046FC0E002003784078000218437047C04670B5050083890B2B1FD1043035332A0000210EF006
:400C0000CDFA041E11D16868FFF7EAFF830706D50A4B1B68290082204000984705E0074B1B6829000620FF309847054A137801218B43137000E00024200070BDA026002078
:400C4000AF260020024B00225A701A707047C046AC26002010B582B00400FFF7C7FF0A4B1B78DB070ED4002809D001A912238B70A3890B80C87020680CF0F2FF02E0206801
:400C80000DF066F802B010BDAF2600208379002B07D000200BE0C25C002A07D10133DBB200E00023052BF6D9002000E001207047F0B583B005000C007B4A117801230B43F8
:400CC000DBB213704C2800D9DDE08300774AD3589F4601AE0727377000237370300003F0F5FB377001237370300003F0EFFB704B1E683000FFF7CAFF00280CD0300001F0D9
:400D000009FC6B4E00213068FFF756FF30680121FFF752FF2AE0674B1F78674B18788001FC263601020032403F2139401143634B1B781B03F822520213401943604B1B7826
:400D40005B04FE22120413400B435E4E33701A0A72701B0CB370300001F0DCFB00213000FFF72AFF01213000FFF726FF00200BF08FFC01A83F230370002343700BF0A6FC32
:400D80000422514B1A707EE02278504B1A707AE02378002B77D16378002B07D14C4B0A22DA80AA329A804B4A1A6063603E4A137801218B43137066E03B4B1B789B0662D4E3
:400DC000454B1B78102B02D10522434BDA70434B187841490BF088FD01AB1880002804D03F4B1B6801A9362098472F4A117801230B43DBB2137046E00222334B1A7042E077
:400E00000422314B1A703EE02F4B1B78022B3AD0254A1278D20736D5234A1278520708D50322294B1A70204A137804218B43137029E01D4A1278120708D50422224B1A707F
:400E4000194A137808218B4313701CE0032B1AD104221D4B1A7016E0022221001F4800F028FB0022194B1A700DE0FFF7EBFE0AE06188B62900D9B72120880CF0FBFE02E06A
:400E80002000FFF7E7FE084B1A7811231A4209D0054A137801218B431370114B1B6821002800984703B0F0BDAF260020343F0100500F00207CF2FF0F7DF2FF0F7BF2FF0FD9
:400EC00078F2FF0F540F0020A6260020A8260020A8140020800D0020A0100020AC260020A02600207047C0460230800803D00138FDD1C046C046C0467047EFF3108072B638
:400F0000704780F31088704710B5FFF7F6FF044A136804218B43136030BFFFF7F2FF10BD10ED00E00160704701607047324B1A781202324B1B781A43314B1B781B02314973
:400F400009780B4330498B4201D1072A06D0D42109018B4206D1042A04D102E02B4B042200E02A4B2A490B602A4B1A602A4B1B781B022A4A1278134380229201934202D0E8
:400F8000002B02D002E0264B00E0254B254A1360254B1B781B02254A12781343244A934205D0244A934204D0052B05D103E0224B02E0214B00E0204B204A1360204B1B6857
:400FC0001B09204A1268AA2A15D1012B13D9164B1B780E2B0FD11C4B1B781B021B4A127813431B4A13601B4B1B781B021A4A127813431A4A1360704759F1FF0F58F1FF0F3F
:401000005FF1FF0F5EF1FF0F580B0000580D00006C002E4074002E405BF1FF0F5AF1FF0F0220000078002E405DF1FF0F5CF1FF0F0F0F000005050000050F000080002E40D5
:40104000EC0F00F0E00F00F06DF2FF0F6CF2FF0F84002E406FF2FF0F6EF2FF0F94002E4010B5FFF70BFB10BD10B5FFF7EFFA10BD10B500F04BF810BD10B500F04FF810BD6F
:4010800010B500F04BF8034800F02AF8032000F02DF810BD4911000010B5024800F046F810BDC0464911000000487047020200002B2070472B2070472B2070472B20704707
:4010C0002B2070472B2070472B2070472B2070472B2070472B2070472B2070477047C046014B18677047C0460000002010B50400FFF703FF044A1368C0218B43A4011C4340
:401100001460FFF7FEFE10BD0CE400E080225201014B1A607047C04600E100E080225201014B1A607047C04680E100E010B50400FFF7F4FF2000FFF7D3FF0320FFF7D6FF32
:40114000FFF7E4FF10BDC04610B512F0FFFB10BD002243088B4274D303098B425FD3030A8B4244D3030B8B4228D3030C8B420DD3FF22090212BA030C8B4202D3121209024E
:4011800065D0030B8B4219D300E0090AC30B8B4201D3CB03C01A5241830B8B4201D38B03C01A5241430B8B4201D34B03C01A5241030B8B4201D30B03C01A5241C30A8B42FE
:4011C00001D3CB02C01A5241830A8B4201D38B02C01A5241430A8B4201D34B02C01A5241030A8B4201D30B02C01A5241CDD2C3098B4201D3CB01C01A524183098B4201D377
:401200008B01C01A524143098B4201D34B01C01A524103098B4201D30B01C01A5241C3088B4201D3CB00C01A524183088B4201D38B00C01A524143088B4201D34B00C01A10
:401240005241411A00D20146524110467047FFE701B5002000F0F0F802BDC0460029F7D076E7704703460B437FD4002243088B4274D303098B425FD3030A8B4244D3030BF5
:401280008B4228D3030C8B420DD3FF22090212BA030C8B4202D31212090265D0030B8B4219D300E0090AC30B8B4201D3CB03C01A5241830B8B4201D38B03C01A5241430BC1
:4012C0008B4201D34B03C01A5241030B8B4201D30B03C01A5241C30A8B4201D3CB02C01A5241830A8B4201D38B02C01A5241430A8B4201D34B02C01A5241030A8B4201D342
:401300000B02C01A5241CDD2C3098B4201D3CB01C01A524183098B4201D38B01C01A524143098B4201D34B01C01A524103098B4201D30B01C01A5241C3088B4201D3CB00C5
:40134000C01A524183088B4201D38B00C01A524143088B4201D34B00C01A5241411A00D201465241104670475DE0CA0F00D04942031000D34042534000229C4603098B42DB
:401380002DD3030A8B4212D3FC22890112BA030A8B420CD3890192118B4208D3890192118B4204D389013AD0921100E08909C3098B4201D3CB01C01A524183098B4201D31F
:4013C0008B01C01A524143098B4201D34B01C01A524103098B4201D30B01C01A5241C3088B4201D3CB00C01A524183088B4201D38B00C01A5241D9D243088B4201D34B007E
:40140000C01A5241411A00D20146634652415B10104601D34042002B00D54942704763465B1000D3404201B5002000F005F802BD0029F8D016E770477047C046014B18681D
:401440007047C0465C1400200E4B70B500251E000D4CE41AA410A54204D0AB00F35898470135F8E712F054FE084B00251E00084CE41AA410A54204D0AB00F35898470135F8
:40148000F8E770BD1C4101001C4101001C4101002441010030B50024A24208D0035D651C0C5DA34201D0181B02E02C00F4E7002030BD002310B59A4203D0CC5CC4540133A7
:4014C000F9E710BD03008218934202D019700133FAE770470FB40B4B13B51C68002C05D0A369002B02D1200000F05AFA05AB049AA1682000019300F01FFC16BC08BC04B072
:401500001847C0465C14002070B505000E00002804D08369002B01D100F042FAAB69AC68002B02D1280000F03BFA254B9C4201D16C6808E0234B9C4201D1AC6803E0224B9C
:401540009C4200D1EC68A3891B0702D52369002B11D12100280000F0B9F800280BD0012040422BE0013B0136A360002B08DB23685A1C226019703178A3680029F2D10BE0F4
:40158000A269934201DB0A29F1D12200280000F045F8431CEFD1E2E7013BA360002B08DA22000A31280000F039F8431CD7D00A2004E00A2023685A1C2260187070BDC046AD
:4015C0007C4001009C400100BC40010010B5034B01001868FFF798FF10BDC0465C14002010B5002A12D00C78013A431C04700131002C01D19A1801E01800F2E79A4202D00B
:401600001C700133FAE7002800D1100010BD0023C25C0133002AFBD1581E7047F8B505000F001400002804D08369002B01D100F0B7F9234B9C4201D16C6808E0214B9C421D
:4016400001D1AC6803E0204B9C4200D1EC68A369A360A3891B070AD52369002B07D023682269FEB2981A636998420FDB08E02100280000F02BF80028F1D0012040421DE094
:401680002100280000F01EF90028F6D1A3680130013BA36023685A1C22601F706369984205D0A3893000DB0708D50A2E06D12100280000F007F90028DFD13000F8BDC046BD
:4016C0007C4001009C400100BC400100364B70B51D6806000C00002D05D0AB69002B02D1280000F05DF9314B9C4201D16C6808E02F4B9C4201D1AC6803E02E4B9C4200D163
:40170000EC680C22A35E9AB2110723D4D10607D409220120326037321343A381404242E0530713D5616B002908D023004433994202D0300000F02CFA002363632422A389BD
:401740009343A38100236360236923600822A3891343A3812369002B0BD1A0238022A1899B0092000B40934203D02100300000F0D1F90123A289134005D00023A3606369F4
:401780005B42A36103E0920700D46369A36000202369834207D10C22A35E1A0603D540221343A381013870BD5C1400207C4001009C400100BC400100F7B58A8905000C00C0
:4017C00013075AD44B68002B02DC0B6C002B19DDE76A002F16D000232E682B6080235B011A4001D0606D14E00123216A2800B847431C0ED12B68002B0BD01D2B01D0162BB1
:4018000002D12E6000205AE04022A3891343A38155E0A3895B0706D56368C01A636B002B01D0236CC01A00230200216A2800E76AB847A389421C06D129681D293AD8204A93
:40184000CA40D20736D50022626022692260DB0405D5431C02D12B68002B00D16065616B2E600029CED023004433994202D0280000F08EF90020606321E00F69002FC1D027
:401880000B680F60DB1B01930023920700D14B69A36003E0019B3F181B1A0193019B002BB0DD019B3A00216A2800A66AB0470028F0DCA389402201201343A3814042FEBD9B
:4018C000010040200B6970B505000C00002B01D100201CE0002804D08369002B01D100F05FF80B4B9C4201D16C6808E0094B9C4201D1AC6803E0084B9C4200D1EC680C2257
:40190000A35E002BE4D021002800FFF755FF70BD7C4001009C400100BC40010010B5024900F0B0F810BDC046C5180000002310B5040003604360836081814366C2810361F1
:4019400043618361190008225C30FFF7BBFD054B24626362044BA362044BE362044B236310BDC046B5220000DD220000152300004123000070B568254B1E5D430E002900D3
:40198000743100F051F9041E08D000212A00016046600C30A0606832FFF794FD200070BD836913B50400002B28D18364C3640365134B144A1B6882620193984201D1012379
:4019C0008361200000F020F86060200000F01CF8A060200000F018F80022E06004216068FFF7A4FF01220921A068FFF79FFF02221221E068FFF79AFF0123A36113BDC046DA
:401A0000784001001D190000F8B51D4B06001D68AB69002B02D12800FFF7C2FF4835AC686B68013B05D40C22A75E002F10D06834F7E72B68002B01D02D68F0E704213000A1
:401A4000FFF798FF28600028F6D10C23336016E0012320005B42E3810233A38167662760A760676027616761A7615C3008223900FFF728FD20006763A763A764E764F8BD89
:401A800078400100F7B504000700002601914834002C16D06368A5680093009B013B00930DD4AB89012B08D90E22AB5E013304D029003800019B984706436835EDE7246816
:401AC000E6E73000FEBD000070B50E001D000E23C95E90B01400002906DA00232B60B3891B060FD540230FE001AA00F055FC0028F3DBF023029A1B021340054A9B185A4249
:401B000053412B608023DB000020236010B070BD00E0FFFFF7B502268B8905000C00334210D101AB6A46FFF7CFFF00990700280000F07AF800280CD10C22A35E9A0523D437
:401B40003343A3812300473323602361012363611AE080220D4BAB62A38920601343A381009B20616361019B002B0AD00E23E15E280000F023FC002803D00122A389134350
:401B8000A381A3891F43A781F7BDC0461D19000070B50500002944D00C1F2368002B00DAE418280000F03BFC1E4A13681100002B02D16360146031E0A3420DD92268A018A7
:401BC000834203D118685B688218226063600C6024E0A24203D813005A68002AF9D11E689819A0420BD12168711858181960824214D110685268411819605A600EE0A0420B
:401C000002D90C232B6009E021686018824203D1106852684118216062605C60280000F0FFFB70BDDC250020032370B5CD1C9D43083506000C2D01D20C2501E0002D01DB25
:401C4000A94202D90C23336048E0300000F0E7FB234B1C681A002100002913D00B685B1B0DD40B2B02D90B60CC181EE08C4202D1636813601AE04B6863600C0016E00C00F4
:401C80004968E9E7174C2368002B03D1300000F0FFFA20602900300000F0FAFA431C18D00323C41C9C43A0420DD12560300000F0B7FB200007220B30231D9043C31A0ED04B
:401CC0005A42E2500BE0211A300000F0E1FA431CEBD10C233000336000F0A2FB002070BDDC250020D8250020936810B5013B9360002B05DA9469A34208DBCBB20A2B05D08B
:401D00001368581C10601970C8B201E0FFF786FC10BDF8B506000F001400D518AC4208D021783A003000FFF7DFFF0134431CF5D100E00020F8BD0000F0B59FB006000F00A3
:401D400002920593002804D08369002B01D1FFF727FE7F4B9F4201D1776808E07D4B9F4201D1B76803E07C4B9F4200D1F768BB891B070AD53B69002B07D0002306AD6B6111
:401D800020336B761033AB763DE039003000FFF79DFC0028F1D001204042D6E0059A111D12680591002A00DA7FE00992013423782E2B00D18DE021780322684800F024FB75
:401DC000002807D0654B2A68C01A4023834013432B6001342178631C062261480293297600F012FB002800D19DE05E4B002B00D090E00722059B07339343083305936B6968
:401E0000039A9B186B61029C2378002B04D1029BE31A049312D003E0252BF8D00134F3E7049B029A39003000FFF773FF431C00D186E06A69049B944663446B612378002B09
:401E40007ED00122002352426A6002A95432521801342B60EB60AB601370AB6521780522414800F0D1FA002808D03F4B2A68C01A0123834013432B600134EFE72B68DA06EC
:401E800004D55322202102A8121811701A0704D553222B2102A81218117022782A2A00D17CE7099B00200A2105E05242EA60022213432B607AE72278303A092A04D84B4353
:401EC00001349B180120F6E7002800D16FE709936DE763782A2B0AD1059B02341A1D1B680592002B01DA01235B42079363E700230A201A0001346B6021783039092904D869
:401F00004243013452180123F6E7002B00D152E7079250E705AB00933A00144B2900300000E000BF07E005AB00933A000F4B2900300000F08BF80390039B013300D05EE79F
:401F4000BB895B0600D526E70B981FB0F0BDC0467C4001009C400100BC400100E2400100E640010000000000DC400100131D0000F7B5170001938A680B6900900C00934259
:401F800000DA130022003B6043321278002A01D001333B6023689B0602D53B6802333B60062523681D401ED0230043331B785A1E9341226892061CD53020E1184331087077
:401FC00021005A1C45310978A2184332023311700FE022000123193201990098089EB047431C0ED00135E3683A689B1A9D42F0DBDAE72200019943320098089DA847431CE3
:4020000002D10120404220E006232068E1683A6803400025042B03D18D1AEB43DB171D40A3682269934201DD9B1AED180027BD420AD0220001231A3201990098089EB0479B
:40204000431CDED00137F2E70020FEBDF0B58BB006920A0043320793059004920A7E0C00109B6E2A00D1ABE011D8632A22D009D8002A00D1B5E0582A00D0C5E045310A70B8
:40208000814A4FE0642A1DD0692A1BD0BCE0732A00D1AAE009D86F2A29D0702A00D0B3E0202209680A43226037E0752A1FD0782A33D0A9E00E001A684236111D19601368AA
:4020C0003370A4E021681A68080606D4490604D5111D19600023D55E02E0111D19601568002D3BDA2D23049A6D42137036E021681A68080606D4490604D51568111D1960E4
:40210000ADB202E0111D196015685F4B227E039308276F2A1DD00A271BE022007821453211705A4A19680392081D226818600D68100602D4500600D5ADB2D30702D5202306
:402140001A4322601027002D03D1202322689A4322602300002243331A7002E00A274A4B03936368A360002B09DB0422216891432160002D05D1049E002B11D07BE0002D7F
:4021800079D0049E28003900FFF768F8039B013E5B5C280033703900FEF7DAFF051EF1D1082F09D12368DB0706D563682269934202DC3023013E3370049B9B1B23612BE0B7
:4021C00009681A68080607D4490605D5111D19601368A28A1A8004E0111D1960136862691A600023049E236116E01A68111D1960166800216268300000F006F9002801D0BE
:40220000801B6060636803E0260042363270012323610023049A1370079B09AA00932100069B0598FFF7A4FE431C02D10120404227E02369320006990598079DA847431CC2
:40224000F4D0236800259B070FD4099BE068984217DA180015E022000123193206990598079EB047431CE1D00135E368099A9B1A9D42F0DBE9E72600039B42361B78337063
:402280008EE70BB0F0BDC046ED400100FE400100002370B5064C050008002360FEF74EF9431C03D12368002B00D02B6070BDC046B026002070B50C000E25495F00F0B2F855
:4022C000002803DB636D1B18636503E0A289024B1340A38170BDC046FFEFFFFFF8B51F008B8905000C001600DB0505D50E23C95E0022022300F074F8A289054B280013406A
:40230000A38132000E23E15E3B0000F01FF8F8BDFFEFFFFF70B50C000E25495F00F060F8A389421C03D1054A1340A38104E0802252011343A381606570BDC046FFEFFFFF45
:4023400010B50E23C95E00F015F810BD70B50500080011000022064C22601A0000F09EF8431C03D12368002B00D02B6070BDC046B0260020002370B5064C05000800236006
:4023800000F064F8431C03D12368002B00D02B6070BDC046B0260020002370B5064C050008001100236000F059F8431C03D12368002B00D02B6070BDB0260020002370B539
:4023C000064C05000800236000F050F8431C03D12368002B00D02B6070BDC046B026002070B50500080011000022064C22601A0000F044F8431C03D12368002B00D02B6093
:4024000070BDC046B0260020C9B28218904204D003788B4202D00130F8E70020704770477047000070B50500080011000022064C22601A0000F02AF8431C03D12368002BFB
:4024400000D02B6070BDC046B026002058220120014B40421A607047B026002058220120014B40421A607047B02600205822024B00201A607047C046B02600205822012009
:40248000014B40421A607047B026002058220120014B40421A607047B026002058220120014B40421A607047B0260020134A1088810703D08107890F401A001D1179103056
:4024C000484381B25088820703D08207920F801A001D800040180A494030098980B2CA0701D0503080B2890706D504495422091F09785143081880B270470000AC10002006
:40250000BC14002010B501F007FF10BD10B500F05BFA10BD10B50749044609780220002907D1204601F048FF002802D120460AF0C1F910BD4812002070B504460120002C92
:4025400012D02368002B0FD0616800290CD0074D06222889208118462968FEF7AAFF6968606809780170002070BD0000BC140020FFB585B0002768460E9D07734F481C4617
:402580000078002802D0082009B0F0BD10990F9801900095029105A807C800F007F90028F2D16946264603AB84460873002C19D0002115E08A00B75A082F09D9901980782D
:4025C000002805D0083FB7521878401C187005E0002914D00027B75290198770491CC9B2A942E7D360460028CED10F98002809D0109901F041FA002804D00120C4E7012000
:402600008446EFE701F088FE2D480021416081600599016021888180022D07D3A1798171A17AC171A1890181218A418100211EE0481C19E082008B00A75AE65ABE46BE4279
:4026400011D26F463E80B4461E190296B678BE7001967646E6521719029EBB78B3706646A652019EBE70401CA842E3D3491CA942DED3134822460C3000906846037B079965
:40268000069800F01BF90028B8D168460B4C007B60700B480C3001F06FFE0028AED1084907480C3107F064F90028A7D107F07EF90028A3D10121217066E70000A610002032
:4026C000B0140020F8B5054636480F460078002802D002242046F8BD002F60D000243249002D16D02A89D0070DD02868002808D003881B3BE12B04D24088FB2801D81B28A6
:4027000001D2012409E0900707D56868002804D1F7E70020088108604860002CDAD122482E8906811F481B21801D01804180042101711C490020891C0870F00705D019487A
:402740000622801D2968FEF7B4FE1749B00703D56A68144812788270124D0E46AD1D281F0D60486001F04EFE284601F03DFE30890DF04CFE30890DF03DF828880DF040F843
:4027800030890DF0ADFF03461033FFF78FFE1F21C018890140183880A91F88809AE7012498E70000A6100020BC140020FFB58446384F1C460020BB883F78054602460646DB
:4027C000002F11D100290ED0029999420BD36146002908D0002C06D00A99002906D02E4B0B99994202D2012004B0F0BD002144E0AB001F19BF78002F3BD0E35A002B38D0CA
:402800007B43591889B22B0000F04AF8050410161C253100A7782388BC46FF27233BEB37BB4222D26346032B1FD322E0A388002B1FD0302B19D31CE02389002B19D0282B67
:4028400013D316E0A289002A13D01346134F233BBB420AD20DE0268A002A0AD033460F4F233BBB4201D2964203D901200EE0002001E000280AD16D1CEDB2099B9D42B7D3B0
:402880001C2463435B1802998B42ACD89642AAD8AAE70000A610002079020000BAFF000030B47446641E2578641CAB4200D21D46635D5B00E31830BC18470000FFB583B037
:4028C000002469460C801F4606468C80002806D00598002803D004983043800701D0012466E0002FFBD03449049809888842F6D3FEF7D2FBFEF7C0FB00F012FC002855D15F
:4029000000F07AFD002851D12C49084601F0E8F805042D0C4AD12A480499066081800021C18007810C98007AC00704D0684601F00CFD040007D10C98007A800703D501A832
:4029400001F00CFD0446BF1DFEB2002C20D13146059800F05DF804001AD10DF0CFFE040016D16A461088928808368518144AF1B29088D288AEB29319984207D3401B801A08
:4029800080B201F09DFB050007D000E0FF25012400F05EFA002D04D008E0F8B200F01CF9F6E700F081FA07490120087000F0CAFB204607B0F0BD0000AA100020FD2A0000C6
:4029C000C8140020B210002010B503480078012801D101F017FA10BDB210002070B5084B0446DA889E8800205518B54206D81D68AA182260DA885118D98070BD032070BDAF
:402A0000C81400200148008970470000C8140020F0B587B007460D4600208900009006916846FFF7DBFF844600285DD1304800990160002117E02E4B88001A68062911548A
:402A400006D22C4C0419667882185670628805E0C419203CA67A8218567022891B68C018491C4280C9B2A942E5D300242DE0601CC2B2059025E01E4FA30039689600581866
:402A800040887118039604904E88B04217D938466F46FE80B6464F786E4677710297049F4F800168039F5E18767879184E700168764659184E800068029F18184770521C45
:402AC000D2B2AA42D7D30598C4B2AC42CFD36046002809D168460699FFF780FF8446002802D1054900980860604607B0F0BD0000B410002048410100B81000207047000085
:402B000010B5002809D005494A68002A05D0011F08788000105801F081FA10BDB410002010B50446FFF76EFFC0B2801DA0420CD307484068002808D0A100405801F0E0F9EF
:402B4000002801D00470001D10BD002010BD0000B4100020F8B516460D460446FFF752FFC0B2801DA04203D20020C0430090F8BDB2B2E9B2684601F0E9F90099481C03D0C2
:402B8000024AA000526811500098F8BDB4100020F8B50746FFF736FF801DC6B20A49002005460C680DE06178002907D06188B94202D32078FFF7B4FF002804D1241D6D1CEA
:402BC000EDB2B542EFD3F8BDB410002010B5002801D0FFF795FF10BD70B506460948002504680BE06178002905D062882078121D0023FFF7AFFF241D6D1CEDB2B542F1D31E
:402C000070BD0000B4100020FFB581B00A9F16000C4620D000F0F2F8054604281BD0002F0CD03846FFF7B4FF20492A0151184860002810D03A460499FEF73BFC1B492801AC
:402C40000E504618778101980570200406D47D20C000444304E0FF2005B0F0BD6404640C00F0BAF80746042807D000F04FFAA0420BD800F04BFA201A03E0204600F0AAFA37
:402C80000020F06035720020E6E700F03FFA009000F0B6FA00980121001B009000F0ECF802493A0151180098C860E6E7D4140020F8B5060116483418217A042903D0E068B9
:402CC000002802D017E00020F8BD00F01FFA054600F096FA00F0A0F804280CD001010C480F18F8680021451900F0C6F80020F860284600F06FFA6068054D002801D0FFF758
:402D000065FF042020720020A8516081E060DAE7D4140020FEB500266A46304601232549050169180D7A042D02D0C96800291BD000211154401CC0B20428F0D3002468467A
:402D4000005D002830D01B48210108184189476805680291002101604160042241810272C160002E02D015E01354E3E700F054F804280ED001010F4808180190C66800214B
:402D8000304600F079F801980021C160304600F021FA0126002D07D038460299A847002F02D03846FFF712FF641CE4B2042CC6D3FEBD0000D41400200EB5002005216A46CC
:402DC0000090118150810348694600680EF0FBFA0EBD0000BC100020074A0020010189180B7A042B02D0C968002903D0401CC0B20428F3D370470000D41400200549002020
:402E000002015218127A042A03D0401CC0B20428F6D37047D414002030B50A4B04200A4C00210A011219157A042D06D0D268002A03D09A4201D808461346491CC9B20429D5
:402E4000EFD330BDFFFF0000D41400207047000030B50020074C05460423020111190B72A5504D60401C4D81C0B2CD600428F4D330BD0000D414002030B5094C00231A01A7
:402E80001219157A042D04D0D568002906D02D18D5605B1CDBB2042BF1D330BD2D1AF7E7D4140020002070471CB5002469460C70142001902346054A05480EF089FA0448FE
:402EC0000068401C00D1FF2420461CBD252F0000BC1000203EB5124A0146FF2000230124126800290DD0012914D0042908D104206946009308814B8110460EF064FA80B26B
:402F00003EBD6846009304814381694610460EF055FAF4E768460093048143816946EBE7BC10002070B545890468416800890300FFF7B6FC08280509091E2228262800208F
:402F400005F0D2FB1EE0022908D0C8B22A4621460CF09CFB2046FFF739FE13E002202A4621460CF093FB2946204600F00DF809E000200DF027FF05E02046FFF7CBFE01E0C0
:402F8000FEF7ACF8002070BD014B0022DB681847C010002070B5448905680089022803D0032809D0FF2070BD2246094C0023A46829460120A04708E0FFF7A4FA241DA2B282
:402FC00000232946022006F086FB002070BD0000C010002070470000024800214160018041807047C010002070B50C46002186B016460391012802D0022859D116E003A90E
:40300000012006F0BDFB01281BD1039D324621462846FEF74EFA0095287801900220694608814E816846FFF7B5FF41E0214D002B686809D0049004A9022006F0A1FB0128BA
:403040001DD0022006B070BD002812D0298840182146FEF72EFA28880024801980B228806988091D884206D12C801348FFF792FF03E00320E6E788421AD96C6018E004984A
:403080006860E278A378110219430B4A698000231060E3565360032313815181A1788170E178C1706178417021780170042028800020C7E7C0100020141500203EB51546D2
:4030C0000C46022803D004280CD000203EBD0091019002206946088107484A8100680EF072F907E00CF0D2FA044B0022DB6829462046984701203EBDBC100020C0100020E8
:40310000014AD16090607047C0100020034801688068081A0A214843000970472015002010B5FDF7ADFF482204490548FEF7C1F903490120C870002010BD000064410100A3
:403140002419002010B5FDF793FF10BD70B5134C2368002B08D0207B1149C20705D04008400020738868A08070BD88680B4AA18880B29268814203D90A4D691A091802E0C7
:40318000814202D2411A5118A160A080A0689842EAD30EF035F900F013F870BD20150020C0102E40FFFF000010B508461946FFF7A7FF10BD704710B5FFF780FF10BD000076
:4031C00003480021016041608160C1607047000020150020024610B5FF20002A0CD0FFF7EFFF064C0321207B0843207310010A21FEF734F82060002010BD0000201500202F
:4032000000B504480A21806848430209FFF7D8FF104600BD201500200248007B8007C00F704700002015002010B54B490868002802DA4A4B01221A7002229043086048488A
:4032400000694549C00B4031096A0246C907C90F0A4259D0012000F097FA3F480E216C30FDF762FE3E4820218430FDF75DFE3C4814219C30FDF758FE3948FF21C131A430FB
:40328000FDF752FE3648FF212F31B030FDF74CFE33483449BC30FDF747FE31483249AC30FDF742FE30492E48491CB430FDF73CFE2B482E49B830FDF737FE29482C49CC304A
:4032C000FDF732FE26482B490830FDF72DFE24482949A830FDF728FE214828498830FDF723FE1F4826498C30FDF71EFE1C481921C9029030FDF718FEFDF718FEFDF7D4FE55
:40330000C0B2022812D01FE000290BD0002101420AD0114801216030FDF706FE0120FDF7A3FE97E70121F2E7FF2010BD15491648FDF7FAFD14481549001DFDF7F5FD1248F2
:4033400000210830FDF7F0FD54200449C043891C0870002010BD000000F02E40D010002000002E40320300002F3F00003102000010520000EC160000FA12000031D0000032
:403380003AE300009956000080012E40F80F000070B50646581C80B245086D00002408E0304600F0C1F81055000A1119A41C4870A4B2AC42F4D3D80705D0D0182038D15CD2
:4033C000C47FD454C17770BD30B50A4C002100195B1E07E0541864782502545C2C430480891C89B29942F5DB994201D1515C018030BD000000102E4010B5FF2000F0C4F9B4
:403400000F49FF2048700E481021801D41800121417001700A490020C91C4870FFF704FF04000AD100F010F907210648FDF77AFD044807211830FDF775FD204610BD00001D
:40344000D0100020CC112E4070B5002405465B1E0AE0284600F068F8010A161971702D1D1055A41CADB2A4B29C42F2DB9C4203D1284600F059F8105570BD000070B5002129
:403480000A4D5B1E0AE0541864782602545C344346193480001D891C80B289B29942F2DB994202D1515C4019018070BD00102E40F0B50599091FCFB200217E1E0BE05418F1
:4034C00064782502545C2C43164D45192C80001D891C80B289B2B142F1DBFC0712D01C78515C24020F4A0C4381180C809C785D78001D210280B2294384182180001D80B2E3
:40350000D9780CE059781A7809021143054A84182180001DD9789B78090280B2194380180180F0BD00102E40014940180088704700102E4010B50B490020487000F084F8E6
:40354000002000F047F9002000F034F907210648FDF7E8FC044807211830FDF7E3FC002010BD0000D3100020CC112E4010B50B46062812D006DC01280CD0032801D1FFF7A6
:40358000D9FF10BD0A28FCD00B28FAD105480078107010BDFFF730FF10BD1146184600F035F910BDD6100020F8B5244DAC6A0127A007234E002816DA307806280ED1286AED
:4035C000384328621F480069F903084381B21D481030FDF7A9FC042000F0D6F8174802212830FDF79FFCE00718D000F017FF01280FD1002000F064FF062000F0C5F8104976
:40360000FF20C91E48707078002802D1686B384368630A4801212830FDF784FCE0050BD53078042802D1052000F0AEF80348FF2101312830FDF776FCF8BD000040F02E40BB
:40364000D310002000002E4010B503212348FDF76BFC0120FDF704FD20483038406A204C80076178800F890001431C480C38FDF75BFC6078002808D0401E0221814018202D
:40368000FDF7D6FEC000083800E0B82081B21548FDF74AFC1348032109021438FDF744FC10481149B830FDF73FFC612189010F48FDF73AFC0D480321001FFDF735FC0C494E
:4036C0000C48FDF731FC0B480B496038FDF72CFC084801218838FDF727FC10BD70F02E40D6100020D8102E4090890000041E2E40FF0F000058122E402090000008490878AA
:4037000006280BD148780749002803D1486B400840004863C86A01221043C86270470000D310002040F02E400148007870470000D310002000B50300FFF7B2F8080D050D69
:403740000B070507090D012000BD032000BD042000BD022000BDFF2000BD0000074A9168D26889B2064B92B2994204D105498A4201D1012100E000210170704780002E4092
:4037800033D000003FE3000010B50446FDF774FC072C01D9FF2C01D102480470FDF768FC10BD0000D31000200149487070470000D010002010B5064A012805D01921C902B0
:4037C0001046FDF7B1FB10BD1D21C902F8E7000090002E4010B50A4A141D012808D009491046FDF7A1FB08492046FDF79DFB10BD04491046891CFDF797FB0349491DF3E733
:4038000088002E4031D000003AE3000070B50C460546FDF749FCC0B202280E49287804D0FF2810D04C280CD810E0FF2809D10A4AD0680004800F032801D0087807E0906947
:40384000000A553803E00878207070BD4F382070087070BDD210002000002E40F0B50122002834D0002932D00424420600D00524792342065B06D21800D0641C03460022F3
:403880001EE00C2516466E43124D00277519AF72104F002ABB51696007D0661EB24209D10D4E86197606760E05E05E06760E8027BE1B00E080269B198919521C2E81D2B24C
:4038C000A242DED303480549006B002288611046F0BD0000AC17002079020000DC10002018B50020694608700A48006900280ED0132149014018047E684604704F21C9002F
:40390000054800F059F8A04201D0012018BD002018BD0000DC10002030150020074900200C2242435218927A012A05D0401CC0B20628F5D30020704701207047AC170020FB
:40394000F8B50E000446154609D0194F19497868A04202D94018A04201D38D4201D90120F8BD31462046FDF795FD00281ED02A4631462046FDF79DFDE8B200210C224A4350
:40398000D21913895568EE18A6420BD90126641B1B1B9672834209DA1469C01A044AC0B220329676491CC9B20629E7D30020F8BDAC17002079020000034610B5002002467E
:4039C00004E09C5C2018521CC0B292B28A42F8D310BD000070B500F05FF8084C064A216907480D46FDF765FD05492846FFF736FFFFF776FF207070BD79020000DC10002003
:403A000030150020002070470020054A002902D0012902D002E0906000E0D06000207047DC10002070B5084C154608460549E26889182A46FDF73DFDE0684019E06028B26B
:403A400070BD000030150020DC1000203EB50A226946FFF7E7FF044606480A2200686946FDF718FD002802D00020C0433EBD20463EBD0000E0100020002802D0044A914276
:403A800001D2FF20704703494A6108610020704779020000DC100020024800218160C16070470000DC10002070B5074C15460548A26880182A46FFF743FFA0684019A060A4
:403AC00028B270BD30150020DC10002010B503490A220968FFF7E8FF10BD0000E010002010B50F4A002313600E4A13600E4B18600E4801600E49012008600E49086000023E
:403B000090600E490C4808600D4914300860FF381538506000F0BCF800F0CAF9002010BD10110020F810002024110020281100201411002004110020F41800200811002012
:403B40001C110020014610B50020002910D0094B1A689C685118A14209D25868196080188A0704D08A07920F891A091D196010BD002010BDF8100020F8B50024164E671E7C
:403B8000321F3D463168136806E01422624310328A58521C1BD0641C9C42F6D36A1C14D02C461422544322460C3288500C214843FFF7C8FF3168002808510AD0316800206F
:403BC000103408517068401C70602846F8BD2546E4E73846F8BD000008110020F3B50026F64381B000281BDB1E490968884217D80299002914D01B4F142204463F1D5443F3
:403C00002546396810354859401C09D0FDF734FA38682F1F4159C359994203DBFDF728FA3046FEBD214608310091465801590C20704308180C220299FDF73BFC0948761C98
:403C4000001D0068C159B14200D100260549009A091D865008684159491C4151FDF708FA0020FEBD04110020002803DB07490968884202D90020C043704704491422091DE1
:403C800009685043103008587047000004110020F0B500200D4A451E0346171F50600FE014260146714314680E1DA3510C461668083433511668083435511468401C6350AC
:403CC00039688842ECD30020F0BD000008110020F3B50026F64381B0002841DB2349096888423DD8029900293AD0204F142204463F1D54432546396810354859401C2FD05F
:403D0000FDF7BAF93868415900292BD0211D009146580C21005971430F46C1190C220298FDF7C7FB11480021001D0068761C00590C34C0190160416081600C48001D00686B
:403D40000159B14200D100260849009A091D865008684159491E4151FDF78AF90020FEBD3046FEBDFDF784F9FAE7000004110020FEB504460D4600201E49089E0860471EC1
:403D8000009001900290002C11D0486885420ED2002A0CD0002E0AD0642E08D808460C3001681C2068430C18207A002801D03846FEBD0120226020721846FFF7DDFE60607E
:403DC000401C13D06681A6810A4827610C3067610179A94200D205710021684601810A462846029B00F040F82846FEBD00202072DDE700001011002038B50124009400F0A1
:403E000039F838BDFEB50027164EFF433D4600240EE01C20316860430818017A002906D04068FFF721FF002801D0254603E0641C3079A042EDDA681C12D01C2130684D4393
:403E40004419FDF719F969466068FFF741FF0546FDF70EF9002DD9D1216868468847D5E7FEBD00001C11002038B50024009400F001F838BD1FB500220C49541E0A60002879
:403E800011DB496888420ED808491C220C31096850430818406801A9FFF7A0FE401C02D0002004B010BD2046FBE7000010110020F0B50021114A4D1E174611710C3F0B4680
:403EC000BD6016E008461C2460431668041D355114680646235014680836A3551468361DA353044616680A34335318301468491C255078688142E5D30020F0BD1C11002008
:403F000038B500210091002811DB0F49097888420DDA0D4D04010C3529680859002807D0201D0818694600F06FF9002801D0002038BDFDF7A1F828680F34015D491E0155C6
:403F4000FDF796F8009838BD2C110020F7B582B0002502986E1E06602E48D21C024017462D4A2C4610460C380178106805E02301C358002B0FD0641CE4B28C42F7D3711C66
:403F800028D03401211D40180191039900F02AF900281FD101E02646F1E71F48016820460C300F521C480399026820460E30115419480399026820460F30115403987843B3
:403FC00000F0A0F8144900280968085102D00024009011E001251AE00F48016801980818009900F02CF9002801D0012502E00098C0190090641CE4B203988442ECD3002DC7
:4040000005D10298066004480179491C0171284605B0F0BDFCFF000038110020F8B50D4600216A468C461180002839DB23490978884235DA214B04010C3319680A59002AE5
:404040002ED020460C300B5A801C0E5C184670438018954224D3854222D2002006E007465F43BF18AF4206D0401CC0B2B042F6D36046002814D0114E271DC8190C366A46BF
:40408000294600F006F900280AD168460088012808D030682946C01900F0D1F8002803D00120F8BD0020F8BDFCF7E6FF30680F34015D491C0155FCF7DBFFF3E72C11002059
:4040C000F8B50F46002400F031F8002817D10C4900220B460C334A600EE021011D680E466A501D680C36AA53B61C1D680F31AA551D68641C6A54E4B2BC42EED31A71F8BD6B
:404100002C11002000280BD0C01C074A81085068890053884118994203D893685160181870470020704700002C110020F8B5064600200F4D009029700C0121466846FEF7C2
:404140004DFC00280CD129460C3100980860301B001F84B221466846FEF740FC002801D0FF20F8BD6C800098A8600020F8BD00002C110020F8B5002827DB19490978884250
:4041800023DA174C05010C342168485900281CD028460C30085A009028460E300E5C401C0E5420682F1DC01900F064F800280CD12068002445590EE0094829460C30006811
:4041C000C01900F03CF8002801D00120F8BD00982D18641CE4B2B442EED30020F8BD00002C11002030B50D4604000BD0A800FFF789FF6060002805D000202570C043608085
:40420000002030BD012030BD70B50D46040005D0002D03D00220205E002801DA012070BDFCF72AFF0221615E60688900405828606088401E6080FCF71BFF002070BD70B50D
:404240000D46040007D0002D05D002212078615E401E814201DB012070BDFCF70DFF6088401C00B26080616880000D50FCF700FF002070BD10B5040009D02278002160686A
:40428000FDF720F90020C0436080002010BD012010BDF0B500231D46002802D00224045F0AE00120F0BD46689F00F6598E4201D1012503E05B1CDBB29C42F4DA1570002011
:4042C000F0BD00000148007870470000401100207CB505460024FEF715F9A8796946087000A8062229460130FDF7E3F80021684604F0C0FC0C2806D0072806D01F2806D053
:40430000122806D006E0022404E0042402E0272400E0012420467CBD10B500F05FF9FFF703FAFFF707FA10BD70B504460025FEF7E9F8002C06D0A079012803D8214602F0DE
:4043400063FC00E00125284670BD01460120002902D05020088000207047000001460120002905D0034854220078504308800020704700004211002010B502460D49FE2086
:404380004870032410460DF041FB002810D10DF0E5FA00280CD105F04FFA002808D100F013FB002804D104F00BFF002800D10024204610BD4011002070B5002504460028F0
:4043C0000ED0A07901280BD8FEF79CF8A0790028204602D002F0A6FF03E002F07BFF00E00125284670BD0000014610B50120002904D006220248FDF75CF8002010BD000060
:404400004C11002001460120002903D0087802490870002070470000421100200148007A704700002C1A002038B504460120002C20D0617801291DD800290BD0FF25E53580
:40444000FEF760F80C4828180088C0B22070072803D00EE0FF25CD35F2E70020694608706846FFF77BF969460878012801D108202070002038BD000000102E40014A0021A2
:40448000926810474011002008B500226B461A7026280CD0094A342852680BD0352805D1900703D50021352005F0A2FA08BD19462620F9E7D007F9D03420F5E7401100207E
:4044C00001490872704700002C1A0020F8B504460120002C26D06178012902D92278092A20D8002905D0FF25E5352078092803D004E0FF25CD35F8E708202070FEF702F896
:404500002078114F114E08280DD00020FFF762F970780128207810D00D4969180880FE2070700020F8BD0120FFF754F90720B8810549203188800120F2E7B881024821786A
:4045400020308180EBE70000C0112E404011002000102E4070B50E46050001D0002400E00C4C002C11D0E28A500609D5D107C90F022002F06BFFE08A40218843E08204E088
:40458000D107C90F012002F061FF3146284602F049FC70BD8C190020F8B50546002004460D4E009013E022466946284600F0C2FF0098002801D00DF00BFAA878214602F048
:4045C0008BFAA878214602F079FA641CE4B2308AA042E8D8F8BD0000581A002038B51E4CFFF7A2F8042813D0052811D0062812D003282AD007280AD10020694608700246BF
:404600000120FEF7B3FFFFF78FF80128FBD138BD00F077FB38BD02F0B5FA00F072FB02F015FB8007800F0228F4D10C4841880029F0D05B21095D0029ECD101210170A07D71
:404640000140022002F002FF38BD02F09FFA0120FFF79AF838BD00008C19002066110020F8B50646002402F05FFF0546304602F075FF03460A480021068A0DE001228A40B0
:404680001046174628401F40002803D0002F01D1224394B2491CC9B28E42EFD82046F8BD581A00201CB50020694648706846FFF7BBFE01AA69460A20FEF758FF694604205D
:4046C00008561CBD70B50D4601F01AFB04000BD02079002808D0FDF715FFE178A0782A4602F026FC002070BD022070BD0148007870470000641900204030C07E002800D039
:404700000120704700B500F001F800BD902148430749084A40186030417F491CC9B24177D289914201D300214177C8B2704700006C190020581A002013B501F0E1FA04004D
:404740000BD001F07EFE002807D0214601AA0A310620FEF70BFF00201CBD02201CBD000010B50C4601F0CCFA00280AD001F069FE002806D0224604490A20FEF7F7FE00207D
:4047800010BD022010BD00004D190020F3B581B0074601460026029802F0BEFE0446002F01D0002500E0154D002D21D0284601F0DDFA032C04D13946029802F009FF064674
:4047C0003846029902F07AF9032C06D0002C10D00121384601F0D0FB03E03146384603F0FDF8284602F05EF80221284602F074F8FEBD3846029902F061F9FEBD8C190020C9
:4048000010B5044600F066FA002804D103F0B0FD002801D00C2010BD2078611C02F08AFCFF2801D01F2010BD02F0D0FCFF280AD02178621C02F0D0F8044821780068026BAF
:40484000601C904710BD072010BD00008C11002010B503F08DFD002801D00C2010BD02F04BFC03480068C06A8047002010BD00008C11002070B50D46044610210CF0E8FFD6
:404880001021601806460CF0E3FF334610221946204603F09BFD102130460CF0D9FF02202870204604F0C2FB70BD0000F8B504464078217802028006870FE0781143A6787F
:4048C00009050002090D0643084601F019FA00210546F2B2002812D0002C10D0022F0ED0032F0CD0002A0AD00279092A07D0002A05D0134A5A23527E1B5C9A4207D828899F
:40490000002104F0C8FA20460DF062F8FF21002914D10C48224600682946436930469847C0B2FF280AD128464030817EF2B2491C8176FF232146284600F0E3F8F8BD000059
:4049400024190020A81100200020704710B5044603F00EFD002801D00C2010BD2078611C02F0E8FBFF2808D002F020FB044821780068426B601C904710BD1F2010BD00000F
:404980008C11002010B500F06BF904F019FC002010BD10B5044600786178E2780843A17811430843217908436179084305D003F0D1FC002803D00C2010BD122010BD204676
:4049C00002F0B0FC002010BD10B5FCF76DFB02F0CDFD044803F038FD02F0F2FA012000F003F810BD34190020F1B586B003A8009005A8019028489F22817A11408172684645
:404A0000FDF79AFD002845D169460989C90705D0224806990068C2686846904769460989890706D5002835D11D480068816A0698884700282ED11B4E002575707573757140
:404A4000F575357675767575B570F570B5713746F5730120D03738731F20F880FF2130467972A0300176457600F0BCFA00242046069901F091FC002803D1641C2406240E85
:404A8000F5D0FD720749BD72B573C0310D704D704D600D7207B0F0BD24190020A81100208C1100206C19002070B505460E46084602F03AFD0446304602F050FD0121A94083
:404AC0000A46224001400A4301D0012070BD002070BD10B50446084602F040FD0121A140014201D0012010BD002010BD10B5FEF71BFE032804D102F049F80120FEF744FE2E
:404B000010BDFEB51C4616460F46054601F0CAFEA878FFF7F7FD02460190334639460094284600F00DF8002808D1A8780199FFF711FDFF2C02D138460CF04AFFFEBD0000D1
:404B4000FFB585B005460E980C46FF2810D02B49C00009680A5840180179C0795278814201D9012601E09006860F6846038108E06078A1788006860FE078000201436846E4
:404B80000181284601F068FC070007D021462846079A00F063FC384609B0F0BD304600F011FD04AE0346039002AA29460096204600F09DFB3C20405D002818D0284601F020
:404BC0004BFC012813D0684600890096C0B20190A878231DFF22079902F0D8F868460089039BC2B2A878079902F018FCD3E7684600890021C0B20091E9E70000A4110020E6
:404C0000F8B5002600253046FFF72AFD07001DD090201149704340186030447F12E0601CFCF71CFBCCB23846E040C007C00F07D02146304601F03AFF21463046FFF7A6FD0F
:404C40006D1CEDB20548018AA942E8D8761C3606360ED7D0F8BD00006C190020581A002010B502F0ADF90020FFF7BEFE0CF046FF002010BDF8B5002400F0B2F801230128CF
:404C800000D10124104F00203E4620360425082203E0002801D0002100E031460979002907D001290BD002290BD0114681402143CCB2401C0006000EEBD07C70F8BD1C434C
:404CC000F7E72C43F5E700006C19002010B5FFF7D1FF10BD10B5044604F0C4FB002802D1601C00F001F810BD1CB500240094062269460194FCF7CEFB002800D11224204659
:404D00001CBD10B5FCF7F9F80446FEF70DFD012809D0FEF709FD022805D0FCF7F5F82046FCF7EFF8EEE72046FCF7EBF810BD10B50B4681791943817103D08078114602F03C
:404D40003BFB10BD10B582798A43827102D1807802F046FB10BD000030B50C4C0220A28A0B4B9978002901D0022906D11D785B78EB18282B01D9032002E0032900D101203C
:404D80005105490DC0020143A18230BDC0112E405C11002000B500F029F8002807D0012805D0032801D0042801D0002000BD012000BD014600B50020C90701D000F010F839
:404DC00000BD014600B50020C90701D000F008F800BD000001480068704700005411002001480088000A704720102E400448008B410501D5042070474007800F7047000014
:404E000000102E4001484068704700005411002038B50446000610D5FFF7E8FF01280CD1684601F0B9FE6846007800F01BFB012001F0A0FD0220FFF749FF600708D507489E
:404E40000179012904D1002101712620FFF71CFB0348006801692046884738BD601100208C11002010B501460A4A007800241070FFF7B6FF0128084603D002F0BFF92046BD
:404E800010BD00F0E7F80400F9D1034801210170F5E700005C1100202C1A002070B50446FFF79EFF002801D00C2070BDA27B01211F48002A827801D00A4301E05208520012
:404EC00082706279012A14D0C17849084900C170184D2868016820468847207901280CD06188208802F0F6FF2080207904280FD015E0C2780A43C270EAE72868C168E01DB0
:404F00008847E01D02F0FAF90B48808C208006E02868C168E01D8847E01D02F0EFF9074920798870204602F077F9002070BD00006C1900208C110020241900205C1100203D
:404F400008B50178FFF74CFF814201D10C2008BD002914D0072069460870FFF71BFF012807D10121684600F0D5F8012801D0092008BDFFF7F1FE02F083F9012011E0FFF7F8
:404F800009FF012806D1684601F006FE6846007800F09CFA02F06AF9FFF722FF0028FBD10220FFF793FE002008BD000010B501460A4A007800245070FFF712FF0128084672
:404FC00003D002F0D9F9204610BD00F05DF80400F9D1034801214170F5E700005C1100202C1A002038B568460CF088FC002801D01F2038BD01210098C902018041800025B3
:4050000005714571857107214173857302F004F9009C202200212046FCF754FA25702A460021601CFCF74EFA204602F0E7F8204602F0A2F900980CF0CBFC062200210448EE
:40504000FCF740FA02480C388560002038BD000060110020F8B504460025684600950CF04DFC002801D007250AE0064E009830602278611C401CFCF71CFA31682078087096
:405080002846F8BD54110020F8B504460025684600950CF033FC002801D007250AE0064E009870602278611C401CFCF702FA7168207808702846F8BD541100200346084867
:4050C00000B5834209D8184600F01AFE002804D00089984201D1012000BD002000BD0000FF0E0000074A9179491C8906890E917138220A4092014907090E11430843024986
:40510000084070476C190020FF0E0000C006C00E70470000F8B507460E4600240D4803E0002C01D0002500E005462979002905D0641C2406240EF3D00020F8BD00212046E1
:4051400001F02AF92E712046FFF7CCFF28813C700120F8BD8C19002010B503F06BF90222002100F003F801F0D7FE10BD10B5094B40074907000F090F185A595A401850439F
:40518000C0086421FCF76AF8002800D1012080B210BD0000AC410100F7B53D20405C88B015460C46002802D02878042802D200200BB0F0BD6946087200262046FFF79CFA59
:4051C000012800D00126204603A938300191009023460327A17E34333246206A03F04EF902A8089900900B46019120463A4603A9243003F0CBF802466846007A28702046D6
:4052000001F0B6F81046D3E7FFB587B00C4605461078694608723D20005D1746002826D000262046FFF768FA012800D00126204603A93830019100902346A17E343332464A
:40524000206A03F01BF902A80090291D019120462B1D03A924300A9A03F098F802006846007A388002D1204601F082F810460BB0F0BDF0B505463C20405C89B016460C46A3
:4052800000280CD0307869460873002806D000272046FFF731FA012803D003E01F2009B0F0BD012703200890204604A93830019100902346E17E34333A46E06903F0DEF8A7
:4052C0006846007B03A928180290009120462B46019504A92430089A03F08CF802466846007B3070204601F04DF81046D7E7FFB505463C20405C89B016460C46002810D048
:40530000084601F0A9F801280BD0308869468883002809D000272046FFF7EEF9012805D005E000200DB0F0BD0220FBE70127204603A93830019100902346E17E34333A46C8
:40534000E06903F09BF8291D2B1D07A8129A6D4607C5204603A924300C9A03F04BF802466846808B3080204601F00CF81046D9E770B50D460446FFF7BFF901280AD0E87ABD
:40538000A97A00020143A07801F0C2FC012808D0002070BD00222421204602F0EDFC242070BD28214C200155204600F0B1FB282070BD0000002801D0002000E00348403020
:4053C000C07F012800D00020704700008C1900200146002049070ED50021084B03E0002901D0002200E01A461279022A04D0491C0906090EF3D07047012070478C1900205F
:405400000146002049070ED50021084B03E0002901D0002200E01A461279022A04D0491C0906090EF3D07047012070478C19002010B5044680346068002803D00CF0DCFA9A
:405440000020606010BD4030417070474030817070474030017070470171704792001018C166704770B53C2501F09CF9040004D020460021433001F0FFFBFF222946204677
:4054800000F0E8FB002C02D0A07801F00DF970BD10B5002801D0002000E00348002802D0008903F03FFD10BD8C19002010B5002801D0002000E00448002804D001790729E2
:4054C00001D100F047F810BD8C19002010B501F069F9002802D0807801F0E6F810BD00207047000070B50546008A00281ED01049F122897A1140C90618D5294640314A8A5C
:40550000098A521C4A4392B2D10800D10121540801E0621A94B2A042FBD9FEF7D3FE012804D1298AA878224601F0B8FC70BD00002419002010B50023054C0B60248A9442C2
:4055400004D992001018C26E0A60C36610BD0000581A002038B5044600200090A079002814D14020015D052901D00E290ED168460CF0D4F9002809D12046009902F0DAFB53
:4055800003481021C28A2046FFF7D1FB38BD00002419002010B50B4604460146184602F04BF8002802D020460CF01CFA10BD13B5044601AA11460620FDF7D8FF6846818874
:4055C00061811CBD002800D10220704770470000F8B504462346401D543300909A1EA078911E01F0F5FA25464035A88A298A8000FBF734FE401E81B2688A884203D96982B7
:40560000A07801F05DFF698A8C20015120460021433001F031FB27480088E88102F00AFFE989891C8AB26179FFF7A0FD01F074FC02F000FF2A8A6179FFF798FD074601F039
:405640005FFC688A002806D01B49088A032212021043088202E0002001F026FF1648803801886E8A002E0CD0304648431349FBF7DFFE0004000C01D0401C80B2104948805E
:4056800002E00F4800214180288A704381B2A07801F080FEFF2228374932B9B21346204602F01CFCE98AA07801F0F4FDA07801F025FAF8BD80102E40E0112E407102000067
:4056C000661100207FB504468034616805460E46183108226846FBF7ECFE31462031082202A8FBF7E6FE102168460CF0B1F86068102108300CF0ACF860682B4608302433ED
:405700001022694602F062FE7FBD10B504460821FFF718FB10212046FFF714FB207905281FD006281DD008281AD12189002003F071FB072020712046FEF7DEFF014620466C
:405740004030012913D00E21017000210176204600F0BCFF2046FFF76BFE2046FFF7C2FE10BD20890122002103F038FBE1E70521EAE70000FFB581B01F4604460821FFF730
:40578000E1FA10212046FFF7DDFA2079082803D0092804D0042203E00422012501E009220025204600F044FE264600204036307022712046FFF73CFE0398002D02D001285D
:4057C00008D00BE001280AD120890022029903F005FB04E02189029803F01CFB012700203076012F04D0204600F070FF05B0F0BD02983073204602F0EBFA0546054801210A
:40580000C28A2046FFF793FA002DEFD109202071ECE700002419002070B50C460546FEF76BFF012809D108212846FFF78BFA0023012221462846FFF79DFF70BD10B504463D
:4058400000F0F6FD2046FFF7F3FD00214034217010BD70B505461A24FEF74EFF012809D108212846FFF76EFA0023012221462846FFF780FF70BD0000F8B5044600200090BA
:405880000E4668460CF04AF8002801D00D20F8BD8420005908212030009D00F02CFA20460421383000F027FA002E02D1204600F0FBFD2946204602F0CCF90E480821C28AFA
:4058C0002046FFF734FA204600F071FF25464035002808D0204600F023F8002801D0092028700020F8BD08202870204600F0DAFFF7E7000024190020014610B540310A4681
:405900000978082906D0092907D00A2901D100F091F810BD0B20107010BD00F001F810BD70B50446007925464035052805D0062803D008280FD00C2070BD03220621204678
:4059400002F01AFA0D480821C28A2046FFF7EFF91120287010E006202873204602F038FA0646AA8A0A20424301212046FFF7DFF9002E01D109202071002070BD2419002026
:4059800038B504460020009068460BF0C7FF002801D00D2038BD2046009D00F0C3F908202071204600F080FD2946204602F084F900213D2001550F2040210855204600F0E0
:4059C00071FF002038BD00B5024600F031FD10214032117000BD10B50446FEF78DFE012809D04020005D112805D100231A4606212046FFF7BFFE10BD10B5FFF786FE10BD2D
:405A000038B504460021684600910BF087FF00280CD12046009902F0D0F905480821C28A2046FFF784F90D204034207038BD00002419002038B504460021684600910BF0DF
:405A40006DFF002801D00D2038BD2046009902F0A9F905480821C28A2046FFF768F90C2040342070002038BD2419002000787047F8B5002569460D70002801D0002400E0C1
:405A80001F4C002C18D0204600F0DBFC002813D0207903280BD005280CD026464036B18AA07801F081FCB078012806D01DE0042020711DE006202071F8BD0021204601F02A
:405AC000D8FD274680373868002802D00BF094FF3D600020B0702079072802D12046FFF701FD0221204600F0F7FE20790428E3D1207A694608703420FEF7C6FCF8BD00004B
:405B00008C19002010B54C22115400F052F810BD10B50446FF21FFF715F909202071A07801F068FC10BD000038B5FF216A461180002801D0002400E00B4C002C12D01146D3
:405B40000620FDF713FD684601882046FFF72FFD204600F087FC002804D104480068C1692046884738BD00008C190020A811002010B504468079002809D022214C200155B2
:405B8000FF212046FFF7DEF8204600F012F810BD10B5037902464032002B03D01173092B02D003E0002100E02221117300F001F810BDFEB504460089002700902781207904
:405BC00026464036002817D0012815D002280AD112E002AA01A9204601F01CFD002807D101980BF0FFFE204601F03CFD0028F0D02046FEF7D1FCB7762546803528680028B3
:405C000002D00BF0F9FE2F606868002802D00BF0F3FE6F60317B002919D0009800F064F8A078002100F086FF2046FFF795FAA07801F058F8A07800F037FDFF212046FFF740
:405C400081F80B20FFF742F800F068FCFEBD1F213173E2E7F8B517460E46054602F0E6FB04003CD020460C3000F0F6FF2046062200211830FBF726FC204606220021123085
:405C8000FBF720FC1648224600683946436A28469847074626702846FEF72EFD012148406070002D10D02889608028464030C1782171002E0FD169796171018AE180418A84
:405CC0002181808A608106E00648008BC005C00F2071002060803946204603F01EF8F8BD8C11002000102E400A4610B50146002003F030F910BD10B50BF086FB10BD0000E2
:405D000000B50146FFF702FA002801D0002000E00348002802D002898A4200D0002000BD8C19002038B5044680346068002806D168460BF003FE002801D1009860606068F8
:405D400038BD000010B5014600F086FB0128887802D0FEF7DBFC10BD90214843024940186030007F10BD00006C19002070B5054604464035A87F012811D1A1789020084A41
:405D8000484380186030067F3046FEF78DFE002805D10220A877A078314601F04DF870BD6C19002010B50C4CA07A002813D0FEF727FF0A48027F417F408B00F0B7FB012859
:405DC00009D10020A07200F0FDFE05498989090B01D000F03BFA10BD3C1A00206C190020A0102E4070477047490510B5490F0B00FCF756FD060704080C0C0F073E21FFF776
:405E000081FE10BD0821FFF7C3FE10BDFFF7D1FE10BDFFF7ADFE10BDF8B507460025002D01D0002600E0204E00F09AFE3046403044890021418100F09DFE304600F001FBCD
:405E400001282BD1A00702D52846FFF711FEE00602D52846FFF768FEA00601D5FEF7D0FE600601D500F014FB200602D5284600F01DF8600702D5284600F02CFA380402D5C6
:405E80002846FFF713FB780402D52846FFF700FBE00703D021463046FFF7A6FF6D1C2D062D0EBCD0F8BD00008C190020F8B5002801D0002400E0284C002C4BD0254640354A
:405EC000A878012846D1FF278820493700593E46002805D02149897A890601D5878AC68A2046FEF709FC012834D002F0A3FA2A8A6179FFF73BF9009001F002F80098334687
:405F0000283081B23A46204601F0E8FFE98AA07801F0C0F912480188688A124E002810D048431149FBF784FA0004000C01D0401C80B27080A07DC107C90F002001F086FAA4
:405F400001E000207080288A698A484381B2A07801F020FAF8BD00008C1900202419002060112E4066110020710200000149096809680847A811002070B50D460026194A95
:405F80000146002801D0002401E014462034002C26D0204600F060FA01280AD19020484380186030007FFEF77FFD002801D101F08FFE0D48006881692046884700280CD06D
:405FC00020464030817EA94202D3491B817600E086762089294602F05EFF204600F062FC70BD00006C190020A811002070B503460088FFF785FE040013D000F022FA002885
:406000000FD02079092819D02546997840352973204601F0DDFE0646A878012803D0AA8A02E0022070BDEA880A20424301212046FEF77DFE002E01D109202071002070BD22
:406040000EB5002217216B460292198100905A810120029B00990BF06FFD0EBDF8B518480024807A002822D1164E0025B089000B22E0204600F010FE1249A039401807889C
:406080002A462146384600F051FA012810D00E480122478305770A4944778A72002D01D0002000E02030002801D000F0FBFBF8BDB089000B641CE4B20028DAD1F8BD0000BA
:4060C0003C1A0020A0102E406C19002010B50088FFF716FE002809D0014640310C460978082905D00B2903D00C2010BD022010BDFFF716FC002801D009202070002010BDE8
:4061000070B503460088FFF7FBFD040008D0254640352878082805D00B2803D00C2070BD022070BD8420005910220830991CFBF7C0F92046FFF7C6FA2878082804D020467F
:40614000FFF778FC002801D00A202870204600F0A9FB002070BD000010B50C46002121700088FFF7CDFD03000BD000F06AF9002807D00948F121807A0840C00603D41120FF
:4061800010BD022010BD022020701A8A1889002102F0FCFE002010BD24190020F8B50F46002100910088FFF7ABFD040012D000F048F900280ED0E079410641D4617E022622
:4061C0004A07002A08DB8907402500291ADA2843E07135E00220F8BD02F028F90021017021894180A1898180217E4170E189C1803E7005460178134802F0A2FB284602F095
:4062000069FE1DE0204600F02DF9012806D068460BF084FB002803D00720F8BD2A20F8BDE07900992843E071204601F0FBFD607E0421304360760448C28A2046FEF777FDD1
:406240000020F8BD1D040000241900203EB500220F236C460292238100910190628169460EC900200BF068FC3EBD0000F8B50F46054600F097FA040025D0032020712546AF
:4062800000264035EE76E6702046FFF7A1F900F0EDFF0920FEF71AFDA07800F011FD0121204600F019FB2E706E70AE703A4600212046FFF7CFFC0649887B401C8873A078BD
:4062C000FFF754FEF8BD284601F094F8F8BD00006C19002010B5002801D0002000E0094800280DD0014640310A464978022901D100215170807DC107C90F002001F0A6F854
:4063000010BD00008C19002070B503460D460088FFF7F6FC04000BD000F093F8002807D01248F121807A0840C00603D4112070BD022070BD20464030418A008A491C414335
:406340000804C10C5888884201D2122070BD20822079072802D12046FFF7C4F8022028702089002102F03AFE002070BD24190020016A491C016204D1817E491C4906490EA9
:4063800081767047C169491CC16104D1C17E491C4906490EC1767047F0B5074687B003A8009005A800260D460190002F01D0002400E01B4C002C05D06846FCF7BDF800286C
:4063C00003D00BE0022007B0F0BD68460089C00704D1902200212046FBF774F8114829460068826820469047050016D1A77066762746267140373E70204600F019F82046C3
:4064000001F02CF9084820820848BE77807AF121084000D001202075E682E8B2D3E700008C190020A8110020B80B000024190020002101628176C161C17620300177417727
:4064400070470079002805D0012803D0022801D001207047002070474030807F002800D00120704740300078002807D0012805D0052803D00E2801D001207047002070476F
:4064800010B5807801F06AF8002800D0012010BD10B500F097FB03498989090B01D0FFF7D5FE10BDA0102E4070B5054604464035A87F002825D1FF206075A0789021154A18
:4064C000484380186030417F9023491CC9B24177A0785843104B8018DB896030994201D300214177A0789021484380186030467F0677A1783046FEF7D7FA002802D001208E
:40650000A87770BD0220A877A078314600F094FC70BD00006C190020581A00200020401C0006000EFBD0002070470000F0B515468207920F85B0000A02926A469080002D3F
:4065400001D0002400E0564C002C28D0084600F0A3FB07466846808800280BD00298012843D0022841D003280BD03D20005D012879D08FE04B48381801882046FFF717F815
:4065800088E00020029002A80BF0A8F9002807D03D20005D012802D12046FFF7E9FE7CE06846029E8388324600213846FCF7F0FE3C48381801882046FEF7F9FF284600F0C8
:4065C000A9FA01AA21463046FEF7E6FD002806D030460BF0F3F93D204C21085531E0F5773146204601F0A2F957E0002000902089039068460BF062F9002802D0002005B03A
:40660000F0BD6846009E8388321D00213846FCF7BFFE2448381801882046FEF7C8FF284600F078FA2046FFF70CFF002805D025464035287E002810D107E030460BF0B4F989
:406640002BE02046FFF764FA27E001AA21463046029BFEF7D9FD002806D030460BF0A4F93D202873EDE712E00298FEF7AFFF0399317003990001090A01437170684680888F
:40668000B070000AF0703046FFF7DAFC05E02046FFF76EFE284600F03DFA0120AFE700008C19002000102E4010B5074A917B002901D0491E91730021FFF76EFE002801D0CF
:4066C000002010BD012010BD6C190020F8B5074606464037B87F00282DD0B078902100904843234945186035287F0099FEF7F1F901281ED0287F401CC4B21E48C089A0426F
:4067000000D800240020B877FF276F772F77A87702460146009800F0FBFC717DFF2903D0304600F05CFF777501F0D2FA0025114F19E00320B877F8BD002000902246694690
:406740003046FEF7F7FE0099002904D0FF231A463046FEF7D6F9641CF889E4B2A04200D800246D1CEDB2F889A842E5D8F8BD00006C190020581A002010B502460021084B35
:4067800003E0002901D0002000E018460479944204D0491C0906090EF3D0002010BD00008C19002000B50120FFF7E6FF00BD10B5044601F03BFE2189018080346168416087
:4067C00061682831816002F03FFB10BDF7B50646087982B00C46092807D0A078F0770846FFF73AFE012806D010E030460BF0FAF8022005B0F0BDA1789020294A4843801868
:406800006030007FFEF750F9012810D0A078FEF7D1FD01280BD037780121304601F004FA25462035062F38D00B2F0FD107E06846027C21463046FEF7ADFE0D20D9E72046F3
:40684000FDF75AFF012801D1002028772046FFF779FA054604AA21463046FEF70AFD01205F2108556946097C002001910090A07833463A46294600F089FA69460A7CA078BC
:406880000323294600F0CAFDA0782946FDF762FE30460BF0A7F80020ABE70120D5E700006C19002010B502464032937F0021002B03D1927E002A00D00121064A927A002A0A
:4068C00000D000210279092A00D10121807800F0DDFD10BD3C1A002070B50C460546FDF70BFF00280BD1012C06D92879092806D02846FFF7C5FD0446002C02D004E0012412
:4069000002E0A87DC007FAD1A87DC107C90F204600F09CFD70BD0000012807D0082804D104480282034808300180704701488038FAE70000A0102E400149088170470000C3
:4069400000102E4010B50446FF20F130012C01D1FF20D530002200F0CBFD044A108A044980B2A0430880108210BD000000102E406A110020034B198A034A89B28143118035
:406980001982704700102E406A11002010B50446012802D0082C07D102E0FF20D53001E0FF20F13000F09CFD0348018A034A89B221431180018210BD00102E406A110020EA
:4069C000034B198A034A89B2014311801982704700102E406A110020F8B505460120A84086B214460F46012231467C2000F080FD3A463146782000F07BFD607826780002E4
:406A00000643E078A2780002024360792379000203430C2045430D2080010549281844182680001D44182280001D40180380F8BD00102E40CB065B0E03434809010219432F
:406A4000D00108430121C902084301490881704780142E404278037812021343084A1382C37880781B021843908248780B78000203431383C8788978000201439183704780
:406A800000142E40024A1080000C90801181704700142E40044A002180180288491C89B21029FAD37047000000102E40024A10820148803081817047A0102E4010B5054A63
:406AC0001082084600F038FD024A0021A03A8018018010BDA0102E4010B50B46044600F005F819462046FFF7E1FF10BD024A10820148803001817047A0102E4010B5044951
:406B00000882FF20002220211D3000F0F1FC10BDA0102E40000202494D3008807047000000102E400249888A0422904388827047C0112E4010B5084B074C0202A03B0029E4
:406B4000208202D075321A8010BD04490020088088807632F7E70000A0102E40201A2E4000B5034908884880FFF704FF00BD00006A11002000B502484088FFF721FF00BD06
:406B80006A11002010B5FCF7B9FD10BD014952200880704700102E4000210170704700000748808806492039098B884201D8081A03E00022D243101A401880B27047000060
:406BC00020112E400148008AC0B27047A0102E4070B5084C049D2082074804890548603006880E8001891180808818806007400F287070BDA0102E40E0112E4001480089C6
:406C000070470000C0102E4000280FD00D4A108B0870000A4870908B8870000AC8700948203000880871000A48717047064A10880870000A487090888870000AC8701089AE
:406C4000F0E7000040102E40C0112E400148008A70470000001A2E40064B1A8999891B8A0270120A42708170090AC1700371190A4171704760102E40012904D00549098B40
:406C8000C90B017070470349403109898907C90FF7E7000000102E400148408970470000581A0020044A10820448028980894843101880B270470000A0102E40581A00205E
:406CC0009021074B414300B5C918FF2260314A770A7700228A77114600F01AFA00BD00006C19002090225043074A10B58018FF21603041770177002181770448418EFF207D
:406D00001D3000F0EDFB10BD6C1900202419002000B5044A1082034880308088022200F003F800BDA0102E4010B50023884201D8081A03E00024E443201A4018044980B2F1
:406D4000884201D8824200D90123184610BD0000FF7F000070B55478157824022543D47888232602947834435679127936023243002900D09823044908820348A038181873
:406D800005808480028170BDA0102E40FFB581B014460D4607460A9E0B9BFFF783FF002E0AD0009333460021049AFCF781FB05484019C45505B0F0BD0021049AFCF75EFB69
:406DC000F5E700006E11002070B502460448054D808808242C800B460021FCF74FFB70BD581A0020A0142E4010B5212402466401044953200880102300212046FCF73EFBB8
:406E000010BD000000102E40417802780902044B0A431A83C1788078090208439883704760142E40034A1082802001430148803001817047A0102E40054A1082044A603281
:406E4000908B0009000108439115084390837047A0102E4030B500210F4B0A46012809D0032802D005280AD107E04021198102210A2204E004210C2201E004210D221882DB
:406E8000054C20342088C0B205460D42FAD022800021198230BD000080142E4010B5044607480482074801808280032189030820FFF76CFD200202497530A039088010BD35
:406EC000A0102E40201A2E40054A1082044A60321183000202494B30A039088070470000A0102E40054A491E1082044A60321183000202494C30A03908807047A0102E40BE
:406F00000349884200D908460249088070470000FF0F000060112E400349884200D908460249888070470000FF0F000060112E408823002900D09823084908820748A03808
:406F4000191808881070000A507088889070000AD07008891071000A50717047A0102E4010B51446024606480B46C0880021FCF76BFA012C02D103495420088010BD00001E
:406F8000581A002000102E40064A11880170090A417091888170090AC1700349542008807047000080142E4000102E400121814010B589B200227C2000F09AFA10BD0000E4
:406FC000FEB5FF210120FFF7BDFCFF210820FFF7B9FC3020FFF7CEFC3F48802101803F483F4D00784007400F02286FD001286BD100202880002211460320FCF7B7FA394EC4
:407000003949B08D8882384F002420373248A0300482308F38822046FFF764FE641C2406240EF3D0B08F38832E48103000F052F9716930690191009069464879C0210843C3
:4070400069464871684600F06DF900F055F82548214C40304188A03421838188A1831E49C088C0318880708E38802048002606823920FFF7A5FC184F532038801C4907202D
:40708000088354203880E020FFF704FDE820FFF701FDF020FFF7FEFC0020FEF75DF813488682282101838015A0810F48403086815B203880094800784007400F022807D075
:4070C000012801D10B482880FEBDFFE7032090E70848C01CF7E7000000102E40581A0020001F2E4024190020C0112E40001A2E4080142E40E023000004480021818301839A
:4071000002497420603908807047000060102E40074B1882064B6033988B00090001084399158843002A01D11021484098837047A0102E40F3B50D2284B0920100924A7862
:407140000B78120213430393CA788B78120213434A790979FF20120211431A4A8C46918B9E460291118B01911649742260390A80154900220F7821E00121124B9140009C0E
:40718000603BE3181D8889B21C881B88039E6E407546654064462E435C4026430CD1029B194209D00199D140CB070499DB0F8B4202D1104606B0F0BD521CD2B29742DBD8BA
:4071C000F8E7000060102E406419002030B50949FF208C8B084A00210125137805E02A468A40224204D0491CC9B28B42F7D830BD084630BD60102E406419002010B504461F
:40720000E020FFF747FC20782246401CC3B20021E020FCF7D9F810BD42790021012A02D901214171090342790A430179042914D049001143827B032A01D8D2001143427BBA
