:4000000000800020110000007D0400007D04000010B500F053FAC04670B512222B4B1A6000F09AFD2A4800F00FFF012000F0B4FD302000F0ABFC274A274B1A60274C8025A7
:40004000ED052560264A116802230B431360254A254B1A600022254B1A60254A136808218B431360FA20C00000F042FD214800F083FCCC229201204B1A60204B204A1A60EB
:40008000BC2189011F4A11601F4A1A60E021C9001E4A11601E4A1A60822212061D4B1A608022D2021C4B1A6042221C4B1A60013A1B4B1A60013A1B4B1A601B49082000F0AB
:4000C0000BFC082000F0FCFB256070BD30001040001BB7000600008004010B400C020B4078002E402D3E00007C002E4064F02E406CF02E40DC050000080301400000014082
:4001000042FF00800403014041FF00800003014040FF008008010B4000010B40380101403001014018010140B10C000070B572B600223D4B1A6000240FE03C4862001319BA
:4001400059000B00411889881A5AC31858880004104300F089F90134E4B2022CEDD9002411E0324EA2001319590071188D8AC88A000428430A8B498B09041143802200F081
:4001800079F90134E4B2002CEBD0284920312848183000F02BF9A0221201264B1A800122254B1A70254A264B1A60C0229200254B1A60254A254B1A6080229204244B1A605E
:4001C000244A254B1A6099231B04244A1360244A1360C0229203234B1A6023490B783C22934314221343DBB20B70204A117816230B43DBB2137023221D4B1A601D4A1E4B73
:400200001A6003221D4B1A60D82212041C4B1A6004221C4B1A607D32FF321B4B1A60FFF7FBFE00F0FDF870BD6CF02E40701A0000F01C000000600F4002600F40670030EE3F
:4002400000000240000302400400990000500F4004500F4000000F0808500F4020500F4030500F4038500F4001700F4000700F40000004400010DB0008000440180004409F
:4002800008020440000304400803044010B5064C2378002B07D1054B002B02D0044800E000BF0123237010BD4801002000000000181A0000084B10B5002B03D00749084898
:4002C00000E000BF07480368002B00D110BD064B002BFBD09847F9E7000000004C010020181A0000C00000200000000030B58DB001A918480B00020013CA13C313CA13C3B8
:4003000013CA13C31168196012791A7100F0FAF900F008FA00F05AFD002416E0022000F00BFA002000F01CFA0500012000F018FA03002A00084901A800F04AFF01A800F06E
:4003400061FD642000F000FB0134632CE6DD0DB030BDC046441A00001C1A000010B5002000F01AFA012000F023FAFA24E400200000F0EAFA012000F00FFA002000F018FA9C
:40038000200000F0E1FA002000F006FA10BDC04610B5322000F02EFA054C200000F0D4FA002000F027FA200000F0CEFA10BDC046B80B000010B500F06BFA002000F01AFA34
:4003C00000F0A0F900F0AEF900F000FD10BDC04610B5FFF7C3FFFFF7DBFF10BD10B5FFF7E9FFFFF783FFFFF7F3FFFCE7F0B50025002711E0BB00C658F3B2FF22964308E0DB
:400400006A008A181478A419527822700135013BDBB2002BF4D10137082FEBD9F0BDC04633220A4B1A600323094A1360094A136080221206084B1A60C0231B03074A136014
:40044000074A13600022074B1A60704708210240300030403000314000003A4000033A4040033A40000E3F4010B50A00002100F0A6FE10BD10B500F099FE10BD10B500F007
:4004800069FE03680C2B00D1FEE7FEE710B50300084A1068C318084A9A1A802A02DC054A136005E000F056FE0C2303600120404210BDC046C4000020B001002070B50F4E73
:4004C0000F4D13E029686B68AC68002202E001C901C30432A242FAD1E868002202E0002102C304328242FAD11035013E002EE9D100F036FEFFF772FFFEE7C04601000000DC
:40050000401E000010B50E4A136801218B43136000230AE0032B03D89A000A49505800E009489900094A885001332F2BF2D9FFF7FDFD034A116801230B43136010BDC046FB
:4005400000001040000000007D0400000000002010B503210F2000F0D1F942490F2000F0BBF90322404B1A60404B1B68002B01DA3F4900E03F49404A13680B4313603F4ADD
:400580003F4B1A603F4A404B1A6000233F4A13603F49404A11604049404A1160404A116880204002014311603E490A6802430A603D4A13603D4A136001223D4B1A603D4AA1
:4005C00011683D4B0B40802189050B431360002444E03A49A2005058DC239B0103400919097A0B4336498C4662441360C30707D52D490A680123A3401B041B0C13430B60D3
:40060000A3002E4A9B589B0707D528490A680123A3401B041B0C13430B60A300274A9B589A0502D58020400001E080204001DB0504D463000021234A995203E06300002123
:40064000204A995220494843204B9C46604400F095FC00B2A2001E4BD0500134012CB8D910BDC0468D07000020003A4080033A40702010107020001000003A408C0000801B
:4006800004003A400000FF0718003A401C003A400400020010003A400200020014003A4000033A4040033A4028023A4038023A4018023A4030003A40FEFFFFDFAC1D0000F8
:4006C00080003A40A401002010270000881300009C01002010B5094B1B68002B0CDB084B1B68002BFBDB054A1368802109060B4313600A2000F040F910BDC04600003A404C
:4007000008023A4010B5064B1B78002B04D1FFF71FFF0122024B1A70FFF7DCFF10BDC04664010020034A1368802149020B4313607047C04604003A40020083070CD0074BEB
:400740001B680120184001D19307F8D4002804D00122024B1A6000E00020704710023A4010B50400012802D9002000F0B3F8012C07D8A400044B9C46644420680004000C73
:4007800000E0002000B210BD80013A40014B1A681A60704710023A4004490A68D2B240239A43800118401043086070470002044004490A687F231A40C301D8B2104308605C
:4007C0007047C04600020440034A117880235B420B43DBB21370704770000F40014B18707047C04600000F40014B18707047C04640000F40014B18707047C04620000F400C
:40080000014B18707047C04680000F40014B1878C0B2704760000F40014B1878C0B2704750000F4010B501E0FFF7F6FFFFF7EEFFC306F9D410BDC04610B513490B783F221E
:40084000934309221343DBB20B70104C227801231343DBB22370C820FFF7C0FFC820FFF7C3FF7F20FFF7C6FF0020FFF7C9FF00F0F4FA227810231343DBB2237000F0F1FA18
:40088000FFF7D0FF10BDC04670000F4090000F4010B5064B1B78002B04D1FFF7CDFF0122024B1A70FFF790FF10BDC04665010020024B1B68012018407047C0460C002E403F
:4008C0001F2318401E3B8340014A13607047C04600E100E001BE704770B504000D001F2802D90020FFF7F6FF1034A40080239B059C4664442068256070BDC04670B504000F
:400900000E00032902D90020FFF7E4FF1F2C02D90020FFF7DFFF03252540ED00063500F09CFAA408A400074B9C46644421680323AB4099430B003100A9401943216000F0C0
:4009400090FA70BD00E400E010B5040006E0084B586800F079FA074B9C46644480231B029C42F4D8024B9868604300F06DFA10BDC80000200080FFFF10B5034B1B7B5843D3
:4009800000F062FA10BDC046C8000020F0B557464E46C0B483B0040000F05FFA0190E71E2D2F74D83F4B1B78DBB29C4208D83E4B1B78DBB29A463D4B1B78DBB2994631E09F
:4009C0003B4B1B78DBB29C4208D83A4B1B78DBB29A46394B1B78DBB2994623E0374B1B78DBB29C4208D8364B1B78DBB29A46354B1B78DBB2994615E0334B1B78DBB29C42B7
:400A000008D8324B1B78DBB29A46314B1B78DBB2994607E02F4B1B78DBB29A462E4B1B78DBB299462D4BDE5D2F2E09D92A2C07D919222B4B1A60052000F006FA192503E07C
:400A4000274B1D683F231D40B54206D9234BDA5D234B1A60052000F0F7F91F4B9C4664442378DBB21F4A13601F4B52461A601F4B4A461A600520FFF77FFFB5420AD2174BA2
:400A8000DA5D174B1A60052000F0DEF902E00020FFF720FF019800F0E4F903B00CBC91469A46F0BD40F3FF0F41F3FF0F42F3FF0F43F3FF0F44F3FF0F45F3FF0F46F3FF0FFF
:400AC00047F3FF0F48F3FF0F49F3FF0F4AF3FF0F4BF3FF0F4CF3FF0F4DF3FF0FB81D00002CFF0B4028FF0B401CFF0B4020FF0B4010B504000F4A116801230B4313600E4A84
:400B00000E4B1A600E4A1368802109020B431360002809D100200CE00120FFF72DFFFFF7C7FE002804D1013C002CF5D1102000E0002010BD60F02E400220000078002E40A7
:400B400010002E40034B1868C0231B02184000D00120704700010B4010B50D4B1A6801218A431A601A68022082431A60094A10683024A043203C204310601068093CA04321
:400B8000014311601A68802109060A431A6010BD00F02E4000FF2E4070B51D4B1B6801241C40002802D0012816D02BE0184B19680122914319601968022081431960154BB6
:400BC00019682E3081432038014319601968093881430A431A6018E00D4B1A6802218A431A600C4A10680725A84301431160116830208143103801431160196801220A439F
:400C00001A6002E00020FFF765FE200070BDC04600F02E4000FF2E4010B500F01EF9044A1368C02109020B43136000F01AF910BD00010B4010B500F010F908490A68084B8F
:400C40001A408024E40122430A600A6813408022120213430B6000F004F910BD00010B40FF3FFFFF70B5050000F0F7F80400FFF769FF002803D0FFF7DDFF012100E00021E9
:400C800008482840084A1568084B2B40184310601368012901D1FFF7BFFF200000F0E1F870BDC0460404040010020B40FBFBFBFF10B5244B1B685B0715D5234B5B685B07EE
:400CC0000ED5224B596A042001401F4C62688A4362605A6A82435A629B69002B00D098470420FFF7BFFF174B1B685B0518D5164B5B685B0510D5154B596A8022D20011403A
:400D0000114842688A434260596A114A0A405A62DB69002B00D098478020C000FFF7A2FF084B1B685B030CD5074B5B685B0304D5064B1B6A002B00D098478020C002FFF79F
:400D400091FF10BD10020B40DC00002068010020FFFBFFFF7222074B1A70523A064B1A701A3A064B1A704132054B1A700022054B1A70704782000F4081000F4022000F4024
:400D800032000F4083000F4010B500F066F804000B4A117820230B43DBB2137009490A7810231A43D2B20A70074A11780B43DBB21370FF2000F03AF8200000F052F810BD48
:400DC00092000F4091000F4093000F4010B5064B1B78002B04D1FFF7BDFF0122024B1A70FFF7D2FF10BDC04690010020034B1B785B07FBD4024B18707047C04663000F405A
:400E000043000F4070B50500074B1B78002B05D108E0FFF7EBFF0134A4B200E00024285D0028F6D170BDC04690010020044B1B68002BFBDB0002034B1843014B1860704768
:400E400000000140420000800230800803D00138FDD1C046C046C0467047EFF3108072B6704780F310887047002243088B4274D303098B425FD3030A8B4244D3030B8B42A7
:400E800028D3030C8B420DD3FF22090212BA030C8B4202D31212090265D0030B8B4219D300E0090AC30B8B4201D3CB03C01A5241830B8B4201D38B03C01A5241430B8B42C5
:400EC00001D34B03C01A5241030B8B4201D30B03C01A5241C30A8B4201D3CB02C01A5241830A8B4201D38B02C01A5241430A8B4201D34B02C01A5241030A8B4201D30B0206
:400F0000C01A5241CDD2C3098B4201D3CB01C01A524183098B4201D38B01C01A524143098B4201D34B01C01A524103098B4201D30B01C01A5241C3088B4201D3CB00C01AFC
:400F4000524183088B4201D38B00C01A524143088B4201D34B00C01A5241411A00D20146524110467047FFE701B5002000F0F0F802BDC0460029F7D076E7704703460B430E
:400F80007FD4002243088B4274D303098B425FD3030A8B4244D3030B8B4228D3030C8B420DD3FF22090212BA030C8B4202D31212090265D0030B8B4219D300E0090AC30B3A
:400FC0008B4201D3CB03C01A5241830B8B4201D38B03C01A5241430B8B4201D34B03C01A5241030B8B4201D30B03C01A5241C30A8B4201D3CB02C01A5241830A8B4201D341
:401000008B02C01A5241430A8B4201D34B02C01A5241030A8B4201D30B02C01A5241CDD2C3098B4201D3CB01C01A524183098B4201D38B01C01A524143098B4201D34B0142
:40104000C01A524103098B4201D30B01C01A5241C3088B4201D3CB00C01A524183088B4201D38B00C01A524143088B4201D34B00C01A5241411A00D201465241104670475D
:401080005DE0CA0F00D04942031000D34042534000229C4603098B422DD3030A8B4212D3FC22890112BA030A8B420CD3890192118B4208D3890192118B4204D389013AD0C1
:4010C000921100E08909C3098B4201D3CB01C01A524183098B4201D38B01C01A524143098B4201D34B01C01A524103098B4201D30B01C01A5241C3088B4201D3CB00C01A32
:40110000524183088B4201D38B00C01A5241D9D243088B4201D34B00C01A5241411A00D20146634652415B10104601D34042002B00D54942704763465B1000D3404201B581
:40114000002000F005F802BD0029F8D016E770477047C046014B18687047C046440100200E4B70B500251E000D4CE41AA410A54204D0AB00F35898470135F8E700F04EFEA6
:40118000084B00251E00084CE41AA410A54204D0AB00F35898470135F8E770BD281E0000281E0000281E0000301E0000002310B59A4203D0CC5CC4540133F9E710BD0300E6
:4011C0008218934202D019700133FAE7704700000EB410B59DB002A9029008610B48822488604861012040421FABC881084804CBA400006801938C8100F06EF80023029ABE
:4012000013701DB010BC08BC03B01847FFFFFF7F44010020F0B58E6885B007000C00039201939E4243D890238A89DB001A423ED003250969236801985B1A029363695D4395
:40124000EB0F5D19029B6D1001331B18AB4200D91D00530510D52900380000F037FB061E14D0029A2169FFF7A1FFA289194B134080221343A38112E02A00380000F086FB53
:40128000061E0CD12169380000F0D4FA0C23402201203B60A38940421343A38117E0029B2661F61826606561019EED1AA560019BB34200D21E0032000399206800F0A5FAB2
:4012C0000020A3689B1BA36023689E19266005B0F0BDC0467FFBFFFFF0B59FB0029005938B890F0016001B0610D50B69002B0DD1402100F0EBFA38603861002804D10C23F5
:40130000029A01381360D8E040237B61002306AD6B6120336B761033AB7634002378002B03D1A31B049312D003E0252BF9D00134F4E7A31B320039000298FFF76BFF431CA1
:4013400000D1B4E06A69049B944663446B612378002B00D1ABE00122002352426A6002A95432521801342B60EB60AB601370AB65534E21780522300000F03CFA002807D089
:401380000123801B83402A68013413432B60EFE72B68DA0604D55322202102A8121811701A0704D553222B2102A81218117022782A2A03D0099B00200A210EE0059A111D5B
:4013C00012680591002A01DB099204E05242EA60022213432B6001340BE02278303A092A04D84B4301349B180120F6E7002800D0099323782E2B1ED163782A2B0AD1059BAC
:4014000002341A1D1B680592002B01DA01235B42079310E000230A201A0001346B6021783039092904D84243013452180123F6E7002B00D00792234E21780322300000F055
:40144000D9F9002806D04023801B83402A68013413432B60217806221B48661C297600F0C9F9002812D0194B002B06D10722059B073393430833059314E005AB00933A00AF
:40148000134B2900029800E000BF07E005AB00933A000F4B2900029800F08AF80390039B013304D06B69039A9B186B6135E7BB890B985B0601D5012040421FB0F0BDC046F1
:4014C000E81D0000EE1D0000F21D00000000000015120000F7B5170001938A680B6900900C00934200DA130022003B6043321278002A01D001333B6023689B0602D53B685F
:4015000002333B60062523681D401ED0230043331B785A1E9341226892061CD53020E1184331087021005A1C45310978A2184332023311700FE022000123193201990098F5
:40154000089EB047431C0ED00135E3683A689B1A9D42F0DBDAE72200019943320098089DA847431C02D10120404220E006232068E1683A6803400025042B03D18D1AEB4340
:40158000DB171D40A3682269934201DD9B1AED180027BD420AD0220001231A3201990098089EB047431CDED00137F2E70020FEBDF0B58BB006920A004332079305900492C3
:4015C0000A7E0C00109B6E2A00D1ABE011D8632A22D009D8002A00D1B5E0582A00D0C5E045310A70814A4FE0642A1DD0692A1BD0BCE0732A00D1AAE009D86F2A29D0702A64
:4016000000D0B3E0202209680A43226037E0752A1FD0782A33D0A9E00E001A684236111D196013683370A4E021681A68080606D4490604D5111D19600023D55E02E0111D79
:4016400019601568002D3BDA2D23049A6D42137036E021681A68080606D4490604D51568111D1960ADB202E0111D196015685F4B227E039308276F2A1DD00A271BE0220075
:401680007821453211705A4A19680392081D226818600D68100602D4500600D5ADB2D30702D520231A4322601027002D03D1202322689A4322602300002243331A7002E06F
:4016C0000A274A4B03936368A360002B09DB0422216891432160002D05D1049E002B11D07BE0002D79D0049E28003900FFF742FC039B013E5B5C280033703900FFF7B4FBB7
:40170000051EF1D1082F09D12368DB0706D563682269934202DC3023013E3370049B9B1B23612BE009681A68080607D4490605D5111D19601368A28A1A8004E0111D1960D1
:40174000136862691A600023049E236116E01A68111D1960166800216268300000F04AF8002801D0801B6060636803E0260042363270012323610023049A1370079B09AAF3
:4017800000932100069B0598FFF7A4FE431C02D10120404227E02369320006990598079DA847431CF4D0236800259B070FD4099BE068984217DA180015E022000123193289
:4017C00006990598079EB047431CE1D00135E368099A9B1A9D42F0DBE9E72600039B42361B7833708EE70BB0F0BDC046F91D00000A1E0000C9B28218904204D003788B4218
:4018000002D00130F8E70020704710B5884202D98B18984201D3002305E09B1A013A08D3995C8154FAE7934203D0CC5CC4540133F9E710BD70B50500002944D00C1F2368D0
:40184000002B00DAE418280000F0D8F81E4A13681100002B02D16360146031E0A3420DD92268A018834203D118685B688218226063600C6024E0A24203D813005A68002A4F
:40188000F9D11E689819A0420BD12168711858181960824214D110685268411819605A600EE0A04202D90C232B6009E021686018824203D1106852684118216062605C6096
:4018C000280000F09CF870BD98010020032370B5CD1C9D43083506000C2D01D20C2501E0002D01DBA94202D90C23336048E0300000F084F8234B1C681A002100002913D053
:401900000B685B1B0DD40B2B02D90B60CC181EE08C4202D1636813601AE04B6863600C0016E00C004968E9E7174C2368002B03D1300000F051F820602900300000F04CF83E
:40194000431C18D00323C41C9C43A0420DD12560300000F054F8200007220B30231D9043C31A0ED05A42E2500BE0211A300000F033F8431CEBD10C233000336000F03FF8C5
:40198000002070BD9801002094010020F8B506000C001500002904D11100FFF797FF040018E0002A03D1FFF745FF2C0012E000F027F885420ED929003000FFF787FF071EF4
:4019C00007D021002A00FFF7F1FB21003000FFF731FF3C002000F8BD002370B5064C050008002360FEF752FD431C03D12368002B00D02B6070BDC046A8010020704770473F
:401A00000B1F1A68101F002A04DA891804390B68D01804387047000000000000466C65782053656E736F7220313A2025640A20466C65782053656E736F7220323A202564B2
:401A400000000000466C65782053656E736F7220313A20323031360A20466C65782053656E736F7220323A20323031370000000000300F40800000310F40000300400F40EF
:401A80000004000080300F402C1D000080000000800D81388272830F07020E040F0112081401170126072F023008310232023301340436013B203F054040410645D14702B7
:401AC000481349FF4AFF4BFF4DA04F04501852805405580459045A045B045C315D115F01604062C06440654066C068C06AC06CC06EC0004006A80A600C400D200E200F80A1
:401B00001020151016021709184419401A201D0A1E151F0221202225268127252B022E28300836A9384039043E163F804040452A4748482849024D944E0950085710594206
:401B40005A085E01658067087240C071C2FCC4F4CA68CCF2CEFAD0F1D224D68BD8300031020E05E709E70A400CAC0D220E030F511180128C15011640170E1D441E131F31BE
:401B800026082C312E86300F31183240338034303507368A376038203A823E143F014002464049FF4A074BFF4C404D204EF04F05500856025711580459045A045B045C3349
:401BC0005D335F01604061A862406320801481538304850387448C1C8E028F08900C9211981099809C409D539E039F0CA010A10AA20CA354AC09AD20AE10AF45B040B130F9
:401C0000B380B420B540B61FB70FB902BB80BE11BF14C015C104C6EBC70CC81CC9FFCAFFCBFFCEF0CF44D00CD401D804D904DA04DB04DC33DD33DF01E6C0EA40EB02004024
:401C4000024004410601070409100A010B800F62128013401580161019101A411C411D201F442008214022842340265827482A012B01328033203440364037093809390209
:401C80003B403E143F804141452048014C044D205004524053205401551056105701588059225A085F206E146F01762A848489028B208E4097089B249C409D109E2A9F407A
:401CC000A350A618AB40AE84B404B510C0D9C2BBC4A9CA09CCDCCE7BD029D208D62FE640EA400A405D406380C210D620D8408F40A740AA40B540E8205402A002B402D6045B
:401D0000EC02100A1101000004000F402D300F4036310F4070320F4052330F4006400F4005410F4005430F4002600F400F10F0000C5C0021046700180004008041000004B9
:401D4000C3000003FF7F0000825C00221C00E300F3080C000018F300080000001C800F402C20C01F002028800000000436020400010CE00009FFFFFF62A0F0410C000000B6
:401D80001800000004040404333300010000000000004002001030100010101200000000000000000000000000000000000000000000000073720000030405060708090AB7
:401DC0000B0C0E0F101112131415161718191B1C1D1E1F2021222325262728292A2B2E2F3031323334354300232D302B2000686C4C00656667454647003031323334353690
:401E000037383941424344454600303132333435363738396162636465660000F8B5C046F8BC08BC9E467047B502000005050000F8B5C046F8BC08BC9E4670478D02000027
:401E4000501E0000C0000020880000006800000000000000B0010020010000000000C05D80BB000030000000006CDC02F00000000404040000000000000000000000000084
:401E80000000000000000000000000000000000000000000E61D0000000000000000000000000000000000000000000000000000000000000000000000000000000000001F
:401EC0000000000000000000000000000000000000000000E400002000000000000000000000000000000000000000000000000000000000000000000000000000000000DE
:401F000000000000000000000000000000000000000000000000000000000000000000000000000000000000000000000000000000000000000000000000000000000000A1
:401F40000000000000000000000000000000000000000000000000000000000000000000000000000000000000000000000000000000000000000000000000000000000061
:401F80000000000000000000000000000000000000000000000000000000000000000000000000000000000000000000000000000000000000000000000000000000000021
:401FC00000000000000000000000000000000000000000000000000000000000000000000000000000000000000000000000000000000000000000000000000000000000E1
:020000040003F7
:0200000490303A
:02000000A0BAA4
:0200000490402A
:4000000000000000000000000000000000000000000000000000000000000000000000000000000000000000000000000000000000000000000000000000000000000000C0
:400040000000000000000000000000000000000000000000000000000000000000000000000000000000000000000000000000000000000000000000000000000000000080
:0200000490501A
:0C00000000021A1711AA00011A20B264B5
:0200000490600A
:0100000001FE
:00000001FF