:400000000080002011000000250400002504000008B5044B1A6803F53F5302331A6000F009FA00BFFA46004010B5054C237833B9044B13B10448AFF300800123237010BD22
:400040004081FF1F0000000040120000084B10B51BB108490848AFF300800848036803B910BD074B002BFBD0BDE81040184700BF000000004481FF1F40120000C880FF1F6E
:400080000000000008B5044900F024FF034900F019FE01F06FF808BD0000C8410000C84408B5064900F00EFE054900F013FF054900F008FE01F05EF808BD00BF0000B44241
:4000C0000000D0410020004508B500F06FFB012000F020FB0021084600F076FB00F032FC00F0BEFD00F0A0FC432000F08BFB002000F05EFC012000F0C1FD4FF4FA6000F083
:40010000F5F9002000F0BAFD00F03CFCC0F17F4000F57F0000F57E40D43080EAE073A3EBE07312E0002000F047FD642000F04AFD00F028FCC0F17F4000F57F0000F57E40FD
:40014000D43080EAE073A3EBE0730A2BEADC002000F032FD002000F035FD0020FFF792FF80B200F095FB1B48FFF79AFF80B200F095FB4FF4FA6000F0B9F900F003FC00280E
:40018000B8BF40420AE0642000F016FD002000F019FD00F0F7FB0028B8BF40420A28F2DC002000F009FD002000F00CFD0A48FFF769FF80B200F06CFB0848FFF771FF80B25C
:4001C00000F06CFB4FF4FA6000F090F9002000F055FDEBE70000B442DE461B426CD18942FEE700BFF0B40022174611E050F82760F3B226F0FF0608E001EB420511F8124022
:400200006D78A5550132013BDBB2002BF4D10137142FEBD9F0BC7047064B1B78DBB203F00701054A11701B09013213704422034B1A707047CF0100496E5800407658004019
:4002400008B50A46002100F0F2FF08BD38B50122284B1A80182328490B7002310A80274A1370072102321180023213700222244B1A7008224FF040231A70032103F500730F
:400280001970204B1B78DBB21F490B701F4B1A8041F25122023B1A80002419250CE01C4B1B7803F0010343EA440404F003044FF4F07000F0F1FC013D0DB1032CEFD115B9DE
:4002C0000320FFF78DFF134B4FF480721A8007221A70002210490A704820023108701A700222033B1A700D4A137843F00703137038BD00BF8040004082400040864000409D
:400300000043004008010049A146004022420040254200400440004006400040A243004008B500F079FF08BD38B572B62C4A137843F00403137000240CE02A4D630019196E
:400340004A0011462A44084691882858FFF778FF0134E4B2072CF0D923494FF09040FFF741FF224A224B1A60224A137843F0020313701032137843F0020313701E4C237810
:4003800043F040032370A2F58632513A137843F010031370082219491948FFF7C1FF082218491948FFF7BCFF082218491848FFF7B7FF184A137843F008031370164D61239A
:4003C0002B70FFF743FF81232B700122134B1A70FFF722FF0E2221461148FFF7A1FF38BDE84600404412000054000048040400C45818014003500140A0430040F804004876
:400400000251004000050048125100400805004822510040224300400048004004000840B043004008B500F0CBFE03680C2B00D1FEE7FEE708B5104E104D16E029686B6800
:40044000AC68002204E051F8040B43F8040B0432A242F8D1E868002203E0002143F8041B04328242F9D11035013E002EE6D100F0ADFEFFF729FEFEE7010000009C12000094
:4004800008B5104A104B1A60104A136843F40073136000230AE0032B03D80D4A52F8231000E00C490C4A42F8231001332F2BF2D90A4B1A780A4B1A70074A0A4B1A60FFF747
:4004C00033FF08BD0004FA050CED00E014ED00E000000000250400000080FF1FBC760040C080FF1F08ED00E001BE704710B5044605E0084B186800F0CFFBA4F50044B4F55F
:40050000004FF6D8034B586800FB04F000F0C4FB10BD00BFCC80FF1F08B5034B1B7A00FB03F000F0B9FB08BDCC80FF1F70B504460E46074B1D681F2802D90020FFF7D4FFF6
:4005400004F01F04103455F8240045F8246070BD08ED00E038B504460D46072902D90020FFF7C2FF1F2C02D90020FFF7BDFF04F01F0000F1604000F564406D01EDB20570C9
:4005800038BD00BF10B50B4C237803F09F032370237803F0F00323702378184340F0100020700120FFF7B8FF237803F0EF03237010BD00BF2051004038B505460E4C237883
:4005C00043F020032370237803F0BF0323700020FFF7A2FF237803F0F003237023781D4345F0100525700120FFF796FF237803F0EF03237038BD00BF2051004070B5354BC1
:400600001A7802F08002D2B21A7033490A7802F0F00242F00F020A7001310A7802F0F0020A7001310A7802F0F0020A701A7802F0DF021A701A7842F040021A704FF4CA76E1
:400640000020FFF769FF234D2B7843F010032B700120FFF761FF214B1C78E4B22B7803F0EF032B700020FFF757FF04F00804E4B22B7843F010032B700120FFF74DFF2B784C
:4006800003F0EF032B7014B90A20FFF745FF013E0CB1002ED4D10F4A137803F0BF031370137803F08003DBB213700232137803F0F00313700132137803F0F00343F00F037C
:4006C00013700132137803F0F00343F00F03137070BD00BF20510040225100402151004010B50446FFF78AFF2009FFF765FF04F00F00FFF761FF10BD38B5054600780124FD
:4007000004E0FFF7EDFF285D0134E4B20028F8D138BD00BF10B50446FFF770FF2009FFF731FF04F00F00FFF72DFF10BD08B52820FFF7DCFE0320FFF725FF0520FFF7D6FE48
:400740000320FFF71FFF0F20FFF7D0FE0320FFF719FF0120FFF7CAFE0220FFF713FF0520FFF7C4FE0620FFF7D5FF0E20FFF7D2FF2C20FFF7CFFF0820FFF7CCFF0120FFF743
:40078000C9FF0C20FFF7C6FF0320FFF7C3FF0520FFF7ACFE08BD00BF08B50C20FFF7BAFF0122014B1A7008BD5C81FF1F08B5054B5B7823B9FFF7BAFF0122024B5A70FFF77A
:4007C000EBFF08BD5C81FF1F08B5032819D8DFE800F002070D1381F08000FFF79BFF08BDA1F14000C0B2FFF795FF08BDA1F16C00C0B2FFF78FFF08BDA1F12C00C0B2FFF7DE
:4008000089FF08BD10B584B000238DF80E30092211E0144BA3FB0013DB081C4603EB83035900431ADBB2303304A9114401F80C3C2046013AD2B20928EBD80A4BA3FB00139F
:40084000DB0803EB83035900431ADBB2303304A9114401F80C3C01AB9818FFF74DFF04B010BD00BFCDCCCCCC024A137843F080031370704779640040014B1880704700BFEB
:4008800010680040014B1880704700BF90680040014B1880704700BF50680040014B1880704700BF70680040014B1870704700BF89640040014B1878704700BF6964004054
:4008C000014B188880B27047B068004008B501E0FFF7F6FFFFF7EEFF10F0100FF8D108BD10B5164A137803F0C00343F0090313701F32137843F001031370114C237843F0C9
:40090000010323704EF66020FFF7B6FF4EF66020FFF7B8FF0020FFF7BBFF0020FFF7BEFF0020FFF7C1FF00F0BFF9237843F01003237000F0BDF9FFF7C9FF10BD796400405D
:400940009964004008B5054B1B7823B9FFF7C8FF0122024B1A70FFF787FF08BD5E81FF1F08B50122054B1A6005490020FFF7DEFD07210020FFF7EEFD08BD00BF80E100E0F2
:400980005D0A000010B50124064B1C6000F0A0F8A0F5004000B2044B1B68044A1460184410BD00BF80E100E06081FF1F00E100E038B505460124054B1C604FF4004000F0F1
:4009C00081F8034B1D60034B1C6038BD80E100E06081FF1F00E100E0024B187800F00F00704700BF6864004040F00700014B1870704700BF8864004008B50F20FFF7F4FF13
:400A0000FFF7EAFF00F050F9054A137843F01003137000F04DF90122024B1A6008BD00BF9864004000E100E008B500F0A3F84FF4004000F047F80022064B1A60064B1B788F
:400A400023B9FFF78DFF0122034B1A70FFF7D4FF08BD00BF6081FF1F5F81FF1F0D4B1B78DBB213F0010F06D00B490A6802F5FF427F320A6007E013F0020F04D006490A68C9
:400A8000A2F500420A6013F0040F02D00022024B1A607047686400406081FF1F024A137843F08003137070477A650040014B1870704700BF88650040014B1878704700BFB1
:400AC00068650040014B1880704700BF146A0040024B1B78024B188880B270470A650040946A0040014B188880B27047946A0040014B1880704700BF546A0040014B1880DF
:400B0000704700BF746A004008B501E0FFF7EAFFFFF7D2FF10F0400FF8D108BD08B5134B1A7802F0F8021A701A7802F0FC021A70FFF7EAFF4FF40040FFF7DAFF4FF400401D
:400B4000FFF7C0FF0020FFF7B1FFFFF7B5FF4FF40040FFF7D3FF00F0A7F8054A137843F01003137000F0A4F808BD00BF7A6500409865004008B5054B1B7823B9FFF7CEFF28
:400B80000122024B1A70FFF789FF08BD6481FF1F024A137843F08003137070477B640040014B1870704700BF0B640040014B1870704700BF4B640040014B1870704700BF93
:400BC0002B640040014B1870704700BF3B640040014B1870704700BF8B640040014B1878704700BF6B640040014B1878704700BF5B64004008B501E0FFF7F6FFFFF7EEFF66
:400C000010F0100FF8D108BD10B5134A137803F0C00343F009031370104C237843F0010323706420FFF7BCFF6420FFF7BFFF6420FFF7C2FF6420FFF7C5FF0020FFF7C8FF5E
:400C400000F032F8237843F01003237000F030F8FFF7D0FF10BD00BF7B6400409B64004008B5054B1B7823B9FFF7CEFF0122024B1A70FFF78DFF08BD6581FF1F044A1378C2
:400C800003F0BF03800100F0400018431070704700510040000000000230800803D000BF01380046FCD17047EFF3108072B6704780F31088704700BF80F0004002E000BF39
:400CC00081F0004142001FBF5FEA410392EA030F7FEA226C7FEA236C6AD04FEA1262D2EB1363C1BFD218414048404140B8BF5B42192B88BF704710F0004F40F4000020F021
:400D00007F4018BF404211F0004F41F4000121F07F4118BF494292EA030F3FD0A2F1010241FA03FC10EB0C00C3F1200301FA03F100F0004302D5494260EB4000B0F5000FD4
:400D400013D3B0F1807F06D340084FEA310102F10102FE2A51D2B1F1004F40EBC25008BF20F0010040EA03007047490040EB000010F4000FA2F10102EDD1B0FA80FCACF198
:400D8000080CB2EB0C0200FA0CF0AABF00EBC25052421843BCBFD0401843704792F0000F81F4000106BF80F400000132013BB5E74FEA41037FEA226C18BF7FEA236C21D00D
:400DC00092EA030F04D092F0000F08BF0846704790EA010F1CBF0020704712F07F4F04D1400028BF40F00040704712F100723CBF00F50000704700F0004343F0FE4040F411
:400E0000000070477FEA226216BF08467FEA23630146420206BF5FEA412390EA010F40F4800070474FF0000304E000BF10F0004348BF40425FEA000C08BF704743F096437A
:400E400001464FF000001CE050EA010208BF70474FF000030AE000BF50EA010208BF704711F0004302D5404261EB41015FEA010C02BF84460146002043F0B64308BFA3F195
:400E80008053A3F50003BCFA8CF2083AA3EBC25310DB01FA02FC634400FA02FCC2F12002BCF1004F20FA02F243EB020008BF20F00100704702F1200201FA02FCC2F12002A7
:400EC00050EA4C0021FA02F243EB020008BF20EADC7070474FF0FF0C1CEAD0521EBF1CEAD15392EA0C0F93EA0C0F6FD01A4480EA010C400218BF5FEA41211ED04FF0006349
:400F000043EA501043EA5111A0FB01310CF00040B1F5000F3EBF490041EAD3715B0040EA010062F17F02FD2A1DD8B3F1004F40EBC25008BF20F00100704790F0000F0CF062
:400F4000004C08BF49024CEA502040EA51207F3AC2BFD2F1FF0340EAC250704740F400004FF00003013A5DDC12F1190FDCBF00F000407047C2F10002410021FA02F1C2F192
:400F8000200200FA02FC5FEA310040F1000053EA4C0308BF20EADC70704792F0000F00F0004C02BF400010F4000F013AF9D040EA0C0093F0000F01F0004C02BF490011F413
:400FC000000F013BF9D041EA0C018FE70CEAD15392EA0C0F18BF93EA0C0F0AD030F0004C18BF31F0004CD8D180EA010000F00040704790F0000F17BF90F0004F084691F087
:40100000000F91F0004F14D092EA0C0F01D142020FD193EA0C0F03D14B0218BF084608D180EA010000F0004040F0FE4040F40000704740F0FE4040F4400070474FF0FF0CD2
:401040001CEAD0521EBF1CEAD15392EA0C0F93EA0C0F69D0A2EB030280EA010C49024FEA402037D04FF0805343EA111143EA10130CF000408B4238BF5B0042F17D024FF4E4
:40108000000C8B4224BF5B1A40EA0C00B3EB510F24BFA3EB510340EA5C00B3EB910F24BFA3EB910340EA9C00B3EBD10F24BFA3EBD10340EADC001B0118BF5FEA1C1CE0D189
:4010C000FD2A3FF650AF8B4240EBC25008BF20F0010070470CF0004C4CEA50207F32C2BFD2F1FF0340EAC250704740F400004FF00003013A37E792F0000F00F0004C02BFC7
:40110000400010F4000F013AF9D040EA0C0093F0000F01F0004C02BF490011F4000F013BF9D041EA0C0195E70CEAD15392EA0C0F08D142027FF47DAF93EA0C0F7FF470AFE5
:40114000084676E793EA0C0F04D14B023FF44CAF08466EE730F0004C18BF31F0004CCAD130F000427FF45CAF31F000437FF43CAF5FE700BF4FEA4002B2F1FE4F0FD34FF0BB
:401180009E03B3EB12620DD94FEA002343F0004310F0004F23FA02F018BF404270474FF00000704712F1610F01D1420205D110F0004008BF6FF0004070474FF000007047AE
:4011C000014B1868704700BF3C81FF1F0E4B70B51E460E4C0025E41AA410A54204D056F8253098470135F8E700F046F8084B094C1E46E41AA4100025A54204D056F82530FE
:4012000098470135F8E770BD8412000084120000841200008C12000010B5431E0A44914204D011F8014B03F8014FF8E710BD03460244934202D003F8011BFAE770470000E1
:4012400000000000305100404000C05100401000F0510040100000000140001000140140000800400140000A004C0140000200500140200043000000F8B500BFF8BC08BCDB
:401280009E4670474D00000081040000F8B500BFF8BC08BC9E46704729000000B0120000C880FF1F780000002800000000000000000000000000E02EC05D0000180000000E
:4012C00000366E01000000000000000000000000000000000000000000000000000000000000000074120000000000000000000000000000000000000000000000000000C3
:40130000000000000000000000000000000000000000000000000000000000000000000000000000DC80FF1F00000000000000000000000000000000000000000000000033
:40134000000000000000000000000000000000000000000000000000000000000000000000000000000000000000000000000000000000000000000000000000000000006D
:40138000000000000000000000000000000000000000000000000000000000000000000000000000000000000000000000000000000000000000000000000000000000002D
:4013C00000000000000000000000000000000000000000000000000000000000000000000000000000000000000000000000000000000000000000000000000000000000ED
:4014000000000000000000000000000000000000000000000000000000000000000000000000000000000000000000000000000000000000000000000000000000000000AC
:020000040003F7
:0200000480007A
:4000000002520040036400400165004001050140010701405B08014036090140440A01402A0B01404A1801403E1901405D1A0140411B014002400140034101400342014008
:400040000243014005470140104C0140045001400151014008800984880F890F8B0F886FE280EE0803010D960F68117F120115FE17011DC51F3A250E27F02DA32F5C30017E
:4000800035FF36013F104010410649FF4AFF4BFF4DA04F045018540F5604580459045A045B045C025D025F01604062C06440654066C068C06AC06CC06EC0840497089B0578
:4000C0009E029F02A203A502A604AF0CB002B102B201B308B404B501B704BF04C040C106C5D5C601C702C817C9FFCAFFCBFFCDAFCE0FCF04D018D280D407D804D904DA044C
:40010000DB04DC22DD22DF01E040E2C0E440E540E6C0E8C0EAC0ECC0EEC0000809800E4010A019141B011C401DC0200822442380261029442F2230A8350236883C803D02A8
:4001400040404580482849014C08508859115A085B805D015E885F206440724087019C409E20A040A108AB40AC04AF20C004C211C40CCA5ACCDECE90D011D224D6FFD880E8
:40018000E408EA08EC01010803100B040D100F0819081B121D081E011F102B01311833013504360137023B02580459045F0183028A0D8B0490049B05A108AA01AE02AF0911
:4001C000B008B101B204B302B401B504B602B708BF10C020C106C5D0C620C715C83AC9FFCAFFCBFFCDA0CF04D018D280D407D804D904DA04DB04DC11DD11DF01E040E2C0D3
:40020000E440E540E6C0E8C0EAC0ECC0EEC0060809800E401602172018021E601FA020C0218822102640276828042F8231803210372038423A203C023F2047204D014F202C
:40024000560A57125D015EA05F0874018840C040C211C4C0CA94CC2CCEADD020D220D6F0E2800007011C0410062008800A400B200C080D110E010F04100C12021410150D5E
:400280001620171018201A1F1B021C801D111F08200C214022012410250126202704280B2A042B402F1D300F310332803320343035403640371D38083A203F10540F58040C
:4002C00059045B045F058073849486608C308EC990CF9101923097049A0F9F03A09EA260A8FDAA02B102B304B4FFB701BE10BF40D804D904DF0100800183032005A2071090
:4003000009200A400C800D080E48128C15081604170118081E581F632020210623012501268227192DA02E202F603080310A36983C203D013E405C405F19660867047D01CF
:400340009D029F20A040A108A210A501A6C8A722AA40AE20B101B208B502B604C0FDC2FAC47ACAF0CC7BCEB0D6F0D860DE80EA08EC01000C010C034307800B700C0712106B
:40038000141019131B2C1C0C1D1A1F25200121772401257F280A2D452E302F0A300E3220330F341035F0360138823E504021410649FF4AFF4BFF4DA04F0150185280580436
:4003C00059045A045B045F016040628064406540668068406A806C406D206E80850487028B068F0194019906A201B001B304B501B702BE01BF44C065C102C52CC634C70ECE
:40040000C81FC9FFCAFFCBFFCDAFCE07CF01D018D804D904DA04DF01E040E280E440E540E680E840EA80EC40ED20EE80028003020A600B020E2010A0120A1640180319020C
:400440001A2C1B021C402008213022082650272029822A04328033203610380839203B023C083E103F8040014204452048044C814E044F0454205668574072408480871052
:400480009008921093029440971499809A049D029E289F20A282A320A480A520A648C009C22DC41FCA0BCC2CCE77D02CD2343040CC1063029C40D64088409C40A701AF0107
:4004C000EE10870492809601AA40AE010A010C045A80618067089280930896019C04A180A980AC04C206D401D602D80100070C0710011C010003000000C0C0008000000075
:40050000609F9F0094000000007F7F00000000000000000000000000000000000000000000000000000000000000000000000000000000000000000000000000000000008B
:40054000000000000000000000000000000000000000000000000000000000000000000000000000000000000000000000000000000000000000000000000000000000007B
:40058000000000000000000000000000000000000000000000000000000000000000000000000000000000000000000000000000000000000000000000000000000000003B
:4005C00000000000000000000000000000000000000000000000000000000000000000000000000000000000000000000000000000000000000000000000000000000000FB
:4006000000000000000000000000000000000000000000000000000000000000000000000000000000000000000000000000000000000000000000000000000000000000BA
:0200000490006A
:0400000000004005B7
:0200000490105A
:04000000BC90ACAF55
:0200000490303A
:02000000017687
:0200000490402A
:4000000000000000000000000000000000000000000000000000000000000000000000000000000000000000000000000000000000000000000000000000000000000000C0
:400040000000000000000000000000000000000000000000000000000000000000000000000000000000000000000000000000000000000000000000000000000000000080
:400080000000000000000000000000000000000000000000000000000000000000000000000000000000000000000000000000000000000000000000000000000000000040
:4000C0000000000000000000000000000000000000000000000000000000000000000000000000000000000000000000000000000000000000000000000000000000000000
:0200000490501A
:0C00000000012E16106900012E1F11DFF8
:00000001FF