:400000000040002011000000690700006907000080B500AF00F0B2FB80B500AF254B12221A6001F095FF244B180002F041F9012001F09EFF0C2001F00BFD204B204A1A6091
:40004000204B8022D2051A601F4B1F4A126802210A431A601D4B1E4A1A601E4B00221A601D4B1D4A126808218A431A60FA23DB00180001F03BFD194B180001F043FE184B99
:40008000C02292001A60174B174A1A60174BA62212061A60164B00221A60164B40221A60084B8022D2051A60024B00221A60C046BD4680BD30001040001BB70004010B4008
:4000C000060000800C020B4078002E407C002E406A2D000064F02E406CF02E40DC050000000301400000014040FF008008010B4000010B401801014080B582B000AF72B6D1
:40010000374B00221A60FB1D00221A7022E0FB1D1A7813005B009B185B00324A9B183B603B681A78597809020A43997809040A43DB781B06134318003B681A795B791B0219
:4001400013439BB2190000F06DFAFB1D1A78FB1D01321A70FB1D1B78012BD8D9224A234B1100180000F06EFA214B03221A60214B00221A60204B00221A60204B204A1A60A1
:40018000204B802212061A601F4B992212041A601E4B802292021A601D4A1D4B1B78DBB206210B43DBB213701A4B81221A601A4B8022D2031A60194B802212021A60184B8F
:4001C00001221A60174BC1221A60174B174A1A60FFF722FF00F078FAC046BD4602B080BD6CF02E408C460100A44601009846010000030240000002400800044020500F40FC
:400200000400990024500F4030500F4038500F4000700F4000020440080204400C0204401802044000030440080304400600D80010B5064C2378002B07D1054B002B02D03F
:40024000044800E000BF0123237010BD901000200000000088460100084B10B5002B03D00749084800E000BF07480368002B00D110BD064B002BFBD09847F9E700000000A2
:400280009410002088460100A80B00200000000080B500AF012000F087FB012000F0C4FB62B601F0A5F901F0B5F9064B180000F05BFD054B180000F0E1FB00F085F9C046F2
:4002C000BD4680BDFD040000C104000090B583B000AFFFF7DDFF01F05DFB00F069F801F011FB00F095F902002D4B1A602C4B1A682C4B1B68D31A2C4A934230D900F0B2F828
:40030000274B1A68274B1A6029E002F0F1FBFC1D032002F0E5FB03002370BC1D01F0D1FF03002370FB1D1B78032B0CD104F06CFC0300042B04D004F067FC0300062B09D1A5
:4003400001F04CFD06E004F05FFC0300022B01D001F02AFDBB1D1B78180001F0B6FF00F057F902000E4B1B689A42CED00F4B1B78002BB0D000F08CFD00F084FA00F09AFA31
:40038000012000F011FB012000F04EFB002000F0F3FA002000F030FB01F056FD9BE7C046AC100020B0100020E7030000C110002090B583B000AF00237B6001F04DFA0220AC
:4003C00001F05AFABC1C002001F07AFA03002380BB1C00229A5ED423DB009A422EDD1B4B1B78002B26D01A4B1B78002B08D0184B00221A7000F00CF90200164B1A6019E01C
:4004000000F006F90200144B1A60134B1A68114B1B68D31A7B607B68002B07D079680F4802F06CF90300DAB20D4B1A700A4B1A68084B1A60054B00221A7002E0034B012293
:400440001A70C046BD4603B090BDC046AC0B0020AD0B0020B8100020BC10002060EA0000B410002080B582B000AF124B1B78002B1BD03B1D1A000221002000F00DFB0E4B10
:400480001A783B1D5A70391D0C4B1A785B781B02134300201B041B0C020C1204134318000B000222002100F045FBC046BD4602B080BDC046C0100020B4100020E821002090
:4004C00080B582B000AF786039607B68AA22FF32934204D0D5225200934204D007E0064B01221A7003E0044B00221A70C046C046BD4602B080BDC046C010002080B582B0DC
:4005000000AF786039607B68282B1BD004D8012B09D0262B0ED039E0422B26D0712B28D0412B16D032E0002000F0BEFC002000F03BFA2BE0174B1B78042B26D1164B01223D
:400540001A7022E0144B01221A70144B00221A701CE000F05DF80200114B1A60012000F023FA002000F060FA10E00E4B00221A700CE03B681B88002B03D1084B02221A7000
:4005800004E0064B03221A7000E0C046C046BD4602B080BDE0210020C1100020C8100020C4100020C010002080B500AF054B1B680A331A00034B1A60042001F041FEC0465B
:4005C000BD4680BDCC10002080B500AF0F4B1900082001F0D5FA01F015FD0121002001F053FD0121002001F07DFD4023FF331900002001F0DDFD012001F0AAFD082001F0E2
:4006000039FB01F0D5FCC046BD4680BDA905000080B500AF024B1B681800BD4680BDC046CC10002080B582B000AF786039603A687B680021180002F01BFAC046BD4602B0BB
:4006400080BDC04680B586B000AF7860396000233B6100237B612FE07B699B007A68D3181B68BB600F23FB18BA681A70BB68FF229343BB6018E03B695B003A68D3181B78B8
:400680001A00BB68D31819003B695B003A68D3185B780B703B6901333B610F23FB181A780F23FB18013A1A700F23FB181B78002BE1D17B6901337B617B69022BCCD9C04665
:4006C000BD4606B080BDC04680B500AF0E4B802212061A600D4B03221A600D4B0D4A1A600D4B03221A600D4B802212061A600C4B8022D2031A600B4B00221A60012000F09F
:4007000013F8C046BD4680BD000030403000304080003040044004003000314000003A4000033A40000E3F4080B584B000AF0200FB1D1A700B4B1B68FB60FB1D1B78002B35
:4007400005D0FB68802212061343FB6003E0FB685B005B08FB60034BFA681A60C046BD4604B080BD80033A4080B500AF02F03CF903001B680C2B00D1FEE7FEE780B586B088
:4007800000AF224B7B61224B3B61204B7B6135E03B691B68FB603B695B68BB603B699B683B6000237B600CE0FB681A68BB681A60BB680433BB60FB680433FB607B680433A6
:4007C0007B607A683B689A42EED13B69DB683B6000237B6008E0BB6800221A60BB680433BB607B6804337B607A683B689A42F2D13B6910333B617B69013B7B617B69002BBB
:40080000C6D102F0F7F8FFF761FDFEE7010000004C4C010080B582B000AF154B144A126801218A431A6000237B600FE07B68032B04D8104B7A689200D35800E00E4B0F4A50
:40084000796889008B507B6801337B607B682F2BECD9FFF751FC0A4B00221A60044B044A126801210A431A60C046BD4602B080BD0000104000000000690700000000002033
:40088000C000002080B582B000AF094B1B68DAB2FB1D7F218A431A70054BFA1D12781A60FB1D1B78DB09DBB21800BD4602B080BD1002044080B500AF00F054F8054B180061
:4008C00000F010F8032000F01BF800F041F8C046BD4680BDD908000080B500AFC046BD4680BDC04680B582B000AF7860034B7A689A64C046BD4602B080BDC0460000002020
:4009000090B585B000AF0200FB1D1A701623FB600B23FC1801F0D5FC030023700A4B0A4A12680A491140FA1D1078FA68904002000A431A600B23FB181B78180001F0C5FCBD
:40094000C046BD4605B090BD00E400E0FFFF3FFF80B500AF024B04221A60C046BD4680BD00E100E080B500AF024B04221A60C046BD4680BD80E100E080B582B000AF020024
:40098000FB1D1A70064B064A126806491140FA1D127892040A431A60C046BD4602B080BD08030440FFFFE3FF80B584B000AF0200FB1D1A700F4B1B68DAB20F23FB184021EA
:4009C0008A431A70FB1D1B789B01DBB240221340D9B20F23FB180F22BA1812780A431A70044B0F22BA1812781A60C046BD4604B080BDC0460003044080B582B000AF02002E
:400A0000FB1D1A70064B064A126806491140FA1D127852050A431A60C046BD4602B080BD08030440FFFF1FFF80B584B000AF0200FB1D1A700D4B1B68DAB20F23FB187F212F
:400A40000A401A70FB1D1B78DB01D9B20F23FB180F22BA1812780A431A70044B0F22BA1812781A60C046BD4604B080BD0003044080B500AFC046BD4680BDC04680B582B0B9
:400A800000AF7860034B7A681A60C046BD4602B080BDC046D010002080B586B000AF3A60FB1D021C1A70BB1D0A1C1A701623FB1800221A80FB1D1B78022B04D91623FB1802
:400AC00001221A802CE0FB1D1B78012B07D11523002B04D11623FB1813221A8020E0FB1D1B78134A5B00D31802331A880823FB181A81BB1D1B789AB20823FB189A800823F3
:400B0000FB183A681A600823FB180122002118000EF0DEFD031E03D01623FB1801221A801623FB181B881800BD4606B080BDC046B446010090B589B000AF0C243C192080C6
:400B4000080011007B600B23FB18021C1A700A23FB180A1C1A702D4B1B78022B05D01E23FB180422FF321A8049E00B23FB181B78022B04D91E23FB1801221A803FE01323E9
:400B8000002B14D013235A1E214913009B009B189B00CB1810331B685B68180000F020FA03001A00012313409BB2002B05D11E23FB18802252001A8021E00B23FB181B78EB
:400BC000144A5B00D31802331A881023FB181A811023FB187A681A600A23FB181B789AB21023FB189A801E23FC181023FA180C23FB18110018680DF001FF030023801E2327
:400C0000FB181B881800BD4609B090BDE0210020DC460100B446010090B587B000AF786000237B611323FB1800221A700823FB187A6812881A800823FB1800225A607B6856
:400C40009B89132293421FD10823FB1800229A707B685B68180000F0C3F903001A00012313409BB2002B03D0AA23FF337B6102E0D5235B007B61294B1B78DBB2012293432A
:400C8000DAB2264B1A701DE07B689B891722934218D10823FB1802229A707B685B681B78012B03D1D4235B007B6103E01323FB1880221A70194B1B78DBB201229343DAB27E
:400CC000164B1A707B69002B21D07B68181D7A681323FC18402300210EF030FD030023701323FB181B78002B11D10D4B1B68002B07D00B4B1B680822B9187A691000984714
:400D000005E0084B1B687A6811004C2098471323FB181B781800BD4607B090BDEB210020D0100020D821002080B500AF064B00221A70064B00221A70054B00221A7000F0B0
:400D400009F8C046BD4680BDEB210020E4210020EA21002080B500AF00F016FCFFF788FEC046BD4680BDC046B0B594B004AF78603E23FB1800221A802823FA183D4B1000A9
:400D8000190014231A0001F06AFE3B4B1B78002B04D1FFF7C9FF384B01221A707B68002B5CD0364B7A681A603E23FB181B88002B29D11023FB181C22BA185A601023FB18C0
:400DC0002022BA181A601023FB1800221A812023FB181B221A802023FB181B225A802023FB1804221A711C23FB1800221A703E23FC180E23FA181023FB181100180001F0AB
:400E00006DFF030023803E23FB181B88002B29D13E23FC182823FD18AE231A01184919480023029300230193052300932B0001F0ABFE030023803E23FB181B88002B11D128
:400E4000114B01221A703E23FC18104B08222A2118000EF025FC0300238003E03E23FB1801221A803E23FB181B881800BD4610B0B0BDC046C0460100D4100020D8210020AA
:400E8000C800002009120000E0210020DC46010080B500AF01F042FE024B00221A70C046BD4680BDE021002090B585B000AF0200FB1D1A70FB1D1B78022B04D90E23FB18B0
:400EC00001221A804AE0294B1B78042B41D1284B1B78DBB21A00042313403AD1FB1D1B78002B0BD1234B1E221A82224B5B6820221A80204B5B6830225A8010E0FB1D1B7894
:400F0000012B0CD11B4B96221A821A4B5B68C822D2001A80174B5B688022D2015A80164BFA1D12781A700E23FC18124B18000CF0CDFB030023800E23FB181B88002B0DD15C
:400F40000B4B1B78DBB204221343DAB2084B1A7004E00E23FB180422FF321A800E23FB181B881800BD4605B090BDC046E0210020EB210020000C0020EA21002080B584B0E6
:400F800000AF78600A00FB1C1A700023BB60BB68002B20D07B689A79BB681A700F23FB1800221A7012E00F23FB181B780133BA68D3180F22BA18127879688A5C1A700F23D4
:400FC000FB181A780F23FB1801321A700F23FB181B78052BE7D9C046BD4604B080BDC04680B582B000AF78607B681B789AB27B6801331B789BB21B029BB213439BB21800B6
:40100000BD4602B080BDC04690B585B000AF78600F23FB1800221A707B689B890F22934232D17B68181D7A680F23FC18402300210EF084FB030023700F23FB181B78002BDC
:401040001AD17B685B681800FFF7CAFF03001A00022313409BB2002B07D00F4B1B687968822252001000984706E00B4B1B6879680622FF3210009847084B1B78DBB2012203
:401080009343DAB2054B1A700F23FB181B781800BD4605B090BDC046D8210020EB21002090B585B000AF78600F23FC187B681800FFF7AAFF030023701F4B1B78DBB21A0099
:4010C000012313400CD00F23FB181B78002B07D10F23FC187B681800FFF79EFD03002370154B1B78DBB21A00012313401FD10F23FB181B78002B16D00823FB1812229A70F4
:401100007B689A890823FB181A800823FB180F22BA181278DA700823FA187B68110018680DF02EFC03E07B6818680DF0BDFCC046BD4605B090BDC046EB21002080B582B044
:4011400000AF7860C046BD4602B080BD80B500AF044B00225A70034B00221A70C046BD4680BDC046E821002080B582B000AF7860C046BD4602B080BD80B500AFC046BD468F
:4011800080BDC04680B584B000AF78600E23FB1800221A707B689B79002B1CD10F23FB1800221A7012E00F23FB181B787A68D35C002B04D00E23FB1801221A700BE00F2324
:4011C000FB181A780F23FB1801321A700F23FB181B78052BE7D90E23FB181B781800BD4604B080BD80B582B000AF0200BB1D1A80C046BD4602B080BD80B582B000AF78602D
:40120000C046BD4602B080BD80B588B000AF02003960FB1D1A70CD4B1B78DBB201221343DAB2CA4B1A70FB1D1B78712B00D96BE19A00C74BD3181B689F461023FB180722A7
:401240001A701023FB1800225A701023FB18180003F03AFD1023FB1807221A701023FB1801225A701023FB18180003F02DFD0B23002B01D001F030FCB64B1B681800FFF7AA
:4012800081FF031E11D0B34B1B68180001F034FCB04B1B6800211800FFF770FEAD4B1B6801211800FFF76AFE36E0AB4B1B781A003F231A40A94B1B789901FC231B010B40A8
:4012C0001A43A74B1B781903F8235B020B401A43A44B1B785904FE231B040B401343BB61BB69DAB2A04B1A70BB691B0ADAB29E4B5A70BB691B0CDAB29B4B9A709A4B180083
:4013000001F0FAFB984B00211800FFF737FE964B01211800FFF732FE03200CF06BF80C23FB183F221A700C23FB1800225A700C23FB1818000CF07CF88C4B04221A70EAE047
:401340003B681800FFF710FFE5E03B681A78884B1A70E0E03B687B617B691B78002B00D0D4E07B695B78002B0BD1824B0022DA80804B00229A807F4B7F4A1A607B697D4A2B
:401380005A60724B1B78DBB201229343DAB26F4B1A70BBE06D4B1B78DBB21A002023134000D0B5E0754B1B78102B02D1734B0522DA70734B1B78714A110018000CF044F947
:4013C00003001A000A23FB181A800A23FB181B88002B06D06B4B1B680A22BA181100362098475A4B1B78DBB201221343DAB2574B1A708DE03B681800FFF7FEFE8BE03B6877
:401400001800FFF7F9FE594B02221A7083E0574B04221A707FE0554B1B78022B00D179E04A4B1B78DBB21A000123134000D171E0464B1B78DBB21A00042313400BD04B4B99
:4014400003221A70414B1B78DBB204229343DAB23E4B1A705EE03D4B1B78DBB21A00082313400BD0414B04221A70384B1B78DBB208229343DAB2354B1A704BE03B4B1B7864
:40148000032B47D1394B04221A7043E03B681B881800FFF7A7FE3EE0394A3B681000190002231A0001F0DBFA314B00221A70FFF763FE30E0FFF74AFE2DE03B685B88162B83
:4014C00005D81E23FB183A6852881A8003E01E23FB1817221A801E23FB1819883B681A8800231204120C1B0C1B04134318000DF051FA10E03B681800FFF7D2FD0BE03B6810
:401500001800FFF71BFE06E0C04604E0C04602E0C04600E0C0460D4B1B78DBB21A00112313400ED0094B1B78DBB201229343DAB2064B1A70134B1B68FA1D127839681000E2
:401540009847C046BD4608B080BDC046EB210020304A01001C0C00207CF1FF0F7DF1FF0F7BF1FF0F78F1FF0F140C0020E0210020E4210020D8100020A80B0020E80C00203C
:40158000E8210020D821002080B500AFC046BD4680BDC04680B500AF074B02221A60074B802212061A60064B00221A60054B03221A60C046BD4680BDE410002000003040B9
:4015C00004003040080F304080B500AF064A064B1968064B1B680B43802109010B431360C046BD4680BDC04604003040E410002080B500AF064B1B78002B04D1FFF7CAFF01
:40160000034B01221A70FFF7DFFFC046BD4680BDE010002080B500AF064B1B78002B04D100F00AF8034B01221A7000F0EBF8C046BD4680BDE810002080B584B000AF032163
:401640000F2000F0C3FA564B19000F2000F098FA544B01221A60544B1B68002B01DA534900E05349534B534A12680A431A60524B524A1A60524B534A1A60534B00221A608A
:40168000524B534A1A60534B514A1A60524B524A1268802149020A431A60504B00221A604F4B00221A604F4B01221A604E4B1B687B607B684D4A13407B607B6880229205FE
:4016C00013437B607B68012293437B60464B7A681A600023FB605BE00022DC239B0113407B60FB689B00424A944663447A681A600022012313400AD0384B384A11680120F8
:40170000FA68904002001204120C0A431A600022022313400AD0324B314A11680120FA68904002001204120C0A431A60002280239B00134003D080235B00BB6002E0802321
:401740005B01BB60002280235B00134005D1294BFA6852000021D15204E0264BFA6852000021D152BB68244A53438022D20094466344002B02DA214A94466344DB121BB227
:4017800019001F4BFA689200D150FB680133FB60FB68002BA0D0C046BD4604B080BDC046E919000020003A4080033A40C0021051C002005100003A4004003A408C000A80C4
:4017C00018003A400000FF071C003A4010003A400400040014003A4000033A4028023A4038023A4018023A4030003A40FFFFFFDF80003A40F021002010270000FF07000044
:40180000EC21002080B500AF0A4B1B68002B0EDBC046094B1B68002BFBDB064B054A1268802109060A431A600A2000F06BFAC046BD4680BD00003A4008023A4080B500AF95
:40184000044B044A1268520052081A60C046BD4680BDC04600003A4080B500AF024B01221A60C046BD4680BD24003A4080B500AFC046BD4680BDC04680B584B000AF786093
:401880000023FB607B680322134011D00B4B1B6801221340FB60FB68002B03D17B6802221340F3D1FB68002B02D0044B01221A60FB681800BD4604B080BDC04610023A40F7
:4018C00080B584B000AF78607B68002B02D0002000F0E6F97B68002B09D17B689B00084A944663441B681B041B0CFB6001E00023FB60FB681BB21800BD4604B080BDC0462B
:4019000080013A4080B500AF1D4B1B685B005A081C4B5A601A4B1A4A1268802109060A431A60194B1B68002B24DA184B1A6880235B02134003D0134B03221A7002E0114BDF
:4019400001221A70FFF792FFFFF778FF0E4B1A6880235B03134010D00B4B0B4A12680C490A401A60074B1B7804221343DAB2054B1A7002E0034B00221A70C046BD4680BD90
:4019800030003A40EC10002000003A4004003A40FFFFEFFF80B500AF104A114B5B6813600F4B1B78002B16D00D4B1B781A000423134006D00B4B0B4A1268802149030A43FB
:4019C0001A60FFF71FFF064B1B781A000223134001D0FFF741FFC046BD4680BD30003A40EC10002000003A4080B582B000AF054B1B687B60034B7A681A60C046BD4602B02D
:401A000080BDC04610023A4090B585B000AF78600F23FC1800F055FC030023700A4B7A68D104E02292031140074A1268074802400A431A600F23FB181B78180000F045FC81
:401A4000C046BD4605B090BD00010B40FFFFC7FF90B58BB000AF78602723FC1800F031FC03002370194B1A680C23FB181A60184B1A680C23FB185A607B68033B154AD35C01
:401A80001A000C23FB189A60134B1A680C23FB18DA601C23FB18114A1A600C23FA181C23FB185A600E4B1C22BA181A600D4B0E4A1A600B4B1B682723FB181B78180000F022
:401AC00004FCC046BD460BB090BDC04608010B4000010B40F84B010030001040B6EA000008001040040010401700008080B584B000AF78600023FB60154B154A12680121BF
:401B00000A431A60134B144A1A60144B134A1268802109020A431A607B68002B12D01023FB600CE0012000F0EDF800F019F8031E02D00023FB6005E07B68013B7B607B686B
:401B4000002BEFD1FB681800BD4604B080BDC04660F02E4078002E400220000010002E4080B582B000AF054B1B68012213407B607B681800BD4602B080BDC0460C002E401A
:401B800080B584B000AF02003960FB1D1A7080239B05FB60FB1D1B781F2B02D9002000F07FF8FB1D1B7810339B00FA68D3181B68BB60FB1D1B7810339B00FA68D3183A68EF
:401BC0001A60BB681800BD4604B080BD90B587B000AF0200FB1D1A70BB1D0A1C1A70BB1D1B78032B02D9002000F05AF8FB1D1B781F2B02D9002000F053F8FB1D1B78032214
:401C00001340DB0006337B611323FC1800F059FB03002370FB1D1B789B08DBB29B00144A944663441B68FB6003227B699A401300DA43FB681340FB60BB1D1A787B699A40BE
:401C40001300FA681343FB60FB1D1B789B08DBB29B00074A94466344FA681A601323FB181B78180000F031FBC046BD4607B090BD00E400E080B582B000AF0200FB1D1A707F
:401C8000064BFA1D12781F210A40012191400A001A60C046BD4602B080BDC04600E100E080B582B000AF0200FB1D1A7001BEC046BD4602B080BDC04680B582B000AF78600D
:401CC00009E00D4B1B68180000F0F2FA7B680B4A944663447B607A6880231B029A42F0D8074B1B687A685343180000F0E1FAC046BD4602B080BDC046FC0C00200080FFFF7E
:401D0000F40C002080B582B000AF0200BB1D1A80BB1D1B88044A12785343180000F0C8FAC046BD4602B080BDF80C002080B500AF164B164A1268920092081A60144B144AA8
:401D40001268920092081A60124B124A1268920092081A60104B104A1268920092081A600E4B0E4A1268920092081A600C4B0C4A1268920092081A600A4B0A4A1268920042
:401D800092081A60C046BD4680BDC0460800044008010440080204400803044008040440080504400806044090B583B000AFFC1D00F087FA03002370074B074A1268042111
:401DC0008A431A6030BFFB1D1B78180000F07DFAC046BD4603B090BD10ED00E090B583B000AFFC1D00F06DFA03002370114B114A1268520052081A600F4B104A128892B287
:401E00001A600F4B0E4A126804210A431A600D4B1B683B600220FFF7F7FD30BF094B3A681A60FB1D1B78180000F04FFAC046BD4603B090BD00000B400C000B4052F1FF0F37
:401E400010ED00E000010B4090B583B000AFFC1D00F037FA03002370FFF768FF114B114A1268802109060A431A600F4B0F4A128892B21A600E4B0E4A126804210A431A601B
:401E80000C4B0C4A1268FF218A43F1210A431A6030BFFB1D1B78180000F017FAC046BD4603B090BD00000B400C000B4050F1FF0F10ED00E02C000B4080B500AF0F4B0F4A9D
:401EC000126801218A431A600C4B0C4A126802218A431A600A4B0A4A126830218A4310210A431A60064B064A126807218A4301210A431A60C046BD4680BDC04600F02E4092
:401F000000FF2E4080B500AF0F4B0F4A126802218A431A600D4B0D4A126807218A4302210A431A60094B094A126830218A4320210A431A60044B044A126801210A431A606A
:401F4000C046BD4680BDC04600F02E4000FF2E4080B500AFFFF7B0FF044B044A1268802109060A431A60C046BD4680BD00F02E4080B584B000AF78600C4B1B68012213404F
:401F8000FB607B68002B02D0012B03D005E0FFF793FF06E0FFF7B6FF03E00020FFF780FEC046FB681800BD4604B080BD00F02E4090B583B000AFFC1D00F083F9030023705D
:401FC000074B074A1268C02109020A431A60FB1D1B78180000F079F9C046BD4603B090BD00010B4080B500AF054B1A68C0231B02134001D0012300E000231800BD4680BD3E
:4020000000010B4090B583B000AFFC1D00F059F9030023700D4B0D4A12680D490A408021C9010A431A60094B084A126808490A40802109020A431A60FB1D1B78180000F060
:4020400044F9C046BD4603B090BDC04600010B40FF3FFFFF80B582B000AF78607B68022B02D90020FFF71CFE064B1A687B68DB000133DA401300012213401800BD4602B04E
:4020800080BDC04610020B4080B584B000AF786039607B68022B02D90020FFF701FE7B681800FFF7D7FF031E16D10D4B1B687A68D200032191400A00D2431340FB603B6834
:4020C00003221A407B68DB009A401300FA681343FB60034BFA681A60C046BD4604B080BD0C020B4080B584B000AF786039607B68002B02D07B68012B01D1012300E00023B5
:40210000002B02D10020FFF7CBFD7B681800FFF7A1FF031E16D10D4B1B687A68D2000232012191400A00D2431340FB607B68DB0002333A689A401300FA681343FB60034BC4
:40214000FA681A60C046BD4604B080BD0C020B4080B582B000AF7860144B144A11687A680A431A607B680122134005D0C0460020FFF770FF031EFAD07A6880235B0013408C
:4021800005D0C0460120FFF765FF031EFAD07A6880235B02134005D0C0460220FFF75AFF031EFAD0C046BD4602B080BD10020B4080B584B000AF786039607B68002B02D0B4
:4021C0007B68012B01D1012300E00023002B02D10020FFF765FD174B1B689B0F9B0701D1C92300E05D231800FFF78CFD124B1B68FB607B681B01114A9A401300DA43FB6879
:402200001340FB600C4B7A68120139689140FA680A431A60074B1B689B0F9B0701D1432300E01F231800FFF76DFDC046BD4604B080BDC0460C020B4008020B40FFFF00006A
:4022400090B585B000AF78600B23FC1800F039F803002370FFF7C6FE031E04D00123FB60FFF7D0FE01E00023FB607B680D4A13407B600D4B0C4A12680C4911407A680A43AE
:402280001A60094B1B68FB68012B01D1FFF790FE0B23FB181B78180000F017F8C046BD4605B090BD0404040010020B40FBFBFBFF0230800803D00138FDD1C046C046C046F3
:4022C0007047EFF3108072B6704780F31088704780B582B000AF78600A00BB1C1A80BB1C1A887B681A60C046BD4602B080BDC04680B582B000AF78600A00BB1C1A80BB1C97
:402300001A887B681A60C046BD4602B080BDC04680B584B000AF494B1B78DBB21B02484A1278D2B21343FB60464B1B78DBB21B02454A1278D2B21343BB60BB68434A934205
:4023400007D1FB68072B04D1414BBB600423FB6009E0BA68D4231B019A4204D1FB68042B01D13B4BBB603B4BBA681A603A4BFA681A603A4B1B78DBB21B02394A1278D2B248
:402380001343FB60FA6880239B019A4202D0FB68002B01D1334BFB60334BFA681A60334B1B78DBB21B02324A1278D2B21343FB60FB68304A934206D0FB682F4A934202D089
:4023C000FB68052B01D12D4BFB602D4BFA681A602C4B1B681B097B602B4B1B68AA2B29D17B68012B26D9214B1B78DBB20E2B21D1264B1B78DBB29BB21B0299B2244B1B7883
:40240000DBB29AB2BB1C0A431A80224BBA1C12881A60214B1B78DBB29BB21B0299B21F4B1B78DBB29AB23B000A431A801C4B3A0012881A60C046BD4604B080BDD9F0FF0FEF
:40244000D8F0FF0FDFF0FF0FDEF0FF0F580B0000580D00006C002E4074002E40DBF0FF0FDAF0FF0F0220000078002E40DDF0FF0FDCF0FF0F0F0F000005050000050F00009F
:4024800080002E40EC0F00F0E00F00F06DF2FF0F6CF2FF0F84002E406FF2FF0F6EF2FF0F94002E4080B582B000AF0200BB1D1A80BB1D1B881800FFF725FCC046BD4602B0CB
:4024C00080BDC04680B582B000AF78607B681800FFF7F2FBC046BD4602B080BD80B500AF00F0ECF8C046BD4680BDC04680B500AF00F0F0F8C046BD4680BDC04680B500AFE5
:4025000000F0E8F8044B180000F0A2F8032000F0ADF8C046BD4680BDED26000080B500AF034B180000F080F8C046BD4680BDC046ED26000080B500AF0223FF331800BD4662
:4025400080BDC04680B582B000AF78602B231800BD4602B080BDC04680B582B000AF78602B231800BD4602B080BDC04680B582B000AF78602B231800BD4602B080BDC04634
:4025800080B582B000AF78602B231800BD4602B080BDC04680B582B000AF78602B231800BD4602B080BDC04680B582B000AF78602B231800BD4602B080BDC04680B582B0D0
:4025C00000AF78602B231800BD4602B080BDC04680B582B000AF78602B231800BD4602B080BDC04680B500AF2B231800BD4680BD80B582B000AF0200FB1D1A702B23180000
:40260000BD4602B080BDC04680B582B000AF786039602B231800BD4602B080BD80B500AFC046BD4680BDC04680B582B000AF786000F050F87B68180000F00AF8032000F06D
:4026400015F800F03BF8C046BD4602B080BDC04680B582B000AF7860034B7A681A67C046BD4602B080BDC0460000002090B585B000AF0200FB1D1A700623FB600B23FC18DC
:40268000FFF71FFE030023700B4B0B4A1268C0218A431100FA1D1078FA68904002000A431A600B23FB181B781800FFF70EFEC046BD4605B090BDC0460CE400E080B500AF40
:4026C000034B802252011A60C046BD4680BDC04600E100E080B500AF034B802252011A60C046BD4680BDC04680E100E080B500AF11F0B6FFC046BD4680BDC046002243088F
:402700008B4274D303098B425FD3030A8B4244D3030B8B4228D3030C8B420DD3FF22090212BA030C8B4202D31212090265D0030B8B4219D300E0090AC30B8B4201D3CB03F3
:40274000C01A5241830B8B4201D38B03C01A5241430B8B4201D34B03C01A5241030B8B4201D30B03C01A5241C30A8B4201D3CB02C01A5241830A8B4201D38B02C01A52411E
:40278000430A8B4201D34B02C01A5241030A8B4201D30B02C01A5241CDD2C3098B4201D3CB01C01A524183098B4201D38B01C01A524143098B4201D34B01C01A524103092C
:4027C0008B4201D30B01C01A5241C3088B4201D3CB00C01A524183088B4201D38B00C01A524143088B4201D34B00C01A5241411A00D20146524110467047FFE701B5002083
:4028000000F0F0F802BDC0460029F7D076E7704703460B437FD4002243088B4274D303098B425FD3030A8B4244D3030B8B4228D3030C8B420DD3FF22090212BA030C8B422A
:4028400002D31212090265D0030B8B4219D300E0090AC30B8B4201D3CB03C01A5241830B8B4201D38B03C01A5241430B8B4201D34B03C01A5241030B8B4201D30B03C01A50
:402880005241C30A8B4201D3CB02C01A5241830A8B4201D38B02C01A5241430A8B4201D34B02C01A5241030A8B4201D30B02C01A5241CDD2C3098B4201D3CB01C01A5241A0
:4028C00083098B4201D38B01C01A524143098B4201D34B01C01A524103098B4201D30B01C01A5241C3088B4201D3CB00C01A524183088B4201D38B00C01A524143088B4206
:4029000001D34B00C01A5241411A00D201465241104670475DE0CA0F00D04942031000D34042534000229C4603098B422DD3030A8B4212D3FC22890112BA030A8B420CD3C2
:40294000890192118B4208D3890192118B4204D389013AD0921100E08909C3098B4201D3CB01C01A524183098B4201D38B01C01A524143098B4201D34B01C01A524103098A
:402980008B4201D30B01C01A5241C3088B4201D3CB00C01A524183088B4201D38B00C01A5241D9D243088B4201D34B00C01A5241411A00D20146634652415B10104601D3A1
:4029C0004042002B00D54942704763465B1000D3404201B5002000F005F802BD0029F8D016E770477047C046014B18687047C046881000200E4B70B500251E000D4CE41A6D
:402A0000A410A54204D0AB00F35898470135F8E712F00AF9084B00251E00084CE41AA410A54204D0AB00F35898470135F8E770BD344C0100344C0100344C01003C4C0100BE
:402A400030B50024A24208D0035D651C0C5DA34201D0181B02E02C00F4E7002030BD002310B59A4203D0CC5CC4540133F9E710BD03008218934202D019700133FAE7704717
:402A8000134A1088810703D08107890F401A001D11791030484381B25088820703D08207920F801A001D800040180A494030098980B2CA0701D0503080B2890706D5044927
:402AC0005422091F09785143081880B2704700000A0D00200011002010B501F0D9FF10BD10B501F0DBFF10BD10B501F0EDFF10BD10B500F06FFA10BD10B5074904460978C0
:402B00000220002907D1204602F04CF8002802D120460AF07FFD10BDA80E002010B507F0E9FD01F0D1FF02F027F8084C2078002801D000F059FA00F06DFAFF2001F0DAF986
:402B4000FF2001F0E7F90020207010BD040D002070B504460120002C12D02368002B0FD0616800290CD0074D06222889208118462968FFF774FF69686068097801700020E5
:402B800070BD000000110020FFB585B0002768460E9D07734F481C460078002802D0082009B0F0BD10990F9801900095029105A807C800F001F90028F2D16946264603ABB8
:402BC00084460873002C19D0002115E08A00B75A082F09D990198078002805D0083FB7521878401C187005E0002914D00027B75290198770491CC9B2A942E7D3604600283A
:402C0000CED10F98002809D0109901F0EFFA002804D00120C4E701208446EFE701F054FF2D480021416081600599016021888180022D07D3A1798171A17AC171A18901812E
:402C4000218A418100211EE0481C19E082008B00A75AE65ABE46BE4211D26F463E80B4461E190296B678BE7001967646E6521719029EBB78B3706646A652019EBE70401C20
:402C8000A842E3D3491CA942DED3134822460C3000906846037B0799069800F015F90028B8D168460B4C007B60700B480C3001F03BFF0028AED1084907480C3107F0FCFC4E
:402CC0000028A7D107F01EFD0028A3D10121217066E70000040D0020F4100020F8B5054633480E460078002802D002242046F8BD002E5BD000242F49002D16D02A89D00725
:402D00000DD02868002808D003881B3BE12B04D24088FB2801D81B2801D2012409E0900707D56868002804D1F7E70020088108604860002CDAD11F482F8907811C481B2186
:402D4000801D018041800421017119490020891C0870F80705D016480622801D2968FFF77EFE1449B80703D56A681148127882700F480D46801D0860001F486001F038FF0B
:402D80000B48801D01F026FF28890DF0EFFD28890DF068FF03461033FFF772FE1F21C018890140180249308088809FE701249DE7040D002000110020FFB58446384F1C4677
:402DC0000020BB883F78054602460646002F11D100290ED0029999420BD36146002908D0002C06D00A99002906D02E4B0B99994202D2012004B0F0BD002144E0AB001F19AC
:402E0000BF78002F3BD0E35A002B38D07B43591889B22B0000F04AF8050410161C253100A7782388BC46FF27233BEB37BB4222D26346032B1FD322E0A388002B1FD0302B7B
:402E400019D31CE02389002B19D0282B13D316E0A289002A13D01346134F233BBB420AD20DE0268A002A0AD033460F4F233BBB4201D2964203D901200EE0002001E00028BF
:402E80000AD16D1CEDB2099B9D42B7D31C2463435B1802998B42ACD89642AAD8AAE70000040D002079020000BAFF000030B47446641E2578641CAB4200D21D46635D5B00F3
:402EC000E31830BC18470000FFB583B0002469460C801F4606468C80002806D00598002803D004983043800701D0012466E0002FFBD03449049809888842F6D3FFF70EFBEB
:402F0000FFF7F4FA00F06AFC002855D100F0D4FD002851D12C49084601F09CF905042D0C4AD12A480499066081800021C18007810C98007AC00704D0684601F0DEFD0400C1
:402F400007D10C98007A800703D501A801F0DEFD0446BF1DFEB2002C20D13146059800F085F804001AD10DF08BFE040016D16A461088928808368518144AF1B29088D28803
:402F8000AEB29319984207D3401B801A80B201F053FC050007D000E0FF25012400F0B6FA002D04D008E0F8B200F044F9F6E700F0D9FA07490120087000F022FC204607B0D1
:402FC000F0BD0000080D0020593100000C110020100D002010B503480078012801D101F0CDFA10BD100D002010B500F003FE002803D100F009FC002801D0FF2010BD0448CE
:40300000007A801DC0B200F02DF9002010BD00000C11002010B500F009FE01F04DF90449002008608880C88008810249087010BD0C110020100D002070B5084B0446DA88F8
:403040009E8800205518B54206D81D68AA182260DA885118D98070BD032070BD0C11002001480089704700000C110020F0B587B007460D4600208900009006916846FFF76B
:40308000DBFF844600285DD1304800990160002117E02E4B88001A680629115406D22C4C0419667882185670628805E0C419203CA67A8218567022891B68C018491C428015
:4030C000C9B2A942E5D300242DE0601CC2B2059025E01E4FA30039689600581840887118039604904E88B04217D938466F46FE80B6464F786E4677710297049F4F80016886
:40310000039F5E18767879184E700168764659184E800068029F18184770521CD2B2AA42D7D30598C4B2AC42CFD36046002809D168460699FFF780FF8446002802D105493E
:4031400000980860604607B0F0BD0000140D0020604C0100180D00207047000010B5002809D005494A68002A05D0011F08788000105801F00FFB10BD140D002010B50446F6
:40318000FFF76EFFC0B2801DA0420CD307484068002808D0A100405801F06EFA002801D00470001D10BD002010BD0000140D0020F8B516460D460446FFF752FFC0B2801DD2
:4031C000A04203D20020C0430090F8BDB2B2E9B2684601F077FA0099481C03D0024AA000526811500098F8BD140D0020F8B50746FFF736FF801DC6B20A49002005460C68D0
:403200000DE06178002907D06188B94202D32078FFF7B4FF002804D1241D6D1CEDB2B542EFD3F8BD140D002010B5002801D0FFF795FF10BD70B506460948002504680BE066
:403240006178002905D062882078121D0023FFF7AFFF241D6D1CEDB2B542F1D370BD0000140D0020F8B5084F064600243D6808E0287879688000085801F038FB2D1D641C1D
:40328000E4B2B442F4D3F8BD140D0020FFB581B00A9F16000C4620D000F0F2F8054604281BD0002F0CD03846FFF7A0FF20492A0151184860002810D03A460499FFF7CFFBFB
:4032C0001B4928010E504618778101980570200406D47D20C000444304E0FF2005B0F0BD6404640C00F0BAF80746042807D000F06BFAA0420BD800F067FA201A03E0204680
:4033000000F0C8FA0020F06035720020E6E700F05BFA009000F0D4FA00980121001B009000F008F902493A0151180098C860E6E718110020F8B5060116483418217A042903
:4033400003D0E068002802D017E00020F8BD00F03BFA054600F0B4FA00F0A0F804280CD001010C480F18F8680021451900F0E2F80020F860284600F08DFA6068054D002809
:4033800001D0FFF751FF042020720020A8516081E060DAE718110020FEB500266A46304601232549050169180D7A042D02D0C96800291BD000211154401CC0B20428F0D3D2
:4033C00000246846005D002830D01B48210108184189476805680291002101604160042241810272C160002E02D015E01354E3E700F054F804280ED001010F480818019042
:40340000C6680021304600F095F801980021C160304600F03FFA0126002D07D038460299A847002F02D03846FFF7FEFE641CE4B2042CC6D3FEBD0000181100200EB5002066
:4034400005216A460090118150810348694600680EF0A7FA0EBD00001C0D0020074A0020010189180B7A042B02D0C968002903D0401CC0B20428F3D37047000018110020E7
:403480000549002002015218127A042A03D0401CC0B20428F6D370471811002030B50A4B04200A4C00210A011219157A042D06D0D268002A03D09A4201D808461346491C48
:4034C000C9B20429EFD330BDFFFF00001811002070470000F8B500250B4F2E462801C419217A04290AD0042121723E506068002802D0FFF799FE66606681E6606D1CEDB27F
:40350000042DEBD3F8BD00001811002030B50020074C05460423020111190B72A5504D60401C4D81C0B2CD600428F4D330BD00001811002030B5094C00231A011219157A64
:40354000042D04D0D568002906D02D18D5605B1CDBB2042BF1D330BD2D1AF7E718110020002070471CB5002469460C70142001902346054A05480EF019FA04480068401C5C
:4035800000D1FF2420461CBDE13500001C0D00203EB5124A0146FF2000230124126800290DD0012914D0042908D104206946009308814B8110460EF0F4F980B23EBD684611
:4035C000009304814381694610460EF0E5F9F4E768460093048143816946EBE71C0D002070B545890468416800890300FFF75EFC08280509091E22282628002005F01EFFCC
:403600001EE0022908D0C8B22A4621460CF0F6FA2046FFF709FE13E002202A4621460CF0EDFA2946204600F00DF809E000200DF0AFFE05E02046FFF7AFFE01E0FEF7EEFFEC
:40364000002070BD014B0022DB681847200D002070B5448905680089022803D0032809D0FF2070BD2246094C0023A46829460120A04708E0FFF738FA241DA2B200232946D1
:40368000022006F0CCFE002070BD0000200D002070477047024800214160018041807047200D002070B50C46002186B016460391012802D0022859D116E003A9012006F008
:4036C00003FF01281BD1039D324621462846FFF7C6F90095287801900220694608814E816846FFF7B5FF41E0214D002B686809D0049004A9022006F0E7FE01281DD00220F1
:4037000006B070BD002812D0298840182146FFF7A6F928880024801980B228806988091D884206D12C801348FFF792FF03E00320E6E788421AD96C6018E004986860E278F8
:40374000A378110219430B4A698000231060E3565360032313815181A1788170E178C1706178417021780170042028800020C7E7200D0020581100203EB515460C46022814
:4037800003D004280CD000203EBD0091019002206946088107484A8100680EF002F907E00CF02CFA044B0022DB6829462046984701203EBD1C0D0020200D0020014AD1607D
:4037C00090607047200D0020034801688068081A0A214843000970476411002010B5FEF78DFE482204490548FFF739F903490120C870002010BD00007C4C010068150020A3
:4038000010B5FEF76BFE10BD0020704770B5134C2368002B08D0207B1149C20705D04008400020738868A08070BD88680B4AA18880B29268814203D90A4D691A091802E0AE
:40384000814202D2411A5118A160A080A0689842EAD30EF0C3F800F013F870BD64110020C0102E40FFFF000010B508461946FFF7A5FF10BD704710B5FFF77EFF10BD0000E6
:4038800003480021016041608160C1607047000064110020024610B5FF20002A0CD0FFF7EFFF064C0321207B0843207310010A21FEF7AAFF2060002010BD0000641100206B
:4038C00000B504480A21806848430209FFF7D8FF104600BD641100200248007B8007C00F704700006411002010B54B490868002802DA4A4B01221A70022290430860484844
:4039000000694549C00B4031096A0246C907C90F0A4259D0012000F0EDFA3F480E216C30FEF7E6FC3E4820218430FEF7E1FC3C4814219C30FEF7DCFC3948FF21C131A43055
:40394000FEF7D6FC3648FF212F31B030FEF7D0FC33483449BC30FEF7CBFC31483249AC30FEF7C6FC30492E48491CB430FEF7C0FC2B482E49B830FEF7BBFC29482C49CC3071
:40398000FEF7B6FC26482B490830FEF7B1FC24482949A830FEF7ACFC214828498830FEF7A7FC1F4826498C30FEF7A2FC1C481921C9029030FEF79CFCFEF7AAFCFEF7BAFD05
:4039C000C0B2022812D01FE000290BD0002101420AD0114801216030FEF78AFC0120FEF771FD97E70121F2E7FF2010BD15491648FEF77EFC14481549001DFEF779FC1248D3
:403A000000210830FEF774FC54200449C043891C0870002010BD000000F02E40300D002000002E40320300002F3F00003102000010520000EC160000FA12000031D000008A
:403A40003AE300009956000080012E40F80F000070B50646581C80B245086D00002408E0304600F0C1F81055000A1119A41C4870A4B2AC42F4D3D80705D0D0182038D15C0B
:403A8000C47FD454C17770BD30B50A4C002100195B1E07E0541864782502545C2C430480891C89B29942F5DB994201D1515C018030BD000000102E4010B5FF2000F01AFA96
:403AC0000F49FF2048700E481021801D41800121417001700A490020C91C4870FFF704FF04000AD100F02EF907210648FEF7F0FB044807211830FEF7EBFB204610BD00004F
:403B0000300D0020CC112E4070B5002405465B1E0AE0284600F068F8010A161971702D1D1055A41CADB2A4B29C42F2DB9C4203D1284600F059F8105570BD000070B5002105
:403B40000A4D5B1E0AE0541864782602545C344346193480001D891C80B289B29942F2DB994202D1515C4019018070BD00102E40F0B50599091FCFB200217E1E0BE054182A
:403B800064782502545C2C43164D45192C80001D891C80B289B2B142F1DBFC0712D01C78515C24020F4A0C4381180C809C785D78001D210280B2294384182180001D80B21C
:403BC000D9780CE059781A7809021143054A84182180001DD9789B78090280B2194380180180F0BD00102E40014940180088704700102E4010B50B490020487000F0A2F802
:403C0000002000F09DF9002000F08AF907210648FEF75EFB044807211830FEF759FB002010BD0000330D0020CC112E4010B50C48007801280FD100F097FF00F0DDF80028DD
:403C400004D10848016A490849000162054802213030FEF74DFB02490020C91E087010BD330D002040F02E4010B50B46062812D006DC01280CD0032801D1FFF7BBFF10BD8E
:403C80000A28FCD00B28FAD105480078107010BDFFF712FF10BD1146184600F06DF910BD360D0020F8B5244DAC6A0127A007234E002816DA307806280ED1286A384328620F
:403CC0001F480069F903084381B21D481030FEF70FFB042000F00EF9174802212830FEF7F7FAE00718D000F097FF01280FD1002000F0E4FF062000F0FDF81049FF20C91E40
:403D000048707078002802D1686B384368630A4801212830FEF7DCFAE0050BD53078042802D1052000F0E6F80348FF2101312830FEF7CEFAF8BD000040F02E40330D002074
:403D400000002E4010B503212348FEF7D1FA0120FEF7A8FB20483038406A204C80076178800F890001431C480C38FEF7C1FA6078002808D0401E022181401820FEF72EFE9B
:403D8000C000083800E0B82081B21548FEF7B0FA1348032109021438FEF7AAFA10481149B830FEF7A5FA612189010F48FEF7A0FA0D480321001FFEF79BFA0C490C48FEF7CD
:403DC00097FA0B480B496038FEF792FA084801218838FEF78DFA10BD70F02E40360D0020D8102E4090890000041E2E40FF0F000058122E4020900000044800684007400FE7
:403E0000022801D0002070470120704700010B4000B5FFF7F1FF002805D009480168C908C900016000BD0748016A490849000162054801690122D2039143016100BD000029
:403E400000010B4040F02E4000002E400849087806280BD148780749002803D1486B400840004863C86A01221043C86270470000330D002040F02E4001480078704700001E
:403E8000330D002002484078022800D001207047300D002000B50300FFF708F8080D050D0B070507090D012000BD032000BD042000BD022000BDFF2000BD0000074A9168C4
:403EC000D26889B2064B92B2994204D105498A4201D1012100E000210170704780002E4033D000003FE300000149487070470000330D002010B50446FEF7F8FA072C01D9A2
:403F0000FF2C01D102480470FEF7E8FA10BD0000330D00200149487070470000300D002010B5064A012805D01921C9021046FEF7DFF910BD1D21C902F8E7000090002E40BE
:403F400010B50A4A141D012808D009491046FEF7CFF908492046FEF7CBF910BD04491046891CFEF7C5F90349491DF3E788002E4031D000003AE3000070B50C460546FEF702
:403F8000D9FAC0B202280E49287804D0FF2810D04C280CD810E0FF2809D10A4AD0680004800F032801D0087807E09069000A553803E00878207070BD4F382070087070BD89
:403FC000320D002000002E40F0B50122002834D0002932D00424420600D00524792342065B06D21800D0641C034600221EE00C2516466E43124D00277519AF72104F002A88
:40400000BB51696007D0661EB24209D10D4E86197606760E05E05E06760E8027BE1B00E080269B198919521C2E81D2B2A242DED303480549006B002288611046F0BD000017
:40404000F0130020790200003C0D002018B50020694608700A48006900280ED0132149014018047E684604704F21C900054800F059F8A04201D0012018BD002018BD000085
:404080003C0D002074110020074900200C2242435218927A012A05D0401CC0B20628F5D30020704701207047F0130020F8B50E000446154609D0194F19497868A04202D923
:4040C0004018A04201D38D4201D90120F8BD31462046FEF7B5FC00281ED02A4631462046FEF7BDFCE8B200210C224A43D21913895568EE18A6420BD90126641B1B1B96722F
:40410000834209DA1469C01A044AC0B220329676491CC9B20629E7D30020F8BDF013002079020000034610B50020024604E09C5C2018521CC0B292B28A42F8D310BD000014
:4041400070B500F063F8084C064A216907480D46FEF785FC05492846FFF736FFFFF776FF207070BD790200003C0D00207411002010B500F04BF810BD002070470020054AE6
:40418000002902D0012902D002E0906000E0D060002070473C0D002070B5084C154608460549E26889182A46FEF759FCE0684019E06028B270BD0000741100203C0D0020DB
:4041C0003EB50A226946FFF7E7FF044606480A2200686946FEF734FC002802D00020C0433EBD20463EBD0000400D0020002802D0044A914201D2FF20704703494A6108610B
:4042000000207047790200003C0D0020024800218160C160704700003C0D002070B5074C15460548A26880182A46FFF73FFFA0684019A06028B270BD741100203C0D00205A
:4042400010B503490A220968FFF7E8FF10BD0000400D002010B50F4A002313600E4A13600E4B18600E4801600E49012008600E490860000290600E490C4808600D49143034
:404280000860FF381538506000F0BEF800F0CCF9002010BD700D0020580D0020840D0020880D0020740D0020640D002038150020680D00207C0D002000207047014610B5D2
:4042C0000020002910D0094B1A689C685118A14209D25868196080188A0704D08A07920F891A091D196010BD002010BD580D0020F8B50024164E671E321F3D463168136809
:4043000006E01422624310328A58521C1BD0641C9C42F6D36A1C14D02C461422544322460C3288500C214843FFF7C8FF3168002808510AD031680020103408517068401CFE
:4043400070602846F8BD2546E4E73846F8BD0000680D0020F3B50026F64381B000281BDB1E490968884217D80299002914D01B4F142204463F1D54432546396810354859EE
:40438000401C09D0FEF7B2F838682F1F4159C359994203DBFEF7A2F83046FEBD214608310091465801590C20704308180C220299FEF755FB0948761C001D0068C159B14261
:4043C00000D100260549009A091D865008684159491C4151FEF782F80020FEBD640D0020002803DB07490968884202D90020C043704704491422091D096850431030085873
:4044000070470000640D0020F0B500200D4A451E0346171F50600FE014260146714314680E1DA3510C461668083433511668083435511468401C635039688842ECD3002022
:40444000F0BD0000680D0020F3B50026F64381B0002841DB2349096888423DD8029900293AD0204F142204463F1D54432546396810354859401C2FD0FEF738F83868415966
:4044800000292BD0211D009146580C21005971430F46C1190C220298FEF7E1FA11480021001D0068761C00590C34C0190160416081600C48001D00680159B14200D1002667
:4044C0000849009A091D865008684159491E4151FEF704F80020FEBD3046FEBDFDF7FEFFFAE70000640D0020FEB504460D4600201E49089E0860471E009001900290002C49
:4045000011D0486885420ED2002A0CD0002E0AD0642E08D808460C3001681C2068430C18207A002801D03846FEBD0120226020721846FFF7DDFE6060401C13D06681A68188
:404540000A4827610C3067610179A94200D205710021684601810A462846029B00F040F82846FEBD00202072DDE70000700D002038B50124009400F039F838BDFEB500270A
:40458000164EFF433D4600240EE01C20316860430818017A002906D04068FFF721FF002801D0254603E0641C3079A042EDDA681C12D01C2130684D434419FDF797FF694676
:4045C0006068FFF741FF0546FDF788FF002DD9D1216868468847D5E7FEBD00007C0D002038B50024009400F001F838BD1FB500220C49541E0A60002811DB496888420ED8DB
:4046000008491C220C31096850430818406801A9FFF7A0FE401C02D0002004B010BD2046FBE70000700D0020F0B50021114A4D1E174611710C3F0B46BD6016E008461C2448
:4046400060431668041D355114680646235014680836A3551468361DA353044616680A34335318301468491C255078688142E5D30020F0BD7C0D002038B5002100910028FE
:4046800011DB0F49097888420DDA0D4D04010C3529680859002807D0201D0818694600F06FF9002801D0002038BDFDF71FFF28680F34015D491E0155FDF710FF009838BDF1
:4046C0008C0D0020F7B582B0002502986E1E06602E48D21C024017462D4A2C4610460C380178106805E02301C358002B0FD0641CE4B28C42F7D3711C28D03401211D4018CF
:404700000191039900F02AF900281FD101E02646F1E71F48016820460C300F521C480399026820460E30115419480399026820460F3011540398784300F0A0F814490028E1
:404740000968085102D00024009011E001251AE00F48016801980818009900F02CF9002801D0012502E00098C0190090641CE4B203988442ECD3002D05D10298066004482A
:404780000179491C0171284605B0F0BDFCFF0000980D0020F8B50D4600216A468C461180002839DB23490978884235DA214B04010C3319680A59002A2ED020460C300B5A1F
:4047C000801C0E5C184670438018954224D3854222D2002006E007465F43BF18AF4206D0401CC0B2B042F6D36046002814D0114E271DC8190C366A46294600F006F90028B7
:404800000AD168460088012808D030682946C01900F0D1F8002803D00120F8BD0020F8BDFDF764FE30680F34015D491C0155FDF755FEF3E78C0D0020F8B50F46002400F0ED
:4048400031F8002817D10C4900220B460C334A600EE021011D680E466A501D680C36AA53B61C1D680F31AA551D68641C6A54E4B2BC42EED31A71F8BD8C0D002000280BD03D
:40488000C01C074A81085068890053884118994203D893685160181870470020704700008C0D0020F8B5064600200F4D009029700C0121466846FEF7BFFB00280CD1294611
:4048C0000C3100980860301B001F84B221466846FEF7B2FB002801D0FF20F8BD6C800098A8600020F8BD00008C0D0020F8B5002827DB19490978884223DA174C05010C3413
:404900002168485900281CD028460C30085A009028460E300E5C401C0E5420682F1DC01900F064F800280CD12068002445590EE0094829460C300068C01900F03CF800280A
:4049400001D00120F8BD00982D18641CE4B2B442EED30020F8BD00008C0D002030B50D4604000BD0A800FFF789FF6060002805D000202570C0436080002030BD012030BDAB
:4049800070B50D46040005D0002D03D00220205E002801DA012070BDFDF7A8FD0221615E60688900405828606088401E6080FDF795FD002070BD70B50D46040007D0002D50
:4049C00005D002212078615E401E814201DB012070BDFDF78BFD6088401C00B26080616880000D50FDF77AFD002070BD10B5040009D0227800216068FEF73AF80020C043FE
:404A00006080002010BD012010BDF0B500231D46002802D00224045F0AE00120F0BD46689F00F6598E4201D1012503E05B1CDBB29C42F4DA15700020F0BD0000014800784B
:404A400070470000A00D00207CB505460024FEF74BF8A8796946087000A8062229460130FDF7FDFF0021684604F0AEFF0C2806D0072806D01F2806D0122806D006E002247A
:404A800004E0042402E0272400E0012420467CBD01480121417270477016002010B502280BD0032802D0042809D102E000F094F905E000F03FFAFF2801D100F04FFAFFF73C
:404AC000DBF9FFF7E7F910BD10B500F077FAFFF7D3F9FFF7DFF910BD70B504460025FEF703F8002C06D0A079012803D8214602F0F3FD00E00125284670BD0146012000299E
:404B000002D05020088000207047000001460120002905D003485422007850430880002070470000A20D002010B502460D49FE204870032410460DF057FA002810D10DF06A
:404B4000FBF900280CD105F01BFD002808D100F045FC002804D105F0DDF9002800D10024204610BDA00D002002480021018280210180704700102E4010B5FF240DF0ACFA48
:404B8000002804D10DF0D8F9002800D1002403490020486002494872204610BDA00D00207016002070B50025044600280ED0A07901280BD8FDF798FFA0790028204602D08B
:404BC00003F066F903E003F03BF900E00125284670BD0000014610B50120002904D006220248FDF73CFF002010BD0000AC0D002001460120002903D0087802490870002060
:404C000070470000A20D002010B5FFF735F9012801D1FFF737F910BD0148007A704700007016002038B504460120002C20D0617801291DD800290BD0FF25E535FDF754FF02
:404C40000C4828180088C0B22070072803D00EE0FF25CD35F2E70020694608706846FFF72DF969460878012801D108202070002038BD000000102E40014A002192681047E4
:404C8000A00D002008B500226B461A7026280CD0094A342852680BD0352805D1900703D50021352005F050FD08BD19462620F9E7D007F9D03420F5E7A00D0020014908729A
:404CC0007047000070160020F8B504460120002C26D06178012902D92278092A20D8002905D0FF25E5352078092803D004E0FF25CD35F8E708202070FDF7F6FE2078114F21
:404D0000114E08280DD00020FFF71AF970780128207810D00D4969180880FE2070700020F8BD0120FFF70CF90720B8810549203188800120F2E7B881024821782030818099
:404D4000EBE70000C0112E40A00D002000102E4070B50E46050001D0002400E00C4C002C11D0E28A500609D5D107C90F022003F02DF9E08A40218843E08204E0D107C90F08
:404D8000012003F023F93146284602F001FE70BDD0150020F8B50546002004460D4E009013E022466946284601F002F90098002801D00DF0FBF8A878214602F0CBFBA8782A
:404DC000214602F0B9FB641CE4B2308AA042E8D8F8BD00009C160020F8B54E4CFFF74CF8012847D14C480078002843D002F058FD00283FD004F08AFA00283BD0474E7078FE
:404E0000C00703D000F01CFD012833D0307E00287DD17078002500285BD0000706D540488089070B00F02EF9384370D13B484178684604F0C1F821793A4CA2788918C9B2DA
:404E4000814262D802F02CFD002860D0344860300789324E203602F06DFB6846008802F097FB02F033FC30490988884203D10120FFF740F84BE02D49012008702748807B80
:404E800000281DD0002F1BD04036F07E002817D123486030008821494000C031498981420AD26078002807D103F0BEF82049088A03221202104308822078002800D0257089
:404EC00002F09CFB0120FFF70FF800F025FC174C15E002F0E5FC002819D0102402F0F6FB214602F0DFFA02F053FB104C0120207002F084FB0020FEF7F7FF00F00DFC20781B
:404F00000128B4D1FEF784FF25700020F8BDFF20F8BD0000A8150020300D0020B0150020A0102E40C60D0020D80D0020B20D0020E0112E4010B50848FF244078002809D1A8
:404F400002F0AEFC012805D1FEF770FE0720FEF7D1FF0024204610BDB015002038B5FEF78BFF012801D0002038BD02F099FC00280AD0114C6078C00703D000F061FC0128C2
:404F800002D0207E002801D0FF2038BD617800290FD0684604F010F8022806D96846008802F0F6FA012002F033FB0320FEF7A2FFD9E70020F7E70000B015002038B51E4CD4
:404FC000FEF75AFF042813D0052811D0062812D003282AD007280AD100206946087002460120FEF741FEFEF747FF0128FBD138BD00F0B2FB38BD02F023FB00F0ADFB02F0D2
:405000009FFB8007800F0228F4D10C4841880029F0D05B21095D0029ECD101210170A07D0140022002F0D2FF38BD02F00DFB0120FEF760FF38BD0000D0150020C60D0020DC
:40504000F8B50646002403F02FF80546304603F045F803460A480021068A0DE001228A401046174628401F40002803D0002F01D1224394B2491CC9B28E42EFD82046F8BD2F
:405080009C16002070B500252C460A4E03E0002C01D0002000E030460079002803D02046FFF7CEFF0543641C2406240EEFD0284670BD0000D01500201CB50020694648703C
:4050C0006846FFF7AFFD01AA69460A20FEF7CCFD6946042008561CBD70B50D4601F048FB04000BD02079002808D0FDF7FDFCE178A0782A4602F0D2FC002070BD022070BDC6
:405100000148007870470000A81500204030C07E002800D00120704700B500F001F800BD902148430749084A40186030417F491CC9B24177D289914201D300214177C8B2CE
:4051400070470000B01500209C16002013B501F00FFB04000BD001F0ACFE002807D0214601AA0A310620FEF77FFD00201CBD02201CBD000010B50C4601F0FAFA00280AD0AF
:4051800001F097FE002806D0224604490A20FEF76BFD002010BD022010BD000091150020F3B581B0074601460026029802F074FF0446002F01D0002500E0154D002D21D02C
:4051C000284601F00BFB032C04D13946029802F0BFFF06463846029902F0AEF9032C06D0002C10D00121384601F0FEFB03E03146384603F0ABF9284602F08CF80221284600
:4052000002F0A2F8FEBD3846029902F095F9FEBDD015002010B5044600F066FA002804D103F05EFE002801D00C2010BD2078611C02F036FDFF2801D01F2010BD02F07CFD88
:40524000FF280AD02178621C02F0FEF8044821780068026B601C904710BD072010BD0000EC0D002010B503F03BFE002801D00C2010BD02F0F7FC03480068C06A80470020BB
:4052800010BD0000EC0D002070B50D46044610210CF0CCFD1021601806460CF0C7FD334610221946204603F049FE102130460CF0BDFD02202870204604F062FD70BD0000F4
:4052C000F8B504464078217802028006870FE0781143A67809050002090D0643084601F047FA00210546F2B2002812D0002C10D0022F0ED0032F0CD0002A0AD00279092A98
:4053000007D0002A05D0134A5A23527E1B5C9A4207D82889002104F068FC20460CF046FEFF21002914D10C48224600682946436930469847C0B2FF280AD128464030817ED8
:40534000F2B2491C8176FF232146284600F0E3F8F8BD000068150020080E00200020704710B5044603F0BCFD002801D00C2010BD2078611C02F094FCFF2808D002F0CCFB10
:40538000044821780068426B601C904710BD1F2010BD0000EC0D002010B500F06BF904F0B9FD002010BD10B5044600786178E2780843A17811430843217908436179084337
:4053C00005D003F07FFD002803D00C2010BD122010BD204602F05CFD002010BD10B5FDF7A9F802F083FE044803F0DEFE02F09EFB012000F003F810BD78150020F1B586B003
:4054000003A8009005A8019028489F22817A114081726846FDF79CFB002845D169460989C90705D0224806990068C2686846904769460989890706D5002835D11D4800685F
:40544000816A0698884700282ED11B4E0025757075737571F575357675767575B570F570B5713746F5730120D03738731F20F880FF2130467972A0300176457600F0F0FA06
:4054800000242046069901F0BFFC002803D1641C2406240EF5D0FD720749BD72B573C0310D704D704D600D7207B0F0BD68150020080E0020EC0D0020B015002070B5054668
:4054C0000E46084602F0F0FD0446304602F006FE0121A9400A46224001400A4301D0012070BD002070BD10B50446084602F0F6FD0121A140014201D0012010BD002010BD8A
:4055000010B5FEF7B9FC032804D102F09DF80120FEF7F0FC10BDFEB51C4616460F46054601F0F8FEA878FFF7F7FD02460190334639460094284600F00DF8002808D1A878BB
:405540000199FFF705FCFF2C02D138460CF02EFDFEBD0000FFB585B005460E980C46FF2810D02B49C00009680A5840180179C0795278814201D9012601E09006860F6846AF
:40558000038108E06078A1788006860FE0780002014368460181284601F096FC070007D021462846079A00F097FC384609B0F0BD304600F045FD04AE0346039002AA2946A8
:4055C0000096204600F0D1FB3C20405D002818D0284601F079FC012813D0684600890096C0B20190A878231DFF22079902F084F968460089039BC2B2A878079902F0C4FCEF
:40560000D3E7684600890021C0B20091E9E70000040E0020F8B5002600253046FFF710FD07001DD090201149704340186030447F12E0601CFDF7E8F8CCB23846E040C00761
:40564000C00F07D02146304601F06CFF21463046FFF7A6FD6D1CEDB20548018AA942E8D8761C3606360ED7D0F8BD0000B01500209C16002010B502F059FA0020FFF7BEFE29
:405680000CF02AFD002010BDF8B5002400F0D2F80123012800D10124104F00203E4620360425082203E0002801D0002100E031460979002907D001290BD002290BD0114628
:4056C00081402143CCB2401C0006000EEBD07C70F8BD1C43F7E72C43F5E70000B015002010B5FFF7D1FF10BD10B5044604F064FD002802D1601C00F001F810BD1CB50024F0
:405700000094062269460194FDF79AF9002800D1122420461CBD000070B50E4CFCF7D1FD0546FEF7A9FB062802D02078012803D02846FCF7CAFD70BDFCF736FB2846FCF7E2
:40574000C4FDFEF799FB0628F5D020780028E5D170BD0000B20D002010B5FCF7B2FD0446FEF78AFB012809D0FEF786FB022805D0FCF71AFB2046FCF7A8FDEEE72046FCF794
:40578000A4FD10BD10B50B4681791943817103D08078114602F0C6FB10BD10B582798A43827102D1807802F0D1FB10BD30B50C4C0220A28A0B4B9978002901D0022906D1B7
:4057C0001D785B78EB18282B01D9032002E0032900D101205105490DC0020143A18230BDC0112E40BC0D002000B500F029F8002807D0012805D0032801D0042801D0002028
:4058000000BD012000BD014600B50020C90701D000F010F800BD014600B50020C90701D000F008F800BD00000148006870470000B40D002001480088000A704720102E4078
:405840000448008B410501D5042070474007800F7047000000102E4010B501F037FF044601F07EFF0146204601F058FF10BD00000148406870470000B40D002038B5044629
:40588000000610D5FFF7DCFF01280CD1684601F0EBFE6846007800F023FB012001F0A2FD0220FFF71DFF600708D507480179012904D1002101712620FFF7E4F9034800681A
:4058C00001692046884738BDC00D0020EC0D002070B505460C49007800240870FFF7AAFF012803D1FFF7B8FF022803D3284602F03BFA07E0284600F0EBF8040002D103480D
:4059000001210170204670BDBC0D00207016002070B50446FFF78EFF002801D00C2070BDA27B01211F48002A827801D00A4301E05208520082706279012A14D0C178490893
:405940004900C170184D2868016820468847207901280CD06188208803F074F82080207904280FD015E0C2780A43C270EAE72868C168E01D8847E01D02F076FA0B48808C86
:40598000208006E02868C168E01D8847E01D02F06BFA074920798870204602F0F3F9002070BD0000B0150020EC0D002068150020BC0D002008B50178FFF73CFF814201D196
:4059C0000C2008BD002914D0072069460870FFF70BFF012807D10121684600F0D9F8012801D0092008BDFFF7E1FE02F0FFF9012011E0FFF7F9FE012806D1684601F034FE52
:405A00006846007800F0A0FA02F0E6F9FFF712FF0028FBD10220FFF763FE002008BD000070B505460C49007800244870FFF702FF012803D1FFF710FF022803D3284602F01A
:405A400051FA07E0284600F05DF8040002D1034801214170204670BDBC0D00207016002038B568460CF038FA002801D01F2038BD01210098C902018041800025057145711C
:405A8000857107214173857302F07CF9009C202200212046FCF7ECFF25702A460021601CFCF7E6FF204602F05FF9204602F01AFA00980CF07BFA062200210448FCF7D8FF74
:405AC00002480C388560002038BD0000C00D0020F8B504460025684600950CF0FDF9002801D007250AE0064E009830602278611C401CFCF7B4FF3168207808702846F8BD70
:405B0000B40D0020F8B504460025684600950CF0E3F9002801D007250AE0064E009870602278611C401CFCF79AFF7168207808702846F8BDB40D00200346084800B5834283
:405B400009D8184600F014FE002804D00089984201D1012000BD002000BD0000FF0E0000074A9179491C8906890E917138220A4092014907090E114308430249084070477C
:405B8000B0150020FF0E0000C006C00E70470000F8B507460E4600240D4803E0002C01D0002500E005462979002905D0641C2406240EF3D00020F8BD0021204601F024F908
:405BC0002E712046FFF7CCFF28813C700120F8BDD015002010B503F0E5F90222002100F003F801F04FFF10BD10B5094B40074907000F090F185A595A40185043C0086421A9
:405C0000FCF702FE002800D1012080B210BD0000C44C0100F7B53D20405C88B015460C46002802D02878042802D200200BB0F0BD6946087200262046FFF768FA012800D095
:405C40000126204603A938300191009023460327A17E34333246206A03F0C0FA02A8089900900B46019120463A4603A9243003F045F902466846007A2870204601F0B0F8BD
:405C80001046D3E7FFB587B00C4605461078694608723D20005D1746002826D000262046FFF734FA012800D00126204603A93830019100902346A17E34333246206A03F016
:405CC0008DFA02A80090291D019120462B1D03A924300A9A03F012F902006846007A388002D1204601F07CF810460BB0F0BDF0B505463C20405C89B016460C4600280CD0AA
:405D0000307869460873002806D000272046FFF7FDF9012803D003E01F2009B0F0BD012703200890204604A93830019100902346E17E34333A46E06903F050FA6846007BB8
:405D400003A928180290009120462B46019504A92430089A03F006F902466846007B3070204601F047F81046D7E7FFB505463C20405C89B016460C46002810D0084601F032
:405D8000A3F801280BD0308869468883002809D000272046FFF7BAF9012805D005E000200DB0F0BD0220FBE70127204603A93830019100902346E17E34333A46E06903F07B
:405DC0000DFA291D2B1D07A8129A6D4607C5204603A924300C9A03F0C5F802466846808B3080204601F006F81046D9E770B50D460446FFF78BF901280AD0E87AA97A000296
:405E00000143A07801F02AFD012808D0002070BD00222421204602F067FD242070BD28214C200155204600F0B1FB282070BD0000002801D0002000E003484030C07F01286E
:405E400000D0002070470000D01500200146002049070ED50021084B03E0002901D0002200E01A461279022A04D0491C0906090EF3D0704701207047D01500200146002055
:405E800049070ED50021084B03E0002901D0002200E01A461279022A04D0491C0906090EF3D0704701207047D015002010B5044680346068002803D00CF08CF800206060A9
:405EC00010BD4030417070474030817070474030017070470171704792001018C166704770B53C2501F096F9040004D020460021433001F053FCFF222946204600F0E2FBB1
:405F0000002C02D0A07801F007F970BD10B5002801D0002000E00348002802D0008903F0ABFE10BDD015002010B5002801D0002000E00448002804D00179072901D100F0C1
:405F400047F810BDD015002010B501F063F9002802D0807801F0E0F810BD00207047000070B50546008A00281ED01049F122897A1140C90618D5294640314A8A098A521C5E
:405F80004A4392B2D10800D10121540801E0621A94B2A042FBD9FEF751FD012804D1298AA878224601F030FD70BD00006815002010B50023054C0B60248A944204D9920094
:405FC0001018C26E0A60C36610BD00009C16002038B5044600200090A079002814D14020015D052901D00E290ED168460BF084FF002809D12046009902F054FC034810214C
:40600000C28A2046FFF7BEFB38BD00006815002010B50B4604460146184602F0CDF8002802D020460BF0CCFF10BD13B5044601AA11460620FDF718FE6846818861811CBD08
:40604000002800D10220704770470000F8B504462346401D543300909A1EA078911E01F01FFB25464035A88A298A8000FCF7CCFB401E81B2688A884203D96982A07801F01D
:40608000DFFF698A8C20015120460021433001F085FB27480088E88102F084FFE989891C8AB26179FFF7A0FD01F0ECFC02F07AFF2A8A6179FFF798FD074601F0D7FC688AB1
:4060C000002806D01B49088A032212021043088202E0002001F0A8FF1648803801886E8A002E0CD0304648431349FCF777FC0004000C01D0401C80B21049488002E00F48CF
:4061000000214180288A704381B2A07801F0F8FEFF2228374932B9B21346204602F096FCE98AA07801F06CFEA07801F025FAF8BD80102E40E0112E4071020000C60D0020B7
:406140007FB504468034616805460E46183108226846FCF784FC31462031082202A8FCF77EFC102168460BF061FE6068102108300BF05CFE60682B46083024331022694680
:4061800002F0DCFE7FBD10B504460821FFF705FB10212046FFF701FB207905281FD006281DD008281AD12189002003F0DDFC072020712046FEF7AAFF01462046403001299C
:4061C00013D00E21017000210176204600F0B6FF2046FFF76BFE2046FFF7C2FE10BD20890122002103F0A4FCE1E70521EAE70000FFB581B01F4604460821FFF7CEFA1021E0
:406200002046FFF7CAFA2079082803D0092804D0042203E00422012501E009220025204600F03EFE264600204036307022712046FFF73CFE0398002D02D0012808D00BE034
:4062400001280AD120890022029903F071FC04E02189029803F088FC012700203076012F04D0204600F06AFF05B0F0BD02983073204602F065FB054605480121C28A204641
:40628000FFF780FA002DEFD109202071ECE700006815002070B50C460546FEF737FF012809D108212846FFF778FA0023012221462846FFF79DFF70BD10B5044600F0F0FDA2
:4062C0002046FFF7F3FD00214034217010BD70B505461A24FEF71AFF012809D108212846FFF75BFA0023012221462846FFF780FF70BD0000F8B50446002000900E46684658
:406300000BF0FAFD002801D00D20F8BD8420005908212030009D00F026FA20460421383000F021FA002E02D1204600F0F5FD2946204602F046FA0E480821C28A2046FFF7F8
:4063400021FA204600F06BFF25464035002808D0204600F023F8002801D0092028700020F8BD08202870204600F0D4FFF7E7000068150020014610B540310A46097808297F
:4063800006D0092907D00A2901D100F091F810BD0B20107010BD00F001F810BD70B50446007925464035052805D0062803D008280FD00C2070BD03220621204602F094FA20
:4063C0000D480821C28A2046FFF7DCF91120287010E006202873204602F0B2FA0646AA8A0A20424301212046FFF7CCF9002E01D109202071002070BD6815002038B50446D7
:406400000020009068460BF077FD002801D00D2038BD2046009D00F0BDF908202071204600F07AFD2946204602F0FEF900213D2001550F2040210855204600F06BFF0020E6
:4064400038BD00B5024600F02BFD10214032117000BD10B50446FEF759FE012809D04020005D112805D100231A4606212046FFF7BFFE10BD10B5FFF786FE10BD38B5044635
:406480000021684600910BF037FD00280CD12046009902F04AFA05480821C28A2046FFF771F90D204034207038BD00006815002038B504460021684600910BF01DFD0028F4
:4064C00001D00D2038BD2046009902F023FA05480821C28A2046FFF755F90C2040342070002038BD6815002000787047F8B5002569460D70002801D0002400E01F4C002C8C
:4065000018D0204600F0D5FC002813D0207903280BD005280CD026464036B18AA07801F0F9FCB078012806D01DE0042020711DE006202071F8BD0021204601F05AFE2746FF
:4065400080373868002802D00BF044FD3D600020B0702079072802D12046FFF701FD0221204600F0F1FE20790428E3D1207A694608703420FEF786FBF8BD0000D015002096
:4065800010B54C22115400F04CF810BD10B50446FF21FFF702F909202071A07801F0E0FC10BD000038B5FF216A461180002801D0002400E0084C002C0DD011460620FDF79D
:4065C00053FB684601882046FFF72FFD03480068C1692046884738BDD0150020080E002010B504468079002809D022214C200155FF212046FFF7D1F8204600F012F810BDCC
:4066000010B5037902464032002B03D01173092B02D003E0002100E02221117300F001F810BDFEB504460089002700902781207926464036002817D0012815D002280AD1F4
:4066400012E002AA01A9204601F0A4FD002807D101980BF0B5FC204601F0C4FD0028F0D02046FEF797FBB776254680352868002802D00BF0AFFC2F606868002802D00BF0D7
:40668000A9FC6F60317B002919D0009800F064F8A078002100F092FF2046FFF79BFAA07801F0C6F8A07800F037FDFF212046FFF774F80B20FFF714F800F068FCFEBD1F21B2
:4066C0003173E2E7F8B517460E46054602F066FC04003CD020460C3001F050F82046062200211830FCF7C4F92046062200211230FCF7BEF91648224600683946436A28463B
:406700009847074626702846FEF700FD012148406070002D10D02889608028464030C1782171002E0FD169796171018AE180418A2181808A608106E00648008BC005C00F1D
:406740002071002060803946204603F090F9F8BDEC0D002000102E400A4610B50146002003F0A2FA10BD10B50BF03CF910BD000000B50146FFF708FA002801D0002000E054
:406780000348002802D002898A4200D0002000BDD015002038B5044680346068002806D168460BF0B9FB002801D100986060606838BD000010B5014600F086FB01288878C7
:4067C00002D0FEF7ADFC10BD90214843024940186030007F10BD0000B015002070B5054604464035A87F012811D1A1789020084A484380186030067F3046FEF75FFE002818
:4068000005D10220A877A078314601F0CBF870BDB015002010B50C4CA07A002813D0FEF7F9FE0A48027F417F408B00F0B7FB012809D10020A07200F02DFF05498989090BF9
:4068400001D000F03BFA10BD80160020B0150020A0102E4070477047490510B5490F0B00FCF724FB060704080C0C0F073E21FFF787FE10BD0821FFF7C3FE10BDFFF7D1FE46
:4068800010BDFFF7ADFE10BDF8B507460025002D01D0002600E0204E00F0A6FE3046403044890021418100F0C3FE304600F001FB01282BD1A00702D52846FFF717FEE006CD
:4068C00002D52846FFF76EFEA00601D5FEF7A2FE600601D500F014FB200602D5284600F01DF8600702D5284600F02CFA380402D52846FFF719FB780402D52846FFF706FB30
:40690000E00703D021463046FFF7A6FF6D1C2D062D0EBCD0F8BD0000D0150020F8B5002801D0002400E0284C002C4BD025464035A878012846D1FF278820493700593E4618
:40694000002805D02149897A890601D5878AC68A2046FEF7DBFB012834D002F023FB2A8A6179FFF741F9009001F080F800983346283081B23A46204602F068F8E98AA07863
:4069800001F03EFA12480188688A124E002810D048431149FCF722F80004000C01D0401C80B27080A07DC107C90F002001F00EFB01E000207080288A698A484381B2A078DD
:4069C00001F09EFAF8BD0000D01500206815002060112E40C60D0020710200000149096809680847080E002070B50D460026194A0146002801D0002401E014462034002CA1
:406A000026D0204600F060FA01280AD19020484380186030007FFEF751FD002801D101F00FFF0D48006881692046884700280CD020464030817EA94202D3491B817600E0DE
:406A400086762089294603F0D0F8204600F062FC70BD0000B0150020080E002070B503460088FFF785FE040013D000F022FA00280FD02079092819D02546997840352973A2
:406A8000204601F05DFF0646A878012803D0AA8A02E0022070BDEA880A20424301212046FEF770FE002E01D109202071002070BD0EB5002217216B460292198100905A81DC
:406AC0000120029B00990BF025FB0EBDF8B518480024807A002822D1164E0025B089000B22E0204600F074FE1249A039401807882A462146384600F051FA012810D00E4872
:406B00000122478305770A4944778A72002D01D0002000E02030002801D000F0FBFBF8BDB089000B641CE4B20028DAD1F8BD000080160020A0102E40B015002010B5008818
:406B4000FFF716FE002809D0014640310C460978082905D00B2903D00C2010BD022010BDFFF71CFC002801D009202070002010BD70B503460088FFF7FBFD040008D02546B2
:406B800040352878082805D00B2803D00C2070BD022070BD8420005910220830991CFBF75EFF2046FFF7CCFA2878082804D02046FFF77EFC002801D00A202870204600F0F5
:406BC000A9FB002070BD000010B50C46002121700088FFF7CDFD03000BD000F06AF9002807D00948F121807A0840C00603D4112010BD022010BD022020701A8A188900211C
:406C000003F06EF8002010BD68150020F8B50F46002100910088FFF7ABFD040012D000F048F900280ED0E079410641D4617E02264A07002A08DB8907402500291ADA2843E3
:406C4000E07135E00220F8BD02F0A8F90021017021894180A1898180217E4170E189C1803E7005460178134802F014FD284602F0DBFF1DE0204600F02DF9012806D06846F1
:406C80000BF03AF9002803D00720F8BD2A20F8BDE07900992843E071204601F07BFE607E0421304360760448C28A2046FEF76AFD0020F8BD1D040000681500203EB5002204
:406CC0000F236C460292238100910190628169460EC900200BF01EFA3EBD0000F8B50F46054600F097FA040025D003202071254600264035EE76E6702046FFF7A7F901F097
:406D00006BF80920FEF7ECFCA07800F07FFD0121204600F019FB2E706E70AE703A4600212046FFF7CFFC0649887B401C8873A078FFF754FEF8BD284601F012F9F8BD00009B
:406D4000B015002010B5002801D0002000E0094800280DD0014640310A464978022901D100215170807DC107C90F002001F02EF910BD0000D015002070B503460D46008882
:406D8000FFF7F6FC04000BD000F093F8002807D01248F121807A0840C00603D4112070BD022070BD20464030418A008A491C41430804C10C5888884201D2122070BD20822F
:406DC0002079072802D12046FFF7CAF8022028702089002102F0ACFF002070BD68150020016A491C016204D1817E491C4906490E81767047C169491CC16104D1C17E491CE5
:406E00004906490EC1767047F0B5074687B003A8009005A800260D460190002F01D0002400E01B4C002C05D06846FBF791FE002803D00BE0022007B0F0BD68460089C0079E
:406E400004D1902200212046FBF712FE114829460068826820469047050016D1A77066762746267140373E70204600F019F8204601F0B4F9084820820848BE77807AF121B5
:406E8000084000D001202075E682E8B2D3E70000D0150020080E0020B80B000068150020002101628176C161C17620300177417770470079002805D0012803D0022801D035
:406EC00001207047002070474030807F002800D00120704740300078002807D0012805D0052803D00E2801D0012070470020704710B5807801F0F2F8002800D0012010BD8B
:406F000010B500F0C7FB03498989090B01D0FFF7D5FE10BDA0102E4070B5054604464035A87F002825D1FF206075A0789021154A484380186030417F9023491CC9B2417795
:406F4000A0785843104B8018DB896030994201D300214177A0789021484380186030467F0677A1783046FEF7A9FA002802D00120A87770BD0220A877A078314600F012FDD4
:406F800070BD0000B01500209C1600200020401C0006000EFBD0002070470000F0B515468207920F85B0000A02926A469080002D01D0002400E0564C002C28D0084600F0F8
:406FC00007FC07466846808800280BD00298012843D0022841D003280BD03D20005D012879D08FE04B48381801882046FFF71DF888E00020029002A80AF05EFF002807D0DF
:407000003D20005D012802D12046FFF7E9FE7CE06846029E8388324600213846FCF718FD3C48381801882046FEF7FFFF284600F0B5FA01AA21463046FEF7ECFD002806D05C
:4070400030460AF0A9FF3D204C21085531E0F5773146204601F02AFA57E0002000902089039068460AF018FF002802D0002005B0F0BD6846009E8388321D00213846FCF7CC
:40708000E7FC2448381801882046FEF7CEFF284600F084FA2046FFF70CFF002805D025464035287E002810D107E030460AF06AFF2BE02046FFF76AFA27E001AA2146304697
:4070C000029BFEF7DFFD002806D030460AF05AFF3D202873EDE712E00298FEF7B5FF0399317003990001090A0143717068468088B070000AF0703046FFF7DAFC05E020467B
:40710000FFF76EFE284600F049FA0120AFE70000D015002000102E4010B5074A917B002901D0491E91730021FFF76EFE002801D0002010BD012010BDB0150020F8B5074655
:4071400006464037B87F00282DD0B078902100904843234945186035287F0099FEF7C3F901281ED0287F401CC4B21E48C089A04200D800240020B877FF276F772F77A87770
:4071800002460146009800F079FD717DFF2903D0304600F0E4FF777501F052FB0025114F19E00320B877F8BD00200090224669463046FEF7FDFE0099002904D0FF231A461C
:4071C0003046FEF7A8F9641CF889E4B2A04200D800246D1CEDB2F889A842E5D8F8BD0000B01500209C16002010B502460021084B03E0002901D0002000E018460479944243
:4072000004D0491C0906090EF3D0002010BD0000D015002000B50120FFF7E6FF00BD10B5044601F0BBFE2189018080346168416061682831816002F0B1FC10BDF7B5064663
