:040000005DEF00F0C0
:100008004782FACF06F0FBCF07F0E9CF08F0EACF36
:1000180009F0E1CF0AF0E2CF0BF0D9CF0CF0DACF3C
:100028000DF0F3CF0EF0F4CF0FF0F6CF10F0F7CFBE
:1000380011F0F8CF12F0F5CF13F047C014F048C014
:1000480015F049C016F04AC017F0F2AC0CD00E01FA
:10005800C5B3CDA303D0AFEC03F005D0C5B1CDA196
:1000680002D05FEC00F017C04AF016C049F015C086
:1000780048F014C047F013C0F5FF12C0F8FF11C0D4
:10008800F7FF10C0F6FF0FC0F4FF0EC0F3FF0DC05E
:10009800DAFF0CC0D9FF0BC0E2FF0AC0E1FF09C0BC
:1000A800EAFF08C0E9FF07C0FBFF06C0FAFF479256
:1000B800110099EF03F00E01CD9196AEF9D0969EFE
:1000C800000E356E20EE03F02E50D9262F50DA227E
:1000D800DECF04F0DDCF05F004C0D9FF05C0DAFF9C
:1000E800010EDF6E000E2E6E000E2F6E120029B26A
:1000F800120027C02EF028C02FF027C0D9FF28C033
:10010800DAFFDF50346E20EE01F02750D926285050
:10011800DA22DECF30F0DDCF31F0050E2726000ED3
:100128002822450E271808E1000E2818D8A404D064
:10013800400E276E000E286E29902550271804E1DE
:1001480026502818D8B429829780020E356E1200DE
:100158009782020E356E120097AC05D02B2A040E3A
:100168003AEC03F01200D8904630056E4530046E24
:100178000450926E45A003D00B0E356E1200030E8C
:10018800356E120097AC05D02B2A040E3AEC03F01A
:100198001200978245C004F046C005F005C004F07F
:1001A800056A060E0416000E0516F00E0410456EBC
:1001B8000550466E4580010E326E020E356E1200F5
:1001C8003204D8B41AD030C0D9FF31C0DAFFDECF3C
:1001D80045F0DDCF46F020EE03F03050D9263150FF
:1001E800DA22DECF2CF0DDCF2DF020EE02F03050F9
:1001F800D9263150DA22DF50336E45C092FF45A030
:1002080003D0050E356E1200030E356E120097AC42
:1002180006D02B2A979C050E3AEC03F01200330601
:100228003328D8A40ED0050E3026000E3122342EE5
:1002380004D0000E3AEC03F012009782020E356EDD
:1002480012002CC0D9FF2DC0DAFFDF50926E2C4A65
:100258002D2A120097AC06D02B2A040E3AEC03F094
:10026800979C12009786080E356E1200080E356EA0
:10027800978612002CC0D9FF2DC0DAFF92CFDFFF7E
:100288002C4A2D2A010E335ED8B404D0979A060E54
:10029800356E03D0978A8DEC03F097881200000E14
:1002A8003AEC03F012002B2A060E3AEC03F0120087
:1002B8003550000AD8B41BD7010AD8B449D7030A65
:1002C800D8B47ED7010AD8B4A2D7070AD8B4E7D7DA
:1002D800010AD8B4BFD7030AD8B4C8D7010AD8B41A
:1002E800DED70F0AD8B4C6D7020AD8B435D7010A60
:1002F800D8B448D7D8D7A4EC03F059EC03F0010ED2
:1003080000016D6F020E6F6F010E6E6F6E0E606FE3
:10031800000E616F010E626F200E6DC023F0246A1B
:100328002310636F2450646F6F0E656F000E666F45
:10033800CEEC02F000016E696E0E606F000E616F08
:10034800010E626F200E6DC023F0246A2310636FC4
:100358002450646F6F0E656F000E666FCEEC02F06E
:10036800080E22EC02F00009D8B40FD085AC02D0F8
:10037800010E01D0000EFF0A236E233A23462346BE
:1003880085502318BF0B2318856E820E236EDE0E50
:10039800E82EFED7232EFCD7E3D71D6E29B039D01F
:1003A8001AC0D9FF1BC0DAFF020EDF6E20EE01F083
:1003B8002550D9262650DA2218C0DEFF19C0DDFFE5
:1003C80025C0D9FF26C0DAFF1DC0DFFF20EE03F0ED
:1003D8002550D9262650DA221AC0DEFF1BC0DDFFC1
:1003E800050E2526000E2622450E251808E1000ECA
:1003F8002618D8A404D0400E256E000E266E299229
:10040800255027180CE126502818D8A408D0298090
:1004180006D01AC0D9FF1BC0DAFF010EDF6E1AC062
:10042800D9FF1BC0DAFF020EDE18D8A4120002D0D2
:100438000E01CD813550D8B41200FAD70001686F8B
:10044800010E0001696F020E6C6F6851070B676F30
:10045800080E686102D0120E01D0130E6A6F6A0E80
:10046800606F000E616F010E626F200E69C021F08F
:10047800226A2110636F2250646F6C0E656F000E44
:10048800666FCEEC02F06B0E0001606F000E616FBC
:10049800010E626F200E69C021F0226A2110636F7D
:1004A8002250646F6C0E656F000E666FF3EC02F0FD
:1004B80067C021F06BC022F0212A02D0D8902232E6
:1004C800212EFCD72250010B1200000E876E000E61
:1004D800866E000E836E000E846E400E856E070ECB
:1004E8008C6E88688968BF0E8A6E8B68870E0F01CC
:1004F800216F19692669070E2E6F1169000E256F85
:10050800000E2D6F000E186F000E106F000E206F7A
:10051800000E2C6F000E0F6F000E176F000E1F6F6E
:10052800000E246F0E01B781B783B795B797B789C7
:100538000F0EFA6F100EFB6FB891B893B885B89785
:10054800B88912001DC01FF01EC020F0D8901F36B9
:10055800203618C0D9FF19C0DAFF1FC0DEFF20C03F
:10056800DDFF18C0D9FF19C0DAFF000EDB8020EECE
:1005780002F01850D9261950DA221CC0DFFF20EEED
:1005880003F01850D9261950DA221AC0DEFF1BC012
:10059800DDFF120029B01CD03B0E186E000E196E3C
:1005A80060C01AF061C01BF062C01CF063C01DF08F
:1005B80064C01EF018EC03F03B0E186E000E196EA6
:1005C80065C01AF066C01BF0010ED1EC01F01200F4
:1005D80065C0D9FF66C0DAFF010EDF6E120029B0D0
:1005E8001CD0360E186E000E196E60C01AF061C06D
:1005F8001BF062C01CF063C01DF064C01EF0A6ECC6
:1006080002F0360E186E000E196E65C01AF066C03C
:100618001BF0010ED1EC01F0120065C0D9FF66C0D5
:10062800DAFF010EDF6E12001DC01FF01EC020F0A1
:10063800D8901F36203618C0D9FF19C0DAFF1FC05E
:10064800DEFF20C0DDFF20EE02F01850D926195039
:10065800DA221CC0DFFF20EE03F01850D92619500B
:10066800DA221AC0DEFF1BC0DDFF1200036E97847A
:1006780020EE03F02E50D9262F50DA22DE50DE105D
:10068800D8B410D020EE03F02E50D9262F50DA22FD
:10069800DECF01F0DDCF02F001C0D9FF02C0DAFFE2
:1006A80003C0DFFF000E356E1200400E276E000EED
:1006B800286E400E256E000E266E29822990000EA7
:1006C8002B6E000E956E280E966E000E986E030E19
:1006D800936E0E01CD91CD93C581C5831200000E96
:1006E8000E01E16F000EE26F000EE36F000EE46F83
:1006F800000EE56F000EE66F1200620E0E01D86F55
:10070800000EDA6F000EDC6F050EDE6F200EDD6F57
:100718001200050E3026000E3122342E03D0040EAE
:10072800356E1200010E356E120000EE25F0220E15
:10073800EE6AE806FDE14790479200017FEF01F07D
:10074800B2EC03F073EC03F069EC02F081EC03F017
:1007580059EC03F012000E01CD931200F29A120028
:020000040020DA
:10000000FF0FFF0FFF0FFF0FFF0FFF0FFF0FFF0F80
:020000040030CA
:0C000000ECFFFFFF9FFFFFFFFFFFFFFF73
:00000001FF
