:040000005DEF00F0C0
:100008004882FACF2AF0FBCF2BF0E9CF2CF0EACFC9
:100018002DF0E1CF2EF0E2CF2FF0D9CF30F0DACFAC
:1000280031F0F3CF32F0F4CF33F0F6CF34F0F7CF2E
:1000380035F0F8CF36F0F5CF37F048C038F049C082
:1000480039F04AC03AF04BC03BF0F2AC0CD00E018C
:10005800C5B3CDA303D024EC04F005D0C5B1CDA120
:1000680002D05FEC00F03BC04BF03AC04AF039C018
:1000780049F038C048F037C0F5FF36C0F8FF35C042
:10008800F7FF34C0F6FF33C0F4FF32C0F3FF31C0CE
:10009800DAFF30C0D9FF2FC0E2FF2EC0E1FF2DC02C
:1000A800EAFF2CC0E9FF2BC0FBFF2AC0FAFF4892E9
:1000B80011000AEF04F00E01CD9196AEF9D0969E8C
:1000C800000E116E20EE03F00A50D9260B50DA22EA
:1000D800DECF28F0DDCF29F028C0D9FF29C0DAFF0C
:1000E800010EDF6E000E0A6E000E0B6E120005B2D6
:1000F800120003C00AF004C00BF003C0D9FF04C00B
:10010800DAFFDF50106E20EE01F00350D9260450BC
:10011800DA22DECF0CF0DDCF0DF0050E0326000E3F
:100128000422220E031808E1000E0418D8A404D0F3
:100138001D0E036E000E046E05900150031804E1B5
:1001480002500418D8B405829780020E116E12006E
:100158009782020E116E120097AC05D0072A040E82
:1001680076EC03F01200D8902330296E2230286EE6
:100178002850926E22A003D00B0E116E1200030EAF
:10018800116E120097AC05D0072A040E76EC03F026
:100198001200978222C028F023C029F029C028F035
:1001A800296A060E2816000E2916F00E2810226E4F
:1001B8002950236E2280010E0E6E020E116E12005F
:1001C8000E04D8B41AD00CC0D9FF0DC0DAFFDECFA8
:1001D80022F0DDCF23F020EE03F00C50D9260D508D
:1001E800DA22DECF08F0DDCF09F020EE02F00C5065
:1001F800D9260D50DA22DF500F6E22C092FF22A0BE
:1002080003D0050E116E1200030E116E120097AC8A
:1002180006D0072A979C050E76EC03F012000F060D
:100228000F28D8A40ED0050E0C26000E0D22102E75
:1002380004D0000E76EC03F012009782020E116EC5
:10024800120008C0D9FF09C0DAFFDF50926E084AD1
:10025800092A120097AC06D0072A040E76EC03F0A0
:10026800979C12009786080E116E1200080E116EE8
:100278009786120008C0D9FF09C0DAFF92CFDFFFC6
:10028800084A092A010E0F5ED8B404D0979A060EC0
:10029800116E03D0978AFEEC03F097881200000EC7
:1002A80076EC03F01200072A060E76EC03F0120033
:1002B8001150000AD8B41BD7010AD8B449D7030A89
:1002C800D8B47ED7010AD8B4A2D7070AD8B4E7D7DA
:1002D800010AD8B4BFD7030AD8B4C8D7010AD8B41A
:1002E800DED70F0AD8B4C6D7020AD8B435D7010A60
:1002F800D8B448D7D8D7416E05B039D03EC0D9FF59
:100308003FC0DAFF020EDF6E20EE01F00150D92661
:100318000250DA223CC0DEFF3DC0DDFF01C0D9FF3C
:1003280002C0DAFF41C0DFFF20EE03F00150D926FA
:100338000250DA223EC0DEFF3FC0DDFF050E012677
:10034800000E0222220E011808E1000E0218D8A49D
:1003580004D01D0E016E000E026E059201500318A6
:100368000CE102500418D8A408D0058006D03EC07D
:10037800D9FF3FC0DAFF010EDF6E3EC0D9FF3FC094
:10038800DAFF020EDE18D8A4120002D00E01CD81C9
:100398001150D8B41200FAD7000E876E000E866E80
:1003A800000E836E000E846E400E856E070E8C6EF6
:1003B80088688968BF0E8A6E8B68870E0F01216F67
:1003C80019692669070E2E6F1169000E256F000E38
:1003D8002D6F000E186F000E106F000E206F000EAC
:1003E8002C6F000E0F6F000E176F000E1F6F000EA0
:1003F800246F0E01B781B783B795B797B7890F0EEA
:10040800FA6F100EFB6FB891B893B885B897B88992
:1004180012000001676F67C068F0680E0001606F26
:10042800000E616F010E626F210E12C045F0466A20
:100438004510636F4650646F240E656F000E666F3B
:100448002FEC03F0690E0001606F000E616F010E62
:10045800626F210E12C045F0466A4510636F465020
:10046800646F240E656F000E666F0AEC03F00001DE
:10047800695112000001676F67C068F0680E0001DB
:10048800606F000E616F010E626F210E12C046F0A0
:10049800476A4610636F4750646F240E656F000EFD
:1004A800666F2FEC03F045C068F0680E0001606FBE
:1004B800000E616F010E626F210E12C046F0476A8E
:1004C8004610636F4750646F240E656F000E666FA9
:1004D8002FEC03F0120041C043F042C044F0D89022
:1004E800433644363CC0D9FF3DC0DAFF43C0DEFF87
:1004F80044C0DDFF3CC0D9FF3DC0DAFF000EDB8001
:1005080020EE02F03C50D9263D50DA2240C0DFFFF1
:1005180020EE03F03C50D9263D50DA223EC0DEFFE3
:100528003FC0DDFF120015EC04F0F28EF28C000ED5
:10053800AFEC03F0010E0001716F080EC6EC03F07A
:1005480085AC02D0010E01D0000EFF0A0001736FC6
:10055800733B7347734785507319BF0B7319856EC7
:10056800410E0001736FEE0EE82EFED7732FFCD7F5
:1005780000F0E6D700016E6F6BC03CF06CC03DF038
:1005880000016E51E6EC03F000016F6F6E5120EC34
:1005980004F000016D6F6F510DEC02F00001706FF7
:1005A8006DC03CF03D6A6AC03EF07051E4EC02F068
:1005B8000001706F70C045F06F513EEC02F0120000
:1005C800416E3D5021E1080E3C5CD8B01DD03E5034
:1005D800D8B40DD03CC03FF0010E406E3F2A02D087
:1005E800D89040363F2EFCD7405041120DD03CC029
:1005F8003FF0010E406E3F2A02D0D89040363F2E81
:10060800FCD74050FF0A41164150120005B01CD0DB
:10061800130E3C6E000E3D6E60C03EF061C03FF0B0
:1006280062C040F063C041F064C042F06FEC02F079
:10063800130E3C6E000E3D6E65C03EF066C03FF086
:10064800010E7FEC01F0120065C0D9FF66C0DAFF29
:10065800010EDF6E120005B01CD0180E3C6E000EA5
:100668003D6E60C03EF061C03FF062C040F063C0C4
:1006780041F064C042F054EC03F0180E3C6E000EDA
:100688003D6E65C03EF066C03FF0010E7FEC01F0A4
:10069800120065C0D9FF66C0DAFF010EDF6E1200D6
:1006A80041C043F042C044F0D890433644363CC081
:1006B800D9FF3DC0DAFF43C0DEFF44C0DDFF20EEB6
:1006C80002F03C50D9263D50DA2240C0DFFF20EE30
:1006D80003F03C50D9263D50DA223EC0DEFF3FC031
:1006E800DDFF1200276E978420EE03F00A50D9260A
:1006F8000B50DA22DE50DE10D8B410D020EE03F012
:100708000A50D9260B50DA22DECF25F0DDCF26F0AD
:1007180025C0D9FF26C0DAFF27C0DFFF000E116E03
:1007280012001D0E036E000E046E1D0E016E000EEB
:10073800026E05820590000E076E000E956E280E5B
:10074800966E000E986E030E936E0E01CD91CD93AA
:10075800C581C58312000001696F070E0001696534
:1007680002D0070E696F69C012F095EC03F0FF0E16
:10077800456E000E3EEC02F0FF0E456E010E3EEC9B
:1007880002F012000001726F00017105D8A402D0B6
:10079800010E01D0000E6A6F000E6B6F010E6C6FB8
:1007A8007251BEEC02F01200000E0E01E16F000E55
:1007B800E26F000EE36F000EE46F000EE56F000EAF
:1007C800E66F12003E6E070E3E6403D03DC03FF058
:1007D80002D03CC03FF0406A3F501200620E0E014A
:1007E800D86F000EDA6F000EDC6F050EDE6F200E7C
:1007F800DD6F1200050E0C26000E0D22102E03D000
:10080800040E116E1200010E116E120000EE01F0BE
:10081800240EEE6AE806FDE148904892000197EF41
:1008280002F027EC04F0D8EC03F0D0EC01F0F2EC85
:1008380003F095EC03F012003C6E3C50070B1200DD
:0A0848000E01CD931200F29A120087
:020000040020DA
:10000000FF0FFF0FFF0FFF0FFF0FFF0FFF0FFF0F80
:020000040030CA
:0C000000ECFFFFFF9FFFFFFFFFFFFFFF73
:00000001FF
